{
  "contractName": "Auth",
  "abi": [
    {
      "inputs": [],
      "payable": false,
      "stateMutability": "nonpayable",
      "type": "constructor"
    },
    {
      "constant": false,
      "inputs": [
        {
          "internalType": "address",
          "name": "_address",
          "type": "address"
        },
        {
          "internalType": "string",
          "name": "_name",
          "type": "string"
        },
        {
          "internalType": "string",
          "name": "_password",
          "type": "string"
        },
        {
          "internalType": "string",
          "name": "_cnic",
          "type": "string"
        }
      ],
      "name": "registerUser",
      "outputs": [
        {
          "internalType": "bool",
          "name": "",
          "type": "bool"
        }
      ],
      "payable": false,
      "stateMutability": "nonpayable",
      "type": "function"
    },
    {
      "constant": false,
      "inputs": [
        {
          "internalType": "address",
          "name": "_address",
          "type": "address"
        },
        {
          "internalType": "string",
          "name": "_password",
          "type": "string"
        }
      ],
      "name": "loginUser",
      "outputs": [
        {
          "internalType": "bool",
          "name": "",
          "type": "bool"
        }
      ],
      "payable": false,
      "stateMutability": "nonpayable",
      "type": "function"
    },
    {
      "constant": false,
      "inputs": [
        {
          "internalType": "address",
          "name": "_address",
          "type": "address"
        }
      ],
      "name": "checkIsUserLogged",
      "outputs": [
        {
          "internalType": "bool",
          "name": "",
          "type": "bool"
        },
        {
          "internalType": "string",
          "name": "",
          "type": "string"
        },
        {
          "internalType": "string",
          "name": "",
          "type": "string"
        }
      ],
      "payable": false,
      "stateMutability": "nonpayable",
      "type": "function"
    },
    {
      "constant": false,
      "inputs": [
        {
          "internalType": "address",
          "name": "_address",
          "type": "address"
        }
      ],
      "name": "logoutUser",
      "outputs": [],
      "payable": false,
      "stateMutability": "nonpayable",
      "type": "function"
    },
    {
      "constant": false,
      "inputs": [
        {
          "internalType": "address",
          "name": "_address",
          "type": "address"
        }
      ],
      "name": "getUserBalance",
      "outputs": [
        {
          "internalType": "uint256",
          "name": "",
          "type": "uint256"
        }
      ],
      "payable": false,
      "stateMutability": "nonpayable",
      "type": "function"
    },
    {
      "constant": false,
      "inputs": [
        {
          "internalType": "address",
          "name": "_address",
          "type": "address"
        }
      ],
      "name": "getUserName",
      "outputs": [
        {
          "internalType": "string",
          "name": "",
          "type": "string"
        }
      ],
      "payable": false,
      "stateMutability": "nonpayable",
      "type": "function"
    },
    {
      "constant": false,
      "inputs": [
        {
          "internalType": "address",
          "name": "_address",
          "type": "address"
        },
        {
          "internalType": "string",
          "name": "_ipfsImageHash",
          "type": "string"
        }
      ],
      "name": "setUserIpfsImageHash",
      "outputs": [
        {
          "internalType": "bool",
          "name": "",
          "type": "bool"
        }
      ],
      "payable": false,
      "stateMutability": "nonpayable",
      "type": "function"
    },
    {
      "constant": false,
      "inputs": [
        {
          "internalType": "address",
          "name": "_address",
          "type": "address"
        }
      ],
      "name": "getUserIpfsImageHash",
      "outputs": [
        {
          "internalType": "string",
          "name": "",
          "type": "string"
        }
      ],
      "payable": false,
      "stateMutability": "nonpayable",
      "type": "function"
    },
    {
      "constant": false,
      "inputs": [
        {
          "internalType": "address",
          "name": "_address",
          "type": "address"
        },
        {
          "internalType": "string",
          "name": "_name",
          "type": "string"
        },
        {
          "internalType": "string",
          "name": "_password",
          "type": "string"
        }
      ],
      "name": "registerAdmin",
      "outputs": [
        {
          "internalType": "bool",
          "name": "",
          "type": "bool"
        }
      ],
      "payable": false,
      "stateMutability": "nonpayable",
      "type": "function"
    },
    {
      "constant": false,
      "inputs": [
        {
          "internalType": "address",
          "name": "_address",
          "type": "address"
        },
        {
          "internalType": "string",
          "name": "_password",
          "type": "string"
        }
      ],
      "name": "loginAdmin",
      "outputs": [
        {
          "internalType": "bool",
          "name": "",
          "type": "bool"
        }
      ],
      "payable": false,
      "stateMutability": "nonpayable",
      "type": "function"
    },
    {
      "constant": false,
      "inputs": [
        {
          "internalType": "address",
          "name": "_address",
          "type": "address"
        }
      ],
      "name": "checkIsAdminLogged",
      "outputs": [
        {
          "internalType": "bool",
          "name": "",
          "type": "bool"
        },
        {
          "internalType": "string",
          "name": "",
          "type": "string"
        },
        {
          "internalType": "string",
          "name": "",
          "type": "string"
        }
      ],
      "payable": false,
      "stateMutability": "nonpayable",
      "type": "function"
    },
    {
      "constant": false,
      "inputs": [
        {
          "internalType": "address",
          "name": "_address",
          "type": "address"
        }
      ],
      "name": "logoutAdmin",
      "outputs": [],
      "payable": false,
      "stateMutability": "nonpayable",
      "type": "function"
    },
    {
      "constant": false,
      "inputs": [
        {
          "internalType": "address",
          "name": "_address",
          "type": "address"
        }
      ],
      "name": "getAdminBalance",
      "outputs": [
        {
          "internalType": "uint256",
          "name": "",
          "type": "uint256"
        }
      ],
      "payable": false,
      "stateMutability": "nonpayable",
      "type": "function"
    },
    {
      "constant": false,
      "inputs": [
        {
          "internalType": "address",
          "name": "_address",
          "type": "address"
        },
        {
          "internalType": "string",
          "name": "_ipfsImageHash",
          "type": "string"
        }
      ],
      "name": "setAdminIpfsImageHash",
      "outputs": [
        {
          "internalType": "bool",
          "name": "",
          "type": "bool"
        }
      ],
      "payable": false,
      "stateMutability": "nonpayable",
      "type": "function"
    },
    {
      "constant": false,
      "inputs": [
        {
          "internalType": "address",
          "name": "_address",
          "type": "address"
        }
      ],
      "name": "getAdminIpfsImageHash",
      "outputs": [
        {
          "internalType": "string",
          "name": "",
          "type": "string"
        }
      ],
      "payable": false,
      "stateMutability": "nonpayable",
      "type": "function"
    }
  ],
  "bytecode": "0x608060405234801561001057600080fd5b50600280546001600160a01b031916331790556115b3806100326000396000f3fe608060405234801561001057600080fd5b50600436106100f55760003560e01c8063477348921161009757806367a536541161006657806367a53654146106e957806398711c171461079f578063d84f55ee146107c5578063fe69c296146107eb576100f5565b8063477348921461053a5780634ad407a314610560578063589cdaa41461069d578063645cf80f146106c3576100f5565b806316caeb77116100d357806316caeb7714610224578063297f7b39146102bf5780632d9b3bf5146103ce578063434917af14610484576100f5565b806303bdb46b146100fa57806309df5060146101c4578063128c9f01146101ec575b600080fd5b6101b06004803603604081101561011057600080fd5b6001600160a01b03823516919081019060408101602082013564010000000081111561013b57600080fd5b82018360208201111561014d57600080fd5b8035906020019184600183028401116401000000008311171561016f57600080fd5b91908080601f0160208091040260200160405190810160405280939291908181526020018383808284376000920191909152509295506109af945050505050565b604080519115158252519081900360200190f35b6101ea600480360360208110156101da57600080fd5b50356001600160a01b0316610b3f565b005b6102126004803603602081101561020257600080fd5b50356001600160a01b0316610ba1565b60408051918252519081900360200190f35b61024a6004803603602081101561023a57600080fd5b50356001600160a01b0316610bdb565b6040805160208082528351818301528351919283929083019185019080838360005b8381101561028457818101518382015260200161026c565b50505050905090810190601f1680156102b15780820380516001836020036101000a031916815260200191505b509250505060405180910390f35b6102e5600480360360208110156102d557600080fd5b50356001600160a01b0316610ca0565b60405180841515151581526020018060200180602001838103835285818151815260200191508051906020019080838360005b83811015610330578181015183820152602001610318565b50505050905090810190601f16801561035d5780820380516001836020036101000a031916815260200191505b50838103825284518152845160209182019186019080838360005b83811015610390578181015183820152602001610378565b50505050905090810190601f1680156103bd5780820380516001836020036101000a031916815260200191505b509550505050505060405180910390f35b6101b0600480360360408110156103e457600080fd5b6001600160a01b03823516919081019060408101602082013564010000000081111561040f57600080fd5b82018360208201111561042157600080fd5b8035906020019184600183028401116401000000008311171561044357600080fd5b91908080601f016020809104026020016040519081016040528093929190818152602001838380828437600092019190915250929550610e38945050505050565b6101b06004803603604081101561049a57600080fd5b6001600160a01b0382351691908101906040810160208201356401000000008111156104c557600080fd5b8201836020820111156104d757600080fd5b803590602001918460018302840111640100000000831117156104f957600080fd5b91908080601f016020809104026020016040519081016040528093929190818152602001838380828437600092019190915250929550610eb0945050505050565b6102126004803603602081101561055057600080fd5b50356001600160a01b0316611013565b6101b06004803603606081101561057657600080fd5b6001600160a01b0382351691908101906040810160208201356401000000008111156105a157600080fd5b8201836020820111156105b357600080fd5b803590602001918460018302840111640100000000831117156105d557600080fd5b91908080601f016020809104026020016040519081016040528093929190818152602001838380828437600092019190915250929594936020810193503591505064010000000081111561062857600080fd5b82018360208201111561063a57600080fd5b8035906020019184600183028401116401000000008311171561065c57600080fd5b91908080601f016020809104026020016040519081016040528093929190818152602001838380828437600092019190915250929550611074945050505050565b61024a600480360360208110156106b357600080fd5b50356001600160a01b031661115c565b6101ea600480360360208110156106d957600080fd5b50356001600160a01b0316611210565b6101b0600480360360408110156106ff57600080fd5b6001600160a01b03823516919081019060408101602082013564010000000081111561072a57600080fd5b82018360208201111561073c57600080fd5b8035906020019184600183028401116401000000008311171561075e57600080fd5b91908080601f01602080910402602001604051908101604052809392919081815260200183838082843760009201919091525092955061124b945050505050565b6102e5600480360360208110156107b557600080fd5b50356001600160a01b0316611294565b61024a600480360360208110156107db57600080fd5b50356001600160a01b031661133b565b6101b06004803603608081101561080157600080fd5b6001600160a01b03823516919081019060408101602082013564010000000081111561082c57600080fd5b82018360208201111561083e57600080fd5b8035906020019184600183028401116401000000008311171561086057600080fd5b91908080601f01602080910402602001604051908101604052809392919081815260200183838082843760009201919091525092959493602081019350359150506401000000008111156108b357600080fd5b8201836020820111156108c557600080fd5b803590602001918460018302840111640100000000831117156108e757600080fd5b91908080601f016020809104026020016040519081016040528093929190818152602001838380828437600092019190915250929594936020810193503591505064010000000081111561093a57600080fd5b82018360208201111561094c57600080fd5b8035906020019184600183028401116401000000008311171561096e57600080fd5b91908080601f0160208091040260200160405190810160405280939291908181526020018383808284376000920191909152509295506113cd945050505050565b6002546000906001600160a01b03163314156109ca57600080fd5b6001600160a01b038381166000908152602081905260409020541633146109f057600080fd5b816040516020018082805190602001908083835b60208310610a235780518252601f199092019160209182019101610a04565b6001836020036101000a03801982511681845116808217855250505050505090500191505060405160208183030381529060405280519060200120600080856001600160a01b03166001600160a01b031681526020019081526020016000206002016040516020018082805460018160011615610100020316600290048015610ae35780601f10610ac1576101008083540402835291820191610ae3565b820191906000526020600020905b815481529060010190602001808311610acf575b5050915050604051602081830303815290604052805190602001201415610b3557506001600160a01b0382166000908152602081905260409020600501805460ff19166001179081905560ff16610b39565b5060005b92915050565b6002546001600160a01b0316331415610b5757600080fd5b6001600160a01b03818116600090815260208190526040902054163314610b7d57600080fd5b6001600160a01b03166000908152602081905260409020600501805460ff19169055565b6002546000906001600160a01b03163314610bbb57600080fd5b506001600160a01b03908116600090815260016020526040902054163190565b6002546060906001600160a01b03163314610bf557600080fd5b6001600160a01b03821660009081526001602081815260409283902060030180548451600294821615610100026000190190911693909304601f8101839004830284018301909452838352919290830182828015610c945780601f10610c6957610100808354040283529160200191610c94565b820191906000526020600020905b815481529060010190602001808311610c7757829003601f168201915b50505050509050919050565b60025460009060609081906001600160a01b0316331415610cc057600080fd5b6001600160a01b03848116600090815260208190526040902054163314610ce657600080fd5b6001600160a01b03841660009081526020818152604091829020600581015460048201805485516002610100600180851615919091026000190190931604601f810187900487028201870190975286815260ff909316959194930192849190830182828015610d965780601f10610d6b57610100808354040283529160200191610d96565b820191906000526020600020905b815481529060010190602001808311610d7957829003601f168201915b5050845460408051602060026001851615610100026000190190941693909304601f810184900484028201840190925281815295975086945092508401905082828015610e245780601f10610df957610100808354040283529160200191610e24565b820191906000526020600020905b815481529060010190602001808311610e0757829003601f168201915b505050505090509250925092509193909250565b6002546000906001600160a01b0316331415610e5357600080fd5b6001600160a01b03838116600090815260208190526040902054163314610e7957600080fd5b6001600160a01b0383166000908152602081815260409091208351610ea6926004909201918501906114e3565b5060019392505050565b6002546000906001600160a01b03163314610eca57600080fd5b816040516020018082805190602001908083835b60208310610efd5780518252601f199092019160209182019101610ede565b6001836020036101000a0380198251168184511680821785525050505050509050019150506040516020818303038152906040528051906020012060016000856001600160a01b03166001600160a01b031681526020019081526020016000206002016040516020018082805460018160011615610100020316600290048015610fbe5780601f10610f9c576101008083540402835291820191610fbe565b820191906000526020600020905b815481529060010190602001808311610faa575b5050915050604051602081830303815290604052805190602001201415610b3557506001600160a01b0382166000908152600160208190526040909120600401805460ff19169091179081905560ff16610b39565b6002546000906001600160a01b031633141561102e57600080fd5b6001600160a01b0382811660009081526020819052604090205416331461105457600080fd5b506001600160a01b03908116600090815260208190526040902054163190565b6002546000906001600160a01b0316331461108e57600080fd5b6001600160a01b03848116600090815260016020526040902054163314156110b557600080fd5b6001600160a01b0384166000818152600160208181526040909220805473ffffffffffffffffffffffffffffffffffffffff19169093178355855161110093909101918601906114e3565b506001600160a01b03841660009081526001602090815260409091208351611130926002909201918501906114e3565b505050506001600160a01b03166000908152600160208190526040909120600401805460ff1916905590565b6002546060906001600160a01b031633141561117757600080fd5b6001600160a01b0382811660009081526020819052604090205416331461119d57600080fd5b6001600160a01b0382166000908152602081815260409182902060040180548351601f600260001961010060018616150201909316929092049182018490048402810184019094528084529091830182828015610c945780601f10610c6957610100808354040283529160200191610c94565b6002546001600160a01b0316331461122757600080fd5b6001600160a01b03166000908152600160205260409020600401805460ff19169055565b6002546000906001600160a01b0316331461126557600080fd5b6001600160a01b03831660009081526001602090815260409091208351610ea6926003909201918501906114e3565b60025460009060609081906001600160a01b031633146112b357600080fd5b6001600160a01b03841660009081526001602081815260409283902060048101546003820180548651601f6002600019848a161561010002019093169290920491820186900486028101860190975280875260ff9092169590949290920192849190830182828015610d965780601f10610d6b57610100808354040283529160200191610d96565b6060600080836001600160a01b03166001600160a01b031681526020019081526020016000206001018054600181600116156101000203166002900480601f016020809104026020016040519081016040528092919081815260200182805460018160011615610100020316600290048015610c945780601f10610c6957610100808354040283529160200191610c94565b6002546000906001600160a01b03163314156113e857600080fd5b6001600160a01b038581166000908152602081905260409020541633141561140f57600080fd5b6001600160a01b038516600081815260208181526040909120805473ffffffffffffffffffffffffffffffffffffffff19169092178255855161145892600101918701906114e3565b506001600160a01b0385166000908152602081815260409091208451611486926002909201918601906114e3565b506001600160a01b03851660009081526020818152604090912083516114b4926003909201918501906114e3565b50506001600160a01b0384166000908152602081905260409020600501805460ff191690556001949350505050565b828054600181600116156101000203166002900490600052602060002090601f016020900481019282601f1061152457805160ff1916838001178555611551565b82800160010185558215611551579182015b82811115611551578251825591602001919060010190611536565b5061155d929150611561565b5090565b61157b91905b8082111561155d5760008155600101611567565b9056fea265627a7a72315820b7789c11a4641832815df0383bef88d28642a2c99c1a13f253855fbf684ffb5f64736f6c63430005100032",
  "source": "pragma solidity >=0.4.0 <0.6.0;\n\ncontract Auth {\n    struct UserDetail {\n        address addr;\n        string name;\n        string password;\n        string CNIC;\n        string ipfsImageHash;\n        bool isUserLoggedIn;\n    }\n\n    mapping(address => UserDetail) user;\n\n    // user registration function\n    function registerUser(\n        address _address,\n        string memory _name,\n        string memory _password,\n        string memory _cnic\n    ) public notAdmin returns (bool) {\n        require(user[_address].addr != msg.sender);\n        user[_address].addr = _address;\n        user[_address].name = _name;\n        user[_address].password = _password;\n        user[_address].CNIC = _cnic;\n        user[_address].isUserLoggedIn = false;\n        return true;\n    }\n\n    // user login function\n    function loginUser(address _address, string memory _password)\n        public\n        notAdmin\n        returns (bool)\n    {\n        require(user[_address].addr == msg.sender);\n        if (\n            keccak256(abi.encodePacked(user[_address].password)) ==\n            keccak256(abi.encodePacked(_password))\n        ) {\n            user[_address].isUserLoggedIn = true;\n            return user[_address].isUserLoggedIn;\n        } else {\n            return false;\n        }\n    }\n\n    // check the user logged In or not\n    function checkIsUserLogged(address _address)\n        public\n        notAdmin\n        returns (\n            bool,\n            string memory,\n            string memory\n        )\n    {\n        require(user[_address].addr == msg.sender);\n        return (\n            user[_address].isUserLoggedIn,\n            user[_address].ipfsImageHash,\n            user[_address].name\n        );\n    }\n\n    // logout the user\n    function logoutUser(address _address) public notAdmin {\n        require(user[_address].addr == msg.sender);\n        user[_address].isUserLoggedIn = false;\n    }\n\n    function getUserBalance(address _address)\n        public\n        notAdmin\n        returns (uint256)\n    {\n        require(user[_address].addr == msg.sender);\n        return (user[_address].addr.balance);\n    }\n\n    // get username\n    function getUserName(address _address) public returns (string memory) {\n        //require(user[_address].addr == msg.sender);\n        return user[_address].name;\n    }\n\n    // set and get the user ipfs image hash\n    function setUserIpfsImageHash(\n        address _address,\n        string memory _ipfsImageHash\n    ) public notAdmin returns (bool) {\n        require(user[_address].addr == msg.sender);\n        user[_address].ipfsImageHash = _ipfsImageHash;\n        return true;\n    }\n\n    function getUserIpfsImageHash(address _address)\n        public\n        notAdmin\n        returns (string memory)\n    {\n        require(user[_address].addr == msg.sender);\n        return user[_address].ipfsImageHash;\n    }\n\n    struct AdminDetail {\n        address adminAddress;\n        string name;\n        string password;\n        string ipfsImageHash;\n        bool isAdminLoggedIn;\n    }\n    mapping(address => AdminDetail) admin;\n    // admin registration function\n\n    address adminAddress;\n\n    constructor() public {\n        adminAddress = msg.sender;\n    }\n\n    modifier onlyAdmin() {\n        require(msg.sender == adminAddress);\n        _;\n    }\n\n    modifier notAdmin() {\n        require(msg.sender != adminAddress);\n        _;\n    }\n\n    function registerAdmin(\n        address _address,\n        string memory _name,\n        string memory _password\n    ) public onlyAdmin returns (bool) {\n        require(admin[_address].adminAddress != msg.sender);\n        admin[_address].adminAddress = _address;\n        admin[_address].name = _name;\n        admin[_address].password = _password;\n        admin[_address].isAdminLoggedIn = false;\n        return true;\n    }\n\n    // admin login function\n    function loginAdmin(address _address, string memory _password)\n        public\n        onlyAdmin\n        returns (bool)\n    {\n        if (\n            keccak256(abi.encodePacked(admin[_address].password)) ==\n            keccak256(abi.encodePacked(_password))\n        ) {\n            admin[_address].isAdminLoggedIn = true;\n            return admin[_address].isAdminLoggedIn;\n        } else {\n            return false;\n        }\n    }\n\n    // check the admin logged In or not\n    function checkIsAdminLogged(address _address)\n        public\n        onlyAdmin\n        returns (\n            bool,\n            string memory,\n            string memory\n        )\n    {\n        return (\n            admin[_address].isAdminLoggedIn,\n            admin[_address].ipfsImageHash,\n            admin[_address].name\n        );\n    }\n\n    // logout the admin\n    function logoutAdmin(address _address) public onlyAdmin {\n        admin[_address].isAdminLoggedIn = false;\n    }\n\n    function getAdminBalance(address _address)\n        public\n        onlyAdmin\n        returns (uint256)\n    {\n        return (admin[_address].adminAddress.balance);\n    }\n\n    // set and get the admin ipfs image hash\n    function setAdminIpfsImageHash(\n        address _address,\n        string memory _ipfsImageHash\n    ) public onlyAdmin returns (bool) {\n        admin[_address].ipfsImageHash = _ipfsImageHash;\n        return true;\n    }\n\n    function getAdminIpfsImageHash(address _address)\n        public\n        onlyAdmin\n        returns (string memory)\n    {\n        return admin[_address].ipfsImageHash;\n    }\n}\n",
  "sourcePath": "/home/zaryab/VSCodeProjects/land-records-blockchain/src/contracts/Auth.sol",
  "compiler": {
    "name": "solc",
    "version": "0.5.16+commit.9c3226ce.Emscripten.clang"
  },
  "schemaVersion": "3.4.1",
  "updatedAt": "2021-09-13T12:48:35.796Z",
  "networkType": "ethereum",
  "devdoc": {
    "methods": {}
  },
  "userdoc": {
    "methods": {}
  }
}