{
  "contractName": "Auth",
  "abi": [
    {
      "inputs": [],
      "payable": false,
      "stateMutability": "nonpayable",
      "type": "constructor"
    },
    {
      "constant": false,
      "inputs": [
        {
          "internalType": "address",
          "name": "_address",
          "type": "address"
        },
        {
          "internalType": "string",
          "name": "_name",
          "type": "string"
        },
        {
          "internalType": "string",
          "name": "_password",
          "type": "string"
        },
        {
          "internalType": "string",
          "name": "_cnic",
          "type": "string"
        }
      ],
      "name": "registerUser",
      "outputs": [
        {
          "internalType": "bool",
          "name": "",
          "type": "bool"
        }
      ],
      "payable": false,
      "stateMutability": "nonpayable",
      "type": "function"
    },
    {
      "constant": false,
      "inputs": [
        {
          "internalType": "address",
          "name": "_address",
          "type": "address"
        },
        {
          "internalType": "string",
          "name": "_password",
          "type": "string"
        }
      ],
      "name": "loginUser",
      "outputs": [
        {
          "internalType": "bool",
          "name": "",
          "type": "bool"
        }
      ],
      "payable": false,
      "stateMutability": "nonpayable",
      "type": "function"
    },
    {
      "constant": false,
      "inputs": [
        {
          "internalType": "address",
          "name": "_address",
          "type": "address"
        },
        {
          "internalType": "string",
          "name": "_password",
          "type": "string"
        }
      ],
      "name": "forgetPasswordUser",
      "outputs": [
        {
          "internalType": "bool",
          "name": "",
          "type": "bool"
        }
      ],
      "payable": false,
      "stateMutability": "nonpayable",
      "type": "function"
    },
    {
      "constant": false,
      "inputs": [
        {
          "internalType": "address",
          "name": "_address",
          "type": "address"
        }
      ],
      "name": "checkIsUserLogged",
      "outputs": [
        {
          "internalType": "bool",
          "name": "",
          "type": "bool"
        },
        {
          "internalType": "string",
          "name": "",
          "type": "string"
        },
        {
          "internalType": "string",
          "name": "",
          "type": "string"
        }
      ],
      "payable": false,
      "stateMutability": "nonpayable",
      "type": "function"
    },
    {
      "constant": false,
      "inputs": [
        {
          "internalType": "address",
          "name": "_address",
          "type": "address"
        }
      ],
      "name": "logoutUser",
      "outputs": [],
      "payable": false,
      "stateMutability": "nonpayable",
      "type": "function"
    },
    {
      "constant": false,
      "inputs": [
        {
          "internalType": "address",
          "name": "_address",
          "type": "address"
        }
      ],
      "name": "getUserBalance",
      "outputs": [
        {
          "internalType": "uint256",
          "name": "",
          "type": "uint256"
        }
      ],
      "payable": false,
      "stateMutability": "nonpayable",
      "type": "function"
    },
    {
      "constant": false,
      "inputs": [
        {
          "internalType": "address",
          "name": "_address",
          "type": "address"
        }
      ],
      "name": "getUserName",
      "outputs": [
        {
          "internalType": "string",
          "name": "",
          "type": "string"
        }
      ],
      "payable": false,
      "stateMutability": "nonpayable",
      "type": "function"
    },
    {
      "constant": false,
      "inputs": [
        {
          "internalType": "address",
          "name": "_address",
          "type": "address"
        },
        {
          "internalType": "string",
          "name": "_ipfsImageHash",
          "type": "string"
        }
      ],
      "name": "setUserIpfsImageHash",
      "outputs": [
        {
          "internalType": "bool",
          "name": "",
          "type": "bool"
        }
      ],
      "payable": false,
      "stateMutability": "nonpayable",
      "type": "function"
    },
    {
      "constant": false,
      "inputs": [
        {
          "internalType": "address",
          "name": "_address",
          "type": "address"
        }
      ],
      "name": "getUserIpfsImageHash",
      "outputs": [
        {
          "internalType": "string",
          "name": "",
          "type": "string"
        }
      ],
      "payable": false,
      "stateMutability": "nonpayable",
      "type": "function"
    },
    {
      "constant": false,
      "inputs": [
        {
          "internalType": "address",
          "name": "_address",
          "type": "address"
        },
        {
          "internalType": "string",
          "name": "_name",
          "type": "string"
        },
        {
          "internalType": "string",
          "name": "_password",
          "type": "string"
        }
      ],
      "name": "registerAdmin",
      "outputs": [
        {
          "internalType": "bool",
          "name": "",
          "type": "bool"
        }
      ],
      "payable": false,
      "stateMutability": "nonpayable",
      "type": "function"
    },
    {
      "constant": false,
      "inputs": [
        {
          "internalType": "address",
          "name": "_address",
          "type": "address"
        },
        {
          "internalType": "string",
          "name": "_password",
          "type": "string"
        }
      ],
      "name": "loginAdmin",
      "outputs": [
        {
          "internalType": "bool",
          "name": "",
          "type": "bool"
        }
      ],
      "payable": false,
      "stateMutability": "nonpayable",
      "type": "function"
    },
    {
      "constant": false,
      "inputs": [
        {
          "internalType": "address",
          "name": "_address",
          "type": "address"
        }
      ],
      "name": "checkIsAdminLogged",
      "outputs": [
        {
          "internalType": "bool",
          "name": "",
          "type": "bool"
        },
        {
          "internalType": "string",
          "name": "",
          "type": "string"
        },
        {
          "internalType": "string",
          "name": "",
          "type": "string"
        }
      ],
      "payable": false,
      "stateMutability": "nonpayable",
      "type": "function"
    },
    {
      "constant": false,
      "inputs": [
        {
          "internalType": "address",
          "name": "_address",
          "type": "address"
        }
      ],
      "name": "logoutAdmin",
      "outputs": [],
      "payable": false,
      "stateMutability": "nonpayable",
      "type": "function"
    },
    {
      "constant": false,
      "inputs": [
        {
          "internalType": "address",
          "name": "_address",
          "type": "address"
        }
      ],
      "name": "getAdminBalance",
      "outputs": [
        {
          "internalType": "uint256",
          "name": "",
          "type": "uint256"
        }
      ],
      "payable": false,
      "stateMutability": "nonpayable",
      "type": "function"
    },
    {
      "constant": false,
      "inputs": [
        {
          "internalType": "address",
          "name": "_address",
          "type": "address"
        },
        {
          "internalType": "string",
          "name": "_ipfsImageHash",
          "type": "string"
        }
      ],
      "name": "setAdminIpfsImageHash",
      "outputs": [
        {
          "internalType": "bool",
          "name": "",
          "type": "bool"
        }
      ],
      "payable": false,
      "stateMutability": "nonpayable",
      "type": "function"
    },
    {
      "constant": false,
      "inputs": [
        {
          "internalType": "address",
          "name": "_address",
          "type": "address"
        }
      ],
      "name": "getAdminIpfsImageHash",
      "outputs": [
        {
          "internalType": "string",
          "name": "",
          "type": "string"
        }
      ],
      "payable": false,
      "stateMutability": "nonpayable",
      "type": "function"
    }
  ],
  "bytecode": "0x608060405234801561001057600080fd5b50600280546001600160a01b0319163317905561170e806100326000396000f3fe608060405234801561001057600080fd5b50600436106101005760003560e01c80634ad407a31161009757806367a536541161006657806367a53654146107aa57806398711c1714610860578063d84f55ee14610886578063fe69c296146108ac57610100565b80634ad407a31461056b578063589cdaa4146106a85780636448dc76146106ce578063645cf80f1461078457610100565b8063297f7b39116100d3578063297f7b39146102ca5780632d9b3bf5146103d9578063434917af1461048f578063477348921461054557610100565b806303bdb46b1461010557806309df5060146101cf578063128c9f01146101f757806316caeb771461022f575b600080fd5b6101bb6004803603604081101561011b57600080fd5b6001600160a01b03823516919081019060408101602082013564010000000081111561014657600080fd5b82018360208201111561015857600080fd5b8035906020019184600183028401116401000000008311171561017a57600080fd5b91908080601f016020809104026020016040519081016040528093929190818152602001838380828437600092019190915250929550610a70945050505050565b604080519115158252519081900360200190f35b6101f5600480360360208110156101e557600080fd5b50356001600160a01b0316610c00565b005b61021d6004803603602081101561020d57600080fd5b50356001600160a01b0316610c62565b60408051918252519081900360200190f35b6102556004803603602081101561024557600080fd5b50356001600160a01b0316610c9c565b6040805160208082528351818301528351919283929083019185019080838360005b8381101561028f578181015183820152602001610277565b50505050905090810190601f1680156102bc5780820380516001836020036101000a031916815260200191505b509250505060405180910390f35b6102f0600480360360208110156102e057600080fd5b50356001600160a01b0316610d61565b60405180841515151581526020018060200180602001838103835285818151815260200191508051906020019080838360005b8381101561033b578181015183820152602001610323565b50505050905090810190601f1680156103685780820380516001836020036101000a031916815260200191505b50838103825284518152845160209182019186019080838360005b8381101561039b578181015183820152602001610383565b50505050905090810190601f1680156103c85780820380516001836020036101000a031916815260200191505b509550505050505060405180910390f35b6101bb600480360360408110156103ef57600080fd5b6001600160a01b03823516919081019060408101602082013564010000000081111561041a57600080fd5b82018360208201111561042c57600080fd5b8035906020019184600183028401116401000000008311171561044e57600080fd5b91908080601f016020809104026020016040519081016040528093929190818152602001838380828437600092019190915250929550610ef9945050505050565b6101bb600480360360408110156104a557600080fd5b6001600160a01b0382351691908101906040810160208201356401000000008111156104d057600080fd5b8201836020820111156104e257600080fd5b8035906020019184600183028401116401000000008311171561050457600080fd5b91908080601f016020809104026020016040519081016040528093929190818152602001838380828437600092019190915250929550610f71945050505050565b61021d6004803603602081101561055b57600080fd5b50356001600160a01b03166110d4565b6101bb6004803603606081101561058157600080fd5b6001600160a01b0382351691908101906040810160208201356401000000008111156105ac57600080fd5b8201836020820111156105be57600080fd5b803590602001918460018302840111640100000000831117156105e057600080fd5b91908080601f016020809104026020016040519081016040528093929190818152602001838380828437600092019190915250929594936020810193503591505064010000000081111561063357600080fd5b82018360208201111561064557600080fd5b8035906020019184600183028401116401000000008311171561066757600080fd5b91908080601f016020809104026020016040519081016040528093929190818152602001838380828437600092019190915250929550611135945050505050565b610255600480360360208110156106be57600080fd5b50356001600160a01b031661121d565b6101bb600480360360408110156106e457600080fd5b6001600160a01b03823516919081019060408101602082013564010000000081111561070f57600080fd5b82018360208201111561072157600080fd5b8035906020019184600183028401116401000000008311171561074357600080fd5b91908080601f0160208091040260200160405190810160405280939291908181526020018383808284376000920191909152509295506112d1945050505050565b6101f56004803603602081101561079a57600080fd5b50356001600160a01b031661136b565b6101bb600480360360408110156107c057600080fd5b6001600160a01b0382351691908101906040810160208201356401000000008111156107eb57600080fd5b8201836020820111156107fd57600080fd5b8035906020019184600183028401116401000000008311171561081f57600080fd5b91908080601f0160208091040260200160405190810160405280939291908181526020018383808284376000920191909152509295506113a6945050505050565b6102f06004803603602081101561087657600080fd5b50356001600160a01b03166113ef565b6102556004803603602081101561089c57600080fd5b50356001600160a01b0316611496565b6101bb600480360360808110156108c257600080fd5b6001600160a01b0382351691908101906040810160208201356401000000008111156108ed57600080fd5b8201836020820111156108ff57600080fd5b8035906020019184600183028401116401000000008311171561092157600080fd5b91908080601f016020809104026020016040519081016040528093929190818152602001838380828437600092019190915250929594936020810193503591505064010000000081111561097457600080fd5b82018360208201111561098657600080fd5b803590602001918460018302840111640100000000831117156109a857600080fd5b91908080601f01602080910402602001604051908101604052809392919081815260200183838082843760009201919091525092959493602081019350359150506401000000008111156109fb57600080fd5b820183602082011115610a0d57600080fd5b80359060200191846001830284011164010000000083111715610a2f57600080fd5b91908080601f016020809104026020016040519081016040528093929190818152602001838380828437600092019190915250929550611528945050505050565b6002546000906001600160a01b0316331415610a8b57600080fd5b6001600160a01b03838116600090815260208190526040902054163314610ab157600080fd5b816040516020018082805190602001908083835b60208310610ae45780518252601f199092019160209182019101610ac5565b6001836020036101000a03801982511681845116808217855250505050505090500191505060405160208183030381529060405280519060200120600080856001600160a01b03166001600160a01b031681526020019081526020016000206002016040516020018082805460018160011615610100020316600290048015610ba45780601f10610b82576101008083540402835291820191610ba4565b820191906000526020600020905b815481529060010190602001808311610b90575b5050915050604051602081830303815290604052805190602001201415610bf657506001600160a01b0382166000908152602081905260409020600501805460ff19166001179081905560ff16610bfa565b5060005b92915050565b6002546001600160a01b0316331415610c1857600080fd5b6001600160a01b03818116600090815260208190526040902054163314610c3e57600080fd5b6001600160a01b03166000908152602081905260409020600501805460ff19169055565b6002546000906001600160a01b03163314610c7c57600080fd5b506001600160a01b03908116600090815260016020526040902054163190565b6002546060906001600160a01b03163314610cb657600080fd5b6001600160a01b03821660009081526001602081815260409283902060030180548451600294821615610100026000190190911693909304601f8101839004830284018301909452838352919290830182828015610d555780601f10610d2a57610100808354040283529160200191610d55565b820191906000526020600020905b815481529060010190602001808311610d3857829003601f168201915b50505050509050919050565b60025460009060609081906001600160a01b0316331415610d8157600080fd5b6001600160a01b03848116600090815260208190526040902054163314610da757600080fd5b6001600160a01b03841660009081526020818152604091829020600581015460048201805485516002610100600180851615919091026000190190931604601f810187900487028201870190975286815260ff909316959194930192849190830182828015610e575780601f10610e2c57610100808354040283529160200191610e57565b820191906000526020600020905b815481529060010190602001808311610e3a57829003601f168201915b5050845460408051602060026001851615610100026000190190941693909304601f810184900484028201840190925281815295975086945092508401905082828015610ee55780601f10610eba57610100808354040283529160200191610ee5565b820191906000526020600020905b815481529060010190602001808311610ec857829003601f168201915b505050505090509250925092509193909250565b6002546000906001600160a01b0316331415610f1457600080fd5b6001600160a01b03838116600090815260208190526040902054163314610f3a57600080fd5b6001600160a01b0383166000908152602081815260409091208351610f679260049092019185019061163e565b5060019392505050565b6002546000906001600160a01b03163314610f8b57600080fd5b816040516020018082805190602001908083835b60208310610fbe5780518252601f199092019160209182019101610f9f565b6001836020036101000a0380198251168184511680821785525050505050509050019150506040516020818303038152906040528051906020012060016000856001600160a01b03166001600160a01b03168152602001908152602001600020600201604051602001808280546001816001161561010002031660029004801561107f5780601f1061105d57610100808354040283529182019161107f565b820191906000526020600020905b81548152906001019060200180831161106b575b5050915050604051602081830303815290604052805190602001201415610bf657506001600160a01b0382166000908152600160208190526040909120600401805460ff19169091179081905560ff16610bfa565b6002546000906001600160a01b03163314156110ef57600080fd5b6001600160a01b0382811660009081526020819052604090205416331461111557600080fd5b506001600160a01b03908116600090815260208190526040902054163190565b6002546000906001600160a01b0316331461114f57600080fd5b6001600160a01b038481166000908152600160205260409020541633141561117657600080fd5b6001600160a01b0384166000818152600160208181526040909220805473ffffffffffffffffffffffffffffffffffffffff1916909317835585516111c1939091019186019061163e565b506001600160a01b038416600090815260016020908152604090912083516111f19260029092019185019061163e565b505050506001600160a01b03166000908152600160208190526040909120600401805460ff1916905590565b6002546060906001600160a01b031633141561123857600080fd5b6001600160a01b0382811660009081526020819052604090205416331461125e57600080fd5b6001600160a01b0382166000908152602081815260409182902060040180548351601f600260001961010060018616150201909316929092049182018490048402810184019094528084529091830182828015610d555780601f10610d2a57610100808354040283529160200191610d55565b6002546000906001600160a01b03163314156112ec57600080fd5b6001600160a01b0383811660009081526020819052604090205416331461131257600080fd5b6001600160a01b0383811660009081526020819052604090205416331415610bf6576001600160a01b03831660009081526020818152604090912083516113619260029092019185019061163e565b5060019050610bfa565b6002546001600160a01b0316331461138257600080fd5b6001600160a01b03166000908152600160205260409020600401805460ff19169055565b6002546000906001600160a01b031633146113c057600080fd5b6001600160a01b03831660009081526001602090815260409091208351610f679260039092019185019061163e565b60025460009060609081906001600160a01b0316331461140e57600080fd5b6001600160a01b03841660009081526001602081815260409283902060048101546003820180548651601f6002600019848a161561010002019093169290920491820186900486028101860190975280875260ff9092169590949290920192849190830182828015610e575780601f10610e2c57610100808354040283529160200191610e57565b6060600080836001600160a01b03166001600160a01b031681526020019081526020016000206001018054600181600116156101000203166002900480601f016020809104026020016040519081016040528092919081815260200182805460018160011615610100020316600290048015610d555780601f10610d2a57610100808354040283529160200191610d55565b6002546000906001600160a01b031633141561154357600080fd5b6001600160a01b038581166000908152602081905260409020541633141561156a57600080fd5b6001600160a01b038516600081815260208181526040909120805473ffffffffffffffffffffffffffffffffffffffff1916909217825585516115b3926001019187019061163e565b506001600160a01b03851660009081526020818152604090912084516115e19260029092019186019061163e565b506001600160a01b038516600090815260208181526040909120835161160f9260039092019185019061163e565b50506001600160a01b0384166000908152602081905260409020600501805460ff191690556001949350505050565b828054600181600116156101000203166002900490600052602060002090601f016020900481019282601f1061167f57805160ff19168380011785556116ac565b828001600101855582156116ac579182015b828111156116ac578251825591602001919060010190611691565b506116b89291506116bc565b5090565b6116d691905b808211156116b857600081556001016116c2565b9056fea265627a7a723158202556cd3af47b5237b1e207d1063c76ecde27da60914cd0216520df15752584df64736f6c63430005100032",
  "source": "// SPDX-License-Identifier: MIT\npragma solidity >=0.4.0 <0.6.0;\n\ncontract Auth {\n    struct UserDetail {\n        address addr;\n        string name;\n        string password;\n        string CNIC;\n        string ipfsImageHash;\n        bool isUserLoggedIn;\n    }\n\n    mapping(address => UserDetail) user;\n\n    // user registration function\n    function registerUser(\n        address _address,\n        string memory _name,\n        string memory _password,\n        string memory _cnic\n    ) public notAdmin returns (bool) {\n        require(user[_address].addr != msg.sender);\n        user[_address].addr = _address;\n        user[_address].name = _name;\n        user[_address].password = _password;\n        user[_address].CNIC = _cnic;\n        user[_address].isUserLoggedIn = false;\n        return true;\n    }\n\n    // user login function\n    function loginUser(address _address, string memory _password)\n        public\n        notAdmin\n        returns (bool)\n    {\n        require(user[_address].addr == msg.sender);\n        if (\n            keccak256(abi.encodePacked(user[_address].password)) ==\n            keccak256(abi.encodePacked(_password))\n        ) {\n            user[_address].isUserLoggedIn = true;\n            return user[_address].isUserLoggedIn;\n        } else {\n            return false;\n        }\n    }\n    \n    // user forgot password function\n    function forgetPasswordUser(address _address, string memory _password)\n        public\n        notAdmin\n        returns (bool)\n    {\n        require(user[_address].addr == msg.sender);\n\n        if (user[_address].addr == msg.sender) {\n            user[_address].password = _password;\n            return true;\n        } else {\n            return false;\n        }\n    }\n\n    // check the user logged In or not\n    function checkIsUserLogged(address _address)\n        public\n        notAdmin\n        returns (\n            bool,\n            string memory,\n            string memory\n        )\n    {\n        require(user[_address].addr == msg.sender);\n        return (\n            user[_address].isUserLoggedIn,\n            user[_address].ipfsImageHash,\n            user[_address].name\n        );\n    }\n\n    // logout the user\n    function logoutUser(address _address) public notAdmin {\n        require(user[_address].addr == msg.sender);\n        user[_address].isUserLoggedIn = false;\n    }\n\n    function getUserBalance(address _address)\n        public\n        notAdmin\n        returns (uint256)\n    {\n        require(user[_address].addr == msg.sender);\n        return (user[_address].addr.balance);\n    }\n\n    // get username\n    function getUserName(address _address) public returns (string memory) {\n        //require(user[_address].addr == msg.sender);\n        return user[_address].name;\n    }\n\n    // set and get the user ipfs image hash\n    function setUserIpfsImageHash(\n        address _address,\n        string memory _ipfsImageHash\n    ) public notAdmin returns (bool) {\n        require(user[_address].addr == msg.sender);\n        user[_address].ipfsImageHash = _ipfsImageHash;\n        return true;\n    }\n\n    function getUserIpfsImageHash(address _address)\n        public\n        notAdmin\n        returns (string memory)\n    {\n        require(user[_address].addr == msg.sender);\n        return user[_address].ipfsImageHash;\n    }\n\n    struct AdminDetail {\n        address adminAddress;\n        string name;\n        string password;\n        string ipfsImageHash;\n        bool isAdminLoggedIn;\n    }\n    mapping(address => AdminDetail) admin;\n    // admin registration function\n\n    address adminAddress;\n\n    constructor() public {\n        adminAddress = msg.sender;\n    }\n\n    modifier onlyAdmin() {\n        require(msg.sender == adminAddress);\n        _;\n    }\n\n    modifier notAdmin() {\n        require(msg.sender != adminAddress);\n        _;\n    }\n\n    function registerAdmin(\n        address _address,\n        string memory _name,\n        string memory _password\n    ) public onlyAdmin returns (bool) {\n        require(admin[_address].adminAddress != msg.sender);\n        admin[_address].adminAddress = _address;\n        admin[_address].name = _name;\n        admin[_address].password = _password;\n        admin[_address].isAdminLoggedIn = false;\n        return true;\n    }\n\n    // admin login function\n    function loginAdmin(address _address, string memory _password)\n        public\n        onlyAdmin\n        returns (bool)\n    {\n        if (\n            keccak256(abi.encodePacked(admin[_address].password)) ==\n            keccak256(abi.encodePacked(_password))\n        ) {\n            admin[_address].isAdminLoggedIn = true;\n            return admin[_address].isAdminLoggedIn;\n        } else {\n            return false;\n        }\n    }\n\n    // check the admin logged In or not\n    function checkIsAdminLogged(address _address)\n        public\n        onlyAdmin\n        returns (\n            bool,\n            string memory,\n            string memory\n        )\n    {\n        return (\n            admin[_address].isAdminLoggedIn,\n            admin[_address].ipfsImageHash,\n            admin[_address].name\n        );\n    }\n\n    // logout the admin\n    function logoutAdmin(address _address) public onlyAdmin {\n        admin[_address].isAdminLoggedIn = false;\n    }\n\n    function getAdminBalance(address _address)\n        public\n        onlyAdmin\n        returns (uint256)\n    {\n        return (admin[_address].adminAddress.balance);\n    }\n\n    // set and get the admin ipfs image hash\n    function setAdminIpfsImageHash(\n        address _address,\n        string memory _ipfsImageHash\n    ) public onlyAdmin returns (bool) {\n        admin[_address].ipfsImageHash = _ipfsImageHash;\n        return true;\n    }\n\n    function getAdminIpfsImageHash(address _address)\n        public\n        onlyAdmin\n        returns (string memory)\n    {\n        return admin[_address].ipfsImageHash;\n    }\n}\n",
  "sourcePath": "/home/zaryab/VSCodeProjects/land-records-blockchain/src/contracts/Auth.sol",
  "compiler": {
    "name": "solc",
    "version": "0.5.16+commit.9c3226ce.Emscripten.clang"
  },
  "schemaVersion": "3.4.3",
  "updatedAt": "2021-11-23T04:26:53.038Z",
  "networkType": "ethereum",
  "devdoc": {
    "methods": {}
  },
  "userdoc": {
    "methods": {}
  }
}