{
  "contractName": "Land",
  "abi": [
    {
      "inputs": [],
      "payable": false,
      "stateMutability": "nonpayable",
      "type": "constructor"
    },
    {
      "constant": false,
      "inputs": [
        {
          "internalType": "address",
          "name": "_address",
          "type": "address"
        }
      ],
      "name": "checkIsAdminLogged",
      "outputs": [
        {
          "internalType": "bool",
          "name": "",
          "type": "bool"
        },
        {
          "internalType": "string",
          "name": "",
          "type": "string"
        },
        {
          "internalType": "string",
          "name": "",
          "type": "string"
        }
      ],
      "payable": false,
      "stateMutability": "nonpayable",
      "type": "function"
    },
    {
      "constant": false,
      "inputs": [
        {
          "internalType": "address",
          "name": "_address",
          "type": "address"
        }
      ],
      "name": "checkIsUserLogged",
      "outputs": [
        {
          "internalType": "bool",
          "name": "",
          "type": "bool"
        },
        {
          "internalType": "string",
          "name": "",
          "type": "string"
        },
        {
          "internalType": "string",
          "name": "",
          "type": "string"
        }
      ],
      "payable": false,
      "stateMutability": "nonpayable",
      "type": "function"
    },
    {
      "constant": false,
      "inputs": [
        {
          "internalType": "address",
          "name": "_address",
          "type": "address"
        }
      ],
      "name": "getAdminBalance",
      "outputs": [
        {
          "internalType": "uint256",
          "name": "",
          "type": "uint256"
        }
      ],
      "payable": false,
      "stateMutability": "nonpayable",
      "type": "function"
    },
    {
      "constant": false,
      "inputs": [
        {
          "internalType": "address",
          "name": "_address",
          "type": "address"
        }
      ],
      "name": "getAdminIpfsImageHash",
      "outputs": [
        {
          "internalType": "string",
          "name": "",
          "type": "string"
        }
      ],
      "payable": false,
      "stateMutability": "nonpayable",
      "type": "function"
    },
    {
      "constant": false,
      "inputs": [
        {
          "internalType": "address",
          "name": "_address",
          "type": "address"
        }
      ],
      "name": "getUserBalance",
      "outputs": [
        {
          "internalType": "uint256",
          "name": "",
          "type": "uint256"
        }
      ],
      "payable": false,
      "stateMutability": "nonpayable",
      "type": "function"
    },
    {
      "constant": false,
      "inputs": [
        {
          "internalType": "address",
          "name": "_address",
          "type": "address"
        }
      ],
      "name": "getUserIpfsImageHash",
      "outputs": [
        {
          "internalType": "string",
          "name": "",
          "type": "string"
        }
      ],
      "payable": false,
      "stateMutability": "nonpayable",
      "type": "function"
    },
    {
      "constant": false,
      "inputs": [
        {
          "internalType": "address",
          "name": "_address",
          "type": "address"
        }
      ],
      "name": "getUserName",
      "outputs": [
        {
          "internalType": "string",
          "name": "",
          "type": "string"
        }
      ],
      "payable": false,
      "stateMutability": "nonpayable",
      "type": "function"
    },
    {
      "constant": false,
      "inputs": [
        {
          "internalType": "address",
          "name": "_address",
          "type": "address"
        },
        {
          "internalType": "string",
          "name": "_password",
          "type": "string"
        }
      ],
      "name": "loginAdmin",
      "outputs": [
        {
          "internalType": "bool",
          "name": "",
          "type": "bool"
        }
      ],
      "payable": false,
      "stateMutability": "nonpayable",
      "type": "function"
    },
    {
      "constant": false,
      "inputs": [
        {
          "internalType": "address",
          "name": "_address",
          "type": "address"
        },
        {
          "internalType": "string",
          "name": "_password",
          "type": "string"
        }
      ],
      "name": "loginUser",
      "outputs": [
        {
          "internalType": "bool",
          "name": "",
          "type": "bool"
        }
      ],
      "payable": false,
      "stateMutability": "nonpayable",
      "type": "function"
    },
    {
      "constant": false,
      "inputs": [
        {
          "internalType": "address",
          "name": "_address",
          "type": "address"
        }
      ],
      "name": "logoutAdmin",
      "outputs": [],
      "payable": false,
      "stateMutability": "nonpayable",
      "type": "function"
    },
    {
      "constant": false,
      "inputs": [
        {
          "internalType": "address",
          "name": "_address",
          "type": "address"
        }
      ],
      "name": "logoutUser",
      "outputs": [],
      "payable": false,
      "stateMutability": "nonpayable",
      "type": "function"
    },
    {
      "constant": true,
      "inputs": [
        {
          "internalType": "uint256",
          "name": "",
          "type": "uint256"
        }
      ],
      "name": "propertiesIDs",
      "outputs": [
        {
          "internalType": "uint256",
          "name": "",
          "type": "uint256"
        }
      ],
      "payable": false,
      "stateMutability": "view",
      "type": "function"
    },
    {
      "constant": false,
      "inputs": [
        {
          "internalType": "address",
          "name": "_address",
          "type": "address"
        },
        {
          "internalType": "string",
          "name": "_name",
          "type": "string"
        },
        {
          "internalType": "string",
          "name": "_password",
          "type": "string"
        }
      ],
      "name": "registerAdmin",
      "outputs": [
        {
          "internalType": "bool",
          "name": "",
          "type": "bool"
        }
      ],
      "payable": false,
      "stateMutability": "nonpayable",
      "type": "function"
    },
    {
      "constant": false,
      "inputs": [
        {
          "internalType": "address",
          "name": "_address",
          "type": "address"
        },
        {
          "internalType": "string",
          "name": "_name",
          "type": "string"
        },
        {
          "internalType": "string",
          "name": "_password",
          "type": "string"
        },
        {
          "internalType": "string",
          "name": "_cnic",
          "type": "string"
        }
      ],
      "name": "registerUser",
      "outputs": [
        {
          "internalType": "bool",
          "name": "",
          "type": "bool"
        }
      ],
      "payable": false,
      "stateMutability": "nonpayable",
      "type": "function"
    },
    {
      "constant": false,
      "inputs": [
        {
          "internalType": "address",
          "name": "_address",
          "type": "address"
        },
        {
          "internalType": "string",
          "name": "_ipfsImageHash",
          "type": "string"
        }
      ],
      "name": "setAdminIpfsImageHash",
      "outputs": [
        {
          "internalType": "bool",
          "name": "",
          "type": "bool"
        }
      ],
      "payable": false,
      "stateMutability": "nonpayable",
      "type": "function"
    },
    {
      "constant": false,
      "inputs": [
        {
          "internalType": "address",
          "name": "_address",
          "type": "address"
        },
        {
          "internalType": "string",
          "name": "_ipfsImageHash",
          "type": "string"
        }
      ],
      "name": "setUserIpfsImageHash",
      "outputs": [
        {
          "internalType": "bool",
          "name": "",
          "type": "bool"
        }
      ],
      "payable": false,
      "stateMutability": "nonpayable",
      "type": "function"
    },
    {
      "constant": false,
      "inputs": [
        {
          "internalType": "address",
          "name": "_superAdmin",
          "type": "address"
        },
        {
          "internalType": "string",
          "name": "_village",
          "type": "string"
        }
      ],
      "name": "addSuperAdmin",
      "outputs": [],
      "payable": false,
      "stateMutability": "nonpayable",
      "type": "function"
    },
    {
      "constant": false,
      "inputs": [
        {
          "internalType": "string",
          "name": "_state",
          "type": "string"
        },
        {
          "internalType": "string",
          "name": "_district",
          "type": "string"
        },
        {
          "internalType": "string",
          "name": "_villageTown",
          "type": "string"
        },
        {
          "internalType": "uint256",
          "name": "_khataNumber",
          "type": "uint256"
        },
        {
          "internalType": "uint256",
          "name": "_khatooniNumber",
          "type": "uint256"
        },
        {
          "internalType": "address payable",
          "name": "_OwnerAddress",
          "type": "address"
        },
        {
          "internalType": "string",
          "name": "_ownerName",
          "type": "string"
        },
        {
          "internalType": "address",
          "name": "_previousOwner",
          "type": "address"
        },
        {
          "internalType": "uint256",
          "name": "_marketValue",
          "type": "uint256"
        },
        {
          "internalType": "uint256",
          "name": "id",
          "type": "uint256"
        },
        {
          "internalType": "string",
          "name": "_squareFoots",
          "type": "string"
        },
        {
          "internalType": "string",
          "name": "_inches",
          "type": "string"
        },
        {
          "internalType": "string",
          "name": "_ipfsHash",
          "type": "string"
        },
        {
          "internalType": "string",
          "name": "_landType",
          "type": "string"
        },
        {
          "internalType": "address",
          "name": "_createByGovt",
          "type": "address"
        }
      ],
      "name": "Registration",
      "outputs": [
        {
          "internalType": "bool",
          "name": "",
          "type": "bool"
        }
      ],
      "payable": false,
      "stateMutability": "nonpayable",
      "type": "function"
    },
    {
      "constant": false,
      "inputs": [
        {
          "internalType": "string",
          "name": "_lat",
          "type": "string"
        },
        {
          "internalType": "string",
          "name": "_lng",
          "type": "string"
        },
        {
          "internalType": "string",
          "name": "_north",
          "type": "string"
        },
        {
          "internalType": "string",
          "name": "_south",
          "type": "string"
        },
        {
          "internalType": "string",
          "name": "_east",
          "type": "string"
        },
        {
          "internalType": "string",
          "name": "_west",
          "type": "string"
        },
        {
          "internalType": "uint256",
          "name": "id",
          "type": "uint256"
        }
      ],
      "name": "registerLandPolyline",
      "outputs": [
        {
          "internalType": "bool",
          "name": "",
          "type": "bool"
        }
      ],
      "payable": false,
      "stateMutability": "nonpayable",
      "type": "function"
    },
    {
      "constant": true,
      "inputs": [
        {
          "internalType": "uint256",
          "name": "id",
          "type": "uint256"
        }
      ],
      "name": "landInfoOwner",
      "outputs": [
        {
          "internalType": "string",
          "name": "",
          "type": "string"
        },
        {
          "internalType": "string",
          "name": "",
          "type": "string"
        },
        {
          "internalType": "string",
          "name": "",
          "type": "string"
        },
        {
          "internalType": "bool",
          "name": "",
          "type": "bool"
        },
        {
          "internalType": "uint256",
          "name": "",
          "type": "uint256"
        },
        {
          "internalType": "string",
          "name": "",
          "type": "string"
        },
        {
          "internalType": "string",
          "name": "",
          "type": "string"
        }
      ],
      "payable": false,
      "stateMutability": "view",
      "type": "function"
    },
    {
      "constant": true,
      "inputs": [
        {
          "internalType": "uint256",
          "name": "id",
          "type": "uint256"
        }
      ],
      "name": "remainingDetail",
      "outputs": [
        {
          "internalType": "string",
          "name": "",
          "type": "string"
        },
        {
          "internalType": "address",
          "name": "",
          "type": "address"
        },
        {
          "internalType": "address",
          "name": "",
          "type": "address"
        },
        {
          "internalType": "uint256",
          "name": "",
          "type": "uint256"
        },
        {
          "internalType": "uint256",
          "name": "",
          "type": "uint256"
        },
        {
          "internalType": "string",
          "name": "",
          "type": "string"
        }
      ],
      "payable": false,
      "stateMutability": "view",
      "type": "function"
    },
    {
      "constant": true,
      "inputs": [
        {
          "internalType": "uint256",
          "name": "id",
          "type": "uint256"
        }
      ],
      "name": "remainingMoreDetail",
      "outputs": [
        {
          "internalType": "string",
          "name": "",
          "type": "string"
        },
        {
          "internalType": "string",
          "name": "",
          "type": "string"
        },
        {
          "internalType": "string",
          "name": "",
          "type": "string"
        },
        {
          "internalType": "string",
          "name": "",
          "type": "string"
        },
        {
          "internalType": "string",
          "name": "",
          "type": "string"
        },
        {
          "internalType": "string",
          "name": "",
          "type": "string"
        },
        {
          "internalType": "string",
          "name": "",
          "type": "string"
        }
      ],
      "payable": false,
      "stateMutability": "view",
      "type": "function"
    },
    {
      "constant": true,
      "inputs": [
        {
          "internalType": "uint256",
          "name": "id",
          "type": "uint256"
        }
      ],
      "name": "showAllLands",
      "outputs": [
        {
          "internalType": "address",
          "name": "",
          "type": "address"
        },
        {
          "internalType": "string",
          "name": "",
          "type": "string"
        },
        {
          "internalType": "string",
          "name": "",
          "type": "string"
        },
        {
          "internalType": "string",
          "name": "",
          "type": "string"
        },
        {
          "internalType": "uint256",
          "name": "",
          "type": "uint256"
        },
        {
          "internalType": "string",
          "name": "",
          "type": "string"
        },
        {
          "internalType": "string",
          "name": "",
          "type": "string"
        }
      ],
      "payable": false,
      "stateMutability": "view",
      "type": "function"
    },
    {
      "constant": true,
      "inputs": [
        {
          "internalType": "uint256",
          "name": "id",
          "type": "uint256"
        }
      ],
      "name": "landInfoUser",
      "outputs": [
        {
          "internalType": "address",
          "name": "",
          "type": "address"
        },
        {
          "internalType": "uint256",
          "name": "",
          "type": "uint256"
        },
        {
          "internalType": "bool",
          "name": "",
          "type": "bool"
        },
        {
          "internalType": "address",
          "name": "",
          "type": "address"
        },
        {
          "internalType": "enum Land.reqStatus",
          "name": "",
          "type": "uint8"
        },
        {
          "internalType": "uint256",
          "name": "",
          "type": "uint256"
        },
        {
          "internalType": "uint256",
          "name": "",
          "type": "uint256"
        }
      ],
      "payable": false,
      "stateMutability": "view",
      "type": "function"
    },
    {
      "constant": true,
      "inputs": [
        {
          "internalType": "string",
          "name": "_state",
          "type": "string"
        },
        {
          "internalType": "string",
          "name": "_district",
          "type": "string"
        },
        {
          "internalType": "string",
          "name": "_village",
          "type": "string"
        },
        {
          "internalType": "uint256",
          "name": "_surveyNumber",
          "type": "uint256"
        }
      ],
      "name": "computeId",
      "outputs": [
        {
          "internalType": "uint256",
          "name": "",
          "type": "uint256"
        }
      ],
      "payable": false,
      "stateMutability": "view",
      "type": "function"
    },
    {
      "constant": false,
      "inputs": [
        {
          "internalType": "uint256",
          "name": "id",
          "type": "uint256"
        }
      ],
      "name": "requstToLandOwner",
      "outputs": [],
      "payable": false,
      "stateMutability": "nonpayable",
      "type": "function"
    },
    {
      "constant": true,
      "inputs": [],
      "name": "viewAssets",
      "outputs": [
        {
          "internalType": "uint256[]",
          "name": "",
          "type": "uint256[]"
        }
      ],
      "payable": false,
      "stateMutability": "view",
      "type": "function"
    },
    {
      "constant": true,
      "inputs": [
        {
          "internalType": "uint256",
          "name": "property",
          "type": "uint256"
        }
      ],
      "name": "viewRequest",
      "outputs": [
        {
          "internalType": "address",
          "name": "",
          "type": "address"
        }
      ],
      "payable": false,
      "stateMutability": "view",
      "type": "function"
    },
    {
      "constant": false,
      "inputs": [
        {
          "internalType": "uint256",
          "name": "property",
          "type": "uint256"
        }
      ],
      "name": "markAvailable",
      "outputs": [],
      "payable": false,
      "stateMutability": "nonpayable",
      "type": "function"
    },
    {
      "constant": false,
      "inputs": [
        {
          "internalType": "uint256",
          "name": "property",
          "type": "uint256"
        }
      ],
      "name": "unMarkLand",
      "outputs": [],
      "payable": false,
      "stateMutability": "nonpayable",
      "type": "function"
    },
    {
      "constant": true,
      "inputs": [
        {
          "internalType": "uint256",
          "name": "id",
          "type": "uint256"
        }
      ],
      "name": "showMarketValue",
      "outputs": [
        {
          "internalType": "uint256",
          "name": "",
          "type": "uint256"
        }
      ],
      "payable": false,
      "stateMutability": "view",
      "type": "function"
    },
    {
      "constant": false,
      "inputs": [
        {
          "internalType": "uint256",
          "name": "property",
          "type": "uint256"
        },
        {
          "internalType": "uint256",
          "name": "_marketValue",
          "type": "uint256"
        }
      ],
      "name": "changeMarketValue",
      "outputs": [],
      "payable": false,
      "stateMutability": "nonpayable",
      "type": "function"
    },
    {
      "constant": true,
      "inputs": [],
      "name": "getAllLands",
      "outputs": [
        {
          "internalType": "uint256[]",
          "name": "",
          "type": "uint256[]"
        }
      ],
      "payable": false,
      "stateMutability": "view",
      "type": "function"
    },
    {
      "constant": true,
      "inputs": [
        {
          "internalType": "uint256",
          "name": "id",
          "type": "uint256"
        }
      ],
      "name": "viewMarkded",
      "outputs": [
        {
          "internalType": "string",
          "name": "",
          "type": "string"
        },
        {
          "internalType": "address",
          "name": "",
          "type": "address"
        },
        {
          "internalType": "string",
          "name": "",
          "type": "string"
        },
        {
          "internalType": "bool",
          "name": "",
          "type": "bool"
        },
        {
          "internalType": "uint256",
          "name": "",
          "type": "uint256"
        },
        {
          "internalType": "string",
          "name": "",
          "type": "string"
        },
        {
          "internalType": "uint256",
          "name": "",
          "type": "uint256"
        }
      ],
      "payable": false,
      "stateMutability": "view",
      "type": "function"
    },
    {
      "constant": true,
      "inputs": [
        {
          "internalType": "uint256",
          "name": "id",
          "type": "uint256"
        }
      ],
      "name": "viewMarkdedRemainingData",
      "outputs": [
        {
          "internalType": "string",
          "name": "",
          "type": "string"
        },
        {
          "internalType": "uint256",
          "name": "",
          "type": "uint256"
        },
        {
          "internalType": "uint256",
          "name": "",
          "type": "uint256"
        },
        {
          "internalType": "string",
          "name": "",
          "type": "string"
        }
      ],
      "payable": false,
      "stateMutability": "view",
      "type": "function"
    },
    {
      "constant": false,
      "inputs": [
        {
          "internalType": "uint256",
          "name": "property",
          "type": "uint256"
        },
        {
          "internalType": "enum Land.reqStatus",
          "name": "status",
          "type": "uint8"
        }
      ],
      "name": "processRequest",
      "outputs": [],
      "payable": false,
      "stateMutability": "nonpayable",
      "type": "function"
    },
    {
      "constant": false,
      "inputs": [
        {
          "internalType": "uint256",
          "name": "property",
          "type": "uint256"
        }
      ],
      "name": "buyProperty",
      "outputs": [],
      "payable": true,
      "stateMutability": "payable",
      "type": "function"
    },
    {
      "constant": true,
      "inputs": [
        {
          "internalType": "uint256",
          "name": "id",
          "type": "uint256"
        },
        {
          "internalType": "address",
          "name": "user",
          "type": "address"
        }
      ],
      "name": "findId",
      "outputs": [
        {
          "internalType": "uint256",
          "name": "",
          "type": "uint256"
        }
      ],
      "payable": false,
      "stateMutability": "view",
      "type": "function"
    }
  ],
  "bytecode": "0x608060405234801561001057600080fd5b5060028054336001600160a01b03199182168117909255600580549091169091179055614a4a806100426000396000f3fe6080604052600436106102855760003560e01c8063645cf80f11610153578063a27664ee116100cb578063ddc40e7e1161007f578063fb8d69ba11610064578063fb8d69ba14611d4c578063fdb10f50146121e2578063fe69c2961461221557610285565b8063ddc40e7e14611ab2578063deec6b4e14611bfa57610285565b8063ad142242116100b0578063ad142242146118ca578063b7b6e54314611a6a578063d84f55ee14611a7f57610285565b8063a27664ee146117d0578063ab05bae61461180957610285565b80637ec0bd181161012257806394e504d21161010757806394e504d2146116d357806398711c17146116fd5780639d01485f1461173057610285565b80637ec0bd18146113a057806385be96e1146116a957610285565b8063645cf80f1461126557806367a53654146112985780636c5ed939146113595780636fa830a61461138357610285565b8063297f7b391161020157806355d61952116101b5578063599bf2361161019a578063599bf23614610dd95780635c3aad081461112557806361735a491461123b57610285565b806355d6195214610b5a578063589cdaa414610da657610285565b8063434917af116101e6578063434917af1461092057806347734892146109e15780634ad407a314610a1457610285565b8063297f7b39146107435780632d9b3bf51461085f57610285565b8063128c9f01116102585780631d50a6c41161023d5780631d50a6c4146105165780632416faf1146106d357806326e85250146106fd57610285565b8063128c9f011461042957806316caeb771461046e57610285565b806303bdb46b1461028a57806304ef280c1461035f57806309df5060146103915780630d2d5dca146103c4575b600080fd5b34801561029657600080fd5b5061034b600480360360408110156102ad57600080fd5b6001600160a01b038235169190810190604081016020820135600160201b8111156102d757600080fd5b8201836020820111156102e957600080fd5b803590602001918460018302840111600160201b8311171561030a57600080fd5b91908080601f0160208091040260200160405190810160405280939291908181526020018383808284376000920191909152509295506123e0945050505050565b604080519115158252519081900360200190f35b34801561036b57600080fd5b5061038f6004803603604081101561038257600080fd5b5080359060200135612570565b005b34801561039d57600080fd5b5061038f600480360360208110156103b457600080fd5b50356001600160a01b0316612597565b3480156103d057600080fd5b506103d96125f9565b60408051602080825283518183015283519192839290830191858101910280838360005b838110156104155781810151838201526020016103fd565b505050509050019250505060405180910390f35b34801561043557600080fd5b5061045c6004803603602081101561044c57600080fd5b50356001600160a01b031661265b565b60408051918252519081900360200190f35b34801561047a57600080fd5b506104a16004803603602081101561049157600080fd5b50356001600160a01b0316612695565b6040805160208082528351818301528351919283929083019185019080838360005b838110156104db5781810151838201526020016104c3565b50505050905090810190601f1680156105085780820380516001836020036101000a031916815260200191505b509250505060405180910390f35b34801561052257600080fd5b5061045c6004803603608081101561053957600080fd5b810190602081018135600160201b81111561055357600080fd5b82018360208201111561056557600080fd5b803590602001918460018302840111600160201b8311171561058657600080fd5b91908080601f0160208091040260200160405190810160405280939291908181526020018383808284376000920191909152509295949360208101935035915050600160201b8111156105d857600080fd5b8201836020820111156105ea57600080fd5b803590602001918460018302840111600160201b8311171561060b57600080fd5b91908080601f0160208091040260200160405190810160405280939291908181526020018383808284376000920191909152509295949360208101935035915050600160201b81111561065d57600080fd5b82018360208201111561066f57600080fd5b803590602001918460018302840111600160201b8311171561069057600080fd5b91908080601f016020809104026020016040519081016040528093929190818152602001838380828437600092019190915250929550509135925061275a915050565b3480156106df57600080fd5b5061038f600480360360208110156106f657600080fd5b5035612877565b34801561070957600080fd5b506107276004803603602081101561072057600080fd5b50356128c1565b604080516001600160a01b039092168252519081900360200190f35b34801561074f57600080fd5b506107766004803603602081101561076657600080fd5b50356001600160a01b03166128df565b60405180841515151581526020018060200180602001838103835285818151815260200191508051906020019080838360005b838110156107c15781810151838201526020016107a9565b50505050905090810190601f1680156107ee5780820380516001836020036101000a031916815260200191505b50838103825284518152845160209182019186019080838360005b83811015610821578181015183820152602001610809565b50505050905090810190601f16801561084e5780820380516001836020036101000a031916815260200191505b509550505050505060405180910390f35b34801561086b57600080fd5b5061034b6004803603604081101561088257600080fd5b6001600160a01b038235169190810190604081016020820135600160201b8111156108ac57600080fd5b8201836020820111156108be57600080fd5b803590602001918460018302840111600160201b831117156108df57600080fd5b91908080601f016020809104026020016040519081016040528093929190818152602001838380828437600092019190915250929550612a77945050505050565b34801561092c57600080fd5b5061034b6004803603604081101561094357600080fd5b6001600160a01b038235169190810190604081016020820135600160201b81111561096d57600080fd5b82018360208201111561097f57600080fd5b803590602001918460018302840111600160201b831117156109a057600080fd5b91908080601f016020809104026020016040519081016040528093929190818152602001838380828437600092019190915250929550612aef945050505050565b3480156109ed57600080fd5b5061045c60048036036020811015610a0457600080fd5b50356001600160a01b0316612c52565b348015610a2057600080fd5b5061034b60048036036060811015610a3757600080fd5b6001600160a01b038235169190810190604081016020820135600160201b811115610a6157600080fd5b820183602082011115610a7357600080fd5b803590602001918460018302840111600160201b83111715610a9457600080fd5b91908080601f0160208091040260200160405190810160405280939291908181526020018383808284376000920191909152509295949360208101935035915050600160201b811115610ae657600080fd5b820183602082011115610af857600080fd5b803590602001918460018302840111600160201b83111715610b1957600080fd5b91908080601f016020809104026020016040519081016040528093929190818152602001838380828437600092019190915250929550612cb3945050505050565b348015610b6657600080fd5b50610b8460048036036020811015610b7d57600080fd5b5035612d8e565b6040518080602001806020018060200188151515158152602001878152602001806020018060200186810386528d818151815260200191508051906020019080838360005b83811015610be1578181015183820152602001610bc9565b50505050905090810190601f168015610c0e5780820380516001836020036101000a031916815260200191505b5086810385528c5181528c516020918201918e019080838360005b83811015610c41578181015183820152602001610c29565b50505050905090810190601f168015610c6e5780820380516001836020036101000a031916815260200191505b5086810384528b5181528b516020918201918d019080838360005b83811015610ca1578181015183820152602001610c89565b50505050905090810190601f168015610cce5780820380516001836020036101000a031916815260200191505b5086810383528851815288516020918201918a019080838360005b83811015610d01578181015183820152602001610ce9565b50505050905090810190601f168015610d2e5780820380516001836020036101000a031916815260200191505b50868103825287518152875160209182019189019080838360005b83811015610d61578181015183820152602001610d49565b50505050905090810190601f168015610d8e5780820380516001836020036101000a031916815260200191505b509c5050505050505050505050505060405180910390f35b348015610db257600080fd5b506104a160048036036020811015610dc957600080fd5b50356001600160a01b03166130b6565b348015610de557600080fd5b5061034b600480360360e0811015610dfc57600080fd5b810190602081018135600160201b811115610e1657600080fd5b820183602082011115610e2857600080fd5b803590602001918460018302840111600160201b83111715610e4957600080fd5b91908080601f0160208091040260200160405190810160405280939291908181526020018383808284376000920191909152509295949360208101935035915050600160201b811115610e9b57600080fd5b820183602082011115610ead57600080fd5b803590602001918460018302840111600160201b83111715610ece57600080fd5b91908080601f0160208091040260200160405190810160405280939291908181526020018383808284376000920191909152509295949360208101935035915050600160201b811115610f2057600080fd5b820183602082011115610f3257600080fd5b803590602001918460018302840111600160201b83111715610f5357600080fd5b91908080601f0160208091040260200160405190810160405280939291908181526020018383808284376000920191909152509295949360208101935035915050600160201b811115610fa557600080fd5b820183602082011115610fb757600080fd5b803590602001918460018302840111600160201b83111715610fd857600080fd5b91908080601f0160208091040260200160405190810160405280939291908181526020018383808284376000920191909152509295949360208101935035915050600160201b81111561102a57600080fd5b82018360208201111561103c57600080fd5b803590602001918460018302840111600160201b8311171561105d57600080fd5b91908080601f0160208091040260200160405190810160405280939291908181526020018383808284376000920191909152509295949360208101935035915050600160201b8111156110af57600080fd5b8201836020820111156110c157600080fd5b803590602001918460018302840111600160201b831117156110e257600080fd5b91908080601f016020809104026020016040519081016040528093929190818152602001838380828437600092019190915250929550509135925061316a915050565b34801561113157600080fd5b5061114f6004803603602081101561114857600080fd5b503561325b565b604051808060200185815260200184815260200180602001838103835287818151815260200191508051906020019080838360005b8381101561119c578181015183820152602001611184565b50505050905090810190601f1680156111c95780820380516001836020036101000a031916815260200191505b50838103825284518152845160209182019186019080838360005b838110156111fc5781810151838201526020016111e4565b50505050905090810190601f1680156112295780820380516001836020036101000a031916815260200191505b50965050505050505060405180910390f35b34801561124757600080fd5b5061045c6004803603602081101561125e57600080fd5b50356133d2565b34801561127157600080fd5b5061038f6004803603602081101561128857600080fd5b50356001600160a01b03166133e7565b3480156112a457600080fd5b5061034b600480360360408110156112bb57600080fd5b6001600160a01b038235169190810190604081016020820135600160201b8111156112e557600080fd5b8201836020820111156112f757600080fd5b803590602001918460018302840111600160201b8311171561131857600080fd5b91908080601f016020809104026020016040519081016040528093929190818152602001838380828437600092019190915250929550613422945050505050565b34801561136557600080fd5b5061038f6004803603602081101561137c57600080fd5b503561346b565b61038f6004803603602081101561139957600080fd5b50356134fc565b3480156113ac57600080fd5b506113ca600480360360208110156113c357600080fd5b5035613666565b604051808060200180602001806020018060200180602001806020018060200188810388528f818151815260200191508051906020019080838360005b8381101561141f578181015183820152602001611407565b50505050905090810190601f16801561144c5780820380516001836020036101000a031916815260200191505b5088810387528e818151815260200191508051906020019080838360005b8381101561148257818101518382015260200161146a565b50505050905090810190601f1680156114af5780820380516001836020036101000a031916815260200191505b5088810386528d5181528d516020918201918f019080838360005b838110156114e25781810151838201526020016114ca565b50505050905090810190601f16801561150f5780820380516001836020036101000a031916815260200191505b5088810385528c5181528c516020918201918e019080838360005b8381101561154257818101518382015260200161152a565b50505050905090810190601f16801561156f5780820380516001836020036101000a031916815260200191505b5088810384528b5181528b516020918201918d019080838360005b838110156115a257818101518382015260200161158a565b50505050905090810190601f1680156115cf5780820380516001836020036101000a031916815260200191505b5088810383528a5181528a516020918201918c019080838360005b838110156116025781810151838201526020016115ea565b50505050905090810190601f16801561162f5780820380516001836020036101000a031916815260200191505b5088810382528951815289516020918201918b019080838360005b8381101561166257818101518382015260200161164a565b50505050905090810190601f16801561168f5780820380516001836020036101000a031916815260200191505b509e50505050505050505050505050505060405180910390f35b3480156116b557600080fd5b5061038f600480360360208110156116cc57600080fd5b50356139c8565b3480156116df57600080fd5b5061045c600480360360208110156116f657600080fd5b5035613a0c565b34801561170957600080fd5b506107766004803603602081101561172057600080fd5b50356001600160a01b0316613a2a565b34801561173c57600080fd5b5061175a6004803603602081101561175357600080fd5b5035613ad1565b60405180886001600160a01b03166001600160a01b0316815260200187815260200186151515158152602001856001600160a01b03166001600160a01b031681526020018460038111156117aa57fe5b60ff16815260200183815260200182815260200197505050505050505060405180910390f35b3480156117dc57600080fd5b5061045c600480360360408110156117f357600080fd5b50803590602001356001600160a01b0316613b28565b34801561181557600080fd5b5061038f6004803603604081101561182c57600080fd5b6001600160a01b038235169190810190604081016020820135600160201b81111561185657600080fd5b82018360208201111561186857600080fd5b803590602001918460018302840111600160201b8311171561188957600080fd5b91908080601f016020809104026020016040519081016040528093929190818152602001838380828437600092019190915250929550613b9a945050505050565b3480156118d657600080fd5b506118f4600480360360208110156118ed57600080fd5b5035613c34565b6040518080602001886001600160a01b03166001600160a01b0316815260200180602001871515151581526020018681526020018060200185815260200184810384528b818151815260200191508051906020019080838360005b8381101561196757818101518382015260200161194f565b50505050905090810190601f1680156119945780820380516001836020036101000a031916815260200191505b5084810383528951815289516020918201918b019080838360005b838110156119c75781810151838201526020016119af565b50505050905090810190601f1680156119f45780820380516001836020036101000a031916815260200191505b50848103825286518152865160209182019188019080838360005b83811015611a27578181015183820152602001611a0f565b50505050905090810190601f168015611a545780820380516001836020036101000a031916815260200191505b509a505050505050505050505060405180910390f35b348015611a7657600080fd5b506103d9613ed6565b348015611a8b57600080fd5b506104a160048036036020811015611aa257600080fd5b50356001600160a01b0316613f2c565b348015611abe57600080fd5b50611adc60048036036020811015611ad557600080fd5b5035613fe2565b6040518080602001876001600160a01b03166001600160a01b03168152602001866001600160a01b03166001600160a01b0316815260200185815260200184815260200180602001838103835289818151815260200191508051906020019080838360005b83811015611b59578181015183820152602001611b41565b50505050905090810190601f168015611b865780820380516001836020036101000a031916815260200191505b50838103825284518152845160209182019186019080838360005b83811015611bb9578181015183820152602001611ba1565b50505050905090810190601f168015611be65780820380516001836020036101000a031916815260200191505b509850505050505050505060405180910390f35b348015611c0657600080fd5b50611c2460048036036020811015611c1d57600080fd5b503561415b565b60405180886001600160a01b03166001600160a01b03168152602001806020018060200180602001878152602001806020018060200186810386528c818151815260200191508051906020019080838360005b83811015611c8f578181015183820152602001611c77565b50505050905090810190601f168015611cbc5780820380516001836020036101000a031916815260200191505b5086810385528b5181528b516020918201918d019080838360005b83811015611cef578181015183820152602001611cd7565b50505050905090810190601f168015611d1c5780820380516001836020036101000a031916815260200191505b5086810384528a5181528a516020918201918c019080838360008315610ca1578181015183820152602001610c89565b348015611d5857600080fd5b5061034b60048036036101e0811015611d7057600080fd5b810190602081018135600160201b811115611d8a57600080fd5b820183602082011115611d9c57600080fd5b803590602001918460018302840111600160201b83111715611dbd57600080fd5b91908080601f0160208091040260200160405190810160405280939291908181526020018383808284376000920191909152509295949360208101935035915050600160201b811115611e0f57600080fd5b820183602082011115611e2157600080fd5b803590602001918460018302840111600160201b83111715611e4257600080fd5b91908080601f0160208091040260200160405190810160405280939291908181526020018383808284376000920191909152509295949360208101935035915050600160201b811115611e9457600080fd5b820183602082011115611ea657600080fd5b803590602001918460018302840111600160201b83111715611ec757600080fd5b91908080601f01602080910402602001604051908101604052809392919081815260200183838082843760009201919091525092958435956020860135956001600160a01b0360408201351695509193509150608081019060600135600160201b811115611f3457600080fd5b820183602082011115611f4657600080fd5b803590602001918460018302840111600160201b83111715611f6757600080fd5b91908080601f01602080910402602001604051908101604052809392919081815260200183838082843760009201919091525092956001600160a01b0385351695602086013595604081013595509193509150608081019060600135600160201b811115611fd457600080fd5b820183602082011115611fe657600080fd5b803590602001918460018302840111600160201b8311171561200757600080fd5b91908080601f0160208091040260200160405190810160405280939291908181526020018383808284376000920191909152509295949360208101935035915050600160201b81111561205957600080fd5b82018360208201111561206b57600080fd5b803590602001918460018302840111600160201b8311171561208c57600080fd5b91908080601f0160208091040260200160405190810160405280939291908181526020018383808284376000920191909152509295949360208101935035915050600160201b8111156120de57600080fd5b8201836020820111156120f057600080fd5b803590602001918460018302840111600160201b8311171561211157600080fd5b91908080601f0160208091040260200160405190810160405280939291908181526020018383808284376000920191909152509295949360208101935035915050600160201b81111561216357600080fd5b82018360208201111561217557600080fd5b803590602001918460018302840111600160201b8311171561219657600080fd5b91908080601f016020809104026020016040519081016040528093929190818152602001838380828437600092019190915250929550505090356001600160a01b031691506143a79050565b3480156121ee57600080fd5b5061038f6004803603604081101561220557600080fd5b508035906020013560ff166146ae565b34801561222157600080fd5b5061034b6004803603608081101561223857600080fd5b6001600160a01b038235169190810190604081016020820135600160201b81111561226257600080fd5b82018360208201111561227457600080fd5b803590602001918460018302840111600160201b8311171561229557600080fd5b91908080601f0160208091040260200160405190810160405280939291908181526020018383808284376000920191909152509295949360208101935035915050600160201b8111156122e757600080fd5b8201836020820111156122f957600080fd5b803590602001918460018302840111600160201b8311171561231a57600080fd5b91908080601f0160208091040260200160405190810160405280939291908181526020018383808284376000920191909152509295949360208101935035915050600160201b81111561236c57600080fd5b82018360208201111561237e57600080fd5b803590602001918460018302840111600160201b8311171561239f57600080fd5b91908080601f016020809104026020016040519081016040528093929190818152602001838380828437600092019190915250929550614772945050505050565b6002546000906001600160a01b03163314156123fb57600080fd5b6001600160a01b0383811660009081526020819052604090205416331461242157600080fd5b816040516020018082805190602001908083835b602083106124545780518252601f199092019160209182019101612435565b6001836020036101000a03801982511681845116808217855250505050505090500191505060405160208183030381529060405280519060200120600080856001600160a01b03166001600160a01b0316815260200190815260200160002060020160405160200180828054600181600116156101000203166002900480156125145780601f106124f2576101008083540402835291820191612514565b820191906000526020600020905b815481529060010190602001808311612500575b505091505060405160208183030381529060405280519060200120141561256657506001600160a01b0382166000908152602081905260409020600501805460ff19166001179081905560ff1661256a565b5060005b92915050565b600061257b836133d2565b6000938452600460205260409093209190920160089091015550565b6002546001600160a01b03163314156125af57600080fd5b6001600160a01b038181166000908152602081905260409020541633146125d557600080fd5b6001600160a01b03166000908152602081905260409020600501805460ff19169055565b3360009081526007602090815260409182902080548351818402810184019094528084526060939283018282801561265057602002820191906000526020600020905b81548152602001906001019080831161263c575b505050505090505b90565b6002546000906001600160a01b0316331461267557600080fd5b506001600160a01b03908116600090815260016020526040902054163190565b6002546060906001600160a01b031633146126af57600080fd5b6001600160a01b03821660009081526001602081815260409283902060030180548451600294821615610100026000190190911693909304601f810183900483028401830190945283835291929083018282801561274e5780601f106127235761010080835404028352916020019161274e565b820191906000526020600020905b81548152906001019060200180831161273157829003601f168201915b50505050509050919050565b60006509184e72a000858585856040516020018085805190602001908083835b602083106127995780518252601f19909201916020918201910161277a565b51815160209384036101000a600019018019909216911617905287519190930192870191508083835b602083106127e15780518252601f1990920191602091820191016127c2565b51815160209384036101000a600019018019909216911617905286519190930192860191508083835b602083106128295780518252601f19909201916020918201910161280a565b51815160209384036101000a600019018019909216911617905292019384525060408051808503815293820190528251920191909120935084925061286d91505057fe5b0695945050505050565b6000818152600460205260409020600501546001600160a01b0316331461289d57600080fd5b6000908152600460205260409020601301805460ff60a01b1916600160a01b179055565b6000908152600460205260409020601301546001600160a01b031690565b60025460009060609081906001600160a01b03163314156128ff57600080fd5b6001600160a01b0384811660009081526020819052604090205416331461292557600080fd5b6001600160a01b03841660009081526020818152604091829020600581015460048201805485516002610100600180851615919091026000190190931604601f810187900487028201870190975286815260ff9093169591949301928491908301828280156129d55780601f106129aa576101008083540402835291602001916129d5565b820191906000526020600020905b8154815290600101906020018083116129b857829003601f168201915b5050845460408051602060026001851615610100026000190190941693909304601f810184900484028201840190925281815295975086945092508401905082828015612a635780601f10612a3857610100808354040283529160200191612a63565b820191906000526020600020905b815481529060010190602001808311612a4657829003601f168201915b505050505090509250925092509193909250565b6002546000906001600160a01b0316331415612a9257600080fd5b6001600160a01b03838116600090815260208190526040902054163314612ab857600080fd5b6001600160a01b0383166000908152602081815260409091208351612ae592600490920191850190614954565b5060019392505050565b6002546000906001600160a01b03163314612b0957600080fd5b816040516020018082805190602001908083835b60208310612b3c5780518252601f199092019160209182019101612b1d565b6001836020036101000a0380198251168184511680821785525050505050509050019150506040516020818303038152906040528051906020012060016000856001600160a01b03166001600160a01b031681526020019081526020016000206002016040516020018082805460018160011615610100020316600290048015612bfd5780601f10612bdb576101008083540402835291820191612bfd565b820191906000526020600020905b815481529060010190602001808311612be9575b505091505060405160208183030381529060405280519060200120141561256657506001600160a01b0382166000908152600160208190526040909120600401805460ff19169091179081905560ff1661256a565b6002546000906001600160a01b0316331415612c6d57600080fd5b6001600160a01b03828116600090815260208190526040902054163314612c9357600080fd5b506001600160a01b03908116600090815260208190526040902054163190565b6002546000906001600160a01b03163314612ccd57600080fd5b6001600160a01b0384811660009081526001602052604090205416331415612cf457600080fd5b6001600160a01b038416600081815260016020818152604090922080546001600160a01b03191690931783558551612d329390910191860190614954565b506001600160a01b03841660009081526001602090815260409091208351612d6292600290920191850190614954565b505050506001600160a01b03166000908152600160208190526040909120600401805460ff1916905590565b6000818152600460209081526040808320601381015460088201548254845160026101006001808516159190910260001901909316819004601f810189900489028301890190975286825260609889988998919788978a978897929692870195870194600160a01b90920460ff16939092600b880192600c890192899190830182828015612e5d5780601f10612e3257610100808354040283529160200191612e5d565b820191906000526020600020905b815481529060010190602001808311612e4057829003601f168201915b5050895460408051602060026001851615610100026000190190941693909304601f8101849004840282018401909252818152959c508b945092508401905082828015612eeb5780601f10612ec057610100808354040283529160200191612eeb565b820191906000526020600020905b815481529060010190602001808311612ece57829003601f168201915b5050885460408051602060026001851615610100026000190190941693909304601f8101849004840282018401909252818152959b508a945092508401905082828015612f795780601f10612f4e57610100808354040283529160200191612f79565b820191906000526020600020905b815481529060010190602001808311612f5c57829003601f168201915b5050855460408051602060026001851615610100026000190190941693909304601f8101849004840282018401909252818152959a50879450925084019050828280156130075780601f10612fdc57610100808354040283529160200191613007565b820191906000526020600020905b815481529060010190602001808311612fea57829003601f168201915b5050845460408051602060026001851615610100026000190190941693909304601f8101849004840282018401909252818152959750869450925084019050828280156130955780601f1061306a57610100808354040283529160200191613095565b820191906000526020600020905b81548152906001019060200180831161307857829003601f168201915b5050505050905096509650965096509650965096505b919395979092949650565b6002546060906001600160a01b03163314156130d157600080fd5b6001600160a01b038281166000908152602081905260409020541633146130f757600080fd5b6001600160a01b0382166000908152602081815260409182902060040180548351601f60026000196101006001861615020190931692909204918201849004840281018401909452808452909183018282801561274e5780601f106127235761010080835404028352916020019161274e565b60008181526004602090815260408220895161318e92600d909201918b0190614954565b50600082815260046020908152604090912088516131b492600e909201918a0190614954565b50600082815260046020908152604090912087516131da92600f90920191890190614954565b506000828152600460209081526040909120865161320092601090920191880190614954565b506000828152600460209081526040909120855161322692601190920191870190614954565b506000828152600460209081526040909120845161324c92601290920191860190614954565b50600198975050505050505050565b6000818152600460205260408120601301546060919081908390600160a01b900460ff16156133cb576000858152600460208181526040928390206003810154928101546002808301805487516001821615610100026000190190911692909204601f8101869004860283018601909752868252959193600c909301929091869183018282801561332d5780601f106133025761010080835404028352916020019161332d565b820191906000526020600020905b81548152906001019060200180831161331057829003601f168201915b5050845460408051602060026001851615610100026000190190941693909304601f8101849004840282018401909252818152959950869450925084019050828280156133bb5780601f10613390576101008083540402835291602001916133bb565b820191906000526020600020905b81548152906001019060200180831161339e57829003601f168201915b5050505050905093509350935093505b9193509193565b60009081526004602052604090206008015490565b6002546001600160a01b031633146133fe57600080fd5b6001600160a01b03166000908152600160205260409020600401805460ff19169055565b6002546000906001600160a01b0316331461343c57600080fd5b6001600160a01b03831660009081526001602090815260409091208351612ae592600390920191850190614954565b600081815260046020526040902060130154600160a01b900460ff1661349057600080fd5b600081815260046020526040902060080154333110156134af57600080fd5b60009081526004602052604090206013018054336001600160a01b0319909116177fffffffffffffffffffff0000ffffffffffffffffffffffffffffffffffffffff16600160a81b179055565b6003600082815260046020526040902060130154600160a81b900460ff16600381111561352557fe5b1461352f57600080fd5b60008181526004602052604090206008015434101561354d57600080fd5b6000818152600460205260408082206005015490516001600160a01b03909116913480156108fc02929091818181858888f19350505050158015613595573d6000803e3d6000fd5b506000818152600460205260409020600501546135bb906001600160a01b03168261487b565b600081815260046020526040902060050180546001600160a01b031916339081179091556135e890613f2c565b600460008381526020019081526020016000206006019080519060200190613611929190614954565b50600081815260046020908152604080832060130180547fffffffffffffffffffff00000000000000000000000000000000000000000000169055338352600782528220805460018101825590835291200155565b600081815260046020908152604091829020600d810180548451601f600260001961010060018616150201909316929092049182018590048502810185019095528085526060948594859485948594859485949293600e810193600f820193601083019360118401936012810193600690910192899183018282801561372d5780601f106137025761010080835404028352916020019161372d565b820191906000526020600020905b81548152906001019060200180831161371057829003601f168201915b5050895460408051602060026001851615610100026000190190941693909304601f8101849004840282018401909252818152959c508b9450925084019050828280156137bb5780601f10613790576101008083540402835291602001916137bb565b820191906000526020600020905b81548152906001019060200180831161379e57829003601f168201915b5050885460408051602060026001851615610100026000190190941693909304601f8101849004840282018401909252818152959b508a9450925084019050828280156138495780601f1061381e57610100808354040283529160200191613849565b820191906000526020600020905b81548152906001019060200180831161382c57829003601f168201915b5050875460408051602060026001851615610100026000190190941693909304601f8101849004840282018401909252818152959a50899450925084019050828280156138d75780601f106138ac576101008083540402835291602001916138d7565b820191906000526020600020905b8154815290600101906020018083116138ba57829003601f168201915b5050865460408051602060026001851615610100026000190190941693909304601f8101849004840282018401909252818152959950889450925084019050828280156139655780601f1061393a57610100808354040283529160200191613965565b820191906000526020600020905b81548152906001019060200180831161394857829003601f168201915b5050855460408051602060026001851615610100026000190190941693909304601f8101849004840282018401909252818152959850879450925084019050828280156130075780601f10612fdc57610100808354040283529160200191613007565b6000818152600460205260409020600501546001600160a01b031633146139ee57600080fd5b6000908152600460205260409020601301805460ff60a01b19169055565b60038181548110613a1957fe5b600091825260209091200154905081565b60025460009060609081906001600160a01b03163314613a4957600080fd5b6001600160a01b03841660009081526001602081815260409283902060048101546003820180548651601f6002600019848a161561010002019093169290920491820186900486028101860190975280875260ff90921695909492909201928491908301828280156129d55780601f106129aa576101008083540402835291602001916129d5565b6000908152600460208190526040909120600581015460088201546013830154600384015493909401546001600160a01b0392831695919460ff600160a01b820481169594821694600160a81b9092041692909190565b6000805b6001600160a01b038316600090815260076020526040902054811015613b93576001600160a01b0383166000908152600760205260409020805485919083908110613b7357fe5b90600052602060002001541415613b8b57905061256a565b600101613b2c565b9392505050565b6005546001600160a01b03163314613bb157600080fd5b816006826040518082805190602001908083835b60208310613be45780518252601f199092019160209182019101613bc5565b51815160209384036101000a6000190180199092169116179052920194855250604051938490030190922080546001600160a01b0319166001600160a01b03949094169390931790925550505050565b6000818152600460205260408120601301546060919082908290819083908290600160a01b900460ff16156130ab5760046000898152602001908152602001600020600001600460008a815260200190815260200160002060050160009054906101000a90046001600160a01b0316600460008b8152602001908152602001600020600101600460008c815260200190815260200160002060130160149054906101000a900460ff16600460008d815260200190815260200160002060080154600460008e8152602001908152602001600020600b018d868054600181600116156101000203166002900480601f016020809104026020016040519081016040528092919081815260200182805460018160011615610100020316600290048015613da05780601f10613d7557610100808354040283529160200191613da0565b820191906000526020600020905b815481529060010190602001808311613d8357829003601f168201915b5050885460408051602060026001851615610100026000190190941693909304601f8101849004840282018401909252818152959c508a945092508401905082828015613e2e5780601f10613e0357610100808354040283529160200191613e2e565b820191906000526020600020905b815481529060010190602001808311613e1157829003601f168201915b5050855460408051602060026001851615610100026000190190941693909304601f8101849004840282018401909252818152959a5087945092508401905082828015613ebc5780601f10613e9157610100808354040283529160200191613ebc565b820191906000526020600020905b815481529060010190602001808311613e9f57829003601f168201915b5050505050915096509650965096509650965096506130ab565b60606003805480602002602001604051908101604052809291908181526020018280548015612650576020028201919060005260206000209081548152602001906001019080831161263c575050505050905090565b6002546060906001600160a01b0316331415613f4757600080fd5b6001600160a01b03828116600090815260208190526040902054163314613f6d57600080fd5b6001600160a01b03821660009081526020818152604091829020600190810180548451600293821615610100026000190190911692909204601f81018490048402830184019094528382529092909183018282801561274e5780601f106127235761010080835404028352916020019161274e565b6000818152600460208181526040808420601481015460058201546003830154958301546009840180548651601f60026000196001851615610100020190931692909204918201899004890281018901909752808752606099988998899889988d9895976001600160a01b03968716979616959394600a909101928891908301828280156140b15780601f10614086576101008083540402835291602001916140b1565b820191906000526020600020905b81548152906001019060200180831161409457829003601f168201915b5050845460408051602060026001851615610100026000190190941693909304601f8101849004840282018401909252818152959b508694509250840190508282801561413f5780601f106141145761010080835404028352916020019161413f565b820191906000526020600020905b81548152906001019060200180831161412257829003601f168201915b5050505050905095509550955095509550955091939550919395565b6000818152600460209081526040808320600581015460088201548254845160026101006001808516159190910260001901909316819004601f8101899004890283018901909752868252606097889788978b97899788976001600160a01b0390921696929591860194918601939092600b870192600c88019288918301828280156142285780601f106141fd57610100808354040283529160200191614228565b820191906000526020600020905b81548152906001019060200180831161420b57829003601f168201915b5050885460408051602060026001851615610100026000190190941693909304601f8101849004840282018401909252818152959b508a9450925084019050828280156142b65780601f1061428b576101008083540402835291602001916142b6565b820191906000526020600020905b81548152906001019060200180831161429957829003601f168201915b5050875460408051602060026001851615610100026000190190941693909304601f8101849004840282018401909252818152959a50899450925084019050828280156143445780601f1061431957610100808354040283529160200191614344565b820191906000526020600020905b81548152906001019060200180831161432757829003601f168201915b5050855460408051602060026001851615610100026000190190941693909304601f8101849004840282018401909252818152959950879450925084019050828280156130075780601f10612fdc57610100808354040283529160200191613007565b6000336001600160a01b031660068f6040518082805190602001908083835b602083106143e55780518252601f1990920191602091820191016143c6565b51815160209384036101000a60001901801990921691161790529201948552506040519384900301909220546001600160a01b031692909214915081905061443757506005546001600160a01b031633145b61444057600080fd5b8f60046000898152602001908152602001600020600001908051906020019061446a929190614954565b508e600460008981526020019081526020016000206001019080519060200190614495929190614954565b508d6004600089815260200190815260200160002060020190805190602001906144c0929190614954565b508c60046000898152602001908152602001600020600301819055508b60046000898152602001908152602001600020600401819055508a6004600089815260200190815260200160002060050160006101000a8154816001600160a01b0302191690836001600160a01b031602179055508960046000898152602001908152602001600020600601908051906020019061455c929190614954565b5060008781526004602090815260409091206007810180546001600160a01b0319166001600160a01b038d16179055600881018a905587516145a692600b90920191890190614954565b50600087815260046020908152604090912086516145cc92600c90920191880190614954565b50600087815260046020908152604090912085516145f292600990920191870190614954565b506000878152600460209081526040909120845161461892600a90920191860190614954565b5050600086815260046020908152604080832060140180546001600160a01b0319166001600160a01b039586161790559b909216815260078252998a20805460018181018355918c52918b209091018690556003805480830182559a527fc2575a0e9e593c00f959f8c92f12db2869c3395a3b0502d05e2516446f71f85b9099019490945550959b9a5050505050505050505050565b6000828152600460205260409020600501546001600160a01b031633146146d457600080fd5b600082815260046020526040902060130180548291907fffffffffffffffffffff00ffffffffffffffffffffffffffffffffffffffffff16600160a81b83600381111561471d57fe5b0217905550600281600381111561473057fe5b141561476e57600082815260046020526040902060130180547fffffffffffffffffffff00ff00000000000000000000000000000000000000001690555b5050565b6002546000906001600160a01b031633141561478d57600080fd5b6001600160a01b03858116600090815260208190526040902054163314156147b457600080fd5b6001600160a01b03851660008181526020818152604090912080546001600160a01b031916909217825585516147f09260010191870190614954565b506001600160a01b038516600090815260208181526040909120845161481e92600290920191860190614954565b506001600160a01b038516600090815260208181526040909120835161484c92600390920191850190614954565b50506001600160a01b0384166000908152602081905260409020600501805460ff191690556001949350505050565b60006148878284613b28565b6001600160a01b038416600090815260076020526040902080549192509060001981019081106148b357fe5b60009182526020808320909101546001600160a01b0386168352600790915260409091208054839081106148e357fe5b60009182526020808320909101929092556001600160a01b03851681526007909152604090208054600019810190811061491957fe5b600091825260208083209091018290556001600160a01b0385168252600790526040902080549061494e9060001983016149d2565b50505050565b828054600181600116156101000203166002900490600052602060002090601f016020900481019282601f1061499557805160ff19168380011785556149c2565b828001600101855582156149c2579182015b828111156149c25782518255916020019190600101906149a7565b506149ce9291506149fb565b5090565b8154818355818111156149f6576000838152602090206149f69181019083016149fb565b505050565b61265891905b808211156149ce5760008155600101614a0156fea265627a7a72315820d1845fd1f6dd81a6e3d76086ead70dce512660dc6806bb0719854d53c057898664736f6c63430005100032",
  "source": "pragma solidity >=0.4.0 <0.6.0;\n\nimport {Auth} from \"../contracts/Auth.sol\";\n\ncontract Land is Auth {\n    struct landDetails {\n        string state;\n        string district;\n        string villageTown;\n        uint256 khataNumber;\n        uint256 khatooniNumber;\n        address payable CurrentOwner;\n        string ownerName;\n        address previousOwner;\n        uint256 marketValue;\n        string ipfsHash;\n        string landType;\n        string squareFoots;\n        string inches;\n        string lat;\n        string lng;\n        string north;\n        string south;\n        string east;\n        string west;\n        address payable requester;\n        bool isAvailable;\n        reqStatus requestStatus;\n        address createByGovt;\n        string orderEndTime;\n    }\n\n    uint256[] public propertiesIDs;\n\n    //request status\n    enum reqStatus {\n        Default,\n        pending,\n        reject,\n        approved\n    }\n\n    //profile of a client\n    struct profiles {\n        uint256[] assetList;\n    }\n\n    mapping(uint256 => landDetails) land;\n    address owner;\n    mapping(string => address) superAdmin;\n    mapping(address => profiles) profile;\n\n    //contract owner\n    constructor() public {\n        owner = msg.sender;\n    }\n\n    modifier onlyOwner() {\n        require(msg.sender == owner);\n        _;\n    }\n\n    //adding village admins\n    function addSuperAdmin(address _superAdmin, string memory _village)\n        public\n        onlyOwner\n    {\n        superAdmin[_village] = _superAdmin;\n    }\n\n    //Registration of land details.\n    function Registration(\n        string memory _state,\n        string memory _district,\n        string memory _villageTown,\n        uint256 _khataNumber,\n        uint256 _khatooniNumber,\n        address payable _OwnerAddress,\n        string memory _ownerName,\n        address _previousOwner,\n        uint256 _marketValue,\n        uint256 id,\n        string memory _squareFoots,\n        string memory _inches,\n        string memory _ipfsHash,\n        string memory _landType,\n        address _createByGovt\n    ) public returns (bool) {\n        require(superAdmin[_villageTown] == msg.sender || owner == msg.sender);\n        land[id].state = _state;\n        land[id].district = _district;\n        land[id].villageTown = _villageTown;\n        land[id].khataNumber = _khataNumber;\n        land[id].khatooniNumber = _khatooniNumber;\n        land[id].CurrentOwner = _OwnerAddress;\n        land[id].ownerName = _ownerName;\n        land[id].previousOwner = _previousOwner;\n        land[id].marketValue = _marketValue;\n        land[id].squareFoots = _squareFoots;\n        land[id].inches = _inches;\n        land[id].ipfsHash = _ipfsHash;\n        land[id].landType = _landType;\n        land[id].createByGovt = _createByGovt;\n        profile[_OwnerAddress].assetList.push(id);\n        propertiesIDs.push(id);\n        return true;\n    }\n\n    // Updating land details. Polyline\n    function registerLandPolyline(\n        string memory _lat,\n        string memory _lng,\n        string memory _north,\n        string memory _south,\n        string memory _east,\n        string memory _west,\n        uint256 id\n    ) public returns (bool) {\n        land[id].lat = _lat;\n        land[id].lng = _lng;\n        land[id].north = _north;\n        land[id].south = _south;\n        land[id].east = _east;\n        land[id].west = _west;\n        return true;\n    }\n\n    //to view details of land for the owner\n    function landInfoOwner(uint256 id)\n        public\n        view\n        returns (\n            string memory,\n            string memory,\n            string memory,\n            bool,\n            uint256,\n            string memory,\n            string memory\n        )\n    {\n        return (\n            land[id].state,\n            land[id].district,\n            land[id].villageTown,\n            land[id].isAvailable,\n            land[id].marketValue,\n            land[id].squareFoots,\n            land[id].inches\n        );\n    }\n\n    function remainingDetail(uint256 id)\n        public\n        view\n        returns (\n            string memory,\n            address,\n            address,\n            uint256,\n            uint256,\n            string memory\n        )\n    {\n        return (\n            land[id].ipfsHash,\n            land[id].createByGovt,\n            land[id].CurrentOwner,\n            land[id].khataNumber,\n            land[id].khatooniNumber,\n            land[id].landType\n        );\n    }\n\n    function remainingMoreDetail(uint256 id)\n        public\n        view\n        returns (\n            string memory,\n            string memory,\n            string memory,\n            string memory,\n            string memory,\n            string memory,\n            string memory\n        )\n    {\n        return (\n            land[id].lat,\n            land[id].lng,\n            land[id].north,\n            land[id].south,\n            land[id].east,\n            land[id].west,\n            land[id].ownerName\n        );\n    }\n\n    function showAllLands(uint256 id)\n        public\n        view\n        returns (\n            address,\n            string memory,\n            string memory,\n            string memory,\n            uint256,\n            string memory,\n            string memory\n        )\n    {\n        return (\n            land[id].CurrentOwner,\n            land[id].state,\n            land[id].district,\n            land[id].villageTown,\n            land[id].marketValue,\n            land[id].squareFoots,\n            land[id].inches\n        );\n    }\n\n    //to view details of land for the buyer\n    function landInfoUser(uint256 id)\n        public\n        view\n        returns (\n            address,\n            uint256,\n            bool,\n            address,\n            reqStatus,\n            uint256,\n            uint256\n        )\n    {\n        return (\n            land[id].CurrentOwner,\n            land[id].marketValue,\n            land[id].isAvailable,\n            land[id].requester,\n            land[id].requestStatus,\n            land[id].khataNumber,\n            land[id].khatooniNumber\n        );\n    }\n\n    // to compute id for a land.\n    function computeId(\n        string memory _state,\n        string memory _district,\n        string memory _village,\n        uint256 _surveyNumber\n    ) public view returns (uint256) {\n        return\n            uint256(\n                keccak256(\n                    abi.encodePacked(_state, _district, _village, _surveyNumber)\n                )\n            ) % 10000000000000;\n    }\n\n    //push a request to the land owner\n    function requstToLandOwner(uint256 id) public {\n        require(land[id].isAvailable);\n        require(msg.sender.balance >= land[id].marketValue);\n        land[id].requester = msg.sender;\n        land[id].isAvailable = false;\n        land[id].requestStatus = reqStatus.pending; //changes the status to pending.\n    }\n\n    //will show assets of the function caller\n    function viewAssets() public view returns (uint256[] memory) {\n        return (profile[msg.sender].assetList);\n    }\n\n    //viewing request for the lands\n    function viewRequest(uint256 property) public view returns (address) {\n        return (land[property].requester);\n    }\n\n    //availing land for sale.\n    function markAvailable(uint256 property) public {\n        require(land[property].CurrentOwner == msg.sender);\n        land[property].isAvailable = true;\n    }\n\n    function unMarkLand(uint256 property) public {\n        require(land[property].CurrentOwner == msg.sender);\n        land[property].isAvailable = false;\n    }\n\n    function showMarketValue(uint256 id) public view returns (uint256) {\n        return land[id].marketValue;\n    }\n\n    // change the market value after some years\n    function changeMarketValue(uint256 property, uint256 _marketValue) public {\n        uint256 marketValueGet = showMarketValue(property);\n        land[property].marketValue = marketValueGet + _marketValue;\n    }\n\n    // Get all the lands ids.\n    function getAllLands() public view returns (uint256[] memory) {\n        return (propertiesIDs);\n    }\n\n    // show marked Available\n    function viewMarkded(uint256 id)\n        public\n        view\n        returns (\n            string memory,\n            address,\n            string memory,\n            bool,\n            uint256,\n            string memory,\n            uint256\n        )\n    {\n        if (land[id].isAvailable) {\n            return (\n                land[id].state,\n                land[id].CurrentOwner,\n                land[id].district,\n                land[id].isAvailable,\n                land[id].marketValue,\n                land[id].squareFoots,\n                id\n            );\n        }\n    }\n\n    // show marked Available\n    function viewMarkdedRemainingData(uint256 id)\n        public\n        view\n        returns (\n            string memory,\n            uint256,\n            uint256,\n            string memory\n        )\n    {\n        if (land[id].isAvailable) {\n            return (\n                land[id].villageTown,\n                land[id].khataNumber,\n                land[id].khatooniNumber,\n                land[id].inches\n            );\n        }\n    }\n\n    //processing request for the land by accepting or rejecting\n    function processRequest(uint256 property, reqStatus status) public {\n        require(land[property].CurrentOwner == msg.sender);\n        land[property].requestStatus = status;\n        if (status == reqStatus.reject) {\n            land[property].requester = address(0);\n            land[property].requestStatus = reqStatus.Default;\n        }\n    }\n\n    //buying the approved property\n    function buyProperty(uint256 property) public payable {\n        require(land[property].requestStatus == reqStatus.approved);\n        require(msg.value >= land[property].marketValue);\n        land[property].CurrentOwner.transfer(msg.value);\n        removeOwnership(land[property].CurrentOwner, property);\n        land[property].CurrentOwner = msg.sender;\n        land[property].ownerName = getUserName(msg.sender);\n        land[property].isAvailable = false;\n        land[property].requester = address(0);\n        land[property].requestStatus = reqStatus.Default;\n        profile[msg.sender].assetList.push(property); //adds the property to the asset list of the new owner.\n    }\n\n    //removing the ownership of seller for the land. and it is called by the buyProperty function\n    function removeOwnership(address previousOwner, uint256 id) private {\n        uint256 index = findId(id, previousOwner);\n        profile[previousOwner].assetList[index] = profile[previousOwner]\n            .assetList[profile[previousOwner].assetList.length - 1];\n        delete profile[previousOwner].assetList[\n            profile[previousOwner].assetList.length - 1\n        ];\n        profile[previousOwner].assetList.length--;\n    }\n\n    //for finding the index of a perticular id\n    function findId(uint256 id, address user) public view returns (uint256) {\n        uint256 i;\n        for (i = 0; i < profile[user].assetList.length; i++) {\n            if (profile[user].assetList[i] == id) return i;\n        }\n        return i;\n    }\n}\n",
  "sourcePath": "/home/zaryab/VSCodeProjects/land-records-blockchain/src/contracts/Land.sol",
  "compiler": {
    "name": "solc",
    "version": "0.5.16+commit.9c3226ce.Emscripten.clang"
  },
  "schemaVersion": "3.4.1",
  "updatedAt": "2021-09-08T11:16:21.897Z",
  "networkType": "ethereum",
  "devdoc": {
    "methods": {}
  },
  "userdoc": {
    "methods": {}
  }
}