{
  "contractName": "Land",
  "abi": [
    {
      "constant": true,
      "inputs": [
        {
          "internalType": "uint256",
          "name": "",
          "type": "uint256"
        }
      ],
      "name": "properties",
      "outputs": [
        {
          "internalType": "uint256",
          "name": "landID",
          "type": "uint256"
        },
        {
          "internalType": "uint256",
          "name": "value",
          "type": "uint256"
        },
        {
          "internalType": "address",
          "name": "currOwner",
          "type": "address"
        }
      ],
      "payable": false,
      "stateMutability": "view",
      "type": "function"
    },
    {
      "constant": true,
      "inputs": [
        {
          "internalType": "uint256",
          "name": "",
          "type": "uint256"
        }
      ],
      "name": "propertiesAddress",
      "outputs": [
        {
          "internalType": "address",
          "name": "",
          "type": "address"
        }
      ],
      "payable": false,
      "stateMutability": "view",
      "type": "function"
    },
    {
      "constant": true,
      "inputs": [
        {
          "internalType": "uint256",
          "name": "",
          "type": "uint256"
        }
      ],
      "name": "propertiesIDs",
      "outputs": [
        {
          "internalType": "uint256",
          "name": "",
          "type": "uint256"
        }
      ],
      "payable": false,
      "stateMutability": "view",
      "type": "function"
    },
    {
      "constant": true,
      "inputs": [
        {
          "internalType": "uint256",
          "name": "",
          "type": "uint256"
        }
      ],
      "name": "propertiesValues",
      "outputs": [
        {
          "internalType": "uint256",
          "name": "",
          "type": "uint256"
        }
      ],
      "payable": false,
      "stateMutability": "view",
      "type": "function"
    },
    {
      "constant": false,
      "inputs": [
        {
          "internalType": "uint256",
          "name": "_propId",
          "type": "uint256"
        },
        {
          "internalType": "uint256",
          "name": "_value",
          "type": "uint256"
        },
        {
          "internalType": "address",
          "name": "_owner",
          "type": "address"
        }
      ],
      "name": "createProperty",
      "outputs": [
        {
          "internalType": "bool",
          "name": "",
          "type": "bool"
        }
      ],
      "payable": false,
      "stateMutability": "nonpayable",
      "type": "function"
    },
    {
      "constant": true,
      "inputs": [
        {
          "internalType": "uint256",
          "name": "_propId",
          "type": "uint256"
        }
      ],
      "name": "getPropertyDetails",
      "outputs": [
        {
          "internalType": "uint256",
          "name": "",
          "type": "uint256"
        },
        {
          "internalType": "uint256",
          "name": "",
          "type": "uint256"
        },
        {
          "internalType": "address",
          "name": "",
          "type": "address"
        }
      ],
      "payable": false,
      "stateMutability": "view",
      "type": "function"
    },
    {
      "constant": true,
      "inputs": [],
      "name": "getAllDetails",
      "outputs": [
        {
          "internalType": "uint256[]",
          "name": "",
          "type": "uint256[]"
        },
        {
          "internalType": "uint256[]",
          "name": "",
          "type": "uint256[]"
        },
        {
          "internalType": "address[]",
          "name": "",
          "type": "address[]"
        }
      ],
      "payable": false,
      "stateMutability": "view",
      "type": "function"
    }
  ],
  "bytecode": "0x608060405234801561001057600080fd5b506107ea806100206000396000f3fe608060405234801561001057600080fd5b506004361061007d5760003560e01c8063a4c4596a1161005b578063a4c4596a146101b0578063a854158f146101f2578063ccc5d7d414610260578063f7b108081461034f5761007d565b8063126dbe43146100825780639448f03d146100fe57806394e504d21461016e575b600080fd5b6100ae6004803603602081101561009857600080fd5b81019080803590602001909291905050506103cb565b604051808481526020018381526020018273ffffffffffffffffffffffffffffffffffffffff1673ffffffffffffffffffffffffffffffffffffffff168152602001935050505060405180910390f35b6101546004803603606081101561011457600080fd5b810190808035906020019092919080359060200190929190803573ffffffffffffffffffffffffffffffffffffffff16906020019092919050505061043f565b604051808215151515815260200191505060405180910390f35b61019a6004803603602081101561018457600080fd5b81019080803590602001909291905050506105ab565b6040518082815260200191505060405180910390f35b6101dc600480360360208110156101c657600080fd5b81019080803590602001909291905050506105cc565b6040518082815260200191505060405180910390f35b61021e6004803603602081101561020857600080fd5b81019080803590602001909291905050506105ed565b604051808273ffffffffffffffffffffffffffffffffffffffff1673ffffffffffffffffffffffffffffffffffffffff16815260200191505060405180910390f35b610268610629565b60405180806020018060200180602001848103845287818151815260200191508051906020019060200280838360005b838110156102b3578082015181840152602081019050610298565b50505050905001848103835286818151815260200191508051906020019060200280838360005b838110156102f55780820151818401526020810190506102da565b50505050905001848103825285818151815260200191508051906020019060200280838360005b8381101561033757808201518184015260208101905061031c565b50505050905001965050505050505060405180910390f35b61037b6004803603602081101561036557600080fd5b810190808035906020019092919050505061076b565b604051808481526020018381526020018273ffffffffffffffffffffffffffffffffffffffff1673ffffffffffffffffffffffffffffffffffffffff168152602001935050505060405180910390f35b6000806000806000858152602001908152602001600020600001546000808681526020019081526020016000206001015460008087815260200190815260200160002060020160009054906101000a900473ffffffffffffffffffffffffffffffffffffffff169250925092509193909250565b600060405180606001604052808581526020018481526020018373ffffffffffffffffffffffffffffffffffffffff16815250600080868152602001908152602001600020600082015181600001556020820151816001015560408201518160020160006101000a81548173ffffffffffffffffffffffffffffffffffffffff021916908373ffffffffffffffffffffffffffffffffffffffff1602179055509050506001849080600181540180825580915050906001820390600052602060002001600090919290919091505550600283908060018154018082558091505090600182039060005260206000200160009091929091909150555060038290806001815401808255809150509060018203906000526020600020016000909192909190916101000a81548173ffffffffffffffffffffffffffffffffffffffff021916908373ffffffffffffffffffffffffffffffffffffffff16021790555050600190509392505050565b600181815481106105b857fe5b906000526020600020016000915090505481565b600281815481106105d957fe5b906000526020600020016000915090505481565b600381815481106105fa57fe5b906000526020600020016000915054906101000a900473ffffffffffffffffffffffffffffffffffffffff1681565b60608060606001600260038280548060200260200160405190810160405280929190818152602001828054801561067f57602002820191906000526020600020905b81548152602001906001019080831161066b575b50505050509250818054806020026020016040519081016040528092919081815260200182805480156106d157602002820191906000526020600020905b8154815260200190600101908083116106bd575b505050505091508080548060200260200160405190810160405280929190818152602001828054801561075957602002820191906000526020600020905b8160009054906101000a900473ffffffffffffffffffffffffffffffffffffffff1673ffffffffffffffffffffffffffffffffffffffff168152602001906001019080831161070f575b50505050509050925092509250909192565b60006020528060005260406000206000915090508060000154908060010154908060020160009054906101000a900473ffffffffffffffffffffffffffffffffffffffff1690508356fea265627a7a72315820ba6ee18d05350646a09b1e5197103efbab12592593df3a17d9d8dd105d774f1464736f6c63430005100032",
  "source": "pragma solidity >=0.4.22 <0.9.0;\r\n\r\ncontract Land {    \r\n\r\n\tstruct PropertyDetail {\r\n\t    uint landID;\r\n\t\tuint value;\r\n\t\taddress currOwner;\r\n\t}\r\n\t\r\n    mapping(uint => PropertyDetail) public properties;\r\n    uint[] public propertiesIDs;\r\n    uint[] public propertiesValues;\r\n    address[] public propertiesAddress;\r\n    \r\n\t// Create Property\r\n    function createProperty(uint _propId, uint _value, address _owner) public returns (bool)  {\r\n\t\tproperties[_propId] = PropertyDetail(_propId, _value, _owner);\r\n\t\tpropertiesIDs.push(_propId);\r\n\t\tpropertiesValues.push(_value);\r\n\t\tpropertiesAddress.push(_owner);\r\n\t\treturn true;\r\n\t}\r\n\t\r\n\t// Get the property details.\r\n\t function getPropertyDetails(uint _propId) view public returns (uint, uint, address)  {\r\n\t\treturn (properties[_propId].landID, properties[_propId].value, properties[_propId].currOwner);\r\n\t}\r\n\t\r\n    // Get the property details.\r\n\t function getAllDetails() view public returns (uint[] memory, uint[] memory, address[] memory)  {\r\n\t\treturn (propertiesIDs, propertiesValues,propertiesAddress);\r\n\t}\r\n\r\n}",
  "sourcePath": "D:/Blockchain/Template/landrecord/land-records-blockchain/contracts/Land.sol",
  "compiler": {
    "name": "solc",
    "version": "0.5.16+commit.9c3226ce.Emscripten.clang"
  },
  "schemaVersion": "3.4.1",
  "updatedAt": "2021-06-27T07:49:25.634Z",
  "networkType": "ethereum",
  "devdoc": {
    "methods": {}
  },
  "userdoc": {
    "methods": {}
  }
}