{
  "contractName": "Land",
  "abi": [
    {
      "inputs": [],
      "payable": false,
      "stateMutability": "nonpayable",
      "type": "constructor"
    },
    {
      "constant": false,
      "inputs": [
        {
          "internalType": "address",
          "name": "_address",
          "type": "address"
        }
      ],
      "name": "checkIsAdminLogged",
      "outputs": [
        {
          "internalType": "bool",
          "name": "",
          "type": "bool"
        },
        {
          "internalType": "string",
          "name": "",
          "type": "string"
        },
        {
          "internalType": "string",
          "name": "",
          "type": "string"
        }
      ],
      "payable": false,
      "stateMutability": "nonpayable",
      "type": "function"
    },
    {
      "constant": false,
      "inputs": [
        {
          "internalType": "address",
          "name": "_address",
          "type": "address"
        }
      ],
      "name": "checkIsUserLogged",
      "outputs": [
        {
          "internalType": "bool",
          "name": "",
          "type": "bool"
        },
        {
          "internalType": "string",
          "name": "",
          "type": "string"
        },
        {
          "internalType": "string",
          "name": "",
          "type": "string"
        }
      ],
      "payable": false,
      "stateMutability": "nonpayable",
      "type": "function"
    },
    {
      "constant": false,
      "inputs": [
        {
          "internalType": "address",
          "name": "_address",
          "type": "address"
        },
        {
          "internalType": "string",
          "name": "_password",
          "type": "string"
        }
      ],
      "name": "forgetPasswordUser",
      "outputs": [
        {
          "internalType": "bool",
          "name": "",
          "type": "bool"
        }
      ],
      "payable": false,
      "stateMutability": "nonpayable",
      "type": "function"
    },
    {
      "constant": false,
      "inputs": [
        {
          "internalType": "address",
          "name": "_address",
          "type": "address"
        }
      ],
      "name": "getAdminBalance",
      "outputs": [
        {
          "internalType": "uint256",
          "name": "",
          "type": "uint256"
        }
      ],
      "payable": false,
      "stateMutability": "nonpayable",
      "type": "function"
    },
    {
      "constant": false,
      "inputs": [
        {
          "internalType": "address",
          "name": "_address",
          "type": "address"
        }
      ],
      "name": "getAdminIpfsImageHash",
      "outputs": [
        {
          "internalType": "string",
          "name": "",
          "type": "string"
        }
      ],
      "payable": false,
      "stateMutability": "nonpayable",
      "type": "function"
    },
    {
      "constant": false,
      "inputs": [
        {
          "internalType": "address",
          "name": "_address",
          "type": "address"
        }
      ],
      "name": "getUserBalance",
      "outputs": [
        {
          "internalType": "uint256",
          "name": "",
          "type": "uint256"
        }
      ],
      "payable": false,
      "stateMutability": "nonpayable",
      "type": "function"
    },
    {
      "constant": false,
      "inputs": [
        {
          "internalType": "address",
          "name": "_address",
          "type": "address"
        }
      ],
      "name": "getUserIpfsImageHash",
      "outputs": [
        {
          "internalType": "string",
          "name": "",
          "type": "string"
        }
      ],
      "payable": false,
      "stateMutability": "nonpayable",
      "type": "function"
    },
    {
      "constant": false,
      "inputs": [
        {
          "internalType": "address",
          "name": "_address",
          "type": "address"
        }
      ],
      "name": "getUserName",
      "outputs": [
        {
          "internalType": "string",
          "name": "",
          "type": "string"
        }
      ],
      "payable": false,
      "stateMutability": "nonpayable",
      "type": "function"
    },
    {
      "constant": false,
      "inputs": [
        {
          "internalType": "address",
          "name": "_address",
          "type": "address"
        },
        {
          "internalType": "string",
          "name": "_password",
          "type": "string"
        }
      ],
      "name": "loginAdmin",
      "outputs": [
        {
          "internalType": "bool",
          "name": "",
          "type": "bool"
        }
      ],
      "payable": false,
      "stateMutability": "nonpayable",
      "type": "function"
    },
    {
      "constant": false,
      "inputs": [
        {
          "internalType": "address",
          "name": "_address",
          "type": "address"
        },
        {
          "internalType": "string",
          "name": "_password",
          "type": "string"
        }
      ],
      "name": "loginUser",
      "outputs": [
        {
          "internalType": "bool",
          "name": "",
          "type": "bool"
        }
      ],
      "payable": false,
      "stateMutability": "nonpayable",
      "type": "function"
    },
    {
      "constant": false,
      "inputs": [
        {
          "internalType": "address",
          "name": "_address",
          "type": "address"
        }
      ],
      "name": "logoutAdmin",
      "outputs": [],
      "payable": false,
      "stateMutability": "nonpayable",
      "type": "function"
    },
    {
      "constant": false,
      "inputs": [
        {
          "internalType": "address",
          "name": "_address",
          "type": "address"
        }
      ],
      "name": "logoutUser",
      "outputs": [],
      "payable": false,
      "stateMutability": "nonpayable",
      "type": "function"
    },
    {
      "constant": true,
      "inputs": [
        {
          "internalType": "uint256",
          "name": "",
          "type": "uint256"
        }
      ],
      "name": "propertiesIDs",
      "outputs": [
        {
          "internalType": "uint256",
          "name": "",
          "type": "uint256"
        }
      ],
      "payable": false,
      "stateMutability": "view",
      "type": "function"
    },
    {
      "constant": false,
      "inputs": [
        {
          "internalType": "address",
          "name": "_address",
          "type": "address"
        },
        {
          "internalType": "string",
          "name": "_name",
          "type": "string"
        },
        {
          "internalType": "string",
          "name": "_password",
          "type": "string"
        }
      ],
      "name": "registerAdmin",
      "outputs": [
        {
          "internalType": "bool",
          "name": "",
          "type": "bool"
        }
      ],
      "payable": false,
      "stateMutability": "nonpayable",
      "type": "function"
    },
    {
      "constant": false,
      "inputs": [
        {
          "internalType": "address",
          "name": "_address",
          "type": "address"
        },
        {
          "internalType": "string",
          "name": "_name",
          "type": "string"
        },
        {
          "internalType": "string",
          "name": "_password",
          "type": "string"
        },
        {
          "internalType": "string",
          "name": "_cnic",
          "type": "string"
        }
      ],
      "name": "registerUser",
      "outputs": [
        {
          "internalType": "bool",
          "name": "",
          "type": "bool"
        }
      ],
      "payable": false,
      "stateMutability": "nonpayable",
      "type": "function"
    },
    {
      "constant": false,
      "inputs": [
        {
          "internalType": "address",
          "name": "_address",
          "type": "address"
        },
        {
          "internalType": "string",
          "name": "_ipfsImageHash",
          "type": "string"
        }
      ],
      "name": "setAdminIpfsImageHash",
      "outputs": [
        {
          "internalType": "bool",
          "name": "",
          "type": "bool"
        }
      ],
      "payable": false,
      "stateMutability": "nonpayable",
      "type": "function"
    },
    {
      "constant": false,
      "inputs": [
        {
          "internalType": "address",
          "name": "_address",
          "type": "address"
        },
        {
          "internalType": "string",
          "name": "_ipfsImageHash",
          "type": "string"
        }
      ],
      "name": "setUserIpfsImageHash",
      "outputs": [
        {
          "internalType": "bool",
          "name": "",
          "type": "bool"
        }
      ],
      "payable": false,
      "stateMutability": "nonpayable",
      "type": "function"
    },
    {
      "constant": false,
      "inputs": [
        {
          "internalType": "address",
          "name": "_superAdmin",
          "type": "address"
        },
        {
          "internalType": "string",
          "name": "_village",
          "type": "string"
        }
      ],
      "name": "addSuperAdmin",
      "outputs": [],
      "payable": false,
      "stateMutability": "nonpayable",
      "type": "function"
    },
    {
      "constant": false,
      "inputs": [
        {
          "internalType": "string",
          "name": "_state",
          "type": "string"
        },
        {
          "internalType": "string",
          "name": "_district",
          "type": "string"
        },
        {
          "internalType": "string",
          "name": "_villageTown",
          "type": "string"
        },
        {
          "internalType": "uint256",
          "name": "_khataNumber",
          "type": "uint256"
        },
        {
          "internalType": "uint256",
          "name": "_khatooniNumber",
          "type": "uint256"
        },
        {
          "internalType": "address payable",
          "name": "_OwnerAddress",
          "type": "address"
        },
        {
          "internalType": "string",
          "name": "_ownerName",
          "type": "string"
        },
        {
          "internalType": "address",
          "name": "_previousOwner",
          "type": "address"
        },
        {
          "internalType": "uint256",
          "name": "_marketValue",
          "type": "uint256"
        },
        {
          "internalType": "string",
          "name": "_squareFoots",
          "type": "string"
        },
        {
          "internalType": "string",
          "name": "_inches",
          "type": "string"
        },
        {
          "internalType": "string",
          "name": "_landType",
          "type": "string"
        },
        {
          "internalType": "address payable",
          "name": "_createByGovt",
          "type": "address"
        }
      ],
      "name": "Registration",
      "outputs": [
        {
          "internalType": "bool",
          "name": "",
          "type": "bool"
        }
      ],
      "payable": false,
      "stateMutability": "nonpayable",
      "type": "function"
    },
    {
      "constant": false,
      "inputs": [
        {
          "internalType": "string",
          "name": "_lat",
          "type": "string"
        },
        {
          "internalType": "string",
          "name": "_lng",
          "type": "string"
        },
        {
          "internalType": "string",
          "name": "_north",
          "type": "string"
        },
        {
          "internalType": "string",
          "name": "_south",
          "type": "string"
        },
        {
          "internalType": "string",
          "name": "_east",
          "type": "string"
        },
        {
          "internalType": "string",
          "name": "_west",
          "type": "string"
        }
      ],
      "name": "registerLandPolyline",
      "outputs": [
        {
          "internalType": "bool",
          "name": "",
          "type": "bool"
        }
      ],
      "payable": false,
      "stateMutability": "nonpayable",
      "type": "function"
    },
    {
      "constant": true,
      "inputs": [
        {
          "internalType": "uint256",
          "name": "id",
          "type": "uint256"
        }
      ],
      "name": "landInfoOwner",
      "outputs": [
        {
          "internalType": "string",
          "name": "",
          "type": "string"
        },
        {
          "internalType": "string",
          "name": "",
          "type": "string"
        },
        {
          "internalType": "string",
          "name": "",
          "type": "string"
        },
        {
          "internalType": "bool",
          "name": "",
          "type": "bool"
        },
        {
          "internalType": "uint256",
          "name": "",
          "type": "uint256"
        },
        {
          "internalType": "string",
          "name": "",
          "type": "string"
        },
        {
          "internalType": "string",
          "name": "",
          "type": "string"
        }
      ],
      "payable": false,
      "stateMutability": "view",
      "type": "function"
    },
    {
      "constant": true,
      "inputs": [
        {
          "internalType": "uint256",
          "name": "id",
          "type": "uint256"
        }
      ],
      "name": "remainingDetail",
      "outputs": [
        {
          "internalType": "address",
          "name": "",
          "type": "address"
        },
        {
          "internalType": "address",
          "name": "",
          "type": "address"
        },
        {
          "internalType": "address",
          "name": "",
          "type": "address"
        },
        {
          "internalType": "uint256",
          "name": "",
          "type": "uint256"
        },
        {
          "internalType": "uint256",
          "name": "",
          "type": "uint256"
        },
        {
          "internalType": "string",
          "name": "",
          "type": "string"
        }
      ],
      "payable": false,
      "stateMutability": "view",
      "type": "function"
    },
    {
      "constant": true,
      "inputs": [
        {
          "internalType": "uint256",
          "name": "id",
          "type": "uint256"
        }
      ],
      "name": "remainingMoreDetail",
      "outputs": [
        {
          "internalType": "string",
          "name": "",
          "type": "string"
        },
        {
          "internalType": "string",
          "name": "",
          "type": "string"
        },
        {
          "internalType": "string",
          "name": "",
          "type": "string"
        },
        {
          "internalType": "string",
          "name": "",
          "type": "string"
        },
        {
          "internalType": "string",
          "name": "",
          "type": "string"
        },
        {
          "internalType": "string",
          "name": "",
          "type": "string"
        },
        {
          "internalType": "string",
          "name": "",
          "type": "string"
        }
      ],
      "payable": false,
      "stateMutability": "view",
      "type": "function"
    },
    {
      "constant": true,
      "inputs": [
        {
          "internalType": "uint256",
          "name": "id",
          "type": "uint256"
        }
      ],
      "name": "showAllLands",
      "outputs": [
        {
          "internalType": "address",
          "name": "",
          "type": "address"
        },
        {
          "internalType": "string",
          "name": "",
          "type": "string"
        },
        {
          "internalType": "string",
          "name": "",
          "type": "string"
        },
        {
          "internalType": "string",
          "name": "",
          "type": "string"
        },
        {
          "internalType": "uint256",
          "name": "",
          "type": "uint256"
        },
        {
          "internalType": "string",
          "name": "",
          "type": "string"
        },
        {
          "internalType": "string",
          "name": "",
          "type": "string"
        }
      ],
      "payable": false,
      "stateMutability": "view",
      "type": "function"
    },
    {
      "constant": true,
      "inputs": [
        {
          "internalType": "uint256",
          "name": "id",
          "type": "uint256"
        }
      ],
      "name": "landInfoUser",
      "outputs": [
        {
          "internalType": "address",
          "name": "",
          "type": "address"
        },
        {
          "internalType": "uint256",
          "name": "",
          "type": "uint256"
        },
        {
          "internalType": "bool",
          "name": "",
          "type": "bool"
        },
        {
          "internalType": "address",
          "name": "",
          "type": "address"
        },
        {
          "internalType": "enum Land.reqStatus",
          "name": "",
          "type": "uint8"
        },
        {
          "internalType": "uint256",
          "name": "",
          "type": "uint256"
        },
        {
          "internalType": "uint256",
          "name": "",
          "type": "uint256"
        }
      ],
      "payable": false,
      "stateMutability": "view",
      "type": "function"
    },
    {
      "constant": true,
      "inputs": [
        {
          "internalType": "string",
          "name": "_state",
          "type": "string"
        },
        {
          "internalType": "string",
          "name": "_district",
          "type": "string"
        },
        {
          "internalType": "string",
          "name": "_village",
          "type": "string"
        },
        {
          "internalType": "uint256",
          "name": "_surveyNumber",
          "type": "uint256"
        }
      ],
      "name": "computeId",
      "outputs": [
        {
          "internalType": "uint256",
          "name": "",
          "type": "uint256"
        }
      ],
      "payable": false,
      "stateMutability": "view",
      "type": "function"
    },
    {
      "constant": false,
      "inputs": [
        {
          "internalType": "uint256",
          "name": "id",
          "type": "uint256"
        }
      ],
      "name": "requstToLandOwner",
      "outputs": [],
      "payable": false,
      "stateMutability": "nonpayable",
      "type": "function"
    },
    {
      "constant": true,
      "inputs": [],
      "name": "viewAssets",
      "outputs": [
        {
          "internalType": "uint256[]",
          "name": "",
          "type": "uint256[]"
        }
      ],
      "payable": false,
      "stateMutability": "view",
      "type": "function"
    },
    {
      "constant": true,
      "inputs": [
        {
          "internalType": "uint256",
          "name": "property",
          "type": "uint256"
        }
      ],
      "name": "viewRequest",
      "outputs": [
        {
          "internalType": "address",
          "name": "",
          "type": "address"
        }
      ],
      "payable": false,
      "stateMutability": "view",
      "type": "function"
    },
    {
      "constant": false,
      "inputs": [
        {
          "internalType": "uint256",
          "name": "property",
          "type": "uint256"
        }
      ],
      "name": "markAvailable",
      "outputs": [],
      "payable": false,
      "stateMutability": "nonpayable",
      "type": "function"
    },
    {
      "constant": false,
      "inputs": [
        {
          "internalType": "uint256",
          "name": "property",
          "type": "uint256"
        }
      ],
      "name": "unMarkLand",
      "outputs": [],
      "payable": false,
      "stateMutability": "nonpayable",
      "type": "function"
    },
    {
      "constant": true,
      "inputs": [
        {
          "internalType": "uint256",
          "name": "id",
          "type": "uint256"
        }
      ],
      "name": "showMarketValue",
      "outputs": [
        {
          "internalType": "uint256",
          "name": "",
          "type": "uint256"
        }
      ],
      "payable": false,
      "stateMutability": "view",
      "type": "function"
    },
    {
      "constant": false,
      "inputs": [
        {
          "internalType": "string",
          "name": "_landType",
          "type": "string"
        },
        {
          "internalType": "uint256",
          "name": "_marketValue",
          "type": "uint256"
        }
      ],
      "name": "changeMarketValue",
      "outputs": [],
      "payable": false,
      "stateMutability": "nonpayable",
      "type": "function"
    },
    {
      "constant": true,
      "inputs": [],
      "name": "getAllLands",
      "outputs": [
        {
          "internalType": "uint256[]",
          "name": "",
          "type": "uint256[]"
        }
      ],
      "payable": false,
      "stateMutability": "view",
      "type": "function"
    },
    {
      "constant": true,
      "inputs": [
        {
          "internalType": "uint256",
          "name": "id",
          "type": "uint256"
        }
      ],
      "name": "viewMarkded",
      "outputs": [
        {
          "internalType": "string",
          "name": "",
          "type": "string"
        },
        {
          "internalType": "address",
          "name": "",
          "type": "address"
        },
        {
          "internalType": "string",
          "name": "",
          "type": "string"
        },
        {
          "internalType": "bool",
          "name": "",
          "type": "bool"
        },
        {
          "internalType": "uint256",
          "name": "",
          "type": "uint256"
        },
        {
          "internalType": "string",
          "name": "",
          "type": "string"
        },
        {
          "internalType": "uint256",
          "name": "",
          "type": "uint256"
        }
      ],
      "payable": false,
      "stateMutability": "view",
      "type": "function"
    },
    {
      "constant": true,
      "inputs": [
        {
          "internalType": "uint256",
          "name": "id",
          "type": "uint256"
        }
      ],
      "name": "viewMarkdedRemainingData",
      "outputs": [
        {
          "internalType": "string",
          "name": "",
          "type": "string"
        },
        {
          "internalType": "uint256",
          "name": "",
          "type": "uint256"
        },
        {
          "internalType": "uint256",
          "name": "",
          "type": "uint256"
        },
        {
          "internalType": "string",
          "name": "",
          "type": "string"
        }
      ],
      "payable": false,
      "stateMutability": "view",
      "type": "function"
    },
    {
      "constant": false,
      "inputs": [
        {
          "internalType": "uint256",
          "name": "property",
          "type": "uint256"
        },
        {
          "internalType": "enum Land.reqStatus",
          "name": "status",
          "type": "uint8"
        }
      ],
      "name": "processRequest",
      "outputs": [],
      "payable": false,
      "stateMutability": "nonpayable",
      "type": "function"
    },
    {
      "constant": false,
      "inputs": [
        {
          "internalType": "uint256",
          "name": "property",
          "type": "uint256"
        }
      ],
      "name": "buyProperty",
      "outputs": [],
      "payable": true,
      "stateMutability": "payable",
      "type": "function"
    },
    {
      "constant": false,
      "inputs": [
        {
          "internalType": "uint256",
          "name": "property",
          "type": "uint256"
        }
      ],
      "name": "refuseToBuy",
      "outputs": [],
      "payable": false,
      "stateMutability": "nonpayable",
      "type": "function"
    },
    {
      "constant": true,
      "inputs": [
        {
          "internalType": "uint256",
          "name": "id",
          "type": "uint256"
        },
        {
          "internalType": "address",
          "name": "user",
          "type": "address"
        }
      ],
      "name": "findId",
      "outputs": [
        {
          "internalType": "uint256",
          "name": "",
          "type": "uint256"
        }
      ],
      "payable": false,
      "stateMutability": "view",
      "type": "function"
    }
  ],
  "bytecode": "0x608060405234801561001057600080fd5b5060028054336001600160a01b03199182168117909255600680549091169091179055614db1806100426000396000f3fe6080604052600436106102bb5760003560e01c806367a536541161016e578063ab05bae6116100cb578063ddc40e7e1161007f578063f170adf411610064578063f170adf414611ea1578063fdb10f50146122ac578063fe69c296146122df576102bb565b8063ddc40e7e14611c54578063deec6b4e14611d4f576102bb565b8063b7b6e543116100b0578063b7b6e54314611b59578063c6e41f3314611b6e578063d84f55ee14611c21576102bb565b8063ab05bae6146118f8578063ad142242146119b9576102bb565b806394e504d21161012257806398711c171161010757806398711c17146117ec5780639d01485f1461181f578063a27664ee146118bf576102bb565b806394e504d21461179857806397d149a7146117c2576102bb565b80636fa830a6116101535780636fa830a6146114485780637ec0bd181461146557806385be96e11461176e576102bb565b806367a536541461135d5780636c5ed9391461141e576102bb565b8063434917af1161021c5780635c3aad08116101d057806363a36d1b116101b557806363a36d1b14610f1f5780636448dc7614611269578063645cf80f1461132a576102bb565b80635c3aad0814610ddf57806361735a4914610ef5576102bb565b80634ad407a3116102015780634ad407a314610a1a57806355d6195214610b60578063589cdaa414610dac576102bb565b8063434917af1461092657806347734892146109e7576102bb565b80631d50a6c41161027357806326e852501161025857806326e8525014610703578063297f7b39146107495780632d9b3bf514610865576102bb565b80631d50a6c41461051c5780632416faf1146106d9576102bb565b80630d2d5dca116102a45780630d2d5dca146103ca578063128c9f011461042f57806316caeb7714610474576102bb565b806303bdb46b146102c057806309df506014610395575b600080fd5b3480156102cc57600080fd5b50610381600480360360408110156102e357600080fd5b6001600160a01b038235169190810190604081016020820135600160201b81111561030d57600080fd5b82018360208201111561031f57600080fd5b803590602001918460018302840111600160201b8311171561034057600080fd5b91908080601f0160208091040260200160405190810160405280939291908181526020018383808284376000920191909152509295506124aa945050505050565b604080519115158252519081900360200190f35b3480156103a157600080fd5b506103c8600480360360208110156103b857600080fd5b50356001600160a01b031661263a565b005b3480156103d657600080fd5b506103df61269c565b60408051602080825283518183015283519192839290830191858101910280838360005b8381101561041b578181015183820152602001610403565b505050509050019250505060405180910390f35b34801561043b57600080fd5b506104626004803603602081101561045257600080fd5b50356001600160a01b03166126fe565b60408051918252519081900360200190f35b34801561048057600080fd5b506104a76004803603602081101561049757600080fd5b50356001600160a01b0316612738565b6040805160208082528351818301528351919283929083019185019080838360005b838110156104e15781810151838201526020016104c9565b50505050905090810190601f16801561050e5780820380516001836020036101000a031916815260200191505b509250505060405180910390f35b34801561052857600080fd5b506104626004803603608081101561053f57600080fd5b810190602081018135600160201b81111561055957600080fd5b82018360208201111561056b57600080fd5b803590602001918460018302840111600160201b8311171561058c57600080fd5b91908080601f0160208091040260200160405190810160405280939291908181526020018383808284376000920191909152509295949360208101935035915050600160201b8111156105de57600080fd5b8201836020820111156105f057600080fd5b803590602001918460018302840111600160201b8311171561061157600080fd5b91908080601f0160208091040260200160405190810160405280939291908181526020018383808284376000920191909152509295949360208101935035915050600160201b81111561066357600080fd5b82018360208201111561067557600080fd5b803590602001918460018302840111600160201b8311171561069657600080fd5b91908080601f01602080910402602001604051908101604052809392919081815260200183838082843760009201919091525092955050913592506127fd915050565b3480156106e557600080fd5b506103c8600480360360208110156106fc57600080fd5b503561291a565b34801561070f57600080fd5b5061072d6004803603602081101561072657600080fd5b5035612964565b604080516001600160a01b039092168252519081900360200190f35b34801561075557600080fd5b5061077c6004803603602081101561076c57600080fd5b50356001600160a01b0316612982565b60405180841515151581526020018060200180602001838103835285818151815260200191508051906020019080838360005b838110156107c75781810151838201526020016107af565b50505050905090810190601f1680156107f45780820380516001836020036101000a031916815260200191505b50838103825284518152845160209182019186019080838360005b8381101561082757818101518382015260200161080f565b50505050905090810190601f1680156108545780820380516001836020036101000a031916815260200191505b509550505050505060405180910390f35b34801561087157600080fd5b506103816004803603604081101561088857600080fd5b6001600160a01b038235169190810190604081016020820135600160201b8111156108b257600080fd5b8201836020820111156108c457600080fd5b803590602001918460018302840111600160201b831117156108e557600080fd5b91908080601f016020809104026020016040519081016040528093929190818152602001838380828437600092019190915250929550612b1a945050505050565b34801561093257600080fd5b506103816004803603604081101561094957600080fd5b6001600160a01b038235169190810190604081016020820135600160201b81111561097357600080fd5b82018360208201111561098557600080fd5b803590602001918460018302840111600160201b831117156109a657600080fd5b91908080601f016020809104026020016040519081016040528093929190818152602001838380828437600092019190915250929550612b92945050505050565b3480156109f357600080fd5b5061046260048036036020811015610a0a57600080fd5b50356001600160a01b0316612cf5565b348015610a2657600080fd5b5061038160048036036060811015610a3d57600080fd5b6001600160a01b038235169190810190604081016020820135600160201b811115610a6757600080fd5b820183602082011115610a7957600080fd5b803590602001918460018302840111600160201b83111715610a9a57600080fd5b91908080601f0160208091040260200160405190810160405280939291908181526020018383808284376000920191909152509295949360208101935035915050600160201b811115610aec57600080fd5b820183602082011115610afe57600080fd5b803590602001918460018302840111600160201b83111715610b1f57600080fd5b91908080601f016020809104026020016040519081016040528093929190818152602001838380828437600092019190915250929550612d56945050505050565b348015610b6c57600080fd5b50610b8a60048036036020811015610b8357600080fd5b5035612e31565b6040518080602001806020018060200188151515158152602001878152602001806020018060200186810386528d818151815260200191508051906020019080838360005b83811015610be7578181015183820152602001610bcf565b50505050905090810190601f168015610c145780820380516001836020036101000a031916815260200191505b5086810385528c5181528c516020918201918e019080838360005b83811015610c47578181015183820152602001610c2f565b50505050905090810190601f168015610c745780820380516001836020036101000a031916815260200191505b5086810384528b5181528b516020918201918d019080838360005b83811015610ca7578181015183820152602001610c8f565b50505050905090810190601f168015610cd45780820380516001836020036101000a031916815260200191505b5086810383528851815288516020918201918a019080838360005b83811015610d07578181015183820152602001610cef565b50505050905090810190601f168015610d345780820380516001836020036101000a031916815260200191505b50868103825287518152875160209182019189019080838360005b83811015610d67578181015183820152602001610d4f565b50505050905090810190601f168015610d945780820380516001836020036101000a031916815260200191505b509c5050505050505050505050505060405180910390f35b348015610db857600080fd5b506104a760048036036020811015610dcf57600080fd5b50356001600160a01b031661315c565b348015610deb57600080fd5b50610e0960048036036020811015610e0257600080fd5b5035613210565b604051808060200185815260200184815260200180602001838103835287818151815260200191508051906020019080838360005b83811015610e56578181015183820152602001610e3e565b50505050905090810190601f168015610e835780820380516001836020036101000a031916815260200191505b50838103825284518152845160209182019186019080838360005b83811015610eb6578181015183820152602001610e9e565b50505050905090810190601f168015610ee35780820380516001836020036101000a031916815260200191505b50965050505050505060405180910390f35b348015610f0157600080fd5b5061046260048036036020811015610f1857600080fd5b5035613389565b348015610f2b57600080fd5b50610381600480360360c0811015610f4257600080fd5b810190602081018135600160201b811115610f5c57600080fd5b820183602082011115610f6e57600080fd5b803590602001918460018302840111600160201b83111715610f8f57600080fd5b91908080601f0160208091040260200160405190810160405280939291908181526020018383808284376000920191909152509295949360208101935035915050600160201b811115610fe157600080fd5b820183602082011115610ff357600080fd5b803590602001918460018302840111600160201b8311171561101457600080fd5b91908080601f0160208091040260200160405190810160405280939291908181526020018383808284376000920191909152509295949360208101935035915050600160201b81111561106657600080fd5b82018360208201111561107857600080fd5b803590602001918460018302840111600160201b8311171561109957600080fd5b91908080601f0160208091040260200160405190810160405280939291908181526020018383808284376000920191909152509295949360208101935035915050600160201b8111156110eb57600080fd5b8201836020820111156110fd57600080fd5b803590602001918460018302840111600160201b8311171561111e57600080fd5b91908080601f0160208091040260200160405190810160405280939291908181526020018383808284376000920191909152509295949360208101935035915050600160201b81111561117057600080fd5b82018360208201111561118257600080fd5b803590602001918460018302840111600160201b831117156111a357600080fd5b91908080601f0160208091040260200160405190810160405280939291908181526020018383808284376000920191909152509295949360208101935035915050600160201b8111156111f557600080fd5b82018360208201111561120757600080fd5b803590602001918460018302840111600160201b8311171561122857600080fd5b91908080601f01602080910402602001604051908101604052809392919081815260200183838082843760009201919091525092955061339e945050505050565b34801561127557600080fd5b506103816004803603604081101561128c57600080fd5b6001600160a01b038235169190810190604081016020820135600160201b8111156112b657600080fd5b8201836020820111156112c857600080fd5b803590602001918460018302840111600160201b831117156112e957600080fd5b91908080601f0160208091040260200160405190810160405280939291908181526020018383808284376000920191909152509295506134a0945050505050565b34801561133657600080fd5b506103c86004803603602081101561134d57600080fd5b50356001600160a01b031661353a565b34801561136957600080fd5b506103816004803603604081101561138057600080fd5b6001600160a01b038235169190810190604081016020820135600160201b8111156113aa57600080fd5b8201836020820111156113bc57600080fd5b803590602001918460018302840111600160201b831117156113dd57600080fd5b91908080601f016020809104026020016040519081016040528093929190818152602001838380828437600092019190915250929550613575945050505050565b34801561142a57600080fd5b506103c86004803603602081101561144157600080fd5b50356135be565b6103c86004803603602081101561145e57600080fd5b5035613662565b34801561147157600080fd5b5061148f6004803603602081101561148857600080fd5b5035613855565b604051808060200180602001806020018060200180602001806020018060200188810388528f818151815260200191508051906020019080838360005b838110156114e45781810151838201526020016114cc565b50505050905090810190601f1680156115115780820380516001836020036101000a031916815260200191505b5088810387528e818151815260200191508051906020019080838360005b8381101561154757818101518382015260200161152f565b50505050905090810190601f1680156115745780820380516001836020036101000a031916815260200191505b5088810386528d5181528d516020918201918f019080838360005b838110156115a757818101518382015260200161158f565b50505050905090810190601f1680156115d45780820380516001836020036101000a031916815260200191505b5088810385528c5181528c516020918201918e019080838360005b838110156116075781810151838201526020016115ef565b50505050905090810190601f1680156116345780820380516001836020036101000a031916815260200191505b5088810384528b5181528b516020918201918d019080838360005b8381101561166757818101518382015260200161164f565b50505050905090810190601f1680156116945780820380516001836020036101000a031916815260200191505b5088810383528a5181528a516020918201918c019080838360005b838110156116c75781810151838201526020016116af565b50505050905090810190601f1680156116f45780820380516001836020036101000a031916815260200191505b5088810382528951815289516020918201918b019080838360005b8381101561172757818101518382015260200161170f565b50505050905090810190601f1680156117545780820380516001836020036101000a031916815260200191505b509e50505050505050505050505050505060405180910390f35b34801561177a57600080fd5b506103c86004803603602081101561179157600080fd5b5035613bb7565b3480156117a457600080fd5b50610462600480360360208110156117bb57600080fd5b5035613c0d565b3480156117ce57600080fd5b506103c8600480360360208110156117e557600080fd5b5035613c2b565b3480156117f857600080fd5b5061077c6004803603602081101561180f57600080fd5b50356001600160a01b0316613c95565b34801561182b57600080fd5b506118496004803603602081101561184257600080fd5b5035613d3c565b60405180886001600160a01b03166001600160a01b0316815260200187815260200186151515158152602001856001600160a01b03166001600160a01b0316815260200184600381111561189957fe5b60ff16815260200183815260200182815260200197505050505050505060405180910390f35b3480156118cb57600080fd5b50610462600480360360408110156118e257600080fd5b50803590602001356001600160a01b0316613d93565b34801561190457600080fd5b506103c86004803603604081101561191b57600080fd5b6001600160a01b038235169190810190604081016020820135600160201b81111561194557600080fd5b82018360208201111561195757600080fd5b803590602001918460018302840111600160201b8311171561197857600080fd5b91908080601f016020809104026020016040519081016040528093929190818152602001838380828437600092019190915250929550613e05945050505050565b3480156119c557600080fd5b506119e3600480360360208110156119dc57600080fd5b5035613e9f565b6040518080602001886001600160a01b03166001600160a01b0316815260200180602001871515151581526020018681526020018060200185815260200184810384528b818151815260200191508051906020019080838360005b83811015611a56578181015183820152602001611a3e565b50505050905090810190601f168015611a835780820380516001836020036101000a031916815260200191505b5084810383528951815289516020918201918b019080838360005b83811015611ab6578181015183820152602001611a9e565b50505050905090810190601f168015611ae35780820380516001836020036101000a031916815260200191505b50848103825286518152865160209182019188019080838360005b83811015611b16578181015183820152602001611afe565b50505050905090810190601f168015611b435780820380516001836020036101000a031916815260200191505b509a505050505050505050505060405180910390f35b348015611b6557600080fd5b506103df614141565b348015611b7a57600080fd5b506103c860048036036040811015611b9157600080fd5b810190602081018135600160201b811115611bab57600080fd5b820183602082011115611bbd57600080fd5b803590602001918460018302840111600160201b83111715611bde57600080fd5b91908080601f0160208091040260200160405190810160405280939291908181526020018383808284376000920191909152509295505091359250614197915050565b348015611c2d57600080fd5b506104a760048036036020811015611c4457600080fd5b50356001600160a01b0316614366565b348015611c6057600080fd5b50611c7e60048036036020811015611c7757600080fd5b50356143f8565b60405180876001600160a01b03166001600160a01b03168152602001866001600160a01b03166001600160a01b03168152602001856001600160a01b03166001600160a01b0316815260200184815260200183815260200180602001828103825283818151815260200191508051906020019080838360005b83811015611d0f578181015183820152602001611cf7565b50505050905090810190601f168015611d3c5780820380516001836020036101000a031916815260200191505b5097505050505050505060405180910390f35b348015611d5b57600080fd5b50611d7960048036036020811015611d7257600080fd5b50356144e5565b60405180886001600160a01b03166001600160a01b03168152602001806020018060200180602001878152602001806020018060200186810386528c818151815260200191508051906020019080838360005b83811015611de4578181015183820152602001611dcc565b50505050905090810190601f168015611e115780820380516001836020036101000a031916815260200191505b5086810385528b5181528b516020918201918d019080838360005b83811015611e44578181015183820152602001611e2c565b50505050905090810190601f168015611e715780820380516001836020036101000a031916815260200191505b5086810384528a5181528a516020918201918c019080838360008315610ca7578181015183820152602001610c8f565b348015611ead57600080fd5b5061038160048036036101a0811015611ec557600080fd5b810190602081018135600160201b811115611edf57600080fd5b820183602082011115611ef157600080fd5b803590602001918460018302840111600160201b83111715611f1257600080fd5b91908080601f0160208091040260200160405190810160405280939291908181526020018383808284376000920191909152509295949360208101935035915050600160201b811115611f6457600080fd5b820183602082011115611f7657600080fd5b803590602001918460018302840111600160201b83111715611f9757600080fd5b91908080601f0160208091040260200160405190810160405280939291908181526020018383808284376000920191909152509295949360208101935035915050600160201b811115611fe957600080fd5b820183602082011115611ffb57600080fd5b803590602001918460018302840111600160201b8311171561201c57600080fd5b91908080601f01602080910402602001604051908101604052809392919081815260200183838082843760009201919091525092958435956020860135956001600160a01b0360408201351695509193509150608081019060600135600160201b81111561208957600080fd5b82018360208201111561209b57600080fd5b803590602001918460018302840111600160201b831117156120bc57600080fd5b91908080601f01602080910402602001604051908101604052809392919081815260200183838082843760009201919091525092956001600160a01b0385351695602086013595919450925060608101915060400135600160201b81111561212357600080fd5b82018360208201111561213557600080fd5b803590602001918460018302840111600160201b8311171561215657600080fd5b91908080601f0160208091040260200160405190810160405280939291908181526020018383808284376000920191909152509295949360208101935035915050600160201b8111156121a857600080fd5b8201836020820111156121ba57600080fd5b803590602001918460018302840111600160201b831117156121db57600080fd5b91908080601f0160208091040260200160405190810160405280939291908181526020018383808284376000920191909152509295949360208101935035915050600160201b81111561222d57600080fd5b82018360208201111561223f57600080fd5b803590602001918460018302840111600160201b8311171561226057600080fd5b91908080601f016020809104026020016040519081016040528093929190818152602001838380828437600092019190915250929550505090356001600160a01b031691506147389050565b3480156122b857600080fd5b506103c8600480360360408110156122cf57600080fd5b508035906020013560ff16614a1a565b3480156122eb57600080fd5b506103816004803603608081101561230257600080fd5b6001600160a01b038235169190810190604081016020820135600160201b81111561232c57600080fd5b82018360208201111561233e57600080fd5b803590602001918460018302840111600160201b8311171561235f57600080fd5b91908080601f0160208091040260200160405190810160405280939291908181526020018383808284376000920191909152509295949360208101935035915050600160201b8111156123b157600080fd5b8201836020820111156123c357600080fd5b803590602001918460018302840111600160201b831117156123e457600080fd5b91908080601f0160208091040260200160405190810160405280939291908181526020018383808284376000920191909152509295949360208101935035915050600160201b81111561243657600080fd5b82018360208201111561244857600080fd5b803590602001918460018302840111600160201b8311171561246957600080fd5b91908080601f016020809104026020016040519081016040528093929190818152602001838380828437600092019190915250929550614ad5945050505050565b6002546000906001600160a01b03163314156124c557600080fd5b6001600160a01b038381166000908152602081905260409020541633146124eb57600080fd5b816040516020018082805190602001908083835b6020831061251e5780518252601f1990920191602091820191016124ff565b6001836020036101000a03801982511681845116808217855250505050505090500191505060405160208183030381529060405280519060200120600080856001600160a01b03166001600160a01b0316815260200190815260200160002060020160405160200180828054600181600116156101000203166002900480156125de5780601f106125bc5761010080835404028352918201916125de565b820191906000526020600020905b8154815290600101906020018083116125ca575b505091505060405160208183030381529060405280519060200120141561263057506001600160a01b0382166000908152602081905260409020600501805460ff19166001179081905560ff16612634565b5060005b92915050565b6002546001600160a01b031633141561265257600080fd5b6001600160a01b0381811660009081526020819052604090205416331461267857600080fd5b6001600160a01b03166000908152602081905260409020600501805460ff19169055565b336000908152600860209081526040918290208054835181840281018401909452808452606093928301828280156126f357602002820191906000526020600020905b8154815260200190600101908083116126df575b505050505090505b90565b6002546000906001600160a01b0316331461271857600080fd5b506001600160a01b03908116600090815260016020526040902054163190565b6002546060906001600160a01b0316331461275257600080fd5b6001600160a01b03821660009081526001602081815260409283902060030180548451600294821615610100026000190190911693909304601f81018390048302840183019094528383529192908301828280156127f15780601f106127c6576101008083540402835291602001916127f1565b820191906000526020600020905b8154815290600101906020018083116127d457829003601f168201915b50505050509050919050565b60006509184e72a000858585856040516020018085805190602001908083835b6020831061283c5780518252601f19909201916020918201910161281d565b51815160209384036101000a600019018019909216911617905287519190930192870191508083835b602083106128845780518252601f199092019160209182019101612865565b51815160209384036101000a600019018019909216911617905286519190930192860191508083835b602083106128cc5780518252601f1990920191602091820191016128ad565b51815160209384036101000a600019018019909216911617905292019384525060408051808503815293820190528251920191909120935084925061291091505057fe5b0695945050505050565b6000818152600560205260409020600601546001600160a01b0316331461294057600080fd5b6000908152600560205260409020601301805460ff60a01b1916600160a01b179055565b6000908152600560205260409020601301546001600160a01b031690565b60025460009060609081906001600160a01b03163314156129a257600080fd5b6001600160a01b038481166000908152602081905260409020541633146129c857600080fd5b6001600160a01b03841660009081526020818152604091829020600581015460048201805485516002610100600180851615919091026000190190931604601f810187900487028201870190975286815260ff909316959194930192849190830182828015612a785780601f10612a4d57610100808354040283529160200191612a78565b820191906000526020600020905b815481529060010190602001808311612a5b57829003601f168201915b5050845460408051602060026001851615610100026000190190941693909304601f810184900484028201840190925281815295975086945092508401905082828015612b065780601f10612adb57610100808354040283529160200191612b06565b820191906000526020600020905b815481529060010190602001808311612ae957829003601f168201915b505050505090509250925092509193909250565b6002546000906001600160a01b0316331415612b3557600080fd5b6001600160a01b03838116600090815260208190526040902054163314612b5b57600080fd5b6001600160a01b0383166000908152602081815260409091208351612b8892600490920191850190614cc4565b5060019392505050565b6002546000906001600160a01b03163314612bac57600080fd5b816040516020018082805190602001908083835b60208310612bdf5780518252601f199092019160209182019101612bc0565b6001836020036101000a0380198251168184511680821785525050505050509050019150506040516020818303038152906040528051906020012060016000856001600160a01b03166001600160a01b031681526020019081526020016000206002016040516020018082805460018160011615610100020316600290048015612ca05780601f10612c7e576101008083540402835291820191612ca0565b820191906000526020600020905b815481529060010190602001808311612c8c575b505091505060405160208183030381529060405280519060200120141561263057506001600160a01b0382166000908152600160208190526040909120600401805460ff19169091179081905560ff16612634565b6002546000906001600160a01b0316331415612d1057600080fd5b6001600160a01b03828116600090815260208190526040902054163314612d3657600080fd5b506001600160a01b03908116600090815260208190526040902054163190565b6002546000906001600160a01b03163314612d7057600080fd5b6001600160a01b0384811660009081526001602052604090205416331415612d9757600080fd5b6001600160a01b038416600081815260016020818152604090922080546001600160a01b03191690931783558551612dd59390910191860190614cc4565b506001600160a01b03841660009081526001602090815260409091208351612e0592600290920191850190614cc4565b505050506001600160a01b03166000908152600160208190526040909120600401805460ff1916905590565b6000818152600560209081526040808320601381015460098201546001808401805486516002610100948316159490940260001901909116839004601f810189900489028201890190975286815260609889988998919788978a9788978301956003840195600160a01b90930460ff16949193600b810193600c90910192899190830182828015612f035780601f10612ed857610100808354040283529160200191612f03565b820191906000526020600020905b815481529060010190602001808311612ee657829003601f168201915b5050895460408051602060026001851615610100026000190190941693909304601f8101849004840282018401909252818152959c508b945092508401905082828015612f915780601f10612f6657610100808354040283529160200191612f91565b820191906000526020600020905b815481529060010190602001808311612f7457829003601f168201915b5050885460408051602060026001851615610100026000190190941693909304601f8101849004840282018401909252818152959b508a94509250840190508282801561301f5780601f10612ff45761010080835404028352916020019161301f565b820191906000526020600020905b81548152906001019060200180831161300257829003601f168201915b5050855460408051602060026001851615610100026000190190941693909304601f8101849004840282018401909252818152959a50879450925084019050828280156130ad5780601f10613082576101008083540402835291602001916130ad565b820191906000526020600020905b81548152906001019060200180831161309057829003601f168201915b5050845460408051602060026001851615610100026000190190941693909304601f81018490048402820184019092528181529597508694509250840190508282801561313b5780601f106131105761010080835404028352916020019161313b565b820191906000526020600020905b81548152906001019060200180831161311e57829003601f168201915b5050505050905096509650965096509650965096505b919395979092949650565b6002546060906001600160a01b031633141561317757600080fd5b6001600160a01b0382811660009081526020819052604090205416331461319d57600080fd5b6001600160a01b0382166000908152602081815260409182902060040180548351601f6002600019610100600186161502019093169290920491820184900484028101840190945280845290918301828280156127f15780601f106127c6576101008083540402835291602001916127f1565b6000818152600560205260408120601301546060919081908390600160a01b900460ff1615613382576000858152600560208181526040928390206004810154928101546003820180548651601f6002600019610100600186161502019093169290920491820186900486028101860190975280875290959193600c909301928691908301828280156132e45780601f106132b9576101008083540402835291602001916132e4565b820191906000526020600020905b8154815290600101906020018083116132c757829003601f168201915b5050845460408051602060026001851615610100026000190190941693909304601f8101849004840282018401909252818152959950869450925084019050828280156133725780601f1061334757610100808354040283529160200191613372565b820191906000526020600020905b81548152906001019060200180831161335557829003601f168201915b5050505050905093509350935093505b9193509193565b60009081526005602052604090206009015490565b6000806133ab6003614bde565b60008181526005602090815260409091208a519293506133d392600d909101918b0190614cc4565b50600081815260056020908152604090912088516133f992600e909201918a0190614cc4565b506000818152600560209081526040909120875161341f92600f90920191890190614cc4565b506000818152600560209081526040909120865161344592601090920191880190614cc4565b506000818152600560209081526040909120855161346b92601190920191870190614cc4565b506000818152600560209081526040909120845161349192601290920191860190614cc4565b50600198975050505050505050565b6002546000906001600160a01b03163314156134bb57600080fd5b6001600160a01b038381166000908152602081905260409020541633146134e157600080fd5b6001600160a01b0383811660009081526020819052604090205416331415612630576001600160a01b038316600090815260208181526040909120835161353092600290920191850190614cc4565b5060019050612634565b6002546001600160a01b0316331461355157600080fd5b6001600160a01b03166000908152600160205260409020600401805460ff19169055565b6002546000906001600160a01b0316331461358f57600080fd5b6001600160a01b03831660009081526001602090815260409091208351612b8892600390920191850190614cc4565b600081815260056020526040902060130154600160a01b900460ff166135e357600080fd5b6000818152600560205260409020600901543331101561360257600080fd5b60008181526005602052604090206013018054336001600160a01b03199091161760ff60a01b1981168255600191907fffffffffffffffffffff0000ffffffffffffffffffffffffffffffffffffffff16600160a81b835b021790555050565b6003600082815260056020526040902060130154600160a81b900460ff16600381111561368b57fe5b1461369557600080fd5b6000818152600560205260409020600901543410156136b357600080fd5b34670de0b6b3a764000067de0b6b3a7640000082116136d65780820391506136e4565b506064346006020490819003905b6000838152600560205260408082206014015490516001600160a01b039091169183156108fc02918491818181858888f1935050505015801561372b573d6000803e3d6000fd5b506000838152600560205260408082206006015490516001600160a01b039091169184156108fc02918591818181858888f19350505050158015613773573d6000803e3d6000fd5b50600083815260056020526040902060060154613799906001600160a01b031684614be2565b6000838152600560205260409020600681018054600890920180546001600160a01b0384166001600160a01b031991821617909155339216821790556137de90614366565b600560008581526020019081526020016000206007019080519060200190613807929190614cc4565b5050506000818152600560209081526040808320601301805475ffffffffffffffffffffffffffffffffffffffffffff19169055338352600882528220805460018101825590835291200155565b600081815260056020908152604091829020600d810180548451601f600260001961010060018616150201909316929092049182018590048502810185019095528085526060948594859485948594859485949293600e810193600f820193601083019360118401936012810193600790910192899183018282801561391c5780601f106138f15761010080835404028352916020019161391c565b820191906000526020600020905b8154815290600101906020018083116138ff57829003601f168201915b5050895460408051602060026001851615610100026000190190941693909304601f8101849004840282018401909252818152959c508b9450925084019050828280156139aa5780601f1061397f576101008083540402835291602001916139aa565b820191906000526020600020905b81548152906001019060200180831161398d57829003601f168201915b5050885460408051602060026001851615610100026000190190941693909304601f8101849004840282018401909252818152959b508a945092508401905082828015613a385780601f10613a0d57610100808354040283529160200191613a38565b820191906000526020600020905b815481529060010190602001808311613a1b57829003601f168201915b5050875460408051602060026001851615610100026000190190941693909304601f8101849004840282018401909252818152959a5089945092508401905082828015613ac65780601f10613a9b57610100808354040283529160200191613ac6565b820191906000526020600020905b815481529060010190602001808311613aa957829003601f168201915b5050865460408051602060026001851615610100026000190190941693909304601f810184900484028201840190925281815295995088945092508401905082828015613b545780601f10613b2957610100808354040283529160200191613b54565b820191906000526020600020905b815481529060010190602001808311613b3757829003601f168201915b5050855460408051602060026001851615610100026000190190941693909304601f8101849004840282018401909252818152959850879450925084019050828280156130ad5780601f10613082576101008083540402835291602001916130ad565b6000818152600560205260409020600601546001600160a01b03163314613bdd57600080fd5b6000908152600560205260409020601301805475ffffffffffffffffffffffffffffffffffffffffffff19169055565b60048181548110613c1a57fe5b600091825260209091200154905081565b6000818152600560205260409020601301546001600160a01b03163314613c5157600080fd5b600081815260056020526040812060130180546001600160a01b03198116825575ff00ffffffffffffffffffffffffffffffffffffffff1916600160a81b8361365a565b60025460009060609081906001600160a01b03163314613cb457600080fd5b6001600160a01b03841660009081526001602081815260409283902060048101546003820180548651601f6002600019848a161561010002019093169290920491820186900486028101860190975280875260ff9092169590949290920192849190830182828015612a785780601f10612a4d57610100808354040283529160200191612a78565b6000908152600560208190526040909120600681015460098201546013830154600484015493909401546001600160a01b0392831695919460ff600160a01b820481169594821694600160a81b9092041692909190565b6000805b6001600160a01b038316600090815260086020526040902054811015613dfe576001600160a01b0383166000908152600860205260409020805485919083908110613dde57fe5b90600052602060002001541415613df6579050612634565b600101613d97565b9392505050565b6006546001600160a01b03163314613e1c57600080fd5b816007826040518082805190602001908083835b60208310613e4f5780518252601f199092019160209182019101613e30565b51815160209384036101000a6000190180199092169116179052920194855250604051938490030190922080546001600160a01b0319166001600160a01b03949094169390931790925550505050565b6000818152600560205260408120601301546060919082908290819083908290600160a01b900460ff16156131515760056000898152602001908152602001600020600101600560008a815260200190815260200160002060060160009054906101000a90046001600160a01b0316600560008b8152602001908152602001600020600201600560008c815260200190815260200160002060130160149054906101000a900460ff16600560008d815260200190815260200160002060090154600560008e8152602001908152602001600020600b018d868054600181600116156101000203166002900480601f01602080910402602001604051908101604052809291908181526020018280546001816001161561010002031660029004801561400b5780601f10613fe05761010080835404028352916020019161400b565b820191906000526020600020905b815481529060010190602001808311613fee57829003601f168201915b5050885460408051602060026001851615610100026000190190941693909304601f8101849004840282018401909252818152959c508a9450925084019050828280156140995780601f1061406e57610100808354040283529160200191614099565b820191906000526020600020905b81548152906001019060200180831161407c57829003601f168201915b5050855460408051602060026001851615610100026000190190941693909304601f8101849004840282018401909252818152959a50879450925084019050828280156141275780601f106140fc57610100808354040283529160200191614127565b820191906000526020600020905b81548152906001019060200180831161410a57829003601f168201915b505050505091509650965096509650965096509650613151565b606060048054806020026020016040519081016040528092919081815260200182805480156126f357602002820191906000526020600020908154815260200190600101908083116126df575050505050905090565b60005b60045481101561436157600060056000600484815481106141b757fe5b90600052602060002001548152602001908152602001600020600901541180156142f25750826040516020018082805190602001908083835b6020831061420f5780518252601f1990920191602091820191016141f0565b6001836020036101000a03801982511681845116808217855250505050505090500191505060405160208183030381529060405280519060200120600560006004848154811061425b57fe5b90600052602060002001548152602001908152602001600020600a0160405160200180828054600181600116156101000203166002900480156142d55780601f106142b35761010080835404028352918201916142d5565b820191906000526020600020905b8154815290600101906020018083116142c1575b505091505060405160208183030381529060405280519060200120145b156143595781600560006004848154811061430957fe5b906000526020600020015481526020019081526020016000206009015401600560006004848154811061433857fe5b90600052602060002001548152602001908152602001600020600901819055505b60010161419a565b505050565b6060600080836001600160a01b03166001600160a01b031681526020019081526020016000206001018054600181600116156101000203166002900480601f0160208091040260200160405190810160405280929190818152602001828054600181600116156101000203166002900480156127f15780601f106127c6576101008083540402835291602001916127f1565b6000818152600560208181526040808420601481015460068201546008830154600484015496840154600a90940180548651601f6002600019600185161561010002019093169290920491820189900489028101890190975280875289988998899889986060986001600160a01b0390811698811697169593949093928391908301828280156144c95780601f1061449e576101008083540402835291602001916144c9565b820191906000526020600020905b8154815290600101906020018083116144ac57829003601f168201915b5050505050905095509550955095509550955091939550919395565b600081815260056020908152604080832060068101546009820154600180840180548651601f6002600019958416156101000295909501909216849004918201899004890281018901909752808752606097889788978b97899788976001600160a01b0390921696959183019460038401949193600b810193600c90910192918891908301828280156145b95780601f1061458e576101008083540402835291602001916145b9565b820191906000526020600020905b81548152906001019060200180831161459c57829003601f168201915b5050885460408051602060026001851615610100026000190190941693909304601f8101849004840282018401909252818152959b508a9450925084019050828280156146475780601f1061461c57610100808354040283529160200191614647565b820191906000526020600020905b81548152906001019060200180831161462a57829003601f168201915b5050875460408051602060026001851615610100026000190190941693909304601f8101849004840282018401909252818152959a50899450925084019050828280156146d55780601f106146aa576101008083540402835291602001916146d5565b820191906000526020600020905b8154815290600101906020018083116146b857829003601f168201915b5050855460408051602060026001851615610100026000190190941693909304601f8101849004840282018401909252818152959950879450925084019050828280156130ad5780601f10613082576101008083540402835291602001916130ad565b6000336001600160a01b031660078d6040518082805190602001908083835b602083106147765780518252601f199092019160209182019101614757565b51815160209384036101000a60001901801990921691161790529201948552506040519384900301909220546001600160a01b03169290921491508190506147c857506006546001600160a01b031633145b6147d157600080fd5b6147db6003614cbb565b60006147e76003614bde565b60008181526005602052604090205490915081141561480557600080fd5b8060056000838152602001908152602001600020600001819055508e60056000838152602001908152602001600020600101908051906020019061484a929190614cc4565b508d600560008381526020019081526020016000206002019080519060200190614875929190614cc4565b508c6005600083815260200190815260200160002060030190805190602001906148a0929190614cc4565b506000818152600560208181526040909220600481018f90559081018d90556006810180546001600160a01b0319166001600160a01b038e161790558a516148f0926007909201918c0190614cc4565b5060008181526005602090815260409091206008810180546001600160a01b0319166001600160a01b038c1617905560098101899055875161493a92600b90920191890190614cc4565b506000818152600560209081526040909120865161496092600c90920191880190614cc4565b506000818152600560209081526040909120855161498692600a90920191870190614cc4565b50600081815260056020908152604080832060140180546001600160a01b0319166001600160a01b039788161790559b909416815260088452998a20805460018181018355918c52938b209093018190556004805480850182559a527f8a35acfbc15ff81a39ae7d344fd709f28e8600b4aa8c65c6b64bfe7fe36bd19b909901989098559c9b505050505050505050505050565b6000828152600560205260409020600601546001600160a01b03163314614a4057600080fd5b600082815260056020526040902060130180548291907fffffffffffffffffffff00ffffffffffffffffffffffffffffffffffffffffff16600160a81b836003811115614a8957fe5b02179055506002816003811115614a9c57fe5b1415614ad1576000828152600560205260409020601301805475ff00ffffffffffffffffffffffffffffffffffffffff191690555b5050565b6002546000906001600160a01b0316331415614af057600080fd5b6001600160a01b0385811660009081526020819052604090205416331415614b1757600080fd5b6001600160a01b03851660008181526020818152604090912080546001600160a01b03191690921782558551614b539260010191870190614cc4565b506001600160a01b0385166000908152602081815260409091208451614b8192600290920191860190614cc4565b506001600160a01b0385166000908152602081815260409091208351614baf92600390920191850190614cc4565b50506001600160a01b0384166000908152602081905260409020600501805460ff191690556001949350505050565b5490565b6000614bee8284613d93565b6001600160a01b03841660009081526008602052604090208054919250906000198101908110614c1a57fe5b60009182526020808320909101546001600160a01b038616835260089091526040909120805483908110614c4a57fe5b60009182526020808320909101929092556001600160a01b038516815260089091526040902080546000198101908110614c8057fe5b600091825260208083209091018290556001600160a01b03851682526008905260409020805490614cb5906000198301614d42565b50505050565b80546001019055565b828054600181600116156101000203166002900490600052602060002090601f016020900481019282601f10614d0557805160ff1916838001178555614d32565b82800160010185558215614d32579182015b82811115614d32578251825591602001919060010190614d17565b50614d3e929150614d62565b5090565b815481835581811115614361576000838152602090206143619181019083015b6126fb91905b80821115614d3e5760008155600101614d6856fea265627a7a72315820dfddb48c6dd1a3df60ef552bdbfe4c34ed54a0eb6797ed1e9ee4305fdf83674f64736f6c63430005100032",
  "source": "//SPDX-License-Identifier: MIT\npragma solidity >=0.4.0 <0.6.0;\n\nimport {Auth} from \"../contracts/Auth.sol\";\nimport \"../contracts/Counter.sol\";\n\ncontract Land is Auth {\n\n    using Counters for Counters.Counter;\n    Counters.Counter private _landIds;\n\n    struct landDetails {\n        uint256 landID;\n        string state;\n        string district;\n        string villageTown;\n        uint256 khataNumber;\n        uint256 khatooniNumber;\n        address payable CurrentOwner;\n        string ownerName;\n        address previousOwner;\n        uint256 marketValue;\n        string landType;\n        string squareFoots;\n        string inches;\n        string lat;\n        string lng;\n        string north;\n        string south;\n        string east;\n        string west;\n        address payable requester;\n        bool isAvailable;\n        reqStatus requestStatus;\n        address payable createByGovt;\n        string orderEndTime;\n    }\n\n    uint256[] public propertiesIDs;\n\n    //request status\n    enum reqStatus {\n        Default,\n        pending,\n        reject,\n        approved\n    }\n\n    //profile of a client\n    struct profiles {\n        uint256[] assetList;\n    }\n\n    mapping(uint256 => landDetails) land;\n    address owner;\n    mapping(string => address) superAdmin;\n    mapping(address => profiles) profile;\n\n    //contract owner\n    constructor() public {\n        owner = msg.sender;\n    }\n\n    modifier onlyOwner() {\n        require(msg.sender == owner);\n        _;\n    }\n\n    //adding village admins\n    function addSuperAdmin(address _superAdmin, string memory _village)\n        public\n        onlyOwner\n    {\n        superAdmin[_village] = _superAdmin;\n    }\n\n    //Registration of land details.\n    function Registration(\n        string memory _state,\n        string memory _district,\n        string memory _villageTown,\n        uint256 _khataNumber,\n        uint256 _khatooniNumber,\n        address payable _OwnerAddress,\n        string memory _ownerName,\n        address _previousOwner,\n        uint256 _marketValue,\n        string memory _squareFoots,\n        string memory _inches,\n        string memory _landType,\n        address payable _createByGovt\n    ) public returns (bool) {\n        require(superAdmin[_villageTown] == msg.sender || owner == msg.sender);\n\n        _landIds.increment();\n        uint256 newLandId = _landIds.current();\n\n        require(land[newLandId].landID != newLandId);\n\n        land[newLandId].landID = newLandId;\n        land[newLandId].state = _state;\n        land[newLandId].district = _district;\n        land[newLandId].villageTown = _villageTown;\n        land[newLandId].khataNumber = _khataNumber;\n        land[newLandId].khatooniNumber = _khatooniNumber;\n        land[newLandId].CurrentOwner = _OwnerAddress;\n        land[newLandId].ownerName = _ownerName;\n        land[newLandId].previousOwner = _previousOwner;\n        land[newLandId].marketValue = _marketValue;\n        land[newLandId].squareFoots = _squareFoots;\n        land[newLandId].inches = _inches;\n        land[newLandId].landType = _landType;\n        land[newLandId].createByGovt = _createByGovt;\n        profile[_OwnerAddress].assetList.push(newLandId);\n        propertiesIDs.push(newLandId);\n        return true;\n    }\n\n    // Updating land details. Polyline\n    function registerLandPolyline(\n        string memory _lat,\n        string memory _lng,\n        string memory _north,\n        string memory _south,\n        string memory _east,\n        string memory _west\n    ) public returns (bool) {\n        uint256 newLandId = _landIds.current();\n\n        land[newLandId].lat = _lat;\n        land[newLandId].lng = _lng;\n        land[newLandId].north = _north;\n        land[newLandId].south = _south;\n        land[newLandId].east = _east;\n        land[newLandId].west = _west;\n        return true;\n    }\n\n    //to view details of land for the owner\n    function landInfoOwner(uint256 id)\n        public\n        view\n        returns (\n            string memory,\n            string memory,\n            string memory,\n            bool,\n            uint256,\n            string memory,\n            string memory\n        )\n    {\n        return (\n            land[id].state,\n            land[id].district,\n            land[id].villageTown,\n            land[id].isAvailable,\n            land[id].marketValue,\n            land[id].squareFoots,\n            land[id].inches\n        );\n    }\n\n    function remainingDetail(uint256 id)\n        public\n        view\n        returns (\n            address,\n            address,\n            address,\n            uint256,\n            uint256,\n            string memory\n        )\n    {\n        return (\n            land[id].createByGovt,\n            land[id].CurrentOwner,\n            land[id].previousOwner,\n            land[id].khataNumber,\n            land[id].khatooniNumber,\n            land[id].landType\n        );\n    }\n\n    function remainingMoreDetail(uint256 id)\n        public\n        view\n        returns (\n            string memory,\n            string memory,\n            string memory,\n            string memory,\n            string memory,\n            string memory,\n            string memory\n        )\n    {\n        return (\n            land[id].lat,\n            land[id].lng,\n            land[id].north,\n            land[id].south,\n            land[id].east,\n            land[id].west,\n            land[id].ownerName\n        );\n    }\n\n    function showAllLands(uint256 id)\n        public\n        view\n        returns (\n            address,\n            string memory,\n            string memory,\n            string memory,\n            uint256,\n            string memory,\n            string memory\n        )\n    {\n        return (\n            land[id].CurrentOwner,\n            land[id].state,\n            land[id].district,\n            land[id].villageTown,\n            land[id].marketValue,\n            land[id].squareFoots,\n            land[id].inches\n        );\n    }\n\n    //to view details of land for the buyer\n    function landInfoUser(uint256 id)\n        public\n        view\n        returns (\n            address,\n            uint256,\n            bool,\n            address,\n            reqStatus,\n            uint256,\n            uint256\n        )\n    {\n        return (\n            land[id].CurrentOwner,\n            land[id].marketValue,\n            land[id].isAvailable,\n            land[id].requester,\n            land[id].requestStatus,\n            land[id].khataNumber,\n            land[id].khatooniNumber\n        );\n    }\n\n    // to compute id for a land.\n    function computeId(\n        string memory _state,\n        string memory _district,\n        string memory _village,\n        uint256 _surveyNumber\n    ) public view returns (uint256) {\n        return\n            uint256(\n                keccak256(\n                    abi.encodePacked(_state, _district, _village, _surveyNumber)\n                )\n            ) % 10000000000000;\n    }\n\n    //push a request to the land owner\n    function requstToLandOwner(uint256 id) public {\n        require(land[id].isAvailable);\n        require(msg.sender.balance >= land[id].marketValue);\n        land[id].requester = msg.sender;\n        land[id].isAvailable = false;\n        land[id].requestStatus = reqStatus.pending; //changes the status to pending.\n    }\n\n    //will show assets of the function caller\n    function viewAssets() public view returns (uint256[] memory) {\n        return (profile[msg.sender].assetList);\n    }\n\n    //viewing request for the lands\n    function viewRequest(uint256 property) public view returns (address) {\n        return (land[property].requester);\n    }\n\n    //availing land for sale.\n    function markAvailable(uint256 property) public {\n        require(land[property].CurrentOwner == msg.sender);\n        land[property].isAvailable = true;\n    }\n\n    function unMarkLand(uint256 property) public {\n        require(land[property].CurrentOwner == msg.sender);\n        land[property].requester = address(0);  \n        land[property].requestStatus = reqStatus.Default;\n        land[property].isAvailable = false;\n    }\n\n    function showMarketValue(uint256 id) public view returns (uint256) {\n        return land[id].marketValue;\n    }\n\n    // change the market value after some years\n    function changeMarketValue(string memory _landType, uint256 _marketValue)\n        public\n    {\n        // update all land values\n        for (uint256 i = 0; i < propertiesIDs.length; i++) {\n            if (\n                land[propertiesIDs[i]].marketValue > 0 &&\n                keccak256(abi.encodePacked(land[propertiesIDs[i]].landType)) ==\n                keccak256(abi.encodePacked(_landType))\n            ) {\n                land[propertiesIDs[i]].marketValue =\n                    land[propertiesIDs[i]].marketValue +\n                    _marketValue;\n            }\n        }\n    }\n\n    // Get all the lands ids.\n    function getAllLands() public view returns (uint256[] memory) {\n        return (propertiesIDs);\n    }\n\n    // show marked Available\n    function viewMarkded(uint256 id)\n        public\n        view\n        returns (\n            string memory,\n            address,\n            string memory,\n            bool,\n            uint256,\n            string memory,\n            uint256\n        )\n    {\n        if (land[id].isAvailable) {\n            return (\n                land[id].state,\n                land[id].CurrentOwner,\n                land[id].district,\n                land[id].isAvailable,\n                land[id].marketValue,\n                land[id].squareFoots,\n                id\n            );\n        }\n    }\n\n    // show marked Available\n    function viewMarkdedRemainingData(uint256 id)\n        public\n        view\n        returns (\n            string memory,\n            uint256,\n            uint256,\n            string memory\n        )\n    {\n        if (land[id].isAvailable) {\n            return (\n                land[id].villageTown,\n                land[id].khataNumber,\n                land[id].khatooniNumber,\n                land[id].inches\n            );\n        }\n    }\n\n    //processing request for the land by accepting or rejecting\n    function processRequest(uint256 property, reqStatus status) public {\n        require(land[property].CurrentOwner == msg.sender);\n        land[property].requestStatus = status;\n        if (status == reqStatus.reject) {\n            land[property].requester = address(0);\n            land[property].requestStatus = reqStatus.Default;\n        }\n    }\n\n    //buying the approved property\n    function buyProperty(uint256 property) public payable {\n        require(land[property].requestStatus == reqStatus.approved);\n        require(msg.value >= land[property].marketValue);\n\n        uint256 totalValue = msg.value;\n        uint256 taxFee = 1000000000000000000;\n\n        if (msg.value <= 16000000000000000000) {\n            totalValue = totalValue - taxFee;\n        } else {\n            taxFee = (msg.value * 6) / uint256(100);\n            totalValue = totalValue - taxFee;\n        }\n\n        land[property].createByGovt.transfer(taxFee);\n        land[property].CurrentOwner.transfer(totalValue);\n\n        removeOwnership(land[property].CurrentOwner, property);\n        land[property].previousOwner = land[property].CurrentOwner;\n        land[property].CurrentOwner = msg.sender;\n        land[property].ownerName = getUserName(msg.sender);\n        land[property].isAvailable = false;\n        land[property].requester = address(0);\n        land[property].requestStatus = reqStatus.Default;\n        profile[msg.sender].assetList.push(property); //adds the property to the asset list of the new owner.\n    }\n\n    function refuseToBuy(uint256 property) public {\n        require(land[property].requester == msg.sender);\n        land[property].requester = address(0);  \n        land[property].requestStatus = reqStatus.Default;\n    }\n\n    //removing the ownership of seller for the land. and it is called by the buyProperty function\n    function removeOwnership(address previousOwner, uint256 id) private {\n        uint256 index = findId(id, previousOwner);\n        profile[previousOwner].assetList[index] = profile[previousOwner]\n            .assetList[profile[previousOwner].assetList.length - 1];\n        delete profile[previousOwner].assetList[\n            profile[previousOwner].assetList.length - 1\n        ];\n        profile[previousOwner].assetList.length--;\n    }\n\n    //for finding the index of a perticular id\n    function findId(uint256 id, address user) public view returns (uint256) {\n        uint256 i;\n        for (i = 0; i < profile[user].assetList.length; i++) {\n            if (profile[user].assetList[i] == id) return i;\n        }\n        return i;\n    }\n}\n",
  "sourcePath": "/home/zaryab/VSCodeProjects/land-records-blockchain/src/contracts/Land.sol",
  "compiler": {
    "name": "solc",
    "version": "0.5.16+commit.9c3226ce.Emscripten.clang"
  },
  "schemaVersion": "3.4.3",
  "updatedAt": "2021-11-01T20:15:49.805Z",
  "networkType": "ethereum",
  "devdoc": {
    "methods": {}
  },
  "userdoc": {
    "methods": {}
  }
}