{
  "contractName": "Land",
  "abi": [
    {
      "inputs": [],
      "payable": false,
      "stateMutability": "nonpayable",
      "type": "constructor"
    },
    {
      "constant": false,
      "inputs": [
        {
          "internalType": "address",
          "name": "_address",
          "type": "address"
        }
      ],
      "name": "checkIsAdminLogged",
      "outputs": [
        {
          "internalType": "bool",
          "name": "",
          "type": "bool"
        },
        {
          "internalType": "string",
          "name": "",
          "type": "string"
        },
        {
          "internalType": "string",
          "name": "",
          "type": "string"
        }
      ],
      "payable": false,
      "stateMutability": "nonpayable",
      "type": "function"
    },
    {
      "constant": false,
      "inputs": [
        {
          "internalType": "address",
          "name": "_address",
          "type": "address"
        }
      ],
      "name": "checkIsUserLogged",
      "outputs": [
        {
          "internalType": "bool",
          "name": "",
          "type": "bool"
        },
        {
          "internalType": "string",
          "name": "",
          "type": "string"
        },
        {
          "internalType": "string",
          "name": "",
          "type": "string"
        }
      ],
      "payable": false,
      "stateMutability": "nonpayable",
      "type": "function"
    },
    {
      "constant": false,
      "inputs": [
        {
          "internalType": "address",
          "name": "_address",
          "type": "address"
        }
      ],
      "name": "getAdminBalance",
      "outputs": [
        {
          "internalType": "uint256",
          "name": "",
          "type": "uint256"
        }
      ],
      "payable": false,
      "stateMutability": "nonpayable",
      "type": "function"
    },
    {
      "constant": false,
      "inputs": [
        {
          "internalType": "address",
          "name": "_address",
          "type": "address"
        }
      ],
      "name": "getAdminIpfsImageHash",
      "outputs": [
        {
          "internalType": "string",
          "name": "",
          "type": "string"
        }
      ],
      "payable": false,
      "stateMutability": "nonpayable",
      "type": "function"
    },
    {
      "constant": false,
      "inputs": [
        {
          "internalType": "address",
          "name": "_address",
          "type": "address"
        }
      ],
      "name": "getUserBalance",
      "outputs": [
        {
          "internalType": "uint256",
          "name": "",
          "type": "uint256"
        }
      ],
      "payable": false,
      "stateMutability": "nonpayable",
      "type": "function"
    },
    {
      "constant": false,
      "inputs": [
        {
          "internalType": "address",
          "name": "_address",
          "type": "address"
        }
      ],
      "name": "getUserIpfsImageHash",
      "outputs": [
        {
          "internalType": "string",
          "name": "",
          "type": "string"
        }
      ],
      "payable": false,
      "stateMutability": "nonpayable",
      "type": "function"
    },
    {
      "constant": false,
      "inputs": [
        {
          "internalType": "address",
          "name": "_address",
          "type": "address"
        }
      ],
      "name": "getUserName",
      "outputs": [
        {
          "internalType": "string",
          "name": "",
          "type": "string"
        }
      ],
      "payable": false,
      "stateMutability": "nonpayable",
      "type": "function"
    },
    {
      "constant": false,
      "inputs": [
        {
          "internalType": "address",
          "name": "_address",
          "type": "address"
        },
        {
          "internalType": "string",
          "name": "_password",
          "type": "string"
        }
      ],
      "name": "loginAdmin",
      "outputs": [
        {
          "internalType": "bool",
          "name": "",
          "type": "bool"
        }
      ],
      "payable": false,
      "stateMutability": "nonpayable",
      "type": "function"
    },
    {
      "constant": false,
      "inputs": [
        {
          "internalType": "address",
          "name": "_address",
          "type": "address"
        },
        {
          "internalType": "string",
          "name": "_password",
          "type": "string"
        }
      ],
      "name": "loginUser",
      "outputs": [
        {
          "internalType": "bool",
          "name": "",
          "type": "bool"
        }
      ],
      "payable": false,
      "stateMutability": "nonpayable",
      "type": "function"
    },
    {
      "constant": false,
      "inputs": [
        {
          "internalType": "address",
          "name": "_address",
          "type": "address"
        }
      ],
      "name": "logoutAdmin",
      "outputs": [],
      "payable": false,
      "stateMutability": "nonpayable",
      "type": "function"
    },
    {
      "constant": false,
      "inputs": [
        {
          "internalType": "address",
          "name": "_address",
          "type": "address"
        }
      ],
      "name": "logoutUser",
      "outputs": [],
      "payable": false,
      "stateMutability": "nonpayable",
      "type": "function"
    },
    {
      "constant": true,
      "inputs": [
        {
          "internalType": "uint256",
          "name": "",
          "type": "uint256"
        }
      ],
      "name": "propertiesIDs",
      "outputs": [
        {
          "internalType": "uint256",
          "name": "",
          "type": "uint256"
        }
      ],
      "payable": false,
      "stateMutability": "view",
      "type": "function"
    },
    {
      "constant": false,
      "inputs": [
        {
          "internalType": "address",
          "name": "_address",
          "type": "address"
        },
        {
          "internalType": "string",
          "name": "_name",
          "type": "string"
        },
        {
          "internalType": "string",
          "name": "_password",
          "type": "string"
        }
      ],
      "name": "registerAdmin",
      "outputs": [
        {
          "internalType": "bool",
          "name": "",
          "type": "bool"
        }
      ],
      "payable": false,
      "stateMutability": "nonpayable",
      "type": "function"
    },
    {
      "constant": false,
      "inputs": [
        {
          "internalType": "address",
          "name": "_address",
          "type": "address"
        },
        {
          "internalType": "string",
          "name": "_name",
          "type": "string"
        },
        {
          "internalType": "string",
          "name": "_password",
          "type": "string"
        },
        {
          "internalType": "string",
          "name": "_cnic",
          "type": "string"
        }
      ],
      "name": "registerUser",
      "outputs": [
        {
          "internalType": "bool",
          "name": "",
          "type": "bool"
        }
      ],
      "payable": false,
      "stateMutability": "nonpayable",
      "type": "function"
    },
    {
      "constant": false,
      "inputs": [
        {
          "internalType": "address",
          "name": "_address",
          "type": "address"
        },
        {
          "internalType": "string",
          "name": "_ipfsImageHash",
          "type": "string"
        }
      ],
      "name": "setAdminIpfsImageHash",
      "outputs": [
        {
          "internalType": "bool",
          "name": "",
          "type": "bool"
        }
      ],
      "payable": false,
      "stateMutability": "nonpayable",
      "type": "function"
    },
    {
      "constant": false,
      "inputs": [
        {
          "internalType": "address",
          "name": "_address",
          "type": "address"
        },
        {
          "internalType": "string",
          "name": "_ipfsImageHash",
          "type": "string"
        }
      ],
      "name": "setUserIpfsImageHash",
      "outputs": [
        {
          "internalType": "bool",
          "name": "",
          "type": "bool"
        }
      ],
      "payable": false,
      "stateMutability": "nonpayable",
      "type": "function"
    },
    {
      "constant": false,
      "inputs": [
        {
          "internalType": "address",
          "name": "_superAdmin",
          "type": "address"
        },
        {
          "internalType": "string",
          "name": "_village",
          "type": "string"
        }
      ],
      "name": "addSuperAdmin",
      "outputs": [],
      "payable": false,
      "stateMutability": "nonpayable",
      "type": "function"
    },
    {
      "constant": false,
      "inputs": [
        {
          "internalType": "string",
          "name": "_state",
          "type": "string"
        },
        {
          "internalType": "string",
          "name": "_district",
          "type": "string"
        },
        {
          "internalType": "string",
          "name": "_villageTown",
          "type": "string"
        },
        {
          "internalType": "uint256",
          "name": "_khataNumber",
          "type": "uint256"
        },
        {
          "internalType": "uint256",
          "name": "_khatooniNumber",
          "type": "uint256"
        },
        {
          "internalType": "address payable",
          "name": "_OwnerAddress",
          "type": "address"
        },
        {
          "internalType": "string",
          "name": "_ownerName",
          "type": "string"
        },
        {
          "internalType": "address",
          "name": "_previousOwner",
          "type": "address"
        },
        {
          "internalType": "uint256",
          "name": "_marketValue",
          "type": "uint256"
        },
        {
          "internalType": "string",
          "name": "_squareFoots",
          "type": "string"
        },
        {
          "internalType": "string",
          "name": "_inches",
          "type": "string"
        },
        {
          "internalType": "string",
          "name": "_landType",
          "type": "string"
        },
        {
          "internalType": "address payable",
          "name": "_createByGovt",
          "type": "address"
        }
      ],
      "name": "Registration",
      "outputs": [
        {
          "internalType": "bool",
          "name": "",
          "type": "bool"
        }
      ],
      "payable": false,
      "stateMutability": "nonpayable",
      "type": "function"
    },
    {
      "constant": false,
      "inputs": [
        {
          "internalType": "string",
          "name": "_lat",
          "type": "string"
        },
        {
          "internalType": "string",
          "name": "_lng",
          "type": "string"
        },
        {
          "internalType": "string",
          "name": "_north",
          "type": "string"
        },
        {
          "internalType": "string",
          "name": "_south",
          "type": "string"
        },
        {
          "internalType": "string",
          "name": "_east",
          "type": "string"
        },
        {
          "internalType": "string",
          "name": "_west",
          "type": "string"
        },
        {
          "internalType": "uint256",
          "name": "id",
          "type": "uint256"
        }
      ],
      "name": "registerLandPolyline",
      "outputs": [
        {
          "internalType": "bool",
          "name": "",
          "type": "bool"
        }
      ],
      "payable": false,
      "stateMutability": "nonpayable",
      "type": "function"
    },
    {
      "constant": true,
      "inputs": [
        {
          "internalType": "uint256",
          "name": "id",
          "type": "uint256"
        }
      ],
      "name": "landInfoOwner",
      "outputs": [
        {
          "internalType": "string",
          "name": "",
          "type": "string"
        },
        {
          "internalType": "string",
          "name": "",
          "type": "string"
        },
        {
          "internalType": "string",
          "name": "",
          "type": "string"
        },
        {
          "internalType": "bool",
          "name": "",
          "type": "bool"
        },
        {
          "internalType": "uint256",
          "name": "",
          "type": "uint256"
        },
        {
          "internalType": "string",
          "name": "",
          "type": "string"
        },
        {
          "internalType": "string",
          "name": "",
          "type": "string"
        }
      ],
      "payable": false,
      "stateMutability": "view",
      "type": "function"
    },
    {
      "constant": true,
      "inputs": [
        {
          "internalType": "uint256",
          "name": "id",
          "type": "uint256"
        }
      ],
      "name": "remainingDetail",
      "outputs": [
        {
          "internalType": "address",
          "name": "",
          "type": "address"
        },
        {
          "internalType": "address",
          "name": "",
          "type": "address"
        },
        {
          "internalType": "address",
          "name": "",
          "type": "address"
        },
        {
          "internalType": "uint256",
          "name": "",
          "type": "uint256"
        },
        {
          "internalType": "uint256",
          "name": "",
          "type": "uint256"
        },
        {
          "internalType": "string",
          "name": "",
          "type": "string"
        }
      ],
      "payable": false,
      "stateMutability": "view",
      "type": "function"
    },
    {
      "constant": true,
      "inputs": [
        {
          "internalType": "uint256",
          "name": "id",
          "type": "uint256"
        }
      ],
      "name": "remainingMoreDetail",
      "outputs": [
        {
          "internalType": "string",
          "name": "",
          "type": "string"
        },
        {
          "internalType": "string",
          "name": "",
          "type": "string"
        },
        {
          "internalType": "string",
          "name": "",
          "type": "string"
        },
        {
          "internalType": "string",
          "name": "",
          "type": "string"
        },
        {
          "internalType": "string",
          "name": "",
          "type": "string"
        },
        {
          "internalType": "string",
          "name": "",
          "type": "string"
        },
        {
          "internalType": "string",
          "name": "",
          "type": "string"
        }
      ],
      "payable": false,
      "stateMutability": "view",
      "type": "function"
    },
    {
      "constant": true,
      "inputs": [
        {
          "internalType": "uint256",
          "name": "id",
          "type": "uint256"
        }
      ],
      "name": "showAllLands",
      "outputs": [
        {
          "internalType": "address",
          "name": "",
          "type": "address"
        },
        {
          "internalType": "string",
          "name": "",
          "type": "string"
        },
        {
          "internalType": "string",
          "name": "",
          "type": "string"
        },
        {
          "internalType": "string",
          "name": "",
          "type": "string"
        },
        {
          "internalType": "uint256",
          "name": "",
          "type": "uint256"
        },
        {
          "internalType": "string",
          "name": "",
          "type": "string"
        },
        {
          "internalType": "string",
          "name": "",
          "type": "string"
        }
      ],
      "payable": false,
      "stateMutability": "view",
      "type": "function"
    },
    {
      "constant": true,
      "inputs": [
        {
          "internalType": "uint256",
          "name": "id",
          "type": "uint256"
        }
      ],
      "name": "landInfoUser",
      "outputs": [
        {
          "internalType": "address",
          "name": "",
          "type": "address"
        },
        {
          "internalType": "uint256",
          "name": "",
          "type": "uint256"
        },
        {
          "internalType": "bool",
          "name": "",
          "type": "bool"
        },
        {
          "internalType": "address",
          "name": "",
          "type": "address"
        },
        {
          "internalType": "enum Land.reqStatus",
          "name": "",
          "type": "uint8"
        },
        {
          "internalType": "uint256",
          "name": "",
          "type": "uint256"
        },
        {
          "internalType": "uint256",
          "name": "",
          "type": "uint256"
        }
      ],
      "payable": false,
      "stateMutability": "view",
      "type": "function"
    },
    {
      "constant": true,
      "inputs": [
        {
          "internalType": "string",
          "name": "_state",
          "type": "string"
        },
        {
          "internalType": "string",
          "name": "_district",
          "type": "string"
        },
        {
          "internalType": "string",
          "name": "_village",
          "type": "string"
        },
        {
          "internalType": "uint256",
          "name": "_surveyNumber",
          "type": "uint256"
        }
      ],
      "name": "computeId",
      "outputs": [
        {
          "internalType": "uint256",
          "name": "",
          "type": "uint256"
        }
      ],
      "payable": false,
      "stateMutability": "view",
      "type": "function"
    },
    {
      "constant": false,
      "inputs": [
        {
          "internalType": "uint256",
          "name": "id",
          "type": "uint256"
        }
      ],
      "name": "requstToLandOwner",
      "outputs": [],
      "payable": false,
      "stateMutability": "nonpayable",
      "type": "function"
    },
    {
      "constant": true,
      "inputs": [],
      "name": "viewAssets",
      "outputs": [
        {
          "internalType": "uint256[]",
          "name": "",
          "type": "uint256[]"
        }
      ],
      "payable": false,
      "stateMutability": "view",
      "type": "function"
    },
    {
      "constant": true,
      "inputs": [
        {
          "internalType": "uint256",
          "name": "property",
          "type": "uint256"
        }
      ],
      "name": "viewRequest",
      "outputs": [
        {
          "internalType": "address",
          "name": "",
          "type": "address"
        }
      ],
      "payable": false,
      "stateMutability": "view",
      "type": "function"
    },
    {
      "constant": false,
      "inputs": [
        {
          "internalType": "uint256",
          "name": "property",
          "type": "uint256"
        }
      ],
      "name": "markAvailable",
      "outputs": [],
      "payable": false,
      "stateMutability": "nonpayable",
      "type": "function"
    },
    {
      "constant": false,
      "inputs": [
        {
          "internalType": "uint256",
          "name": "property",
          "type": "uint256"
        }
      ],
      "name": "unMarkLand",
      "outputs": [],
      "payable": false,
      "stateMutability": "nonpayable",
      "type": "function"
    },
    {
      "constant": true,
      "inputs": [
        {
          "internalType": "uint256",
          "name": "id",
          "type": "uint256"
        }
      ],
      "name": "showMarketValue",
      "outputs": [
        {
          "internalType": "uint256",
          "name": "",
          "type": "uint256"
        }
      ],
      "payable": false,
      "stateMutability": "view",
      "type": "function"
    },
    {
      "constant": false,
      "inputs": [
        {
          "internalType": "string",
          "name": "_landType",
          "type": "string"
        },
        {
          "internalType": "uint256",
          "name": "_marketValue",
          "type": "uint256"
        }
      ],
      "name": "changeMarketValue",
      "outputs": [],
      "payable": false,
      "stateMutability": "nonpayable",
      "type": "function"
    },
    {
      "constant": true,
      "inputs": [],
      "name": "getAllLands",
      "outputs": [
        {
          "internalType": "uint256[]",
          "name": "",
          "type": "uint256[]"
        }
      ],
      "payable": false,
      "stateMutability": "view",
      "type": "function"
    },
    {
      "constant": true,
      "inputs": [
        {
          "internalType": "uint256",
          "name": "id",
          "type": "uint256"
        }
      ],
      "name": "viewMarkded",
      "outputs": [
        {
          "internalType": "string",
          "name": "",
          "type": "string"
        },
        {
          "internalType": "address",
          "name": "",
          "type": "address"
        },
        {
          "internalType": "string",
          "name": "",
          "type": "string"
        },
        {
          "internalType": "bool",
          "name": "",
          "type": "bool"
        },
        {
          "internalType": "uint256",
          "name": "",
          "type": "uint256"
        },
        {
          "internalType": "string",
          "name": "",
          "type": "string"
        },
        {
          "internalType": "uint256",
          "name": "",
          "type": "uint256"
        }
      ],
      "payable": false,
      "stateMutability": "view",
      "type": "function"
    },
    {
      "constant": true,
      "inputs": [
        {
          "internalType": "uint256",
          "name": "id",
          "type": "uint256"
        }
      ],
      "name": "viewMarkdedRemainingData",
      "outputs": [
        {
          "internalType": "string",
          "name": "",
          "type": "string"
        },
        {
          "internalType": "uint256",
          "name": "",
          "type": "uint256"
        },
        {
          "internalType": "uint256",
          "name": "",
          "type": "uint256"
        },
        {
          "internalType": "string",
          "name": "",
          "type": "string"
        }
      ],
      "payable": false,
      "stateMutability": "view",
      "type": "function"
    },
    {
      "constant": false,
      "inputs": [
        {
          "internalType": "uint256",
          "name": "property",
          "type": "uint256"
        },
        {
          "internalType": "enum Land.reqStatus",
          "name": "status",
          "type": "uint8"
        }
      ],
      "name": "processRequest",
      "outputs": [],
      "payable": false,
      "stateMutability": "nonpayable",
      "type": "function"
    },
    {
      "constant": false,
      "inputs": [
        {
          "internalType": "uint256",
          "name": "property",
          "type": "uint256"
        }
      ],
      "name": "buyProperty",
      "outputs": [],
      "payable": true,
      "stateMutability": "payable",
      "type": "function"
    },
    {
      "constant": false,
      "inputs": [
        {
          "internalType": "uint256",
          "name": "property",
          "type": "uint256"
        }
      ],
      "name": "refuseToBuy",
      "outputs": [],
      "payable": false,
      "stateMutability": "nonpayable",
      "type": "function"
    },
    {
      "constant": true,
      "inputs": [
        {
          "internalType": "uint256",
          "name": "id",
          "type": "uint256"
        },
        {
          "internalType": "address",
          "name": "user",
          "type": "address"
        }
      ],
      "name": "findId",
      "outputs": [
        {
          "internalType": "uint256",
          "name": "",
          "type": "uint256"
        }
      ],
      "payable": false,
      "stateMutability": "view",
      "type": "function"
    }
  ],
  "bytecode": "0x608060405234801561001057600080fd5b5060028054336001600160a01b03199182168117909255600680549091169091179055614c2c806100426000396000f3fe6080604052600436106102a05760003560e01c806367a536541161016e578063ab05bae6116100cb578063ddc40e7e1161007f578063f170adf411610064578063f170adf414611dc7578063fdb10f50146121d2578063fe69c29614612205576102a0565b8063ddc40e7e14611b7a578063deec6b4e14611c75576102a0565b8063b7b6e543116100b0578063b7b6e54314611a7f578063c6e41f3314611a94578063d84f55ee14611b47576102a0565b8063ab05bae61461181e578063ad142242146118df576102a0565b806394e504d21161012257806398711c171161010757806398711c17146117125780639d01485f14611745578063a27664ee146117e5576102a0565b806394e504d2146116be57806397d149a7146116e8576102a0565b80636fa830a6116101535780636fa830a61461136e5780637ec0bd181461138b57806385be96e114611694576102a0565b806367a53654146112835780636c5ed93914611344576102a0565b80632d9b3bf51161021c578063589cdaa4116101d05780635c3aad08116101b55780635c3aad081461111057806361735a4914611226578063645cf80f14611250576102a0565b8063589cdaa414610d91578063599bf23614610dc4576102a0565b8063477348921161020157806347734892146109cc5780634ad407a3146109ff57806355d6195214610b45576102a0565b80632d9b3bf51461084a578063434917af1461090b576102a0565b806316caeb77116102735780632416faf1116102585780632416faf1146106be57806326e85250146106e8578063297f7b391461072e576102a0565b806316caeb77146104595780631d50a6c414610501576102a0565b806303bdb46b146102a557806309df50601461037a5780630d2d5dca146103af578063128c9f0114610414575b600080fd5b3480156102b157600080fd5b50610366600480360360408110156102c857600080fd5b6001600160a01b038235169190810190604081016020820135600160201b8111156102f257600080fd5b82018360208201111561030457600080fd5b803590602001918460018302840111600160201b8311171561032557600080fd5b91908080601f0160208091040260200160405190810160405280939291908181526020018383808284376000920191909152509295506123d0945050505050565b604080519115158252519081900360200190f35b34801561038657600080fd5b506103ad6004803603602081101561039d57600080fd5b50356001600160a01b0316612560565b005b3480156103bb57600080fd5b506103c46125c2565b60408051602080825283518183015283519192839290830191858101910280838360005b838110156104005781810151838201526020016103e8565b505050509050019250505060405180910390f35b34801561042057600080fd5b506104476004803603602081101561043757600080fd5b50356001600160a01b0316612624565b60408051918252519081900360200190f35b34801561046557600080fd5b5061048c6004803603602081101561047c57600080fd5b50356001600160a01b031661265e565b6040805160208082528351818301528351919283929083019185019080838360005b838110156104c65781810151838201526020016104ae565b50505050905090810190601f1680156104f35780820380516001836020036101000a031916815260200191505b509250505060405180910390f35b34801561050d57600080fd5b506104476004803603608081101561052457600080fd5b810190602081018135600160201b81111561053e57600080fd5b82018360208201111561055057600080fd5b803590602001918460018302840111600160201b8311171561057157600080fd5b91908080601f0160208091040260200160405190810160405280939291908181526020018383808284376000920191909152509295949360208101935035915050600160201b8111156105c357600080fd5b8201836020820111156105d557600080fd5b803590602001918460018302840111600160201b831117156105f657600080fd5b91908080601f0160208091040260200160405190810160405280939291908181526020018383808284376000920191909152509295949360208101935035915050600160201b81111561064857600080fd5b82018360208201111561065a57600080fd5b803590602001918460018302840111600160201b8311171561067b57600080fd5b91908080601f0160208091040260200160405190810160405280939291908181526020018383808284376000920191909152509295505091359250612723915050565b3480156106ca57600080fd5b506103ad600480360360208110156106e157600080fd5b5035612840565b3480156106f457600080fd5b506107126004803603602081101561070b57600080fd5b503561288a565b604080516001600160a01b039092168252519081900360200190f35b34801561073a57600080fd5b506107616004803603602081101561075157600080fd5b50356001600160a01b03166128a8565b60405180841515151581526020018060200180602001838103835285818151815260200191508051906020019080838360005b838110156107ac578181015183820152602001610794565b50505050905090810190601f1680156107d95780820380516001836020036101000a031916815260200191505b50838103825284518152845160209182019186019080838360005b8381101561080c5781810151838201526020016107f4565b50505050905090810190601f1680156108395780820380516001836020036101000a031916815260200191505b509550505050505060405180910390f35b34801561085657600080fd5b506103666004803603604081101561086d57600080fd5b6001600160a01b038235169190810190604081016020820135600160201b81111561089757600080fd5b8201836020820111156108a957600080fd5b803590602001918460018302840111600160201b831117156108ca57600080fd5b91908080601f016020809104026020016040519081016040528093929190818152602001838380828437600092019190915250929550612a40945050505050565b34801561091757600080fd5b506103666004803603604081101561092e57600080fd5b6001600160a01b038235169190810190604081016020820135600160201b81111561095857600080fd5b82018360208201111561096a57600080fd5b803590602001918460018302840111600160201b8311171561098b57600080fd5b91908080601f016020809104026020016040519081016040528093929190818152602001838380828437600092019190915250929550612ab8945050505050565b3480156109d857600080fd5b50610447600480360360208110156109ef57600080fd5b50356001600160a01b0316612c1b565b348015610a0b57600080fd5b5061036660048036036060811015610a2257600080fd5b6001600160a01b038235169190810190604081016020820135600160201b811115610a4c57600080fd5b820183602082011115610a5e57600080fd5b803590602001918460018302840111600160201b83111715610a7f57600080fd5b91908080601f0160208091040260200160405190810160405280939291908181526020018383808284376000920191909152509295949360208101935035915050600160201b811115610ad157600080fd5b820183602082011115610ae357600080fd5b803590602001918460018302840111600160201b83111715610b0457600080fd5b91908080601f016020809104026020016040519081016040528093929190818152602001838380828437600092019190915250929550612c7c945050505050565b348015610b5157600080fd5b50610b6f60048036036020811015610b6857600080fd5b5035612d57565b6040518080602001806020018060200188151515158152602001878152602001806020018060200186810386528d818151815260200191508051906020019080838360005b83811015610bcc578181015183820152602001610bb4565b50505050905090810190601f168015610bf95780820380516001836020036101000a031916815260200191505b5086810385528c5181528c516020918201918e019080838360005b83811015610c2c578181015183820152602001610c14565b50505050905090810190601f168015610c595780820380516001836020036101000a031916815260200191505b5086810384528b5181528b516020918201918d019080838360005b83811015610c8c578181015183820152602001610c74565b50505050905090810190601f168015610cb95780820380516001836020036101000a031916815260200191505b5086810383528851815288516020918201918a019080838360005b83811015610cec578181015183820152602001610cd4565b50505050905090810190601f168015610d195780820380516001836020036101000a031916815260200191505b50868103825287518152875160209182019189019080838360005b83811015610d4c578181015183820152602001610d34565b50505050905090810190601f168015610d795780820380516001836020036101000a031916815260200191505b509c5050505050505050505050505060405180910390f35b348015610d9d57600080fd5b5061048c60048036036020811015610db457600080fd5b50356001600160a01b0316613082565b348015610dd057600080fd5b50610366600480360360e0811015610de757600080fd5b810190602081018135600160201b811115610e0157600080fd5b820183602082011115610e1357600080fd5b803590602001918460018302840111600160201b83111715610e3457600080fd5b91908080601f0160208091040260200160405190810160405280939291908181526020018383808284376000920191909152509295949360208101935035915050600160201b811115610e8657600080fd5b820183602082011115610e9857600080fd5b803590602001918460018302840111600160201b83111715610eb957600080fd5b91908080601f0160208091040260200160405190810160405280939291908181526020018383808284376000920191909152509295949360208101935035915050600160201b811115610f0b57600080fd5b820183602082011115610f1d57600080fd5b803590602001918460018302840111600160201b83111715610f3e57600080fd5b91908080601f0160208091040260200160405190810160405280939291908181526020018383808284376000920191909152509295949360208101935035915050600160201b811115610f9057600080fd5b820183602082011115610fa257600080fd5b803590602001918460018302840111600160201b83111715610fc357600080fd5b91908080601f0160208091040260200160405190810160405280939291908181526020018383808284376000920191909152509295949360208101935035915050600160201b81111561101557600080fd5b82018360208201111561102757600080fd5b803590602001918460018302840111600160201b8311171561104857600080fd5b91908080601f0160208091040260200160405190810160405280939291908181526020018383808284376000920191909152509295949360208101935035915050600160201b81111561109a57600080fd5b8201836020820111156110ac57600080fd5b803590602001918460018302840111600160201b831117156110cd57600080fd5b91908080601f0160208091040260200160405190810160405280939291908181526020018383808284376000920191909152509295505091359250613136915050565b34801561111c57600080fd5b5061113a6004803603602081101561113357600080fd5b5035613227565b604051808060200185815260200184815260200180602001838103835287818151815260200191508051906020019080838360005b8381101561118757818101518382015260200161116f565b50505050905090810190601f1680156111b45780820380516001836020036101000a031916815260200191505b50838103825284518152845160209182019186019080838360005b838110156111e75781810151838201526020016111cf565b50505050905090810190601f1680156112145780820380516001836020036101000a031916815260200191505b50965050505050505060405180910390f35b34801561123257600080fd5b506104476004803603602081101561124957600080fd5b50356133a0565b34801561125c57600080fd5b506103ad6004803603602081101561127357600080fd5b50356001600160a01b03166133b5565b34801561128f57600080fd5b50610366600480360360408110156112a657600080fd5b6001600160a01b038235169190810190604081016020820135600160201b8111156112d057600080fd5b8201836020820111156112e257600080fd5b803590602001918460018302840111600160201b8311171561130357600080fd5b91908080601f0160208091040260200160405190810160405280939291908181526020018383808284376000920191909152509295506133f0945050505050565b34801561135057600080fd5b506103ad6004803603602081101561136757600080fd5b5035613439565b6103ad6004803603602081101561138457600080fd5b50356134dd565b34801561139757600080fd5b506113b5600480360360208110156113ae57600080fd5b50356136d0565b604051808060200180602001806020018060200180602001806020018060200188810388528f818151815260200191508051906020019080838360005b8381101561140a5781810151838201526020016113f2565b50505050905090810190601f1680156114375780820380516001836020036101000a031916815260200191505b5088810387528e818151815260200191508051906020019080838360005b8381101561146d578181015183820152602001611455565b50505050905090810190601f16801561149a5780820380516001836020036101000a031916815260200191505b5088810386528d5181528d516020918201918f019080838360005b838110156114cd5781810151838201526020016114b5565b50505050905090810190601f1680156114fa5780820380516001836020036101000a031916815260200191505b5088810385528c5181528c516020918201918e019080838360005b8381101561152d578181015183820152602001611515565b50505050905090810190601f16801561155a5780820380516001836020036101000a031916815260200191505b5088810384528b5181528b516020918201918d019080838360005b8381101561158d578181015183820152602001611575565b50505050905090810190601f1680156115ba5780820380516001836020036101000a031916815260200191505b5088810383528a5181528a516020918201918c019080838360005b838110156115ed5781810151838201526020016115d5565b50505050905090810190601f16801561161a5780820380516001836020036101000a031916815260200191505b5088810382528951815289516020918201918b019080838360005b8381101561164d578181015183820152602001611635565b50505050905090810190601f16801561167a5780820380516001836020036101000a031916815260200191505b509e50505050505050505050505050505060405180910390f35b3480156116a057600080fd5b506103ad600480360360208110156116b757600080fd5b5035613a32565b3480156116ca57600080fd5b50610447600480360360208110156116e157600080fd5b5035613a88565b3480156116f457600080fd5b506103ad6004803603602081101561170b57600080fd5b5035613aa6565b34801561171e57600080fd5b506107616004803603602081101561173557600080fd5b50356001600160a01b0316613b10565b34801561175157600080fd5b5061176f6004803603602081101561176857600080fd5b5035613bb7565b60405180886001600160a01b03166001600160a01b0316815260200187815260200186151515158152602001856001600160a01b03166001600160a01b031681526020018460038111156117bf57fe5b60ff16815260200183815260200182815260200197505050505050505060405180910390f35b3480156117f157600080fd5b506104476004803603604081101561180857600080fd5b50803590602001356001600160a01b0316613c0e565b34801561182a57600080fd5b506103ad6004803603604081101561184157600080fd5b6001600160a01b038235169190810190604081016020820135600160201b81111561186b57600080fd5b82018360208201111561187d57600080fd5b803590602001918460018302840111600160201b8311171561189e57600080fd5b91908080601f016020809104026020016040519081016040528093929190818152602001838380828437600092019190915250929550613c80945050505050565b3480156118eb57600080fd5b506119096004803603602081101561190257600080fd5b5035613d1a565b6040518080602001886001600160a01b03166001600160a01b0316815260200180602001871515151581526020018681526020018060200185815260200184810384528b818151815260200191508051906020019080838360005b8381101561197c578181015183820152602001611964565b50505050905090810190601f1680156119a95780820380516001836020036101000a031916815260200191505b5084810383528951815289516020918201918b019080838360005b838110156119dc5781810151838201526020016119c4565b50505050905090810190601f168015611a095780820380516001836020036101000a031916815260200191505b50848103825286518152865160209182019188019080838360005b83811015611a3c578181015183820152602001611a24565b50505050905090810190601f168015611a695780820380516001836020036101000a031916815260200191505b509a505050505050505050505060405180910390f35b348015611a8b57600080fd5b506103c4613fbc565b348015611aa057600080fd5b506103ad60048036036040811015611ab757600080fd5b810190602081018135600160201b811115611ad157600080fd5b820183602082011115611ae357600080fd5b803590602001918460018302840111600160201b83111715611b0457600080fd5b91908080601f0160208091040260200160405190810160405280939291908181526020018383808284376000920191909152509295505091359250614012915050565b348015611b5357600080fd5b5061048c60048036036020811015611b6a57600080fd5b50356001600160a01b03166141e1565b348015611b8657600080fd5b50611ba460048036036020811015611b9d57600080fd5b5035614273565b60405180876001600160a01b03166001600160a01b03168152602001866001600160a01b03166001600160a01b03168152602001856001600160a01b03166001600160a01b0316815260200184815260200183815260200180602001828103825283818151815260200191508051906020019080838360005b83811015611c35578181015183820152602001611c1d565b50505050905090810190601f168015611c625780820380516001836020036101000a031916815260200191505b5097505050505050505060405180910390f35b348015611c8157600080fd5b50611c9f60048036036020811015611c9857600080fd5b5035614360565b60405180886001600160a01b03166001600160a01b03168152602001806020018060200180602001878152602001806020018060200186810386528c818151815260200191508051906020019080838360005b83811015611d0a578181015183820152602001611cf2565b50505050905090810190601f168015611d375780820380516001836020036101000a031916815260200191505b5086810385528b5181528b516020918201918d019080838360005b83811015611d6a578181015183820152602001611d52565b50505050905090810190601f168015611d975780820380516001836020036101000a031916815260200191505b5086810384528a5181528a516020918201918c019080838360008315610c8c578181015183820152602001610c74565b348015611dd357600080fd5b5061036660048036036101a0811015611deb57600080fd5b810190602081018135600160201b811115611e0557600080fd5b820183602082011115611e1757600080fd5b803590602001918460018302840111600160201b83111715611e3857600080fd5b91908080601f0160208091040260200160405190810160405280939291908181526020018383808284376000920191909152509295949360208101935035915050600160201b811115611e8a57600080fd5b820183602082011115611e9c57600080fd5b803590602001918460018302840111600160201b83111715611ebd57600080fd5b91908080601f0160208091040260200160405190810160405280939291908181526020018383808284376000920191909152509295949360208101935035915050600160201b811115611f0f57600080fd5b820183602082011115611f2157600080fd5b803590602001918460018302840111600160201b83111715611f4257600080fd5b91908080601f01602080910402602001604051908101604052809392919081815260200183838082843760009201919091525092958435956020860135956001600160a01b0360408201351695509193509150608081019060600135600160201b811115611faf57600080fd5b820183602082011115611fc157600080fd5b803590602001918460018302840111600160201b83111715611fe257600080fd5b91908080601f01602080910402602001604051908101604052809392919081815260200183838082843760009201919091525092956001600160a01b0385351695602086013595919450925060608101915060400135600160201b81111561204957600080fd5b82018360208201111561205b57600080fd5b803590602001918460018302840111600160201b8311171561207c57600080fd5b91908080601f0160208091040260200160405190810160405280939291908181526020018383808284376000920191909152509295949360208101935035915050600160201b8111156120ce57600080fd5b8201836020820111156120e057600080fd5b803590602001918460018302840111600160201b8311171561210157600080fd5b91908080601f0160208091040260200160405190810160405280939291908181526020018383808284376000920191909152509295949360208101935035915050600160201b81111561215357600080fd5b82018360208201111561216557600080fd5b803590602001918460018302840111600160201b8311171561218657600080fd5b91908080601f016020809104026020016040519081016040528093929190818152602001838380828437600092019190915250929550505090356001600160a01b031691506145b39050565b3480156121de57600080fd5b506103ad600480360360408110156121f557600080fd5b508035906020013560ff16614895565b34801561221157600080fd5b506103666004803603608081101561222857600080fd5b6001600160a01b038235169190810190604081016020820135600160201b81111561225257600080fd5b82018360208201111561226457600080fd5b803590602001918460018302840111600160201b8311171561228557600080fd5b91908080601f0160208091040260200160405190810160405280939291908181526020018383808284376000920191909152509295949360208101935035915050600160201b8111156122d757600080fd5b8201836020820111156122e957600080fd5b803590602001918460018302840111600160201b8311171561230a57600080fd5b91908080601f0160208091040260200160405190810160405280939291908181526020018383808284376000920191909152509295949360208101935035915050600160201b81111561235c57600080fd5b82018360208201111561236e57600080fd5b803590602001918460018302840111600160201b8311171561238f57600080fd5b91908080601f016020809104026020016040519081016040528093929190818152602001838380828437600092019190915250929550614950945050505050565b6002546000906001600160a01b03163314156123eb57600080fd5b6001600160a01b0383811660009081526020819052604090205416331461241157600080fd5b816040516020018082805190602001908083835b602083106124445780518252601f199092019160209182019101612425565b6001836020036101000a03801982511681845116808217855250505050505090500191505060405160208183030381529060405280519060200120600080856001600160a01b03166001600160a01b0316815260200190815260200160002060020160405160200180828054600181600116156101000203166002900480156125045780601f106124e2576101008083540402835291820191612504565b820191906000526020600020905b8154815290600101906020018083116124f0575b505091505060405160208183030381529060405280519060200120141561255657506001600160a01b0382166000908152602081905260409020600501805460ff19166001179081905560ff1661255a565b5060005b92915050565b6002546001600160a01b031633141561257857600080fd5b6001600160a01b0381811660009081526020819052604090205416331461259e57600080fd5b6001600160a01b03166000908152602081905260409020600501805460ff19169055565b3360009081526008602090815260409182902080548351818402810184019094528084526060939283018282801561261957602002820191906000526020600020905b815481526020019060010190808311612605575b505050505090505b90565b6002546000906001600160a01b0316331461263e57600080fd5b506001600160a01b03908116600090815260016020526040902054163190565b6002546060906001600160a01b0316331461267857600080fd5b6001600160a01b03821660009081526001602081815260409283902060030180548451600294821615610100026000190190911693909304601f81018390048302840183019094528383529192908301828280156127175780601f106126ec57610100808354040283529160200191612717565b820191906000526020600020905b8154815290600101906020018083116126fa57829003601f168201915b50505050509050919050565b60006509184e72a000858585856040516020018085805190602001908083835b602083106127625780518252601f199092019160209182019101612743565b51815160209384036101000a600019018019909216911617905287519190930192870191508083835b602083106127aa5780518252601f19909201916020918201910161278b565b51815160209384036101000a600019018019909216911617905286519190930192860191508083835b602083106127f25780518252601f1990920191602091820191016127d3565b51815160209384036101000a600019018019909216911617905292019384525060408051808503815293820190528251920191909120935084925061283691505057fe5b0695945050505050565b6000818152600560205260409020600601546001600160a01b0316331461286657600080fd5b6000908152600560205260409020601301805460ff60a01b1916600160a01b179055565b6000908152600560205260409020601301546001600160a01b031690565b60025460009060609081906001600160a01b03163314156128c857600080fd5b6001600160a01b038481166000908152602081905260409020541633146128ee57600080fd5b6001600160a01b03841660009081526020818152604091829020600581015460048201805485516002610100600180851615919091026000190190931604601f810187900487028201870190975286815260ff90931695919493019284919083018282801561299e5780601f106129735761010080835404028352916020019161299e565b820191906000526020600020905b81548152906001019060200180831161298157829003601f168201915b5050845460408051602060026001851615610100026000190190941693909304601f810184900484028201840190925281815295975086945092508401905082828015612a2c5780601f10612a0157610100808354040283529160200191612a2c565b820191906000526020600020905b815481529060010190602001808311612a0f57829003601f168201915b505050505090509250925092509193909250565b6002546000906001600160a01b0316331415612a5b57600080fd5b6001600160a01b03838116600090815260208190526040902054163314612a8157600080fd5b6001600160a01b0383166000908152602081815260409091208351612aae92600490920191850190614b3f565b5060019392505050565b6002546000906001600160a01b03163314612ad257600080fd5b816040516020018082805190602001908083835b60208310612b055780518252601f199092019160209182019101612ae6565b6001836020036101000a0380198251168184511680821785525050505050509050019150506040516020818303038152906040528051906020012060016000856001600160a01b03166001600160a01b031681526020019081526020016000206002016040516020018082805460018160011615610100020316600290048015612bc65780601f10612ba4576101008083540402835291820191612bc6565b820191906000526020600020905b815481529060010190602001808311612bb2575b505091505060405160208183030381529060405280519060200120141561255657506001600160a01b0382166000908152600160208190526040909120600401805460ff19169091179081905560ff1661255a565b6002546000906001600160a01b0316331415612c3657600080fd5b6001600160a01b03828116600090815260208190526040902054163314612c5c57600080fd5b506001600160a01b03908116600090815260208190526040902054163190565b6002546000906001600160a01b03163314612c9657600080fd5b6001600160a01b0384811660009081526001602052604090205416331415612cbd57600080fd5b6001600160a01b038416600081815260016020818152604090922080546001600160a01b03191690931783558551612cfb9390910191860190614b3f565b506001600160a01b03841660009081526001602090815260409091208351612d2b92600290920191850190614b3f565b505050506001600160a01b03166000908152600160208190526040909120600401805460ff1916905590565b6000818152600560209081526040808320601381015460098201546001808401805486516002610100948316159490940260001901909116839004601f810189900489028201890190975286815260609889988998919788978a9788978301956003840195600160a01b90930460ff16949193600b810193600c90910192899190830182828015612e295780601f10612dfe57610100808354040283529160200191612e29565b820191906000526020600020905b815481529060010190602001808311612e0c57829003601f168201915b5050895460408051602060026001851615610100026000190190941693909304601f8101849004840282018401909252818152959c508b945092508401905082828015612eb75780601f10612e8c57610100808354040283529160200191612eb7565b820191906000526020600020905b815481529060010190602001808311612e9a57829003601f168201915b5050885460408051602060026001851615610100026000190190941693909304601f8101849004840282018401909252818152959b508a945092508401905082828015612f455780601f10612f1a57610100808354040283529160200191612f45565b820191906000526020600020905b815481529060010190602001808311612f2857829003601f168201915b5050855460408051602060026001851615610100026000190190941693909304601f8101849004840282018401909252818152959a5087945092508401905082828015612fd35780601f10612fa857610100808354040283529160200191612fd3565b820191906000526020600020905b815481529060010190602001808311612fb657829003601f168201915b5050845460408051602060026001851615610100026000190190941693909304601f8101849004840282018401909252818152959750869450925084019050828280156130615780601f1061303657610100808354040283529160200191613061565b820191906000526020600020905b81548152906001019060200180831161304457829003601f168201915b5050505050905096509650965096509650965096505b919395979092949650565b6002546060906001600160a01b031633141561309d57600080fd5b6001600160a01b038281166000908152602081905260409020541633146130c357600080fd5b6001600160a01b0382166000908152602081815260409182902060040180548351601f6002600019610100600186161502019093169290920491820184900484028101840190945280845290918301828280156127175780601f106126ec57610100808354040283529160200191612717565b60008181526005602090815260408220895161315a92600d909201918b0190614b3f565b506000828152600560209081526040909120885161318092600e909201918a0190614b3f565b50600082815260056020908152604090912087516131a692600f90920191890190614b3f565b50600082815260056020908152604090912086516131cc92601090920191880190614b3f565b50600082815260056020908152604090912085516131f292601190920191870190614b3f565b506000828152600560209081526040909120845161321892601290920191860190614b3f565b50600198975050505050505050565b6000818152600560205260408120601301546060919081908390600160a01b900460ff1615613399576000858152600560208181526040928390206004810154928101546003820180548651601f6002600019610100600186161502019093169290920491820186900486028101860190975280875290959193600c909301928691908301828280156132fb5780601f106132d0576101008083540402835291602001916132fb565b820191906000526020600020905b8154815290600101906020018083116132de57829003601f168201915b5050845460408051602060026001851615610100026000190190941693909304601f8101849004840282018401909252818152959950869450925084019050828280156133895780601f1061335e57610100808354040283529160200191613389565b820191906000526020600020905b81548152906001019060200180831161336c57829003601f168201915b5050505050905093509350935093505b9193509193565b60009081526005602052604090206009015490565b6002546001600160a01b031633146133cc57600080fd5b6001600160a01b03166000908152600160205260409020600401805460ff19169055565b6002546000906001600160a01b0316331461340a57600080fd5b6001600160a01b03831660009081526001602090815260409091208351612aae92600390920191850190614b3f565b600081815260056020526040902060130154600160a01b900460ff1661345e57600080fd5b6000818152600560205260409020600901543331101561347d57600080fd5b60008181526005602052604090206013018054336001600160a01b03199091161760ff60a01b1981168255600191907fffffffffffffffffffff0000ffffffffffffffffffffffffffffffffffffffff16600160a81b835b021790555050565b6003600082815260056020526040902060130154600160a81b900460ff16600381111561350657fe5b1461351057600080fd5b60008181526005602052604090206009015434101561352e57600080fd5b34670de0b6b3a764000067de0b6b3a76400000821161355157808203915061355f565b506064346006020490819003905b6000838152600560205260408082206014015490516001600160a01b039091169183156108fc02918491818181858888f193505050501580156135a6573d6000803e3d6000fd5b506000838152600560205260408082206006015490516001600160a01b039091169184156108fc02918591818181858888f193505050501580156135ee573d6000803e3d6000fd5b50600083815260056020526040902060060154613614906001600160a01b031684614a59565b6000838152600560205260409020600681018054600890920180546001600160a01b0384166001600160a01b03199182161790915533921682179055613659906141e1565b600560008581526020019081526020016000206007019080519060200190613682929190614b3f565b5050506000818152600560209081526040808320601301805475ffffffffffffffffffffffffffffffffffffffffffff19169055338352600882528220805460018101825590835291200155565b600081815260056020908152604091829020600d810180548451601f600260001961010060018616150201909316929092049182018590048502810185019095528085526060948594859485948594859485949293600e810193600f82019360108301936011840193601281019360079091019289918301828280156137975780601f1061376c57610100808354040283529160200191613797565b820191906000526020600020905b81548152906001019060200180831161377a57829003601f168201915b5050895460408051602060026001851615610100026000190190941693909304601f8101849004840282018401909252818152959c508b9450925084019050828280156138255780601f106137fa57610100808354040283529160200191613825565b820191906000526020600020905b81548152906001019060200180831161380857829003601f168201915b5050885460408051602060026001851615610100026000190190941693909304601f8101849004840282018401909252818152959b508a9450925084019050828280156138b35780601f10613888576101008083540402835291602001916138b3565b820191906000526020600020905b81548152906001019060200180831161389657829003601f168201915b5050875460408051602060026001851615610100026000190190941693909304601f8101849004840282018401909252818152959a50899450925084019050828280156139415780601f1061391657610100808354040283529160200191613941565b820191906000526020600020905b81548152906001019060200180831161392457829003601f168201915b5050865460408051602060026001851615610100026000190190941693909304601f8101849004840282018401909252818152959950889450925084019050828280156139cf5780601f106139a4576101008083540402835291602001916139cf565b820191906000526020600020905b8154815290600101906020018083116139b257829003601f168201915b5050855460408051602060026001851615610100026000190190941693909304601f810184900484028201840190925281815295985087945092508401905082828015612fd35780601f10612fa857610100808354040283529160200191612fd3565b6000818152600560205260409020600601546001600160a01b03163314613a5857600080fd5b6000908152600560205260409020601301805475ffffffffffffffffffffffffffffffffffffffffffff19169055565b60048181548110613a9557fe5b600091825260209091200154905081565b6000818152600560205260409020601301546001600160a01b03163314613acc57600080fd5b600081815260056020526040812060130180546001600160a01b03198116825575ff00ffffffffffffffffffffffffffffffffffffffff1916600160a81b836134d5565b60025460009060609081906001600160a01b03163314613b2f57600080fd5b6001600160a01b03841660009081526001602081815260409283902060048101546003820180548651601f6002600019848a161561010002019093169290920491820186900486028101860190975280875260ff909216959094929092019284919083018282801561299e5780601f106129735761010080835404028352916020019161299e565b6000908152600560208190526040909120600681015460098201546013830154600484015493909401546001600160a01b0392831695919460ff600160a01b820481169594821694600160a81b9092041692909190565b6000805b6001600160a01b038316600090815260086020526040902054811015613c79576001600160a01b0383166000908152600860205260409020805485919083908110613c5957fe5b90600052602060002001541415613c7157905061255a565b600101613c12565b9392505050565b6006546001600160a01b03163314613c9757600080fd5b816007826040518082805190602001908083835b60208310613cca5780518252601f199092019160209182019101613cab565b51815160209384036101000a6000190180199092169116179052920194855250604051938490030190922080546001600160a01b0319166001600160a01b03949094169390931790925550505050565b6000818152600560205260408120601301546060919082908290819083908290600160a01b900460ff16156130775760056000898152602001908152602001600020600101600560008a815260200190815260200160002060060160009054906101000a90046001600160a01b0316600560008b8152602001908152602001600020600201600560008c815260200190815260200160002060130160149054906101000a900460ff16600560008d815260200190815260200160002060090154600560008e8152602001908152602001600020600b018d868054600181600116156101000203166002900480601f016020809104026020016040519081016040528092919081815260200182805460018160011615610100020316600290048015613e865780601f10613e5b57610100808354040283529160200191613e86565b820191906000526020600020905b815481529060010190602001808311613e6957829003601f168201915b5050885460408051602060026001851615610100026000190190941693909304601f8101849004840282018401909252818152959c508a945092508401905082828015613f145780601f10613ee957610100808354040283529160200191613f14565b820191906000526020600020905b815481529060010190602001808311613ef757829003601f168201915b5050855460408051602060026001851615610100026000190190941693909304601f8101849004840282018401909252818152959a5087945092508401905082828015613fa25780601f10613f7757610100808354040283529160200191613fa2565b820191906000526020600020905b815481529060010190602001808311613f8557829003601f168201915b505050505091509650965096509650965096509650613077565b606060048054806020026020016040519081016040528092919081815260200182805480156126195760200282019190600052602060002090815481526020019060010190808311612605575050505050905090565b60005b6004548110156141dc576000600560006004848154811061403257fe5b906000526020600020015481526020019081526020016000206009015411801561416d5750826040516020018082805190602001908083835b6020831061408a5780518252601f19909201916020918201910161406b565b6001836020036101000a0380198251168184511680821785525050505050509050019150506040516020818303038152906040528051906020012060056000600484815481106140d657fe5b90600052602060002001548152602001908152602001600020600a0160405160200180828054600181600116156101000203166002900480156141505780601f1061412e576101008083540402835291820191614150565b820191906000526020600020905b81548152906001019060200180831161413c575b505091505060405160208183030381529060405280519060200120145b156141d45781600560006004848154811061418457fe5b90600052602060002001548152602001908152602001600020600901540160056000600484815481106141b357fe5b90600052602060002001548152602001908152602001600020600901819055505b600101614015565b505050565b6060600080836001600160a01b03166001600160a01b031681526020019081526020016000206001018054600181600116156101000203166002900480601f0160208091040260200160405190810160405280929190818152602001828054600181600116156101000203166002900480156127175780601f106126ec57610100808354040283529160200191612717565b6000818152600560208181526040808420601481015460068201546008830154600484015496840154600a90940180548651601f6002600019600185161561010002019093169290920491820189900489028101890190975280875289988998899889986060986001600160a01b0390811698811697169593949093928391908301828280156143445780601f1061431957610100808354040283529160200191614344565b820191906000526020600020905b81548152906001019060200180831161432757829003601f168201915b5050505050905095509550955095509550955091939550919395565b600081815260056020908152604080832060068101546009820154600180840180548651601f6002600019958416156101000295909501909216849004918201899004890281018901909752808752606097889788978b97899788976001600160a01b0390921696959183019460038401949193600b810193600c90910192918891908301828280156144345780601f1061440957610100808354040283529160200191614434565b820191906000526020600020905b81548152906001019060200180831161441757829003601f168201915b5050885460408051602060026001851615610100026000190190941693909304601f8101849004840282018401909252818152959b508a9450925084019050828280156144c25780601f10614497576101008083540402835291602001916144c2565b820191906000526020600020905b8154815290600101906020018083116144a557829003601f168201915b5050875460408051602060026001851615610100026000190190941693909304601f8101849004840282018401909252818152959a50899450925084019050828280156145505780601f1061452557610100808354040283529160200191614550565b820191906000526020600020905b81548152906001019060200180831161453357829003601f168201915b5050855460408051602060026001851615610100026000190190941693909304601f810184900484028201840190925281815295995087945092508401905082828015612fd35780601f10612fa857610100808354040283529160200191612fd3565b6000336001600160a01b031660078d6040518082805190602001908083835b602083106145f15780518252601f1990920191602091820191016145d2565b51815160209384036101000a60001901801990921691161790529201948552506040519384900301909220546001600160a01b031692909214915081905061464357506006546001600160a01b031633145b61464c57600080fd5b6146566003614b32565b60006146626003614b3b565b60008181526005602052604090205490915081141561468057600080fd5b8060056000838152602001908152602001600020600001819055508e6005600083815260200190815260200160002060010190805190602001906146c5929190614b3f565b508d6005600083815260200190815260200160002060020190805190602001906146f0929190614b3f565b508c60056000838152602001908152602001600020600301908051906020019061471b929190614b3f565b506000818152600560208181526040909220600481018f90559081018d90556006810180546001600160a01b0319166001600160a01b038e161790558a5161476b926007909201918c0190614b3f565b5060008181526005602090815260409091206008810180546001600160a01b0319166001600160a01b038c161790556009810189905587516147b592600b90920191890190614b3f565b50600081815260056020908152604090912086516147db92600c90920191880190614b3f565b506000818152600560209081526040909120855161480192600a90920191870190614b3f565b50600081815260056020908152604080832060140180546001600160a01b0319166001600160a01b039788161790559b909416815260088452998a20805460018181018355918c52938b209093018190556004805480850182559a527f8a35acfbc15ff81a39ae7d344fd709f28e8600b4aa8c65c6b64bfe7fe36bd19b909901989098559c9b505050505050505050505050565b6000828152600560205260409020600601546001600160a01b031633146148bb57600080fd5b600082815260056020526040902060130180548291907fffffffffffffffffffff00ffffffffffffffffffffffffffffffffffffffffff16600160a81b83600381111561490457fe5b0217905550600281600381111561491757fe5b141561494c576000828152600560205260409020601301805475ff00ffffffffffffffffffffffffffffffffffffffff191690555b5050565b6002546000906001600160a01b031633141561496b57600080fd5b6001600160a01b038581166000908152602081905260409020541633141561499257600080fd5b6001600160a01b03851660008181526020818152604090912080546001600160a01b031916909217825585516149ce9260010191870190614b3f565b506001600160a01b03851660009081526020818152604090912084516149fc92600290920191860190614b3f565b506001600160a01b0385166000908152602081815260409091208351614a2a92600390920191850190614b3f565b50506001600160a01b0384166000908152602081905260409020600501805460ff191690556001949350505050565b6000614a658284613c0e565b6001600160a01b03841660009081526008602052604090208054919250906000198101908110614a9157fe5b60009182526020808320909101546001600160a01b038616835260089091526040909120805483908110614ac157fe5b60009182526020808320909101929092556001600160a01b038516815260089091526040902080546000198101908110614af757fe5b600091825260208083209091018290556001600160a01b03851682526008905260409020805490614b2c906000198301614bbd565b50505050565b80546001019055565b5490565b828054600181600116156101000203166002900490600052602060002090601f016020900481019282601f10614b8057805160ff1916838001178555614bad565b82800160010185558215614bad579182015b82811115614bad578251825591602001919060010190614b92565b50614bb9929150614bdd565b5090565b8154818355818111156141dc576000838152602090206141dc9181019083015b61262191905b80821115614bb95760008155600101614be356fea265627a7a72315820a4e2956e2261afc766bedc221ca92461a03a0f53d33469ddeb07d3dbecc6a31c64736f6c63430005100032",
  "source": "pragma solidity >=0.4.0 <0.6.0;\n\nimport {Auth} from \"../contracts/Auth.sol\";\nimport \"../contracts/Counter.sol\";\n\ncontract Land is Auth {\n\n    using Counters for Counters.Counter;\n    Counters.Counter private _landIds;\n\n    struct landDetails {\n        uint256 landID;\n        string state;\n        string district;\n        string villageTown;\n        uint256 khataNumber;\n        uint256 khatooniNumber;\n        address payable CurrentOwner;\n        string ownerName;\n        address previousOwner;\n        uint256 marketValue;\n        string landType;\n        string squareFoots;\n        string inches;\n        string lat;\n        string lng;\n        string north;\n        string south;\n        string east;\n        string west;\n        address payable requester;\n        bool isAvailable;\n        reqStatus requestStatus;\n        address payable createByGovt;\n        string orderEndTime;\n    }\n\n    uint256[] public propertiesIDs;\n\n    //request status\n    enum reqStatus {\n        Default,\n        pending,\n        reject,\n        approved\n    }\n\n    //profile of a client\n    struct profiles {\n        uint256[] assetList;\n    }\n\n    mapping(uint256 => landDetails) land;\n    address owner;\n    mapping(string => address) superAdmin;\n    mapping(address => profiles) profile;\n\n    //contract owner\n    constructor() public {\n        owner = msg.sender;\n    }\n\n    modifier onlyOwner() {\n        require(msg.sender == owner);\n        _;\n    }\n\n    //adding village admins\n    function addSuperAdmin(address _superAdmin, string memory _village)\n        public\n        onlyOwner\n    {\n        superAdmin[_village] = _superAdmin;\n    }\n\n    //Registration of land details.\n    function Registration(\n        string memory _state,\n        string memory _district,\n        string memory _villageTown,\n        uint256 _khataNumber,\n        uint256 _khatooniNumber,\n        address payable _OwnerAddress,\n        string memory _ownerName,\n        address _previousOwner,\n        uint256 _marketValue,\n        string memory _squareFoots,\n        string memory _inches,\n        string memory _landType,\n        address payable _createByGovt\n    ) public returns (bool) {\n        require(superAdmin[_villageTown] == msg.sender || owner == msg.sender);\n\n        _landIds.increment();\n        uint256 newLandId = _landIds.current();\n\n        require(land[newLandId].landID != newLandId);\n\n        land[newLandId].landID = newLandId;\n        land[newLandId].state = _state;\n        land[newLandId].district = _district;\n        land[newLandId].villageTown = _villageTown;\n        land[newLandId].khataNumber = _khataNumber;\n        land[newLandId].khatooniNumber = _khatooniNumber;\n        land[newLandId].CurrentOwner = _OwnerAddress;\n        land[newLandId].ownerName = _ownerName;\n        land[newLandId].previousOwner = _previousOwner;\n        land[newLandId].marketValue = _marketValue;\n        land[newLandId].squareFoots = _squareFoots;\n        land[newLandId].inches = _inches;\n        land[newLandId].landType = _landType;\n        land[newLandId].createByGovt = _createByGovt;\n        profile[_OwnerAddress].assetList.push(newLandId);\n        propertiesIDs.push(newLandId);\n        return true;\n    }\n\n    // Updating land details. Polyline\n    function registerLandPolyline(\n        string memory _lat,\n        string memory _lng,\n        string memory _north,\n        string memory _south,\n        string memory _east,\n        string memory _west,\n        uint256 id\n    ) public returns (bool) {\n        land[id].lat = _lat;\n        land[id].lng = _lng;\n        land[id].north = _north;\n        land[id].south = _south;\n        land[id].east = _east;\n        land[id].west = _west;\n        return true;\n    }\n\n    //to view details of land for the owner\n    function landInfoOwner(uint256 id)\n        public\n        view\n        returns (\n            string memory,\n            string memory,\n            string memory,\n            bool,\n            uint256,\n            string memory,\n            string memory\n        )\n    {\n        return (\n            land[id].state,\n            land[id].district,\n            land[id].villageTown,\n            land[id].isAvailable,\n            land[id].marketValue,\n            land[id].squareFoots,\n            land[id].inches\n        );\n    }\n\n    function remainingDetail(uint256 id)\n        public\n        view\n        returns (\n            address,\n            address,\n            address,\n            uint256,\n            uint256,\n            string memory\n        )\n    {\n        return (\n            land[id].createByGovt,\n            land[id].CurrentOwner,\n            land[id].previousOwner,\n            land[id].khataNumber,\n            land[id].khatooniNumber,\n            land[id].landType\n        );\n    }\n\n    function remainingMoreDetail(uint256 id)\n        public\n        view\n        returns (\n            string memory,\n            string memory,\n            string memory,\n            string memory,\n            string memory,\n            string memory,\n            string memory\n        )\n    {\n        return (\n            land[id].lat,\n            land[id].lng,\n            land[id].north,\n            land[id].south,\n            land[id].east,\n            land[id].west,\n            land[id].ownerName\n        );\n    }\n\n    function showAllLands(uint256 id)\n        public\n        view\n        returns (\n            address,\n            string memory,\n            string memory,\n            string memory,\n            uint256,\n            string memory,\n            string memory\n        )\n    {\n        return (\n            land[id].CurrentOwner,\n            land[id].state,\n            land[id].district,\n            land[id].villageTown,\n            land[id].marketValue,\n            land[id].squareFoots,\n            land[id].inches\n        );\n    }\n\n    //to view details of land for the buyer\n    function landInfoUser(uint256 id)\n        public\n        view\n        returns (\n            address,\n            uint256,\n            bool,\n            address,\n            reqStatus,\n            uint256,\n            uint256\n        )\n    {\n        return (\n            land[id].CurrentOwner,\n            land[id].marketValue,\n            land[id].isAvailable,\n            land[id].requester,\n            land[id].requestStatus,\n            land[id].khataNumber,\n            land[id].khatooniNumber\n        );\n    }\n\n    // to compute id for a land.\n    function computeId(\n        string memory _state,\n        string memory _district,\n        string memory _village,\n        uint256 _surveyNumber\n    ) public view returns (uint256) {\n        return\n            uint256(\n                keccak256(\n                    abi.encodePacked(_state, _district, _village, _surveyNumber)\n                )\n            ) % 10000000000000;\n    }\n\n    //push a request to the land owner\n    function requstToLandOwner(uint256 id) public {\n        require(land[id].isAvailable);\n        require(msg.sender.balance >= land[id].marketValue);\n        land[id].requester = msg.sender;\n        land[id].isAvailable = false;\n        land[id].requestStatus = reqStatus.pending; //changes the status to pending.\n    }\n\n    //will show assets of the function caller\n    function viewAssets() public view returns (uint256[] memory) {\n        return (profile[msg.sender].assetList);\n    }\n\n    //viewing request for the lands\n    function viewRequest(uint256 property) public view returns (address) {\n        return (land[property].requester);\n    }\n\n    //availing land for sale.\n    function markAvailable(uint256 property) public {\n        require(land[property].CurrentOwner == msg.sender);\n        land[property].isAvailable = true;\n    }\n\n    function unMarkLand(uint256 property) public {\n        require(land[property].CurrentOwner == msg.sender);\n        land[property].requester = address(0);  \n        land[property].requestStatus = reqStatus.Default;\n        land[property].isAvailable = false;\n    }\n\n    function showMarketValue(uint256 id) public view returns (uint256) {\n        return land[id].marketValue;\n    }\n\n    // change the market value after some years\n    function changeMarketValue(string memory _landType, uint256 _marketValue)\n        public\n    {\n        // update all land values\n        for (uint256 i = 0; i < propertiesIDs.length; i++) {\n            if (\n                land[propertiesIDs[i]].marketValue > 0 &&\n                keccak256(abi.encodePacked(land[propertiesIDs[i]].landType)) ==\n                keccak256(abi.encodePacked(_landType))\n            ) {\n                land[propertiesIDs[i]].marketValue =\n                    land[propertiesIDs[i]].marketValue +\n                    _marketValue;\n            }\n        }\n    }\n\n    // Get all the lands ids.\n    function getAllLands() public view returns (uint256[] memory) {\n        return (propertiesIDs);\n    }\n\n    // show marked Available\n    function viewMarkded(uint256 id)\n        public\n        view\n        returns (\n            string memory,\n            address,\n            string memory,\n            bool,\n            uint256,\n            string memory,\n            uint256\n        )\n    {\n        if (land[id].isAvailable) {\n            return (\n                land[id].state,\n                land[id].CurrentOwner,\n                land[id].district,\n                land[id].isAvailable,\n                land[id].marketValue,\n                land[id].squareFoots,\n                id\n            );\n        }\n    }\n\n    // show marked Available\n    function viewMarkdedRemainingData(uint256 id)\n        public\n        view\n        returns (\n            string memory,\n            uint256,\n            uint256,\n            string memory\n        )\n    {\n        if (land[id].isAvailable) {\n            return (\n                land[id].villageTown,\n                land[id].khataNumber,\n                land[id].khatooniNumber,\n                land[id].inches\n            );\n        }\n    }\n\n    //processing request for the land by accepting or rejecting\n    function processRequest(uint256 property, reqStatus status) public {\n        require(land[property].CurrentOwner == msg.sender);\n        land[property].requestStatus = status;\n        if (status == reqStatus.reject) {\n            land[property].requester = address(0);\n            land[property].requestStatus = reqStatus.Default;\n        }\n    }\n\n    //buying the approved property\n    function buyProperty(uint256 property) public payable {\n        require(land[property].requestStatus == reqStatus.approved);\n        require(msg.value >= land[property].marketValue);\n\n        uint256 totalValue = msg.value;\n        uint256 taxFee = 1000000000000000000;\n\n        if (msg.value <= 16000000000000000000) {\n            totalValue = totalValue - taxFee;\n        } else {\n            taxFee = (msg.value * 6) / uint256(100);\n            totalValue = totalValue - taxFee;\n        }\n\n        land[property].createByGovt.transfer(taxFee);\n        land[property].CurrentOwner.transfer(totalValue);\n\n        removeOwnership(land[property].CurrentOwner, property);\n        land[property].previousOwner = land[property].CurrentOwner;\n        land[property].CurrentOwner = msg.sender;\n        land[property].ownerName = getUserName(msg.sender);\n        land[property].isAvailable = false;\n        land[property].requester = address(0);\n        land[property].requestStatus = reqStatus.Default;\n        profile[msg.sender].assetList.push(property); //adds the property to the asset list of the new owner.\n    }\n\n    function refuseToBuy(uint256 property) public {\n        require(land[property].requester == msg.sender);\n        land[property].requester = address(0);  \n        land[property].requestStatus = reqStatus.Default;\n    }\n\n    //removing the ownership of seller for the land. and it is called by the buyProperty function\n    function removeOwnership(address previousOwner, uint256 id) private {\n        uint256 index = findId(id, previousOwner);\n        profile[previousOwner].assetList[index] = profile[previousOwner]\n            .assetList[profile[previousOwner].assetList.length - 1];\n        delete profile[previousOwner].assetList[\n            profile[previousOwner].assetList.length - 1\n        ];\n        profile[previousOwner].assetList.length--;\n    }\n\n    //for finding the index of a perticular id\n    function findId(uint256 id, address user) public view returns (uint256) {\n        uint256 i;\n        for (i = 0; i < profile[user].assetList.length; i++) {\n            if (profile[user].assetList[i] == id) return i;\n        }\n        return i;\n    }\n}\n",
  "sourcePath": "/home/zaryab/VSCodeProjects/land-records-blockchain/src/contracts/Land.sol",
  "compiler": {
    "name": "solc",
    "version": "0.5.16+commit.9c3226ce.Emscripten.clang"
  },
  "schemaVersion": "3.4.3",
  "updatedAt": "2021-10-19T07:12:20.052Z",
  "networkType": "ethereum",
  "devdoc": {
    "methods": {}
  },
  "userdoc": {
    "methods": {}
  }
}