{
  "contractName": "Land",
  "abi": [
    {
      "inputs": [],
      "payable": false,
      "stateMutability": "nonpayable",
      "type": "constructor"
    },
    {
      "constant": false,
      "inputs": [
        {
          "internalType": "address",
          "name": "_address",
          "type": "address"
        }
      ],
      "name": "checkIsAdminLogged",
      "outputs": [
        {
          "internalType": "bool",
          "name": "",
          "type": "bool"
        },
        {
          "internalType": "string",
          "name": "",
          "type": "string"
        },
        {
          "internalType": "string",
          "name": "",
          "type": "string"
        }
      ],
      "payable": false,
      "stateMutability": "nonpayable",
      "type": "function"
    },
    {
      "constant": false,
      "inputs": [
        {
          "internalType": "address",
          "name": "_address",
          "type": "address"
        }
      ],
      "name": "checkIsUserLogged",
      "outputs": [
        {
          "internalType": "bool",
          "name": "",
          "type": "bool"
        },
        {
          "internalType": "string",
          "name": "",
          "type": "string"
        },
        {
          "internalType": "string",
          "name": "",
          "type": "string"
        }
      ],
      "payable": false,
      "stateMutability": "nonpayable",
      "type": "function"
    },
    {
      "constant": false,
      "inputs": [
        {
          "internalType": "address",
          "name": "_address",
          "type": "address"
        }
      ],
      "name": "getAdminBalance",
      "outputs": [
        {
          "internalType": "uint256",
          "name": "",
          "type": "uint256"
        }
      ],
      "payable": false,
      "stateMutability": "nonpayable",
      "type": "function"
    },
    {
      "constant": false,
      "inputs": [
        {
          "internalType": "address",
          "name": "_address",
          "type": "address"
        }
      ],
      "name": "getAdminIpfsImageHash",
      "outputs": [
        {
          "internalType": "string",
          "name": "",
          "type": "string"
        }
      ],
      "payable": false,
      "stateMutability": "nonpayable",
      "type": "function"
    },
    {
      "constant": false,
      "inputs": [
        {
          "internalType": "address",
          "name": "_address",
          "type": "address"
        }
      ],
      "name": "getUserBalance",
      "outputs": [
        {
          "internalType": "uint256",
          "name": "",
          "type": "uint256"
        }
      ],
      "payable": false,
      "stateMutability": "nonpayable",
      "type": "function"
    },
    {
      "constant": false,
      "inputs": [
        {
          "internalType": "address",
          "name": "_address",
          "type": "address"
        }
      ],
      "name": "getUserIpfsImageHash",
      "outputs": [
        {
          "internalType": "string",
          "name": "",
          "type": "string"
        }
      ],
      "payable": false,
      "stateMutability": "nonpayable",
      "type": "function"
    },
    {
      "constant": false,
      "inputs": [
        {
          "internalType": "address",
          "name": "_address",
          "type": "address"
        }
      ],
      "name": "getUserName",
      "outputs": [
        {
          "internalType": "string",
          "name": "",
          "type": "string"
        }
      ],
      "payable": false,
      "stateMutability": "nonpayable",
      "type": "function"
    },
    {
      "constant": false,
      "inputs": [
        {
          "internalType": "address",
          "name": "_address",
          "type": "address"
        },
        {
          "internalType": "string",
          "name": "_password",
          "type": "string"
        }
      ],
      "name": "loginAdmin",
      "outputs": [
        {
          "internalType": "bool",
          "name": "",
          "type": "bool"
        }
      ],
      "payable": false,
      "stateMutability": "nonpayable",
      "type": "function"
    },
    {
      "constant": false,
      "inputs": [
        {
          "internalType": "address",
          "name": "_address",
          "type": "address"
        },
        {
          "internalType": "string",
          "name": "_password",
          "type": "string"
        }
      ],
      "name": "loginUser",
      "outputs": [
        {
          "internalType": "bool",
          "name": "",
          "type": "bool"
        }
      ],
      "payable": false,
      "stateMutability": "nonpayable",
      "type": "function"
    },
    {
      "constant": false,
      "inputs": [
        {
          "internalType": "address",
          "name": "_address",
          "type": "address"
        }
      ],
      "name": "logoutAdmin",
      "outputs": [],
      "payable": false,
      "stateMutability": "nonpayable",
      "type": "function"
    },
    {
      "constant": false,
      "inputs": [
        {
          "internalType": "address",
          "name": "_address",
          "type": "address"
        }
      ],
      "name": "logoutUser",
      "outputs": [],
      "payable": false,
      "stateMutability": "nonpayable",
      "type": "function"
    },
    {
      "constant": true,
      "inputs": [
        {
          "internalType": "uint256",
          "name": "",
          "type": "uint256"
        }
      ],
      "name": "propertiesIDs",
      "outputs": [
        {
          "internalType": "uint256",
          "name": "",
          "type": "uint256"
        }
      ],
      "payable": false,
      "stateMutability": "view",
      "type": "function"
    },
    {
      "constant": false,
      "inputs": [
        {
          "internalType": "address",
          "name": "_address",
          "type": "address"
        },
        {
          "internalType": "string",
          "name": "_name",
          "type": "string"
        },
        {
          "internalType": "string",
          "name": "_password",
          "type": "string"
        }
      ],
      "name": "registerAdmin",
      "outputs": [
        {
          "internalType": "bool",
          "name": "",
          "type": "bool"
        }
      ],
      "payable": false,
      "stateMutability": "nonpayable",
      "type": "function"
    },
    {
      "constant": false,
      "inputs": [
        {
          "internalType": "address",
          "name": "_address",
          "type": "address"
        },
        {
          "internalType": "string",
          "name": "_name",
          "type": "string"
        },
        {
          "internalType": "string",
          "name": "_password",
          "type": "string"
        },
        {
          "internalType": "string",
          "name": "_cnic",
          "type": "string"
        }
      ],
      "name": "registerUser",
      "outputs": [
        {
          "internalType": "bool",
          "name": "",
          "type": "bool"
        }
      ],
      "payable": false,
      "stateMutability": "nonpayable",
      "type": "function"
    },
    {
      "constant": false,
      "inputs": [
        {
          "internalType": "address",
          "name": "_address",
          "type": "address"
        },
        {
          "internalType": "string",
          "name": "_ipfsImageHash",
          "type": "string"
        }
      ],
      "name": "setAdminIpfsImageHash",
      "outputs": [
        {
          "internalType": "bool",
          "name": "",
          "type": "bool"
        }
      ],
      "payable": false,
      "stateMutability": "nonpayable",
      "type": "function"
    },
    {
      "constant": false,
      "inputs": [
        {
          "internalType": "address",
          "name": "_address",
          "type": "address"
        },
        {
          "internalType": "string",
          "name": "_ipfsImageHash",
          "type": "string"
        }
      ],
      "name": "setUserIpfsImageHash",
      "outputs": [
        {
          "internalType": "bool",
          "name": "",
          "type": "bool"
        }
      ],
      "payable": false,
      "stateMutability": "nonpayable",
      "type": "function"
    },
    {
      "constant": false,
      "inputs": [
        {
          "internalType": "address",
          "name": "_superAdmin",
          "type": "address"
        },
        {
          "internalType": "string",
          "name": "_village",
          "type": "string"
        }
      ],
      "name": "addSuperAdmin",
      "outputs": [],
      "payable": false,
      "stateMutability": "nonpayable",
      "type": "function"
    },
    {
      "constant": false,
      "inputs": [
        {
          "internalType": "string",
          "name": "_state",
          "type": "string"
        },
        {
          "internalType": "string",
          "name": "_district",
          "type": "string"
        },
        {
          "internalType": "string",
          "name": "_villageTown",
          "type": "string"
        },
        {
          "internalType": "uint256",
          "name": "_khataNumber",
          "type": "uint256"
        },
        {
          "internalType": "uint256",
          "name": "_khatooniNumber",
          "type": "uint256"
        },
        {
          "internalType": "address payable",
          "name": "_OwnerAddress",
          "type": "address"
        },
        {
          "internalType": "string",
          "name": "_ownerName",
          "type": "string"
        },
        {
          "internalType": "address",
          "name": "_previousOwner",
          "type": "address"
        },
        {
          "internalType": "uint256",
          "name": "_marketValue",
          "type": "uint256"
        },
        {
          "internalType": "uint256",
          "name": "id",
          "type": "uint256"
        },
        {
          "internalType": "string",
          "name": "_squareFoots",
          "type": "string"
        },
        {
          "internalType": "string",
          "name": "_inches",
          "type": "string"
        },
        {
          "internalType": "string",
          "name": "_landType",
          "type": "string"
        },
        {
          "internalType": "address payable",
          "name": "_createByGovt",
          "type": "address"
        }
      ],
      "name": "Registration",
      "outputs": [
        {
          "internalType": "bool",
          "name": "",
          "type": "bool"
        }
      ],
      "payable": false,
      "stateMutability": "nonpayable",
      "type": "function"
    },
    {
      "constant": false,
      "inputs": [
        {
          "internalType": "string",
          "name": "_lat",
          "type": "string"
        },
        {
          "internalType": "string",
          "name": "_lng",
          "type": "string"
        },
        {
          "internalType": "string",
          "name": "_north",
          "type": "string"
        },
        {
          "internalType": "string",
          "name": "_south",
          "type": "string"
        },
        {
          "internalType": "string",
          "name": "_east",
          "type": "string"
        },
        {
          "internalType": "string",
          "name": "_west",
          "type": "string"
        },
        {
          "internalType": "uint256",
          "name": "id",
          "type": "uint256"
        }
      ],
      "name": "registerLandPolyline",
      "outputs": [
        {
          "internalType": "bool",
          "name": "",
          "type": "bool"
        }
      ],
      "payable": false,
      "stateMutability": "nonpayable",
      "type": "function"
    },
    {
      "constant": true,
      "inputs": [
        {
          "internalType": "uint256",
          "name": "id",
          "type": "uint256"
        }
      ],
      "name": "landInfoOwner",
      "outputs": [
        {
          "internalType": "string",
          "name": "",
          "type": "string"
        },
        {
          "internalType": "string",
          "name": "",
          "type": "string"
        },
        {
          "internalType": "string",
          "name": "",
          "type": "string"
        },
        {
          "internalType": "bool",
          "name": "",
          "type": "bool"
        },
        {
          "internalType": "uint256",
          "name": "",
          "type": "uint256"
        },
        {
          "internalType": "string",
          "name": "",
          "type": "string"
        },
        {
          "internalType": "string",
          "name": "",
          "type": "string"
        }
      ],
      "payable": false,
      "stateMutability": "view",
      "type": "function"
    },
    {
      "constant": true,
      "inputs": [
        {
          "internalType": "uint256",
          "name": "id",
          "type": "uint256"
        }
      ],
      "name": "remainingDetail",
      "outputs": [
        {
          "internalType": "address",
          "name": "",
          "type": "address"
        },
        {
          "internalType": "address",
          "name": "",
          "type": "address"
        },
        {
          "internalType": "address",
          "name": "",
          "type": "address"
        },
        {
          "internalType": "uint256",
          "name": "",
          "type": "uint256"
        },
        {
          "internalType": "uint256",
          "name": "",
          "type": "uint256"
        },
        {
          "internalType": "string",
          "name": "",
          "type": "string"
        }
      ],
      "payable": false,
      "stateMutability": "view",
      "type": "function"
    },
    {
      "constant": true,
      "inputs": [
        {
          "internalType": "uint256",
          "name": "id",
          "type": "uint256"
        }
      ],
      "name": "remainingMoreDetail",
      "outputs": [
        {
          "internalType": "string",
          "name": "",
          "type": "string"
        },
        {
          "internalType": "string",
          "name": "",
          "type": "string"
        },
        {
          "internalType": "string",
          "name": "",
          "type": "string"
        },
        {
          "internalType": "string",
          "name": "",
          "type": "string"
        },
        {
          "internalType": "string",
          "name": "",
          "type": "string"
        },
        {
          "internalType": "string",
          "name": "",
          "type": "string"
        },
        {
          "internalType": "string",
          "name": "",
          "type": "string"
        }
      ],
      "payable": false,
      "stateMutability": "view",
      "type": "function"
    },
    {
      "constant": true,
      "inputs": [
        {
          "internalType": "uint256",
          "name": "id",
          "type": "uint256"
        }
      ],
      "name": "showAllLands",
      "outputs": [
        {
          "internalType": "address",
          "name": "",
          "type": "address"
        },
        {
          "internalType": "string",
          "name": "",
          "type": "string"
        },
        {
          "internalType": "string",
          "name": "",
          "type": "string"
        },
        {
          "internalType": "string",
          "name": "",
          "type": "string"
        },
        {
          "internalType": "uint256",
          "name": "",
          "type": "uint256"
        },
        {
          "internalType": "string",
          "name": "",
          "type": "string"
        },
        {
          "internalType": "string",
          "name": "",
          "type": "string"
        }
      ],
      "payable": false,
      "stateMutability": "view",
      "type": "function"
    },
    {
      "constant": true,
      "inputs": [
        {
          "internalType": "uint256",
          "name": "id",
          "type": "uint256"
        }
      ],
      "name": "landInfoUser",
      "outputs": [
        {
          "internalType": "address",
          "name": "",
          "type": "address"
        },
        {
          "internalType": "uint256",
          "name": "",
          "type": "uint256"
        },
        {
          "internalType": "bool",
          "name": "",
          "type": "bool"
        },
        {
          "internalType": "address",
          "name": "",
          "type": "address"
        },
        {
          "internalType": "enum Land.reqStatus",
          "name": "",
          "type": "uint8"
        },
        {
          "internalType": "uint256",
          "name": "",
          "type": "uint256"
        },
        {
          "internalType": "uint256",
          "name": "",
          "type": "uint256"
        }
      ],
      "payable": false,
      "stateMutability": "view",
      "type": "function"
    },
    {
      "constant": true,
      "inputs": [
        {
          "internalType": "string",
          "name": "_state",
          "type": "string"
        },
        {
          "internalType": "string",
          "name": "_district",
          "type": "string"
        },
        {
          "internalType": "string",
          "name": "_village",
          "type": "string"
        },
        {
          "internalType": "uint256",
          "name": "_surveyNumber",
          "type": "uint256"
        }
      ],
      "name": "computeId",
      "outputs": [
        {
          "internalType": "uint256",
          "name": "",
          "type": "uint256"
        }
      ],
      "payable": false,
      "stateMutability": "view",
      "type": "function"
    },
    {
      "constant": false,
      "inputs": [
        {
          "internalType": "uint256",
          "name": "id",
          "type": "uint256"
        }
      ],
      "name": "requstToLandOwner",
      "outputs": [],
      "payable": false,
      "stateMutability": "nonpayable",
      "type": "function"
    },
    {
      "constant": true,
      "inputs": [],
      "name": "viewAssets",
      "outputs": [
        {
          "internalType": "uint256[]",
          "name": "",
          "type": "uint256[]"
        }
      ],
      "payable": false,
      "stateMutability": "view",
      "type": "function"
    },
    {
      "constant": true,
      "inputs": [
        {
          "internalType": "uint256",
          "name": "property",
          "type": "uint256"
        }
      ],
      "name": "viewRequest",
      "outputs": [
        {
          "internalType": "address",
          "name": "",
          "type": "address"
        }
      ],
      "payable": false,
      "stateMutability": "view",
      "type": "function"
    },
    {
      "constant": false,
      "inputs": [
        {
          "internalType": "uint256",
          "name": "property",
          "type": "uint256"
        }
      ],
      "name": "markAvailable",
      "outputs": [],
      "payable": false,
      "stateMutability": "nonpayable",
      "type": "function"
    },
    {
      "constant": false,
      "inputs": [
        {
          "internalType": "uint256",
          "name": "property",
          "type": "uint256"
        }
      ],
      "name": "unMarkLand",
      "outputs": [],
      "payable": false,
      "stateMutability": "nonpayable",
      "type": "function"
    },
    {
      "constant": true,
      "inputs": [
        {
          "internalType": "uint256",
          "name": "id",
          "type": "uint256"
        }
      ],
      "name": "showMarketValue",
      "outputs": [
        {
          "internalType": "uint256",
          "name": "",
          "type": "uint256"
        }
      ],
      "payable": false,
      "stateMutability": "view",
      "type": "function"
    },
    {
      "constant": false,
      "inputs": [
        {
          "internalType": "string",
          "name": "_landType",
          "type": "string"
        },
        {
          "internalType": "uint256",
          "name": "_marketValue",
          "type": "uint256"
        }
      ],
      "name": "changeMarketValue",
      "outputs": [],
      "payable": false,
      "stateMutability": "nonpayable",
      "type": "function"
    },
    {
      "constant": true,
      "inputs": [],
      "name": "getAllLands",
      "outputs": [
        {
          "internalType": "uint256[]",
          "name": "",
          "type": "uint256[]"
        }
      ],
      "payable": false,
      "stateMutability": "view",
      "type": "function"
    },
    {
      "constant": true,
      "inputs": [
        {
          "internalType": "uint256",
          "name": "id",
          "type": "uint256"
        }
      ],
      "name": "viewMarkded",
      "outputs": [
        {
          "internalType": "string",
          "name": "",
          "type": "string"
        },
        {
          "internalType": "address",
          "name": "",
          "type": "address"
        },
        {
          "internalType": "string",
          "name": "",
          "type": "string"
        },
        {
          "internalType": "bool",
          "name": "",
          "type": "bool"
        },
        {
          "internalType": "uint256",
          "name": "",
          "type": "uint256"
        },
        {
          "internalType": "string",
          "name": "",
          "type": "string"
        },
        {
          "internalType": "uint256",
          "name": "",
          "type": "uint256"
        }
      ],
      "payable": false,
      "stateMutability": "view",
      "type": "function"
    },
    {
      "constant": true,
      "inputs": [
        {
          "internalType": "uint256",
          "name": "id",
          "type": "uint256"
        }
      ],
      "name": "viewMarkdedRemainingData",
      "outputs": [
        {
          "internalType": "string",
          "name": "",
          "type": "string"
        },
        {
          "internalType": "uint256",
          "name": "",
          "type": "uint256"
        },
        {
          "internalType": "uint256",
          "name": "",
          "type": "uint256"
        },
        {
          "internalType": "string",
          "name": "",
          "type": "string"
        }
      ],
      "payable": false,
      "stateMutability": "view",
      "type": "function"
    },
    {
      "constant": false,
      "inputs": [
        {
          "internalType": "uint256",
          "name": "property",
          "type": "uint256"
        },
        {
          "internalType": "enum Land.reqStatus",
          "name": "status",
          "type": "uint8"
        }
      ],
      "name": "processRequest",
      "outputs": [],
      "payable": false,
      "stateMutability": "nonpayable",
      "type": "function"
    },
    {
      "constant": false,
      "inputs": [
        {
          "internalType": "uint256",
          "name": "property",
          "type": "uint256"
        }
      ],
      "name": "buyProperty",
      "outputs": [],
      "payable": true,
      "stateMutability": "payable",
      "type": "function"
    },
    {
      "constant": true,
      "inputs": [
        {
          "internalType": "uint256",
          "name": "id",
          "type": "uint256"
        },
        {
          "internalType": "address",
          "name": "user",
          "type": "address"
        }
      ],
      "name": "findId",
      "outputs": [
        {
          "internalType": "uint256",
          "name": "",
          "type": "uint256"
        }
      ],
      "payable": false,
      "stateMutability": "view",
      "type": "function"
    }
  ],
  "bytecode": "0x608060405234801561001057600080fd5b5060028054336001600160a01b03199182168117909255600580549091169091179055614b09806100426000396000f3fe6080604052600436106102855760003560e01c8063645cf80f11610153578063a27664ee116100cb578063d84f55ee1161007f578063deec6b4e11610064578063deec6b4e14612041578063fdb10f5014612193578063fe69c296146121c657610285565b8063d84f55ee14611f13578063ddc40e7e14611f4657610285565b8063ad142242116100b0578063ad14224214611cab578063b7b6e54314611e4b578063c6e41f3314611e6057610285565b8063a27664ee14611bb1578063ab05bae614611bea57610285565b80637ec0bd181161012257806394e504d21161010757806394e504d214611ab457806398711c1714611ade5780639d01485f14611b1157610285565b80637ec0bd181461178157806385be96e114611a8a57610285565b8063645cf80f1461164657806367a53654146116795780636c5ed9391461173a5780636fa830a61461176457610285565b8063297f7b391161020157806355d61952116101b5578063599bf2361161019a578063599bf236146111ba5780635c3aad081461150657806361735a491461161c57610285565b806355d6195214610f3b578063589cdaa41461118757610285565b8063434917af116101e6578063434917af14610d015780634773489214610dc25780634ad407a314610df557610285565b8063297f7b3914610b245780632d9b3bf514610c4057610285565b806316caeb77116102585780631d50a6c41161023d5780631d50a6c4146108f75780632416faf114610ab457806326e8525014610ade57610285565b806316caeb771461043e5780631c1b3e17146104e657610285565b806303bdb46b1461028a57806309df50601461035f5780630d2d5dca14610394578063128c9f01146103f9575b600080fd5b34801561029657600080fd5b5061034b600480360360408110156102ad57600080fd5b6001600160a01b038235169190810190604081016020820135600160201b8111156102d757600080fd5b8201836020820111156102e957600080fd5b803590602001918460018302840111600160201b8311171561030a57600080fd5b91908080601f016020809104026020016040519081016040528093929190818152602001838380828437600092019190915250929550612391945050505050565b604080519115158252519081900360200190f35b34801561036b57600080fd5b506103926004803603602081101561038257600080fd5b50356001600160a01b0316612521565b005b3480156103a057600080fd5b506103a9612583565b60408051602080825283518183015283519192839290830191858101910280838360005b838110156103e55781810151838201526020016103cd565b505050509050019250505060405180910390f35b34801561040557600080fd5b5061042c6004803603602081101561041c57600080fd5b50356001600160a01b03166125e5565b60408051918252519081900360200190f35b34801561044a57600080fd5b506104716004803603602081101561046157600080fd5b50356001600160a01b031661261f565b6040805160208082528351818301528351919283929083019185019080838360005b838110156104ab578181015183820152602001610493565b50505050905090810190601f1680156104d85780820380516001836020036101000a031916815260200191505b509250505060405180910390f35b3480156104f257600080fd5b5061034b60048036036101c081101561050a57600080fd5b810190602081018135600160201b81111561052457600080fd5b82018360208201111561053657600080fd5b803590602001918460018302840111600160201b8311171561055757600080fd5b91908080601f0160208091040260200160405190810160405280939291908181526020018383808284376000920191909152509295949360208101935035915050600160201b8111156105a957600080fd5b8201836020820111156105bb57600080fd5b803590602001918460018302840111600160201b831117156105dc57600080fd5b91908080601f0160208091040260200160405190810160405280939291908181526020018383808284376000920191909152509295949360208101935035915050600160201b81111561062e57600080fd5b82018360208201111561064057600080fd5b803590602001918460018302840111600160201b8311171561066157600080fd5b91908080601f01602080910402602001604051908101604052809392919081815260200183838082843760009201919091525092958435956020860135956001600160a01b0360408201351695509193509150608081019060600135600160201b8111156106ce57600080fd5b8201836020820111156106e057600080fd5b803590602001918460018302840111600160201b8311171561070157600080fd5b91908080601f01602080910402602001604051908101604052809392919081815260200183838082843760009201919091525092956001600160a01b0385351695602086013595604081013595509193509150608081019060600135600160201b81111561076e57600080fd5b82018360208201111561078057600080fd5b803590602001918460018302840111600160201b831117156107a157600080fd5b91908080601f0160208091040260200160405190810160405280939291908181526020018383808284376000920191909152509295949360208101935035915050600160201b8111156107f357600080fd5b82018360208201111561080557600080fd5b803590602001918460018302840111600160201b8311171561082657600080fd5b91908080601f0160208091040260200160405190810160405280939291908181526020018383808284376000920191909152509295949360208101935035915050600160201b81111561087857600080fd5b82018360208201111561088a57600080fd5b803590602001918460018302840111600160201b831117156108ab57600080fd5b91908080601f016020809104026020016040519081016040528093929190818152602001838380828437600092019190915250929550505090356001600160a01b031691506126e49050565b34801561090357600080fd5b5061042c6004803603608081101561091a57600080fd5b810190602081018135600160201b81111561093457600080fd5b82018360208201111561094657600080fd5b803590602001918460018302840111600160201b8311171561096757600080fd5b91908080601f0160208091040260200160405190810160405280939291908181526020018383808284376000920191909152509295949360208101935035915050600160201b8111156109b957600080fd5b8201836020820111156109cb57600080fd5b803590602001918460018302840111600160201b831117156109ec57600080fd5b91908080601f0160208091040260200160405190810160405280939291908181526020018383808284376000920191909152509295949360208101935035915050600160201b811115610a3e57600080fd5b820183602082011115610a5057600080fd5b803590602001918460018302840111600160201b83111715610a7157600080fd5b91908080601f0160208091040260200160405190810160405280939291908181526020018383808284376000920191909152509295505091359250612978915050565b348015610ac057600080fd5b5061039260048036036020811015610ad757600080fd5b5035612a95565b348015610aea57600080fd5b50610b0860048036036020811015610b0157600080fd5b5035612adf565b604080516001600160a01b039092168252519081900360200190f35b348015610b3057600080fd5b50610b5760048036036020811015610b4757600080fd5b50356001600160a01b0316612afd565b60405180841515151581526020018060200180602001838103835285818151815260200191508051906020019080838360005b83811015610ba2578181015183820152602001610b8a565b50505050905090810190601f168015610bcf5780820380516001836020036101000a031916815260200191505b50838103825284518152845160209182019186019080838360005b83811015610c02578181015183820152602001610bea565b50505050905090810190601f168015610c2f5780820380516001836020036101000a031916815260200191505b509550505050505060405180910390f35b348015610c4c57600080fd5b5061034b60048036036040811015610c6357600080fd5b6001600160a01b038235169190810190604081016020820135600160201b811115610c8d57600080fd5b820183602082011115610c9f57600080fd5b803590602001918460018302840111600160201b83111715610cc057600080fd5b91908080601f016020809104026020016040519081016040528093929190818152602001838380828437600092019190915250929550612c95945050505050565b348015610d0d57600080fd5b5061034b60048036036040811015610d2457600080fd5b6001600160a01b038235169190810190604081016020820135600160201b811115610d4e57600080fd5b820183602082011115610d6057600080fd5b803590602001918460018302840111600160201b83111715610d8157600080fd5b91908080601f016020809104026020016040519081016040528093929190818152602001838380828437600092019190915250929550612d0d945050505050565b348015610dce57600080fd5b5061042c60048036036020811015610de557600080fd5b50356001600160a01b0316612e70565b348015610e0157600080fd5b5061034b60048036036060811015610e1857600080fd5b6001600160a01b038235169190810190604081016020820135600160201b811115610e4257600080fd5b820183602082011115610e5457600080fd5b803590602001918460018302840111600160201b83111715610e7557600080fd5b91908080601f0160208091040260200160405190810160405280939291908181526020018383808284376000920191909152509295949360208101935035915050600160201b811115610ec757600080fd5b820183602082011115610ed957600080fd5b803590602001918460018302840111600160201b83111715610efa57600080fd5b91908080601f016020809104026020016040519081016040528093929190818152602001838380828437600092019190915250929550612ed1945050505050565b348015610f4757600080fd5b50610f6560048036036020811015610f5e57600080fd5b5035612fac565b6040518080602001806020018060200188151515158152602001878152602001806020018060200186810386528d818151815260200191508051906020019080838360005b83811015610fc2578181015183820152602001610faa565b50505050905090810190601f168015610fef5780820380516001836020036101000a031916815260200191505b5086810385528c5181528c516020918201918e019080838360005b8381101561102257818101518382015260200161100a565b50505050905090810190601f16801561104f5780820380516001836020036101000a031916815260200191505b5086810384528b5181528b516020918201918d019080838360005b8381101561108257818101518382015260200161106a565b50505050905090810190601f1680156110af5780820380516001836020036101000a031916815260200191505b5086810383528851815288516020918201918a019080838360005b838110156110e25781810151838201526020016110ca565b50505050905090810190601f16801561110f5780820380516001836020036101000a031916815260200191505b50868103825287518152875160209182019189019080838360005b8381101561114257818101518382015260200161112a565b50505050905090810190601f16801561116f5780820380516001836020036101000a031916815260200191505b509c5050505050505050505050505060405180910390f35b34801561119357600080fd5b50610471600480360360208110156111aa57600080fd5b50356001600160a01b03166132d4565b3480156111c657600080fd5b5061034b600480360360e08110156111dd57600080fd5b810190602081018135600160201b8111156111f757600080fd5b82018360208201111561120957600080fd5b803590602001918460018302840111600160201b8311171561122a57600080fd5b91908080601f0160208091040260200160405190810160405280939291908181526020018383808284376000920191909152509295949360208101935035915050600160201b81111561127c57600080fd5b82018360208201111561128e57600080fd5b803590602001918460018302840111600160201b831117156112af57600080fd5b91908080601f0160208091040260200160405190810160405280939291908181526020018383808284376000920191909152509295949360208101935035915050600160201b81111561130157600080fd5b82018360208201111561131357600080fd5b803590602001918460018302840111600160201b8311171561133457600080fd5b91908080601f0160208091040260200160405190810160405280939291908181526020018383808284376000920191909152509295949360208101935035915050600160201b81111561138657600080fd5b82018360208201111561139857600080fd5b803590602001918460018302840111600160201b831117156113b957600080fd5b91908080601f0160208091040260200160405190810160405280939291908181526020018383808284376000920191909152509295949360208101935035915050600160201b81111561140b57600080fd5b82018360208201111561141d57600080fd5b803590602001918460018302840111600160201b8311171561143e57600080fd5b91908080601f0160208091040260200160405190810160405280939291908181526020018383808284376000920191909152509295949360208101935035915050600160201b81111561149057600080fd5b8201836020820111156114a257600080fd5b803590602001918460018302840111600160201b831117156114c357600080fd5b91908080601f0160208091040260200160405190810160405280939291908181526020018383808284376000920191909152509295505091359250613388915050565b34801561151257600080fd5b506115306004803603602081101561152957600080fd5b5035613479565b604051808060200185815260200184815260200180602001838103835287818151815260200191508051906020019080838360005b8381101561157d578181015183820152602001611565565b50505050905090810190601f1680156115aa5780820380516001836020036101000a031916815260200191505b50838103825284518152845160209182019186019080838360005b838110156115dd5781810151838201526020016115c5565b50505050905090810190601f16801561160a5780820380516001836020036101000a031916815260200191505b50965050505050505060405180910390f35b34801561162857600080fd5b5061042c6004803603602081101561163f57600080fd5b50356135f0565b34801561165257600080fd5b506103926004803603602081101561166957600080fd5b50356001600160a01b0316613605565b34801561168557600080fd5b5061034b6004803603604081101561169c57600080fd5b6001600160a01b038235169190810190604081016020820135600160201b8111156116c657600080fd5b8201836020820111156116d857600080fd5b803590602001918460018302840111600160201b831117156116f957600080fd5b91908080601f016020809104026020016040519081016040528093929190818152602001838380828437600092019190915250929550613640945050505050565b34801561174657600080fd5b506103926004803603602081101561175d57600080fd5b5035613689565b6103926004803603602081101561177a57600080fd5b503561371a565b34801561178d57600080fd5b506117ab600480360360208110156117a457600080fd5b5035613916565b604051808060200180602001806020018060200180602001806020018060200188810388528f818151815260200191508051906020019080838360005b838110156118005781810151838201526020016117e8565b50505050905090810190601f16801561182d5780820380516001836020036101000a031916815260200191505b5088810387528e818151815260200191508051906020019080838360005b8381101561186357818101518382015260200161184b565b50505050905090810190601f1680156118905780820380516001836020036101000a031916815260200191505b5088810386528d5181528d516020918201918f019080838360005b838110156118c35781810151838201526020016118ab565b50505050905090810190601f1680156118f05780820380516001836020036101000a031916815260200191505b5088810385528c5181528c516020918201918e019080838360005b8381101561192357818101518382015260200161190b565b50505050905090810190601f1680156119505780820380516001836020036101000a031916815260200191505b5088810384528b5181528b516020918201918d019080838360005b8381101561198357818101518382015260200161196b565b50505050905090810190601f1680156119b05780820380516001836020036101000a031916815260200191505b5088810383528a5181528a516020918201918c019080838360005b838110156119e35781810151838201526020016119cb565b50505050905090810190601f168015611a105780820380516001836020036101000a031916815260200191505b5088810382528951815289516020918201918b019080838360005b83811015611a43578181015183820152602001611a2b565b50505050905090810190601f168015611a705780820380516001836020036101000a031916815260200191505b509e50505050505050505050505050505060405180910390f35b348015611a9657600080fd5b5061039260048036036020811015611aad57600080fd5b5035613c78565b348015611ac057600080fd5b5061042c60048036036020811015611ad757600080fd5b5035613cbc565b348015611aea57600080fd5b50610b5760048036036020811015611b0157600080fd5b50356001600160a01b0316613cda565b348015611b1d57600080fd5b50611b3b60048036036020811015611b3457600080fd5b5035613d81565b60405180886001600160a01b03166001600160a01b0316815260200187815260200186151515158152602001856001600160a01b03166001600160a01b03168152602001846003811115611b8b57fe5b60ff16815260200183815260200182815260200197505050505050505060405180910390f35b348015611bbd57600080fd5b5061042c60048036036040811015611bd457600080fd5b50803590602001356001600160a01b0316613dd8565b348015611bf657600080fd5b5061039260048036036040811015611c0d57600080fd5b6001600160a01b038235169190810190604081016020820135600160201b811115611c3757600080fd5b820183602082011115611c4957600080fd5b803590602001918460018302840111600160201b83111715611c6a57600080fd5b91908080601f016020809104026020016040519081016040528093929190818152602001838380828437600092019190915250929550613e4a945050505050565b348015611cb757600080fd5b50611cd560048036036020811015611cce57600080fd5b5035613ee4565b6040518080602001886001600160a01b03166001600160a01b0316815260200180602001871515151581526020018681526020018060200185815260200184810384528b818151815260200191508051906020019080838360005b83811015611d48578181015183820152602001611d30565b50505050905090810190601f168015611d755780820380516001836020036101000a031916815260200191505b5084810383528951815289516020918201918b019080838360005b83811015611da8578181015183820152602001611d90565b50505050905090810190601f168015611dd55780820380516001836020036101000a031916815260200191505b50848103825286518152865160209182019188019080838360005b83811015611e08578181015183820152602001611df0565b50505050905090810190601f168015611e355780820380516001836020036101000a031916815260200191505b509a505050505050505050505060405180910390f35b348015611e5757600080fd5b506103a9614186565b348015611e6c57600080fd5b5061039260048036036040811015611e8357600080fd5b810190602081018135600160201b811115611e9d57600080fd5b820183602082011115611eaf57600080fd5b803590602001918460018302840111600160201b83111715611ed057600080fd5b91908080601f01602080910402602001604051908101604052809392919081815260200183838082843760009201919091525092955050913592506141dc915050565b348015611f1f57600080fd5b5061047160048036036020811015611f3657600080fd5b50356001600160a01b03166143ab565b348015611f5257600080fd5b50611f7060048036036020811015611f6957600080fd5b503561443d565b60405180876001600160a01b03166001600160a01b03168152602001866001600160a01b03166001600160a01b03168152602001856001600160a01b03166001600160a01b0316815260200184815260200183815260200180602001828103825283818151815260200191508051906020019080838360005b83811015612001578181015183820152602001611fe9565b50505050905090810190601f16801561202e5780820380516001836020036101000a031916815260200191505b5097505050505050505060405180910390f35b34801561204d57600080fd5b5061206b6004803603602081101561206457600080fd5b503561452a565b60405180886001600160a01b03166001600160a01b03168152602001806020018060200180602001878152602001806020018060200186810386528c818151815260200191508051906020019080838360005b838110156120d65781810151838201526020016120be565b50505050905090810190601f1680156121035780820380516001836020036101000a031916815260200191505b5086810385528b5181528b516020918201918d019080838360005b8381101561213657818101518382015260200161211e565b50505050905090810190601f1680156121635780820380516001836020036101000a031916815260200191505b5086810384528a5181528a516020918201918c01908083836000831561108257818101518382015260200161106a565b34801561219f57600080fd5b50610392600480360360408110156121b657600080fd5b508035906020013560ff16614776565b3480156121d257600080fd5b5061034b600480360360808110156121e957600080fd5b6001600160a01b038235169190810190604081016020820135600160201b81111561221357600080fd5b82018360208201111561222557600080fd5b803590602001918460018302840111600160201b8311171561224657600080fd5b91908080601f0160208091040260200160405190810160405280939291908181526020018383808284376000920191909152509295949360208101935035915050600160201b81111561229857600080fd5b8201836020820111156122aa57600080fd5b803590602001918460018302840111600160201b831117156122cb57600080fd5b91908080601f0160208091040260200160405190810160405280939291908181526020018383808284376000920191909152509295949360208101935035915050600160201b81111561231d57600080fd5b82018360208201111561232f57600080fd5b803590602001918460018302840111600160201b8311171561235057600080fd5b91908080601f01602080910402602001604051908101604052809392919081815260200183838082843760009201919091525092955061483a945050505050565b6002546000906001600160a01b03163314156123ac57600080fd5b6001600160a01b038381166000908152602081905260409020541633146123d257600080fd5b816040516020018082805190602001908083835b602083106124055780518252601f1990920191602091820191016123e6565b6001836020036101000a03801982511681845116808217855250505050505090500191505060405160208183030381529060405280519060200120600080856001600160a01b03166001600160a01b0316815260200190815260200160002060020160405160200180828054600181600116156101000203166002900480156124c55780601f106124a35761010080835404028352918201916124c5565b820191906000526020600020905b8154815290600101906020018083116124b1575b505091505060405160208183030381529060405280519060200120141561251757506001600160a01b0382166000908152602081905260409020600501805460ff19166001179081905560ff1661251b565b5060005b92915050565b6002546001600160a01b031633141561253957600080fd5b6001600160a01b0381811660009081526020819052604090205416331461255f57600080fd5b6001600160a01b03166000908152602081905260409020600501805460ff19169055565b336000908152600760209081526040918290208054835181840281018401909452808452606093928301828280156125da57602002820191906000526020600020905b8154815260200190600101908083116125c6575b505050505090505b90565b6002546000906001600160a01b031633146125ff57600080fd5b506001600160a01b03908116600090815260016020526040902054163190565b6002546060906001600160a01b0316331461263957600080fd5b6001600160a01b03821660009081526001602081815260409283902060030180548451600294821615610100026000190190911693909304601f81018390048302840183019094528383529192908301828280156126d85780601f106126ad576101008083540402835291602001916126d8565b820191906000526020600020905b8154815290600101906020018083116126bb57829003601f168201915b50505050509050919050565b6000336001600160a01b031660068e6040518082805190602001908083835b602083106127225780518252601f199092019160209182019101612703565b51815160209384036101000a60001901801990921691161790529201948552506040519384900301909220546001600160a01b031692909214915081905061277457506005546001600160a01b031633145b61277d57600080fd5b8e6004600088815260200190815260200160002060000190805190602001906127a7929190614a1c565b508d6004600088815260200190815260200160002060010190805190602001906127d2929190614a1c565b508c6004600088815260200190815260200160002060020190805190602001906127fd929190614a1c565b506000868152600460208181526040909220600381018f90559081018d90556005810180546001600160a01b0319166001600160a01b038e161790558a5161284d926006909201918c0190614a1c565b5060008681526004602090815260409091206007810180546001600160a01b0319166001600160a01b038c1617905560088101899055865161289792600a90920191880190614a1c565b50600086815260046020908152604090912085516128bd92600b90920191870190614a1c565b50600086815260046020908152604090912084516128e392600990920191860190614a1c565b5050600085815260046020908152604080832060130180546001600160a01b0319166001600160a01b039586161790559a909216815260078252988920805460018181018355918b52918a2090910185905560038054808301825599527fc2575a0e9e593c00f959f8c92f12db2869c3395a3b0502d05e2516446f71f85b9098019390935550949a9950505050505050505050565b60006509184e72a000858585856040516020018085805190602001908083835b602083106129b75780518252601f199092019160209182019101612998565b51815160209384036101000a600019018019909216911617905287519190930192870191508083835b602083106129ff5780518252601f1990920191602091820191016129e0565b51815160209384036101000a600019018019909216911617905286519190930192860191508083835b60208310612a475780518252601f199092019160209182019101612a28565b51815160209384036101000a6000190180199092169116179052920193845250604080518085038152938201905282519201919091209350849250612a8b91505057fe5b0695945050505050565b6000818152600460205260409020600501546001600160a01b03163314612abb57600080fd5b6000908152600460205260409020601201805460ff60a01b1916600160a01b179055565b6000908152600460205260409020601201546001600160a01b031690565b60025460009060609081906001600160a01b0316331415612b1d57600080fd5b6001600160a01b03848116600090815260208190526040902054163314612b4357600080fd5b6001600160a01b03841660009081526020818152604091829020600581015460048201805485516002610100600180851615919091026000190190931604601f810187900487028201870190975286815260ff909316959194930192849190830182828015612bf35780601f10612bc857610100808354040283529160200191612bf3565b820191906000526020600020905b815481529060010190602001808311612bd657829003601f168201915b5050845460408051602060026001851615610100026000190190941693909304601f810184900484028201840190925281815295975086945092508401905082828015612c815780601f10612c5657610100808354040283529160200191612c81565b820191906000526020600020905b815481529060010190602001808311612c6457829003601f168201915b505050505090509250925092509193909250565b6002546000906001600160a01b0316331415612cb057600080fd5b6001600160a01b03838116600090815260208190526040902054163314612cd657600080fd5b6001600160a01b0383166000908152602081815260409091208351612d0392600490920191850190614a1c565b5060019392505050565b6002546000906001600160a01b03163314612d2757600080fd5b816040516020018082805190602001908083835b60208310612d5a5780518252601f199092019160209182019101612d3b565b6001836020036101000a0380198251168184511680821785525050505050509050019150506040516020818303038152906040528051906020012060016000856001600160a01b03166001600160a01b031681526020019081526020016000206002016040516020018082805460018160011615610100020316600290048015612e1b5780601f10612df9576101008083540402835291820191612e1b565b820191906000526020600020905b815481529060010190602001808311612e07575b505091505060405160208183030381529060405280519060200120141561251757506001600160a01b0382166000908152600160208190526040909120600401805460ff19169091179081905560ff1661251b565b6002546000906001600160a01b0316331415612e8b57600080fd5b6001600160a01b03828116600090815260208190526040902054163314612eb157600080fd5b506001600160a01b03908116600090815260208190526040902054163190565b6002546000906001600160a01b03163314612eeb57600080fd5b6001600160a01b0384811660009081526001602052604090205416331415612f1257600080fd5b6001600160a01b038416600081815260016020818152604090922080546001600160a01b03191690931783558551612f509390910191860190614a1c565b506001600160a01b03841660009081526001602090815260409091208351612f8092600290920191850190614a1c565b505050506001600160a01b03166000908152600160208190526040909120600401805460ff1916905590565b6000818152600460209081526040808320601281015460088201548254845160026101006001808516159190910260001901909316819004601f810189900489028301890190975286825260609889988998919788978a978897929692870195870194600160a01b90920460ff16939092600a880192600b89019289919083018282801561307b5780601f106130505761010080835404028352916020019161307b565b820191906000526020600020905b81548152906001019060200180831161305e57829003601f168201915b5050895460408051602060026001851615610100026000190190941693909304601f8101849004840282018401909252818152959c508b9450925084019050828280156131095780601f106130de57610100808354040283529160200191613109565b820191906000526020600020905b8154815290600101906020018083116130ec57829003601f168201915b5050885460408051602060026001851615610100026000190190941693909304601f8101849004840282018401909252818152959b508a9450925084019050828280156131975780601f1061316c57610100808354040283529160200191613197565b820191906000526020600020905b81548152906001019060200180831161317a57829003601f168201915b5050855460408051602060026001851615610100026000190190941693909304601f8101849004840282018401909252818152959a50879450925084019050828280156132255780601f106131fa57610100808354040283529160200191613225565b820191906000526020600020905b81548152906001019060200180831161320857829003601f168201915b5050845460408051602060026001851615610100026000190190941693909304601f8101849004840282018401909252818152959750869450925084019050828280156132b35780601f10613288576101008083540402835291602001916132b3565b820191906000526020600020905b81548152906001019060200180831161329657829003601f168201915b5050505050905096509650965096509650965096505b919395979092949650565b6002546060906001600160a01b03163314156132ef57600080fd5b6001600160a01b0382811660009081526020819052604090205416331461331557600080fd5b6001600160a01b0382166000908152602081815260409182902060040180548351601f6002600019610100600186161502019093169290920491820184900484028101840190945280845290918301828280156126d85780601f106126ad576101008083540402835291602001916126d8565b6000818152600460209081526040822089516133ac92600c909201918b0190614a1c565b50600082815260046020908152604090912088516133d292600d909201918a0190614a1c565b50600082815260046020908152604090912087516133f892600e90920191890190614a1c565b506000828152600460209081526040909120865161341e92600f90920191880190614a1c565b506000828152600460209081526040909120855161344492601090920191870190614a1c565b506000828152600460209081526040909120845161346a92601190920191860190614a1c565b50600198975050505050505050565b6000818152600460205260408120601201546060919081908390600160a01b900460ff16156135e9576000858152600460208181526040928390206003810154928101546002808301805487516001821615610100026000190190911692909204601f8101869004860283018601909752868252959193600b909301929091869183018282801561354b5780601f106135205761010080835404028352916020019161354b565b820191906000526020600020905b81548152906001019060200180831161352e57829003601f168201915b5050845460408051602060026001851615610100026000190190941693909304601f8101849004840282018401909252818152959950869450925084019050828280156135d95780601f106135ae576101008083540402835291602001916135d9565b820191906000526020600020905b8154815290600101906020018083116135bc57829003601f168201915b5050505050905093509350935093505b9193509193565b60009081526004602052604090206008015490565b6002546001600160a01b0316331461361c57600080fd5b6001600160a01b03166000908152600160205260409020600401805460ff19169055565b6002546000906001600160a01b0316331461365a57600080fd5b6001600160a01b03831660009081526001602090815260409091208351612d0392600390920191850190614a1c565b600081815260046020526040902060120154600160a01b900460ff166136ae57600080fd5b600081815260046020526040902060080154333110156136cd57600080fd5b60009081526004602052604090206012018054336001600160a01b0319909116177fffffffffffffffffffff0000ffffffffffffffffffffffffffffffffffffffff16600160a81b179055565b6003600082815260046020526040902060120154600160a81b900460ff16600381111561374357fe5b1461374d57600080fd5b60008181526004602052604090206008015434101561376b57600080fd5b34670de0b6b3a764000067de0b6b3a76400000821161378e57808203915061379c565b506064346006020490819003905b6000838152600460205260408082206013015490516001600160a01b039091169183156108fc02918491818181858888f193505050501580156137e3573d6000803e3d6000fd5b506000838152600460205260408082206005015490516001600160a01b039091169184156108fc02918591818181858888f1935050505015801561382b573d6000803e3d6000fd5b50600083815260046020526040902060050154613851906001600160a01b031684614943565b6000838152600460205260409020600581018054600790920180546001600160a01b0384166001600160a01b03199182161790915533921682179055613896906143ab565b6004600085815260200190815260200160002060060190805190602001906138bf929190614a1c565b505050600081815260046020908152604080832060120180547fffffffffffffffffffff00000000000000000000000000000000000000000000169055338352600782528220805460018101825590835291200155565b600081815260046020908152604091829020600c810180548451601f600260001961010060018616150201909316929092049182018590048502810185019095528085526060948594859485948594859485949293600d810193600e820193600f8301936010840193601181019360069091019289918301828280156139dd5780601f106139b2576101008083540402835291602001916139dd565b820191906000526020600020905b8154815290600101906020018083116139c057829003601f168201915b5050895460408051602060026001851615610100026000190190941693909304601f8101849004840282018401909252818152959c508b945092508401905082828015613a6b5780601f10613a4057610100808354040283529160200191613a6b565b820191906000526020600020905b815481529060010190602001808311613a4e57829003601f168201915b5050885460408051602060026001851615610100026000190190941693909304601f8101849004840282018401909252818152959b508a945092508401905082828015613af95780601f10613ace57610100808354040283529160200191613af9565b820191906000526020600020905b815481529060010190602001808311613adc57829003601f168201915b5050875460408051602060026001851615610100026000190190941693909304601f8101849004840282018401909252818152959a5089945092508401905082828015613b875780601f10613b5c57610100808354040283529160200191613b87565b820191906000526020600020905b815481529060010190602001808311613b6a57829003601f168201915b5050865460408051602060026001851615610100026000190190941693909304601f810184900484028201840190925281815295995088945092508401905082828015613c155780601f10613bea57610100808354040283529160200191613c15565b820191906000526020600020905b815481529060010190602001808311613bf857829003601f168201915b5050855460408051602060026001851615610100026000190190941693909304601f8101849004840282018401909252818152959850879450925084019050828280156132255780601f106131fa57610100808354040283529160200191613225565b6000818152600460205260409020600501546001600160a01b03163314613c9e57600080fd5b6000908152600460205260409020601201805460ff60a01b19169055565b60038181548110613cc957fe5b600091825260209091200154905081565b60025460009060609081906001600160a01b03163314613cf957600080fd5b6001600160a01b03841660009081526001602081815260409283902060048101546003820180548651601f6002600019848a161561010002019093169290920491820186900486028101860190975280875260ff9092169590949290920192849190830182828015612bf35780601f10612bc857610100808354040283529160200191612bf3565b6000908152600460208190526040909120600581015460088201546012830154600384015493909401546001600160a01b0392831695919460ff600160a01b820481169594821694600160a81b9092041692909190565b6000805b6001600160a01b038316600090815260076020526040902054811015613e43576001600160a01b0383166000908152600760205260409020805485919083908110613e2357fe5b90600052602060002001541415613e3b57905061251b565b600101613ddc565b9392505050565b6005546001600160a01b03163314613e6157600080fd5b816006826040518082805190602001908083835b60208310613e945780518252601f199092019160209182019101613e75565b51815160209384036101000a6000190180199092169116179052920194855250604051938490030190922080546001600160a01b0319166001600160a01b03949094169390931790925550505050565b6000818152600460205260408120601201546060919082908290819083908290600160a01b900460ff16156132c95760046000898152602001908152602001600020600001600460008a815260200190815260200160002060050160009054906101000a90046001600160a01b0316600460008b8152602001908152602001600020600101600460008c815260200190815260200160002060120160149054906101000a900460ff16600460008d815260200190815260200160002060080154600460008e8152602001908152602001600020600a018d868054600181600116156101000203166002900480601f0160208091040260200160405190810160405280929190818152602001828054600181600116156101000203166002900480156140505780601f1061402557610100808354040283529160200191614050565b820191906000526020600020905b81548152906001019060200180831161403357829003601f168201915b5050885460408051602060026001851615610100026000190190941693909304601f8101849004840282018401909252818152959c508a9450925084019050828280156140de5780601f106140b3576101008083540402835291602001916140de565b820191906000526020600020905b8154815290600101906020018083116140c157829003601f168201915b5050855460408051602060026001851615610100026000190190941693909304601f8101849004840282018401909252818152959a508794509250840190508282801561416c5780601f106141415761010080835404028352916020019161416c565b820191906000526020600020905b81548152906001019060200180831161414f57829003601f168201915b5050505050915096509650965096509650965096506132c9565b606060038054806020026020016040519081016040528092919081815260200182805480156125da57602002820191906000526020600020908154815260200190600101908083116125c6575050505050905090565b60005b6003548110156143a657600060046000600384815481106141fc57fe5b90600052602060002001548152602001908152602001600020600801541180156143375750826040516020018082805190602001908083835b602083106142545780518252601f199092019160209182019101614235565b6001836020036101000a0380198251168184511680821785525050505050509050019150506040516020818303038152906040528051906020012060046000600384815481106142a057fe5b90600052602060002001548152602001908152602001600020600901604051602001808280546001816001161561010002031660029004801561431a5780601f106142f857610100808354040283529182019161431a565b820191906000526020600020905b815481529060010190602001808311614306575b505091505060405160208183030381529060405280519060200120145b1561439e5781600460006003848154811061434e57fe5b906000526020600020015481526020019081526020016000206008015401600460006003848154811061437d57fe5b90600052602060002001548152602001908152602001600020600801819055505b6001016141df565b505050565b6060600080836001600160a01b03166001600160a01b031681526020019081526020016000206001018054600181600116156101000203166002900480601f0160208091040260200160405190810160405280929190818152602001828054600181600116156101000203166002900480156126d85780601f106126ad576101008083540402835291602001916126d8565b6000818152600460208181526040808420601381015460058201546007830154600384015496840154600990940180548651601f6002600019600185161561010002019093169290920491820189900489028101890190975280875289988998899889986060986001600160a01b03908116988116971695939490939283919083018282801561450e5780601f106144e35761010080835404028352916020019161450e565b820191906000526020600020905b8154815290600101906020018083116144f157829003601f168201915b5050505050905095509550955095509550955091939550919395565b6000818152600460209081526040808320600581015460088201548254845160026101006001808516159190910260001901909316819004601f8101899004890283018901909752868252606097889788978b97899788976001600160a01b0390921696929591860194918601939092600a870192600b88019288918301828280156145f75780601f106145cc576101008083540402835291602001916145f7565b820191906000526020600020905b8154815290600101906020018083116145da57829003601f168201915b5050885460408051602060026001851615610100026000190190941693909304601f8101849004840282018401909252818152959b508a9450925084019050828280156146855780601f1061465a57610100808354040283529160200191614685565b820191906000526020600020905b81548152906001019060200180831161466857829003601f168201915b5050875460408051602060026001851615610100026000190190941693909304601f8101849004840282018401909252818152959a50899450925084019050828280156147135780601f106146e857610100808354040283529160200191614713565b820191906000526020600020905b8154815290600101906020018083116146f657829003601f168201915b5050855460408051602060026001851615610100026000190190941693909304601f8101849004840282018401909252818152959950879450925084019050828280156132255780601f106131fa57610100808354040283529160200191613225565b6000828152600460205260409020600501546001600160a01b0316331461479c57600080fd5b600082815260046020526040902060120180548291907fffffffffffffffffffff00ffffffffffffffffffffffffffffffffffffffffff16600160a81b8360038111156147e557fe5b021790555060028160038111156147f857fe5b141561483657600082815260046020526040902060120180547fffffffffffffffffffff00ff00000000000000000000000000000000000000001690555b5050565b6002546000906001600160a01b031633141561485557600080fd5b6001600160a01b038581166000908152602081905260409020541633141561487c57600080fd5b6001600160a01b03851660008181526020818152604090912080546001600160a01b031916909217825585516148b89260010191870190614a1c565b506001600160a01b03851660009081526020818152604090912084516148e692600290920191860190614a1c565b506001600160a01b038516600090815260208181526040909120835161491492600390920191850190614a1c565b50506001600160a01b0384166000908152602081905260409020600501805460ff191690556001949350505050565b600061494f8284613dd8565b6001600160a01b0384166000908152600760205260409020805491925090600019810190811061497b57fe5b60009182526020808320909101546001600160a01b0386168352600790915260409091208054839081106149ab57fe5b60009182526020808320909101929092556001600160a01b0385168152600790915260409020805460001981019081106149e157fe5b600091825260208083209091018290556001600160a01b03851682526007905260409020805490614a16906000198301614a9a565b50505050565b828054600181600116156101000203166002900490600052602060002090601f016020900481019282601f10614a5d57805160ff1916838001178555614a8a565b82800160010185558215614a8a579182015b82811115614a8a578251825591602001919060010190614a6f565b50614a96929150614aba565b5090565b8154818355818111156143a6576000838152602090206143a69181019083015b6125e291905b80821115614a965760008155600101614ac056fea265627a7a72315820e470a94dacbae69eaf863f8c1452b483663c05d0772d9a7c87c04289ea7ce40364736f6c63430005100032",
  "source": "pragma solidity >=0.4.0 <0.6.0;\n\nimport {Auth} from \"../contracts/Auth.sol\";\n\ncontract Land is Auth {\n    struct landDetails {\n        string state;\n        string district;\n        string villageTown;\n        uint256 khataNumber;\n        uint256 khatooniNumber;\n        address payable CurrentOwner;\n        string ownerName;\n        address previousOwner;\n        uint256 marketValue;\n        string landType;\n        string squareFoots;\n        string inches;\n        string lat;\n        string lng;\n        string north;\n        string south;\n        string east;\n        string west;\n        address payable requester;\n        bool isAvailable;\n        reqStatus requestStatus;\n        address payable createByGovt;\n        string orderEndTime;\n    }\n\n    uint256[] public propertiesIDs;\n\n    //request status\n    enum reqStatus {\n        Default,\n        pending,\n        reject,\n        approved\n    }\n\n    //profile of a client\n    struct profiles {\n        uint256[] assetList;\n    }\n\n    mapping(uint256 => landDetails) land;\n    address owner;\n    mapping(string => address) superAdmin;\n    mapping(address => profiles) profile;\n\n    //contract owner\n    constructor() public {\n        owner = msg.sender;\n    }\n\n    modifier onlyOwner() {\n        require(msg.sender == owner);\n        _;\n    }\n\n    //adding village admins\n    function addSuperAdmin(address _superAdmin, string memory _village)\n        public\n        onlyOwner\n    {\n        superAdmin[_village] = _superAdmin;\n    }\n\n    //Registration of land details.\n    function Registration(\n        string memory _state,\n        string memory _district,\n        string memory _villageTown,\n        uint256 _khataNumber,\n        uint256 _khatooniNumber,\n        address payable _OwnerAddress,\n        string memory _ownerName,\n        address _previousOwner,\n        uint256 _marketValue,\n        uint256 id,\n        string memory _squareFoots,\n        string memory _inches,\n        string memory _landType,\n        address payable _createByGovt\n    ) public returns (bool) {\n        require(superAdmin[_villageTown] == msg.sender || owner == msg.sender);\n        land[id].state = _state;\n        land[id].district = _district;\n        land[id].villageTown = _villageTown;\n        land[id].khataNumber = _khataNumber;\n        land[id].khatooniNumber = _khatooniNumber;\n        land[id].CurrentOwner = _OwnerAddress;\n        land[id].ownerName = _ownerName;\n        land[id].previousOwner = _previousOwner;\n        land[id].marketValue = _marketValue;\n        land[id].squareFoots = _squareFoots;\n        land[id].inches = _inches;\n        land[id].landType = _landType;\n        land[id].createByGovt = _createByGovt;\n        profile[_OwnerAddress].assetList.push(id);\n        propertiesIDs.push(id);\n        return true;\n    }\n\n    // Updating land details. Polyline\n    function registerLandPolyline(\n        string memory _lat,\n        string memory _lng,\n        string memory _north,\n        string memory _south,\n        string memory _east,\n        string memory _west,\n        uint256 id\n    ) public returns (bool) {\n        land[id].lat = _lat;\n        land[id].lng = _lng;\n        land[id].north = _north;\n        land[id].south = _south;\n        land[id].east = _east;\n        land[id].west = _west;\n        return true;\n    }\n\n    //to view details of land for the owner\n    function landInfoOwner(uint256 id)\n        public\n        view\n        returns (\n            string memory,\n            string memory,\n            string memory,\n            bool,\n            uint256,\n            string memory,\n            string memory\n        )\n    {\n        return (\n            land[id].state,\n            land[id].district,\n            land[id].villageTown,\n            land[id].isAvailable,\n            land[id].marketValue,\n            land[id].squareFoots,\n            land[id].inches\n        );\n    }\n\n    function remainingDetail(uint256 id)\n        public\n        view\n        returns (\n            address,\n            address,\n            address,\n            uint256,\n            uint256,\n            string memory\n        )\n    {\n        return (\n            land[id].createByGovt,\n            land[id].CurrentOwner,\n            land[id].previousOwner,\n            land[id].khataNumber,\n            land[id].khatooniNumber,\n            land[id].landType\n        );\n    }\n\n    function remainingMoreDetail(uint256 id)\n        public\n        view\n        returns (\n            string memory,\n            string memory,\n            string memory,\n            string memory,\n            string memory,\n            string memory,\n            string memory\n        )\n    {\n        return (\n            land[id].lat,\n            land[id].lng,\n            land[id].north,\n            land[id].south,\n            land[id].east,\n            land[id].west,\n            land[id].ownerName\n        );\n    }\n\n    function showAllLands(uint256 id)\n        public\n        view\n        returns (\n            address,\n            string memory,\n            string memory,\n            string memory,\n            uint256,\n            string memory,\n            string memory\n        )\n    {\n        return (\n            land[id].CurrentOwner,\n            land[id].state,\n            land[id].district,\n            land[id].villageTown,\n            land[id].marketValue,\n            land[id].squareFoots,\n            land[id].inches\n        );\n    }\n\n    //to view details of land for the buyer\n    function landInfoUser(uint256 id)\n        public\n        view\n        returns (\n            address,\n            uint256,\n            bool,\n            address,\n            reqStatus,\n            uint256,\n            uint256\n        )\n    {\n        return (\n            land[id].CurrentOwner,\n            land[id].marketValue,\n            land[id].isAvailable,\n            land[id].requester,\n            land[id].requestStatus,\n            land[id].khataNumber,\n            land[id].khatooniNumber\n        );\n    }\n\n    // to compute id for a land.\n    function computeId(\n        string memory _state,\n        string memory _district,\n        string memory _village,\n        uint256 _surveyNumber\n    ) public view returns (uint256) {\n        return\n            uint256(\n                keccak256(\n                    abi.encodePacked(_state, _district, _village, _surveyNumber)\n                )\n            ) % 10000000000000;\n    }\n\n    //push a request to the land owner\n    function requstToLandOwner(uint256 id) public {\n        require(land[id].isAvailable);\n        require(msg.sender.balance >= land[id].marketValue);\n        land[id].requester = msg.sender;\n        land[id].isAvailable = false;\n        land[id].requestStatus = reqStatus.pending; //changes the status to pending.\n    }\n\n    //will show assets of the function caller\n    function viewAssets() public view returns (uint256[] memory) {\n        return (profile[msg.sender].assetList);\n    }\n\n    //viewing request for the lands\n    function viewRequest(uint256 property) public view returns (address) {\n        return (land[property].requester);\n    }\n\n    //availing land for sale.\n    function markAvailable(uint256 property) public {\n        require(land[property].CurrentOwner == msg.sender);\n        land[property].isAvailable = true;\n    }\n\n    function unMarkLand(uint256 property) public {\n        require(land[property].CurrentOwner == msg.sender);\n        land[property].isAvailable = false;\n    }\n\n    function showMarketValue(uint256 id) public view returns (uint256) {\n        return land[id].marketValue;\n    }\n\n    // change the market value after some years\n    function changeMarketValue(string memory _landType, uint256 _marketValue)\n        public\n    {\n        // update all land values\n        for (uint256 i = 0; i < propertiesIDs.length; i++) {\n            if (\n                land[propertiesIDs[i]].marketValue > 0 &&\n                keccak256(abi.encodePacked(land[propertiesIDs[i]].landType)) ==\n                keccak256(abi.encodePacked(_landType))\n            ) {\n                land[propertiesIDs[i]].marketValue =\n                    land[propertiesIDs[i]].marketValue +\n                    _marketValue;\n            }\n        }\n    }\n\n    // Get all the lands ids.\n    function getAllLands() public view returns (uint256[] memory) {\n        return (propertiesIDs);\n    }\n\n    // show marked Available\n    function viewMarkded(uint256 id)\n        public\n        view\n        returns (\n            string memory,\n            address,\n            string memory,\n            bool,\n            uint256,\n            string memory,\n            uint256\n        )\n    {\n        if (land[id].isAvailable) {\n            return (\n                land[id].state,\n                land[id].CurrentOwner,\n                land[id].district,\n                land[id].isAvailable,\n                land[id].marketValue,\n                land[id].squareFoots,\n                id\n            );\n        }\n    }\n\n    // show marked Available\n    function viewMarkdedRemainingData(uint256 id)\n        public\n        view\n        returns (\n            string memory,\n            uint256,\n            uint256,\n            string memory\n        )\n    {\n        if (land[id].isAvailable) {\n            return (\n                land[id].villageTown,\n                land[id].khataNumber,\n                land[id].khatooniNumber,\n                land[id].inches\n            );\n        }\n    }\n\n    //processing request for the land by accepting or rejecting\n    function processRequest(uint256 property, reqStatus status) public {\n        require(land[property].CurrentOwner == msg.sender);\n        land[property].requestStatus = status;\n        if (status == reqStatus.reject) {\n            land[property].requester = address(0);\n            land[property].requestStatus = reqStatus.Default;\n        }\n    }\n\n    //buying the approved property\n    function buyProperty(uint256 property) public payable {\n        require(land[property].requestStatus == reqStatus.approved);\n        require(msg.value >= land[property].marketValue);\n\n        uint256 totalValue = msg.value;\n        uint256 taxFee = 1000000000000000000;\n\n        if (msg.value <= 16000000000000000000) {\n            totalValue = totalValue - taxFee;\n        } else {\n            taxFee = (msg.value * 6) / uint256(100);\n            totalValue = totalValue - taxFee;\n        }\n\n        land[property].createByGovt.transfer(taxFee);\n        land[property].CurrentOwner.transfer(totalValue);\n\n        removeOwnership(land[property].CurrentOwner, property);\n        land[property].previousOwner = land[property].CurrentOwner;\n        land[property].CurrentOwner = msg.sender;\n        land[property].ownerName = getUserName(msg.sender);\n        land[property].isAvailable = false;\n        land[property].requester = address(0);\n        land[property].requestStatus = reqStatus.Default;\n        profile[msg.sender].assetList.push(property); //adds the property to the asset list of the new owner.\n    }\n\n    //removing the ownership of seller for the land. and it is called by the buyProperty function\n    function removeOwnership(address previousOwner, uint256 id) private {\n        uint256 index = findId(id, previousOwner);\n        profile[previousOwner].assetList[index] = profile[previousOwner]\n            .assetList[profile[previousOwner].assetList.length - 1];\n        delete profile[previousOwner].assetList[\n            profile[previousOwner].assetList.length - 1\n        ];\n        profile[previousOwner].assetList.length--;\n    }\n\n    //for finding the index of a perticular id\n    function findId(uint256 id, address user) public view returns (uint256) {\n        uint256 i;\n        for (i = 0; i < profile[user].assetList.length; i++) {\n            if (profile[user].assetList[i] == id) return i;\n        }\n        return i;\n    }\n}\n",
  "sourcePath": "/home/zaryab/VSCodeProjects/land-records-blockchain/src/contracts/Land.sol",
  "compiler": {
    "name": "solc",
    "version": "0.5.16+commit.9c3226ce.Emscripten.clang"
  },
  "schemaVersion": "3.4.1",
  "updatedAt": "2021-09-15T08:28:39.961Z",
  "devdoc": {
    "methods": {}
  },
  "userdoc": {
    "methods": {}
  }
}