{
  "contractName": "Land",
  "abi": [
    {
      "constant": true,
      "inputs": [
        {
          "internalType": "uint256",
          "name": "",
          "type": "uint256"
        }
      ],
      "name": "properties",
      "outputs": [
        {
          "internalType": "uint256",
          "name": "landID",
          "type": "uint256"
        },
        {
          "internalType": "uint256",
          "name": "value",
          "type": "uint256"
        },
        {
          "internalType": "address",
          "name": "currOwner",
          "type": "address"
        },
        {
          "internalType": "string",
          "name": "city",
          "type": "string"
        },
        {
          "internalType": "string",
          "name": "measurement",
          "type": "string"
        }
      ],
      "payable": false,
      "stateMutability": "view",
      "type": "function"
    },
    {
      "constant": true,
      "inputs": [
        {
          "internalType": "uint256",
          "name": "",
          "type": "uint256"
        }
      ],
      "name": "propertiesAddress",
      "outputs": [
        {
          "internalType": "address",
          "name": "",
          "type": "address"
        }
      ],
      "payable": false,
      "stateMutability": "view",
      "type": "function"
    },
    {
      "constant": true,
      "inputs": [
        {
          "internalType": "uint256",
          "name": "",
          "type": "uint256"
        }
      ],
      "name": "propertiesCity",
      "outputs": [
        {
          "internalType": "string",
          "name": "",
          "type": "string"
        }
      ],
      "payable": false,
      "stateMutability": "view",
      "type": "function"
    },
    {
      "constant": true,
      "inputs": [
        {
          "internalType": "uint256",
          "name": "",
          "type": "uint256"
        }
      ],
      "name": "propertiesIDs",
      "outputs": [
        {
          "internalType": "uint256",
          "name": "",
          "type": "uint256"
        }
      ],
      "payable": false,
      "stateMutability": "view",
      "type": "function"
    },
    {
      "constant": true,
      "inputs": [
        {
          "internalType": "uint256",
          "name": "",
          "type": "uint256"
        }
      ],
      "name": "propertiesMeasurement",
      "outputs": [
        {
          "internalType": "string",
          "name": "",
          "type": "string"
        }
      ],
      "payable": false,
      "stateMutability": "view",
      "type": "function"
    },
    {
      "constant": true,
      "inputs": [
        {
          "internalType": "uint256",
          "name": "",
          "type": "uint256"
        }
      ],
      "name": "propertiesValues",
      "outputs": [
        {
          "internalType": "uint256",
          "name": "",
          "type": "uint256"
        }
      ],
      "payable": false,
      "stateMutability": "view",
      "type": "function"
    },
    {
      "constant": false,
      "inputs": [
        {
          "internalType": "uint256",
          "name": "_propId",
          "type": "uint256"
        },
        {
          "internalType": "uint256",
          "name": "_value",
          "type": "uint256"
        },
        {
          "internalType": "address",
          "name": "_owner",
          "type": "address"
        },
        {
          "internalType": "string",
          "name": "_city",
          "type": "string"
        },
        {
          "internalType": "string",
          "name": "_measurement",
          "type": "string"
        }
      ],
      "name": "createProperty",
      "outputs": [
        {
          "internalType": "bool",
          "name": "",
          "type": "bool"
        }
      ],
      "payable": false,
      "stateMutability": "nonpayable",
      "type": "function"
    },
    {
      "constant": true,
      "inputs": [
        {
          "internalType": "uint256",
          "name": "_propId",
          "type": "uint256"
        }
      ],
      "name": "getPropertyDetails",
      "outputs": [
        {
          "internalType": "uint256",
          "name": "",
          "type": "uint256"
        },
        {
          "internalType": "uint256",
          "name": "",
          "type": "uint256"
        },
        {
          "internalType": "address",
          "name": "",
          "type": "address"
        }
      ],
      "payable": false,
      "stateMutability": "view",
      "type": "function"
    },
    {
      "constant": true,
      "inputs": [],
      "name": "getAllDetails",
      "outputs": [
        {
          "internalType": "uint256[]",
          "name": "",
          "type": "uint256[]"
        },
        {
          "internalType": "uint256[]",
          "name": "",
          "type": "uint256[]"
        },
        {
          "internalType": "address[]",
          "name": "",
          "type": "address[]"
        },
        {
          "internalType": "string[]",
          "name": "",
          "type": "string[]"
        },
        {
          "internalType": "string[]",
          "name": "",
          "type": "string[]"
        }
      ],
      "payable": false,
      "stateMutability": "view",
      "type": "function"
    }
  ],
  "bytecode": "0x608060405234801561001057600080fd5b506113d4806100206000396000f3fe608060405234801561001057600080fd5b50600436106100935760003560e01c8063a4c4596a11610066578063a4c4596a1461015a578063a83e382c1461018a578063a854158f146101ba578063ccc5d7d4146101ea578063f7b108081461020c57610093565b8063126dbe43146100985780631aa068e0146100ca57806394e504d2146100fa578063a4ad449d1461012a575b600080fd5b6100b260048036036100ad9190810190610d14565b610240565b6040516100c1939291906110ff565b60405180910390f35b6100e460048036036100df9190810190610d14565b6102b4565b6040516100f191906110c2565b60405180910390f35b610114600480360361010f9190810190610d14565b61036d565b60405161012191906110e4565b60405180910390f35b610144600480360361013f9190810190610d3d565b61038e565b60405161015191906110a7565b60405180910390f35b610174600480360361016f9190810190610d14565b6105c0565b60405161018191906110e4565b60405180910390f35b6101a4600480360361019f9190810190610d14565b6105e1565b6040516101b191906110c2565b60405180910390f35b6101d460048036036101cf9190810190610d14565b61069a565b6040516101e19190611016565b60405180910390f35b6101f26106d6565b604051610203959493929190611031565b60405180910390f35b61022660048036036102219190810190610d14565b6109eb565b604051610237959493929190611136565b60405180910390f35b6000806000806000858152602001908152602001600020600001546000808681526020019081526020016000206001015460008087815260200190815260200160002060020160009054906101000a900473ffffffffffffffffffffffffffffffffffffffff169250925092509193909250565b600581815481106102c157fe5b906000526020600020016000915090508054600181600116156101000203166002900480601f0160208091040260200160405190810160405280929190818152602001828054600181600116156101000203166002900480156103655780601f1061033a57610100808354040283529160200191610365565b820191906000526020600020905b81548152906001019060200180831161034857829003601f168201915b505050505081565b6001818154811061037a57fe5b906000526020600020016000915090505481565b60006040518060a001604052808781526020018681526020018573ffffffffffffffffffffffffffffffffffffffff16815260200184815260200183815250600080888152602001908152602001600020600082015181600001556020820151816001015560408201518160020160006101000a81548173ffffffffffffffffffffffffffffffffffffffff021916908373ffffffffffffffffffffffffffffffffffffffff1602179055506060820151816003019080519060200190610456929190610b71565b506080820151816004019080519060200190610473929190610b71565b509050506001869080600181540180825580915050906001820390600052602060002001600090919290919091505550600285908060018154018082558091505090600182039060005260206000200160009091929091909150555060038490806001815401808255809150509060018203906000526020600020016000909192909190916101000a81548173ffffffffffffffffffffffffffffffffffffffff021916908373ffffffffffffffffffffffffffffffffffffffff160217905550506004839080600181540180825580915050906001820390600052602060002001600090919290919091509080519060200190610572929190610bf1565b505060058290806001815401808255809150509060018203906000526020600020016000909192909190915090805190602001906105b1929190610bf1565b50506001905095945050505050565b600281815481106105cd57fe5b906000526020600020016000915090505481565b600481815481106105ee57fe5b906000526020600020016000915090508054600181600116156101000203166002900480601f0160208091040260200160405190810160405280929190818152602001828054600181600116156101000203166002900480156106925780601f1061066757610100808354040283529160200191610692565b820191906000526020600020905b81548152906001019060200180831161067557829003601f168201915b505050505081565b600381815481106106a757fe5b906000526020600020016000915054906101000a900473ffffffffffffffffffffffffffffffffffffffff1681565b6060806060806060600160026003600460058480548060200260200160405190810160405280929190818152602001828054801561073357602002820191906000526020600020905b81548152602001906001019080831161071f575b505050505094508380548060200260200160405190810160405280929190818152602001828054801561078557602002820191906000526020600020905b815481526020019060010190808311610771575b505050505093508280548060200260200160405190810160405280929190818152602001828054801561080d57602002820191906000526020600020905b8160009054906101000a900473ffffffffffffffffffffffffffffffffffffffff1673ffffffffffffffffffffffffffffffffffffffff16815260200190600101908083116107c3575b5050505050925081805480602002602001604051908101604052809291908181526020016000905b828210156108f1578382906000526020600020018054600181600116156101000203166002900480601f0160208091040260200160405190810160405280929190818152602001828054600181600116156101000203166002900480156108dd5780601f106108b2576101008083540402835291602001916108dd565b820191906000526020600020905b8154815290600101906020018083116108c057829003601f168201915b505050505081526020019060010190610835565b50505050915080805480602002602001604051908101604052809291908181526020016000905b828210156109d4578382906000526020600020018054600181600116156101000203166002900480601f0160208091040260200160405190810160405280929190818152602001828054600181600116156101000203166002900480156109c05780601f10610995576101008083540402835291602001916109c0565b820191906000526020600020905b8154815290600101906020018083116109a357829003601f168201915b505050505081526020019060010190610918565b505050509050945094509450945094509091929394565b60006020528060005260406000206000915090508060000154908060010154908060020160009054906101000a900473ffffffffffffffffffffffffffffffffffffffff1690806003018054600181600116156101000203166002900480601f016020809104026020016040519081016040528092919081815260200182805460018160011615610100020316600290048015610ac95780601f10610a9e57610100808354040283529160200191610ac9565b820191906000526020600020905b815481529060010190602001808311610aac57829003601f168201915b505050505090806004018054600181600116156101000203166002900480601f016020809104026020016040519081016040528092919081815260200182805460018160011615610100020316600290048015610b675780601f10610b3c57610100808354040283529160200191610b67565b820191906000526020600020905b815481529060010190602001808311610b4a57829003601f168201915b5050505050905085565b828054600181600116156101000203166002900490600052602060002090601f016020900481019282601f10610bb257805160ff1916838001178555610be0565b82800160010185558215610be0579182015b82811115610bdf578251825591602001919060010190610bc4565b5b509050610bed9190610c71565b5090565b828054600181600116156101000203166002900490600052602060002090601f016020900481019282601f10610c3257805160ff1916838001178555610c60565b82800160010185558215610c60579182015b82811115610c5f578251825591602001919060010190610c44565b5b509050610c6d9190610c71565b5090565b610c9391905b80821115610c8f576000816000905550600101610c77565b5090565b90565b600081359050610ca581611363565b92915050565b600082601f830112610cbc57600080fd5b8135610ccf610cca826111c4565b611197565b91508082526020830160208301858383011115610ceb57600080fd5b610cf6838284611310565b50505092915050565b600081359050610d0e8161137a565b92915050565b600060208284031215610d2657600080fd5b6000610d3484828501610cff565b91505092915050565b600080600080600060a08688031215610d5557600080fd5b6000610d6388828901610cff565b9550506020610d7488828901610cff565b9450506040610d8588828901610c96565b935050606086013567ffffffffffffffff811115610da257600080fd5b610dae88828901610cab565b925050608086013567ffffffffffffffff811115610dcb57600080fd5b610dd788828901610cab565b9150509295509295909350565b6000610df08383610e28565b60208301905092915050565b6000610e088383610f86565b905092915050565b6000610e1c8383610ff8565b60208301905092915050565b610e31816112c8565b82525050565b610e40816112c8565b82525050565b6000610e5182611220565b610e5b8185611273565b9350610e66836111f0565b8060005b83811015610e97578151610e7e8882610de4565b9750610e898361124c565b925050600181019050610e6a565b5085935050505092915050565b6000610eaf8261122b565b610eb98185611284565b935083602082028501610ecb85611200565b8060005b85811015610f075784840389528151610ee88582610dfc565b9450610ef383611259565b925060208a01995050600181019050610ecf565b50829750879550505050505092915050565b6000610f2482611236565b610f2e8185611295565b9350610f3983611210565b8060005b83811015610f6a578151610f518882610e10565b9750610f5c83611266565b925050600181019050610f3d565b5085935050505092915050565b610f80816112da565b82525050565b6000610f9182611241565b610f9b81856112a6565b9350610fab81856020860161131f565b610fb481611352565b840191505092915050565b6000610fca82611241565b610fd481856112b7565b9350610fe481856020860161131f565b610fed81611352565b840191505092915050565b61100181611306565b82525050565b61101081611306565b82525050565b600060208201905061102b6000830184610e37565b92915050565b600060a082019050818103600083015261104b8188610f19565b9050818103602083015261105f8187610f19565b905081810360408301526110738186610e46565b905081810360608301526110878185610ea4565b9050818103608083015261109b8184610ea4565b90509695505050505050565b60006020820190506110bc6000830184610f77565b92915050565b600060208201905081810360008301526110dc8184610fbf565b905092915050565b60006020820190506110f96000830184611007565b92915050565b60006060820190506111146000830186611007565b6111216020830185611007565b61112e6040830184610e37565b949350505050565b600060a08201905061114b6000830188611007565b6111586020830187611007565b6111656040830186610e37565b81810360608301526111778185610fbf565b9050818103608083015261118b8184610fbf565b90509695505050505050565b6000604051905081810181811067ffffffffffffffff821117156111ba57600080fd5b8060405250919050565b600067ffffffffffffffff8211156111db57600080fd5b601f19601f8301169050602081019050919050565b6000819050602082019050919050565b6000819050602082019050919050565b6000819050602082019050919050565b600081519050919050565b600081519050919050565b600081519050919050565b600081519050919050565b6000602082019050919050565b6000602082019050919050565b6000602082019050919050565b600082825260208201905092915050565b600082825260208201905092915050565b600082825260208201905092915050565b600082825260208201905092915050565b600082825260208201905092915050565b60006112d3826112e6565b9050919050565b60008115159050919050565b600073ffffffffffffffffffffffffffffffffffffffff82169050919050565b6000819050919050565b82818337600083830152505050565b60005b8381101561133d578082015181840152602081019050611322565b8381111561134c576000848401525b50505050565b6000601f19601f8301169050919050565b61136c816112c8565b811461137757600080fd5b50565b61138381611306565b811461138e57600080fd5b5056fea365627a7a723158203a1c72b6313567d978035f43c97d12a3cc31830c00c4e7f3b7fe2d355cd2fb996c6578706572696d656e74616cf564736f6c63430005100040",
  "source": "pragma experimental ABIEncoderV2;\r\npragma solidity >=0.4.22 <0.9.0;\r\n\r\ncontract Land {    \r\n\r\n\tstruct PropertyDetail {\r\n\t    uint landID;\r\n\t\tuint value;\r\n\t\taddress currOwner;\r\n\t\tstring city;\r\n\t\tstring measurement;\r\n\t}\r\n\t\r\n    mapping(uint => PropertyDetail) public properties;\r\n    uint[] public propertiesIDs;\r\n    uint[] public propertiesValues;\r\n    address[] public propertiesAddress;\r\n    string[] public propertiesCity;\r\n    string[] public propertiesMeasurement;\r\n    \r\n\t// Create Property\r\n    function createProperty(uint _propId, uint _value, address _owner, string memory _city, string memory _measurement) public returns (bool)  {\r\n\t\tproperties[_propId] = PropertyDetail(_propId, _value, _owner, _city, _measurement);\r\n\t\tpropertiesIDs.push(_propId);\r\n\t\tpropertiesValues.push(_value);\r\n\t\tpropertiesAddress.push(_owner);\r\n\t\tpropertiesCity.push(_city);\r\n\t\tpropertiesMeasurement.push(_measurement);\r\n\t\treturn true;\r\n\t}\r\n\t\r\n\t// Get the property details.\r\n\t function getPropertyDetails(uint _propId) view public returns (uint, uint, address)  {\r\n\t\treturn (properties[_propId].landID, properties[_propId].value, properties[_propId].currOwner);\r\n\t}\r\n\t\r\n    // Get the property details.\r\n\t function getAllDetails() view public returns (uint[] memory, uint[] memory, address[] memory, string[] memory, string[] memory)  {\r\n\t\treturn (propertiesIDs, propertiesValues,propertiesAddress, propertiesCity,propertiesMeasurement);\r\n\t}\r\n\r\n}",
  "sourcePath": "D:/Blockchain/Template/landrecord/land-records-blockchain/contracts/Land.sol",
  "compiler": {
    "name": "solc",
    "version": "0.5.16+commit.9c3226ce.Emscripten.clang"
  },
  "schemaVersion": "3.4.1",
  "updatedAt": "2021-06-29T04:01:30.249Z",
  "networkType": "ethereum",
  "devdoc": {
    "methods": {}
  },
  "userdoc": {
    "methods": {}
  }
}