{
  "contractName": "Land",
  "abi": [
    {
      "inputs": [],
      "payable": false,
      "stateMutability": "nonpayable",
      "type": "constructor"
    },
    {
      "constant": false,
      "inputs": [
        {
          "internalType": "address",
          "name": "_address",
          "type": "address"
        }
      ],
      "name": "checkIsAdminLogged",
      "outputs": [
        {
          "internalType": "bool",
          "name": "",
          "type": "bool"
        },
        {
          "internalType": "string",
          "name": "",
          "type": "string"
        },
        {
          "internalType": "string",
          "name": "",
          "type": "string"
        }
      ],
      "payable": false,
      "stateMutability": "nonpayable",
      "type": "function"
    },
    {
      "constant": false,
      "inputs": [
        {
          "internalType": "address",
          "name": "_address",
          "type": "address"
        }
      ],
      "name": "checkIsUserLogged",
      "outputs": [
        {
          "internalType": "bool",
          "name": "",
          "type": "bool"
        },
        {
          "internalType": "string",
          "name": "",
          "type": "string"
        },
        {
          "internalType": "string",
          "name": "",
          "type": "string"
        }
      ],
      "payable": false,
      "stateMutability": "nonpayable",
      "type": "function"
    },
    {
      "constant": false,
      "inputs": [
        {
          "internalType": "address",
          "name": "_address",
          "type": "address"
        }
      ],
      "name": "getAdminBalance",
      "outputs": [
        {
          "internalType": "uint256",
          "name": "",
          "type": "uint256"
        }
      ],
      "payable": false,
      "stateMutability": "nonpayable",
      "type": "function"
    },
    {
      "constant": false,
      "inputs": [
        {
          "internalType": "address",
          "name": "_address",
          "type": "address"
        }
      ],
      "name": "getAdminIpfsImageHash",
      "outputs": [
        {
          "internalType": "string",
          "name": "",
          "type": "string"
        }
      ],
      "payable": false,
      "stateMutability": "nonpayable",
      "type": "function"
    },
    {
      "constant": false,
      "inputs": [
        {
          "internalType": "address",
          "name": "_address",
          "type": "address"
        }
      ],
      "name": "getUserBalance",
      "outputs": [
        {
          "internalType": "uint256",
          "name": "",
          "type": "uint256"
        }
      ],
      "payable": false,
      "stateMutability": "nonpayable",
      "type": "function"
    },
    {
      "constant": false,
      "inputs": [
        {
          "internalType": "address",
          "name": "_address",
          "type": "address"
        }
      ],
      "name": "getUserIpfsImageHash",
      "outputs": [
        {
          "internalType": "string",
          "name": "",
          "type": "string"
        }
      ],
      "payable": false,
      "stateMutability": "nonpayable",
      "type": "function"
    },
    {
      "constant": false,
      "inputs": [
        {
          "internalType": "address",
          "name": "_address",
          "type": "address"
        }
      ],
      "name": "getUserName",
      "outputs": [
        {
          "internalType": "string",
          "name": "",
          "type": "string"
        }
      ],
      "payable": false,
      "stateMutability": "nonpayable",
      "type": "function"
    },
    {
      "constant": false,
      "inputs": [
        {
          "internalType": "address",
          "name": "_address",
          "type": "address"
        },
        {
          "internalType": "string",
          "name": "_password",
          "type": "string"
        }
      ],
      "name": "loginAdmin",
      "outputs": [
        {
          "internalType": "bool",
          "name": "",
          "type": "bool"
        }
      ],
      "payable": false,
      "stateMutability": "nonpayable",
      "type": "function"
    },
    {
      "constant": false,
      "inputs": [
        {
          "internalType": "address",
          "name": "_address",
          "type": "address"
        },
        {
          "internalType": "string",
          "name": "_password",
          "type": "string"
        }
      ],
      "name": "loginUser",
      "outputs": [
        {
          "internalType": "bool",
          "name": "",
          "type": "bool"
        }
      ],
      "payable": false,
      "stateMutability": "nonpayable",
      "type": "function"
    },
    {
      "constant": false,
      "inputs": [
        {
          "internalType": "address",
          "name": "_address",
          "type": "address"
        }
      ],
      "name": "logoutAdmin",
      "outputs": [],
      "payable": false,
      "stateMutability": "nonpayable",
      "type": "function"
    },
    {
      "constant": false,
      "inputs": [
        {
          "internalType": "address",
          "name": "_address",
          "type": "address"
        }
      ],
      "name": "logoutUser",
      "outputs": [],
      "payable": false,
      "stateMutability": "nonpayable",
      "type": "function"
    },
    {
      "constant": true,
      "inputs": [
        {
          "internalType": "uint256",
          "name": "",
          "type": "uint256"
        }
      ],
      "name": "propertiesIDs",
      "outputs": [
        {
          "internalType": "uint256",
          "name": "",
          "type": "uint256"
        }
      ],
      "payable": false,
      "stateMutability": "view",
      "type": "function"
    },
    {
      "constant": false,
      "inputs": [
        {
          "internalType": "address",
          "name": "_address",
          "type": "address"
        },
        {
          "internalType": "string",
          "name": "_name",
          "type": "string"
        },
        {
          "internalType": "string",
          "name": "_password",
          "type": "string"
        }
      ],
      "name": "registerAdmin",
      "outputs": [
        {
          "internalType": "bool",
          "name": "",
          "type": "bool"
        }
      ],
      "payable": false,
      "stateMutability": "nonpayable",
      "type": "function"
    },
    {
      "constant": false,
      "inputs": [
        {
          "internalType": "address",
          "name": "_address",
          "type": "address"
        },
        {
          "internalType": "string",
          "name": "_name",
          "type": "string"
        },
        {
          "internalType": "string",
          "name": "_password",
          "type": "string"
        },
        {
          "internalType": "string",
          "name": "_cnic",
          "type": "string"
        }
      ],
      "name": "registerUser",
      "outputs": [
        {
          "internalType": "bool",
          "name": "",
          "type": "bool"
        }
      ],
      "payable": false,
      "stateMutability": "nonpayable",
      "type": "function"
    },
    {
      "constant": false,
      "inputs": [
        {
          "internalType": "address",
          "name": "_address",
          "type": "address"
        },
        {
          "internalType": "string",
          "name": "_ipfsImageHash",
          "type": "string"
        }
      ],
      "name": "setAdminIpfsImageHash",
      "outputs": [
        {
          "internalType": "bool",
          "name": "",
          "type": "bool"
        }
      ],
      "payable": false,
      "stateMutability": "nonpayable",
      "type": "function"
    },
    {
      "constant": false,
      "inputs": [
        {
          "internalType": "address",
          "name": "_address",
          "type": "address"
        },
        {
          "internalType": "string",
          "name": "_ipfsImageHash",
          "type": "string"
        }
      ],
      "name": "setUserIpfsImageHash",
      "outputs": [
        {
          "internalType": "bool",
          "name": "",
          "type": "bool"
        }
      ],
      "payable": false,
      "stateMutability": "nonpayable",
      "type": "function"
    },
    {
      "constant": false,
      "inputs": [
        {
          "internalType": "address",
          "name": "_superAdmin",
          "type": "address"
        },
        {
          "internalType": "string",
          "name": "_village",
          "type": "string"
        }
      ],
      "name": "addSuperAdmin",
      "outputs": [],
      "payable": false,
      "stateMutability": "nonpayable",
      "type": "function"
    },
    {
      "constant": false,
      "inputs": [
        {
          "internalType": "string",
          "name": "_state",
          "type": "string"
        },
        {
          "internalType": "string",
          "name": "_district",
          "type": "string"
        },
        {
          "internalType": "string",
          "name": "_villageTown",
          "type": "string"
        },
        {
          "internalType": "uint256",
          "name": "_khataNumber",
          "type": "uint256"
        },
        {
          "internalType": "uint256",
          "name": "_khatooniNumber",
          "type": "uint256"
        },
        {
          "internalType": "address payable",
          "name": "_OwnerAddress",
          "type": "address"
        },
        {
          "internalType": "string",
          "name": "_ownerName",
          "type": "string"
        },
        {
          "internalType": "address",
          "name": "_previousOwner",
          "type": "address"
        },
        {
          "internalType": "uint256",
          "name": "_marketValue",
          "type": "uint256"
        },
        {
          "internalType": "uint256",
          "name": "id",
          "type": "uint256"
        },
        {
          "internalType": "string",
          "name": "_squareFoots",
          "type": "string"
        },
        {
          "internalType": "string",
          "name": "_inches",
          "type": "string"
        },
        {
          "internalType": "string",
          "name": "_landType",
          "type": "string"
        },
        {
          "internalType": "address payable",
          "name": "_createByGovt",
          "type": "address"
        }
      ],
      "name": "Registration",
      "outputs": [
        {
          "internalType": "bool",
          "name": "",
          "type": "bool"
        }
      ],
      "payable": false,
      "stateMutability": "nonpayable",
      "type": "function"
    },
    {
      "constant": false,
      "inputs": [
        {
          "internalType": "string",
          "name": "_lat",
          "type": "string"
        },
        {
          "internalType": "string",
          "name": "_lng",
          "type": "string"
        },
        {
          "internalType": "string",
          "name": "_north",
          "type": "string"
        },
        {
          "internalType": "string",
          "name": "_south",
          "type": "string"
        },
        {
          "internalType": "string",
          "name": "_east",
          "type": "string"
        },
        {
          "internalType": "string",
          "name": "_west",
          "type": "string"
        },
        {
          "internalType": "uint256",
          "name": "id",
          "type": "uint256"
        }
      ],
      "name": "registerLandPolyline",
      "outputs": [
        {
          "internalType": "bool",
          "name": "",
          "type": "bool"
        }
      ],
      "payable": false,
      "stateMutability": "nonpayable",
      "type": "function"
    },
    {
      "constant": true,
      "inputs": [
        {
          "internalType": "uint256",
          "name": "id",
          "type": "uint256"
        }
      ],
      "name": "landInfoOwner",
      "outputs": [
        {
          "internalType": "string",
          "name": "",
          "type": "string"
        },
        {
          "internalType": "string",
          "name": "",
          "type": "string"
        },
        {
          "internalType": "string",
          "name": "",
          "type": "string"
        },
        {
          "internalType": "bool",
          "name": "",
          "type": "bool"
        },
        {
          "internalType": "uint256",
          "name": "",
          "type": "uint256"
        },
        {
          "internalType": "string",
          "name": "",
          "type": "string"
        },
        {
          "internalType": "string",
          "name": "",
          "type": "string"
        }
      ],
      "payable": false,
      "stateMutability": "view",
      "type": "function"
    },
    {
      "constant": true,
      "inputs": [
        {
          "internalType": "uint256",
          "name": "id",
          "type": "uint256"
        }
      ],
      "name": "remainingDetail",
      "outputs": [
        {
          "internalType": "address",
          "name": "",
          "type": "address"
        },
        {
          "internalType": "address",
          "name": "",
          "type": "address"
        },
        {
          "internalType": "address",
          "name": "",
          "type": "address"
        },
        {
          "internalType": "uint256",
          "name": "",
          "type": "uint256"
        },
        {
          "internalType": "uint256",
          "name": "",
          "type": "uint256"
        },
        {
          "internalType": "string",
          "name": "",
          "type": "string"
        }
      ],
      "payable": false,
      "stateMutability": "view",
      "type": "function"
    },
    {
      "constant": true,
      "inputs": [
        {
          "internalType": "uint256",
          "name": "id",
          "type": "uint256"
        }
      ],
      "name": "remainingMoreDetail",
      "outputs": [
        {
          "internalType": "string",
          "name": "",
          "type": "string"
        },
        {
          "internalType": "string",
          "name": "",
          "type": "string"
        },
        {
          "internalType": "string",
          "name": "",
          "type": "string"
        },
        {
          "internalType": "string",
          "name": "",
          "type": "string"
        },
        {
          "internalType": "string",
          "name": "",
          "type": "string"
        },
        {
          "internalType": "string",
          "name": "",
          "type": "string"
        },
        {
          "internalType": "string",
          "name": "",
          "type": "string"
        }
      ],
      "payable": false,
      "stateMutability": "view",
      "type": "function"
    },
    {
      "constant": true,
      "inputs": [
        {
          "internalType": "uint256",
          "name": "id",
          "type": "uint256"
        }
      ],
      "name": "showAllLands",
      "outputs": [
        {
          "internalType": "address",
          "name": "",
          "type": "address"
        },
        {
          "internalType": "string",
          "name": "",
          "type": "string"
        },
        {
          "internalType": "string",
          "name": "",
          "type": "string"
        },
        {
          "internalType": "string",
          "name": "",
          "type": "string"
        },
        {
          "internalType": "uint256",
          "name": "",
          "type": "uint256"
        },
        {
          "internalType": "string",
          "name": "",
          "type": "string"
        },
        {
          "internalType": "string",
          "name": "",
          "type": "string"
        }
      ],
      "payable": false,
      "stateMutability": "view",
      "type": "function"
    },
    {
      "constant": true,
      "inputs": [
        {
          "internalType": "uint256",
          "name": "id",
          "type": "uint256"
        }
      ],
      "name": "landInfoUser",
      "outputs": [
        {
          "internalType": "address",
          "name": "",
          "type": "address"
        },
        {
          "internalType": "uint256",
          "name": "",
          "type": "uint256"
        },
        {
          "internalType": "bool",
          "name": "",
          "type": "bool"
        },
        {
          "internalType": "address",
          "name": "",
          "type": "address"
        },
        {
          "internalType": "enum Land.reqStatus",
          "name": "",
          "type": "uint8"
        },
        {
          "internalType": "uint256",
          "name": "",
          "type": "uint256"
        },
        {
          "internalType": "uint256",
          "name": "",
          "type": "uint256"
        }
      ],
      "payable": false,
      "stateMutability": "view",
      "type": "function"
    },
    {
      "constant": true,
      "inputs": [
        {
          "internalType": "string",
          "name": "_state",
          "type": "string"
        },
        {
          "internalType": "string",
          "name": "_district",
          "type": "string"
        },
        {
          "internalType": "string",
          "name": "_village",
          "type": "string"
        },
        {
          "internalType": "uint256",
          "name": "_surveyNumber",
          "type": "uint256"
        }
      ],
      "name": "computeId",
      "outputs": [
        {
          "internalType": "uint256",
          "name": "",
          "type": "uint256"
        }
      ],
      "payable": false,
      "stateMutability": "view",
      "type": "function"
    },
    {
      "constant": false,
      "inputs": [
        {
          "internalType": "uint256",
          "name": "id",
          "type": "uint256"
        }
      ],
      "name": "requstToLandOwner",
      "outputs": [],
      "payable": false,
      "stateMutability": "nonpayable",
      "type": "function"
    },
    {
      "constant": true,
      "inputs": [],
      "name": "viewAssets",
      "outputs": [
        {
          "internalType": "uint256[]",
          "name": "",
          "type": "uint256[]"
        }
      ],
      "payable": false,
      "stateMutability": "view",
      "type": "function"
    },
    {
      "constant": true,
      "inputs": [
        {
          "internalType": "uint256",
          "name": "property",
          "type": "uint256"
        }
      ],
      "name": "viewRequest",
      "outputs": [
        {
          "internalType": "address",
          "name": "",
          "type": "address"
        }
      ],
      "payable": false,
      "stateMutability": "view",
      "type": "function"
    },
    {
      "constant": false,
      "inputs": [
        {
          "internalType": "uint256",
          "name": "property",
          "type": "uint256"
        }
      ],
      "name": "markAvailable",
      "outputs": [],
      "payable": false,
      "stateMutability": "nonpayable",
      "type": "function"
    },
    {
      "constant": false,
      "inputs": [
        {
          "internalType": "uint256",
          "name": "property",
          "type": "uint256"
        }
      ],
      "name": "unMarkLand",
      "outputs": [],
      "payable": false,
      "stateMutability": "nonpayable",
      "type": "function"
    },
    {
      "constant": true,
      "inputs": [
        {
          "internalType": "uint256",
          "name": "id",
          "type": "uint256"
        }
      ],
      "name": "showMarketValue",
      "outputs": [
        {
          "internalType": "uint256",
          "name": "",
          "type": "uint256"
        }
      ],
      "payable": false,
      "stateMutability": "view",
      "type": "function"
    },
    {
      "constant": false,
      "inputs": [
        {
          "internalType": "string",
          "name": "_landType",
          "type": "string"
        },
        {
          "internalType": "uint256",
          "name": "_marketValue",
          "type": "uint256"
        }
      ],
      "name": "changeMarketValue",
      "outputs": [],
      "payable": false,
      "stateMutability": "nonpayable",
      "type": "function"
    },
    {
      "constant": true,
      "inputs": [],
      "name": "getAllLands",
      "outputs": [
        {
          "internalType": "uint256[]",
          "name": "",
          "type": "uint256[]"
        }
      ],
      "payable": false,
      "stateMutability": "view",
      "type": "function"
    },
    {
      "constant": true,
      "inputs": [
        {
          "internalType": "uint256",
          "name": "id",
          "type": "uint256"
        }
      ],
      "name": "viewMarkded",
      "outputs": [
        {
          "internalType": "string",
          "name": "",
          "type": "string"
        },
        {
          "internalType": "address",
          "name": "",
          "type": "address"
        },
        {
          "internalType": "string",
          "name": "",
          "type": "string"
        },
        {
          "internalType": "bool",
          "name": "",
          "type": "bool"
        },
        {
          "internalType": "uint256",
          "name": "",
          "type": "uint256"
        },
        {
          "internalType": "string",
          "name": "",
          "type": "string"
        },
        {
          "internalType": "uint256",
          "name": "",
          "type": "uint256"
        }
      ],
      "payable": false,
      "stateMutability": "view",
      "type": "function"
    },
    {
      "constant": true,
      "inputs": [
        {
          "internalType": "uint256",
          "name": "id",
          "type": "uint256"
        }
      ],
      "name": "viewMarkdedRemainingData",
      "outputs": [
        {
          "internalType": "string",
          "name": "",
          "type": "string"
        },
        {
          "internalType": "uint256",
          "name": "",
          "type": "uint256"
        },
        {
          "internalType": "uint256",
          "name": "",
          "type": "uint256"
        },
        {
          "internalType": "string",
          "name": "",
          "type": "string"
        }
      ],
      "payable": false,
      "stateMutability": "view",
      "type": "function"
    },
    {
      "constant": false,
      "inputs": [
        {
          "internalType": "uint256",
          "name": "property",
          "type": "uint256"
        },
        {
          "internalType": "enum Land.reqStatus",
          "name": "status",
          "type": "uint8"
        }
      ],
      "name": "processRequest",
      "outputs": [],
      "payable": false,
      "stateMutability": "nonpayable",
      "type": "function"
    },
    {
      "constant": false,
      "inputs": [
        {
          "internalType": "uint256",
          "name": "property",
          "type": "uint256"
        }
      ],
      "name": "buyProperty",
      "outputs": [],
      "payable": true,
      "stateMutability": "payable",
      "type": "function"
    },
    {
      "constant": false,
      "inputs": [
        {
          "internalType": "uint256",
          "name": "property",
          "type": "uint256"
        }
      ],
      "name": "refuseToBuy",
      "outputs": [],
      "payable": false,
      "stateMutability": "nonpayable",
      "type": "function"
    },
    {
      "constant": true,
      "inputs": [
        {
          "internalType": "uint256",
          "name": "id",
          "type": "uint256"
        },
        {
          "internalType": "address",
          "name": "user",
          "type": "address"
        }
      ],
      "name": "findId",
      "outputs": [
        {
          "internalType": "uint256",
          "name": "",
          "type": "uint256"
        }
      ],
      "payable": false,
      "stateMutability": "view",
      "type": "function"
    }
  ],
  "bytecode": "0x608060405234801561001057600080fd5b5060028054336001600160a01b03199182168117909255600580549091169091179055614bcb806100426000396000f3fe6080604052600436106102a05760003560e01c8063645cf80f1161016e578063a27664ee116100cb578063d84f55ee1161007f578063deec6b4e11610064578063deec6b4e14612086578063fdb10f50146121d8578063fe69c2961461220b576102a0565b8063d84f55ee14611f58578063ddc40e7e14611f8b576102a0565b8063ad142242116100b0578063ad14224214611cf0578063b7b6e54314611e90578063c6e41f3314611ea5576102a0565b8063a27664ee14611bf6578063ab05bae614611c2f576102a0565b806385be96e11161012257806397d149a71161010757806397d149a714611af957806398711c1714611b235780639d01485f14611b56576102a0565b806385be96e114611aa557806394e504d214611acf576102a0565b80636c5ed939116101535780636c5ed939146117555780636fa830a61461177f5780637ec0bd181461179c576102a0565b8063645cf80f1461166157806367a5365414611694576102a0565b8063297f7b391161021c57806355d61952116101d0578063599bf236116101b5578063599bf236146111d55780635c3aad081461152157806361735a4914611637576102a0565b806355d6195214610f56578063589cdaa4146111a2576102a0565b8063434917af11610201578063434917af14610d1c5780634773489214610ddd5780634ad407a314610e10576102a0565b8063297f7b3914610b3f5780632d9b3bf514610c5b576102a0565b806316caeb77116102735780631d50a6c4116102585780631d50a6c4146109125780632416faf114610acf57806326e8525014610af9576102a0565b806316caeb77146104595780631c1b3e1714610501576102a0565b806303bdb46b146102a557806309df50601461037a5780630d2d5dca146103af578063128c9f0114610414575b600080fd5b3480156102b157600080fd5b50610366600480360360408110156102c857600080fd5b6001600160a01b038235169190810190604081016020820135600160201b8111156102f257600080fd5b82018360208201111561030457600080fd5b803590602001918460018302840111600160201b8311171561032557600080fd5b91908080601f0160208091040260200160405190810160405280939291908181526020018383808284376000920191909152509295506123d6945050505050565b604080519115158252519081900360200190f35b34801561038657600080fd5b506103ad6004803603602081101561039d57600080fd5b50356001600160a01b0316612566565b005b3480156103bb57600080fd5b506103c46125c8565b60408051602080825283518183015283519192839290830191858101910280838360005b838110156104005781810151838201526020016103e8565b505050509050019250505060405180910390f35b34801561042057600080fd5b506104476004803603602081101561043757600080fd5b50356001600160a01b031661262a565b60408051918252519081900360200190f35b34801561046557600080fd5b5061048c6004803603602081101561047c57600080fd5b50356001600160a01b0316612664565b6040805160208082528351818301528351919283929083019185019080838360005b838110156104c65781810151838201526020016104ae565b50505050905090810190601f1680156104f35780820380516001836020036101000a031916815260200191505b509250505060405180910390f35b34801561050d57600080fd5b5061036660048036036101c081101561052557600080fd5b810190602081018135600160201b81111561053f57600080fd5b82018360208201111561055157600080fd5b803590602001918460018302840111600160201b8311171561057257600080fd5b91908080601f0160208091040260200160405190810160405280939291908181526020018383808284376000920191909152509295949360208101935035915050600160201b8111156105c457600080fd5b8201836020820111156105d657600080fd5b803590602001918460018302840111600160201b831117156105f757600080fd5b91908080601f0160208091040260200160405190810160405280939291908181526020018383808284376000920191909152509295949360208101935035915050600160201b81111561064957600080fd5b82018360208201111561065b57600080fd5b803590602001918460018302840111600160201b8311171561067c57600080fd5b91908080601f01602080910402602001604051908101604052809392919081815260200183838082843760009201919091525092958435956020860135956001600160a01b0360408201351695509193509150608081019060600135600160201b8111156106e957600080fd5b8201836020820111156106fb57600080fd5b803590602001918460018302840111600160201b8311171561071c57600080fd5b91908080601f01602080910402602001604051908101604052809392919081815260200183838082843760009201919091525092956001600160a01b0385351695602086013595604081013595509193509150608081019060600135600160201b81111561078957600080fd5b82018360208201111561079b57600080fd5b803590602001918460018302840111600160201b831117156107bc57600080fd5b91908080601f0160208091040260200160405190810160405280939291908181526020018383808284376000920191909152509295949360208101935035915050600160201b81111561080e57600080fd5b82018360208201111561082057600080fd5b803590602001918460018302840111600160201b8311171561084157600080fd5b91908080601f0160208091040260200160405190810160405280939291908181526020018383808284376000920191909152509295949360208101935035915050600160201b81111561089357600080fd5b8201836020820111156108a557600080fd5b803590602001918460018302840111600160201b831117156108c657600080fd5b91908080601f016020809104026020016040519081016040528093929190818152602001838380828437600092019190915250929550505090356001600160a01b031691506127299050565b34801561091e57600080fd5b506104476004803603608081101561093557600080fd5b810190602081018135600160201b81111561094f57600080fd5b82018360208201111561096157600080fd5b803590602001918460018302840111600160201b8311171561098257600080fd5b91908080601f0160208091040260200160405190810160405280939291908181526020018383808284376000920191909152509295949360208101935035915050600160201b8111156109d457600080fd5b8201836020820111156109e657600080fd5b803590602001918460018302840111600160201b83111715610a0757600080fd5b91908080601f0160208091040260200160405190810160405280939291908181526020018383808284376000920191909152509295949360208101935035915050600160201b811115610a5957600080fd5b820183602082011115610a6b57600080fd5b803590602001918460018302840111600160201b83111715610a8c57600080fd5b91908080601f01602080910402602001604051908101604052809392919081815260200183838082843760009201919091525092955050913592506129bd915050565b348015610adb57600080fd5b506103ad60048036036020811015610af257600080fd5b5035612ada565b348015610b0557600080fd5b50610b2360048036036020811015610b1c57600080fd5b5035612b24565b604080516001600160a01b039092168252519081900360200190f35b348015610b4b57600080fd5b50610b7260048036036020811015610b6257600080fd5b50356001600160a01b0316612b42565b60405180841515151581526020018060200180602001838103835285818151815260200191508051906020019080838360005b83811015610bbd578181015183820152602001610ba5565b50505050905090810190601f168015610bea5780820380516001836020036101000a031916815260200191505b50838103825284518152845160209182019186019080838360005b83811015610c1d578181015183820152602001610c05565b50505050905090810190601f168015610c4a5780820380516001836020036101000a031916815260200191505b509550505050505060405180910390f35b348015610c6757600080fd5b5061036660048036036040811015610c7e57600080fd5b6001600160a01b038235169190810190604081016020820135600160201b811115610ca857600080fd5b820183602082011115610cba57600080fd5b803590602001918460018302840111600160201b83111715610cdb57600080fd5b91908080601f016020809104026020016040519081016040528093929190818152602001838380828437600092019190915250929550612cda945050505050565b348015610d2857600080fd5b5061036660048036036040811015610d3f57600080fd5b6001600160a01b038235169190810190604081016020820135600160201b811115610d6957600080fd5b820183602082011115610d7b57600080fd5b803590602001918460018302840111600160201b83111715610d9c57600080fd5b91908080601f016020809104026020016040519081016040528093929190818152602001838380828437600092019190915250929550612d52945050505050565b348015610de957600080fd5b5061044760048036036020811015610e0057600080fd5b50356001600160a01b0316612eb5565b348015610e1c57600080fd5b5061036660048036036060811015610e3357600080fd5b6001600160a01b038235169190810190604081016020820135600160201b811115610e5d57600080fd5b820183602082011115610e6f57600080fd5b803590602001918460018302840111600160201b83111715610e9057600080fd5b91908080601f0160208091040260200160405190810160405280939291908181526020018383808284376000920191909152509295949360208101935035915050600160201b811115610ee257600080fd5b820183602082011115610ef457600080fd5b803590602001918460018302840111600160201b83111715610f1557600080fd5b91908080601f016020809104026020016040519081016040528093929190818152602001838380828437600092019190915250929550612f16945050505050565b348015610f6257600080fd5b50610f8060048036036020811015610f7957600080fd5b5035612ff1565b6040518080602001806020018060200188151515158152602001878152602001806020018060200186810386528d818151815260200191508051906020019080838360005b83811015610fdd578181015183820152602001610fc5565b50505050905090810190601f16801561100a5780820380516001836020036101000a031916815260200191505b5086810385528c5181528c516020918201918e019080838360005b8381101561103d578181015183820152602001611025565b50505050905090810190601f16801561106a5780820380516001836020036101000a031916815260200191505b5086810384528b5181528b516020918201918d019080838360005b8381101561109d578181015183820152602001611085565b50505050905090810190601f1680156110ca5780820380516001836020036101000a031916815260200191505b5086810383528851815288516020918201918a019080838360005b838110156110fd5781810151838201526020016110e5565b50505050905090810190601f16801561112a5780820380516001836020036101000a031916815260200191505b50868103825287518152875160209182019189019080838360005b8381101561115d578181015183820152602001611145565b50505050905090810190601f16801561118a5780820380516001836020036101000a031916815260200191505b509c5050505050505050505050505060405180910390f35b3480156111ae57600080fd5b5061048c600480360360208110156111c557600080fd5b50356001600160a01b0316613319565b3480156111e157600080fd5b50610366600480360360e08110156111f857600080fd5b810190602081018135600160201b81111561121257600080fd5b82018360208201111561122457600080fd5b803590602001918460018302840111600160201b8311171561124557600080fd5b91908080601f0160208091040260200160405190810160405280939291908181526020018383808284376000920191909152509295949360208101935035915050600160201b81111561129757600080fd5b8201836020820111156112a957600080fd5b803590602001918460018302840111600160201b831117156112ca57600080fd5b91908080601f0160208091040260200160405190810160405280939291908181526020018383808284376000920191909152509295949360208101935035915050600160201b81111561131c57600080fd5b82018360208201111561132e57600080fd5b803590602001918460018302840111600160201b8311171561134f57600080fd5b91908080601f0160208091040260200160405190810160405280939291908181526020018383808284376000920191909152509295949360208101935035915050600160201b8111156113a157600080fd5b8201836020820111156113b357600080fd5b803590602001918460018302840111600160201b831117156113d457600080fd5b91908080601f0160208091040260200160405190810160405280939291908181526020018383808284376000920191909152509295949360208101935035915050600160201b81111561142657600080fd5b82018360208201111561143857600080fd5b803590602001918460018302840111600160201b8311171561145957600080fd5b91908080601f0160208091040260200160405190810160405280939291908181526020018383808284376000920191909152509295949360208101935035915050600160201b8111156114ab57600080fd5b8201836020820111156114bd57600080fd5b803590602001918460018302840111600160201b831117156114de57600080fd5b91908080601f01602080910402602001604051908101604052809392919081815260200183838082843760009201919091525092955050913592506133cd915050565b34801561152d57600080fd5b5061154b6004803603602081101561154457600080fd5b50356134be565b604051808060200185815260200184815260200180602001838103835287818151815260200191508051906020019080838360005b83811015611598578181015183820152602001611580565b50505050905090810190601f1680156115c55780820380516001836020036101000a031916815260200191505b50838103825284518152845160209182019186019080838360005b838110156115f85781810151838201526020016115e0565b50505050905090810190601f1680156116255780820380516001836020036101000a031916815260200191505b50965050505050505060405180910390f35b34801561164357600080fd5b506104476004803603602081101561165a57600080fd5b5035613635565b34801561166d57600080fd5b506103ad6004803603602081101561168457600080fd5b50356001600160a01b031661364a565b3480156116a057600080fd5b50610366600480360360408110156116b757600080fd5b6001600160a01b038235169190810190604081016020820135600160201b8111156116e157600080fd5b8201836020820111156116f357600080fd5b803590602001918460018302840111600160201b8311171561171457600080fd5b91908080601f016020809104026020016040519081016040528093929190818152602001838380828437600092019190915250929550613685945050505050565b34801561176157600080fd5b506103ad6004803603602081101561177857600080fd5b50356136ce565b6103ad6004803603602081101561179557600080fd5b5035613772565b3480156117a857600080fd5b506117c6600480360360208110156117bf57600080fd5b5035613965565b604051808060200180602001806020018060200180602001806020018060200188810388528f818151815260200191508051906020019080838360005b8381101561181b578181015183820152602001611803565b50505050905090810190601f1680156118485780820380516001836020036101000a031916815260200191505b5088810387528e818151815260200191508051906020019080838360005b8381101561187e578181015183820152602001611866565b50505050905090810190601f1680156118ab5780820380516001836020036101000a031916815260200191505b5088810386528d5181528d516020918201918f019080838360005b838110156118de5781810151838201526020016118c6565b50505050905090810190601f16801561190b5780820380516001836020036101000a031916815260200191505b5088810385528c5181528c516020918201918e019080838360005b8381101561193e578181015183820152602001611926565b50505050905090810190601f16801561196b5780820380516001836020036101000a031916815260200191505b5088810384528b5181528b516020918201918d019080838360005b8381101561199e578181015183820152602001611986565b50505050905090810190601f1680156119cb5780820380516001836020036101000a031916815260200191505b5088810383528a5181528a516020918201918c019080838360005b838110156119fe5781810151838201526020016119e6565b50505050905090810190601f168015611a2b5780820380516001836020036101000a031916815260200191505b5088810382528951815289516020918201918b019080838360005b83811015611a5e578181015183820152602001611a46565b50505050905090810190601f168015611a8b5780820380516001836020036101000a031916815260200191505b509e50505050505050505050505050505060405180910390f35b348015611ab157600080fd5b506103ad60048036036020811015611ac857600080fd5b5035613cc7565b348015611adb57600080fd5b5061044760048036036020811015611af257600080fd5b5035613d1d565b348015611b0557600080fd5b506103ad60048036036020811015611b1c57600080fd5b5035613d3b565b348015611b2f57600080fd5b50610b7260048036036020811015611b4657600080fd5b50356001600160a01b0316613da5565b348015611b6257600080fd5b50611b8060048036036020811015611b7957600080fd5b5035613e4c565b60405180886001600160a01b03166001600160a01b0316815260200187815260200186151515158152602001856001600160a01b03166001600160a01b03168152602001846003811115611bd057fe5b60ff16815260200183815260200182815260200197505050505050505060405180910390f35b348015611c0257600080fd5b5061044760048036036040811015611c1957600080fd5b50803590602001356001600160a01b0316613ea3565b348015611c3b57600080fd5b506103ad60048036036040811015611c5257600080fd5b6001600160a01b038235169190810190604081016020820135600160201b811115611c7c57600080fd5b820183602082011115611c8e57600080fd5b803590602001918460018302840111600160201b83111715611caf57600080fd5b91908080601f016020809104026020016040519081016040528093929190818152602001838380828437600092019190915250929550613f15945050505050565b348015611cfc57600080fd5b50611d1a60048036036020811015611d1357600080fd5b5035613faf565b6040518080602001886001600160a01b03166001600160a01b0316815260200180602001871515151581526020018681526020018060200185815260200184810384528b818151815260200191508051906020019080838360005b83811015611d8d578181015183820152602001611d75565b50505050905090810190601f168015611dba5780820380516001836020036101000a031916815260200191505b5084810383528951815289516020918201918b019080838360005b83811015611ded578181015183820152602001611dd5565b50505050905090810190601f168015611e1a5780820380516001836020036101000a031916815260200191505b50848103825286518152865160209182019188019080838360005b83811015611e4d578181015183820152602001611e35565b50505050905090810190601f168015611e7a5780820380516001836020036101000a031916815260200191505b509a505050505050505050505060405180910390f35b348015611e9c57600080fd5b506103c4614251565b348015611eb157600080fd5b506103ad60048036036040811015611ec857600080fd5b810190602081018135600160201b811115611ee257600080fd5b820183602082011115611ef457600080fd5b803590602001918460018302840111600160201b83111715611f1557600080fd5b91908080601f01602080910402602001604051908101604052809392919081815260200183838082843760009201919091525092955050913592506142a7915050565b348015611f6457600080fd5b5061048c60048036036020811015611f7b57600080fd5b50356001600160a01b0316614476565b348015611f9757600080fd5b50611fb560048036036020811015611fae57600080fd5b5035614508565b60405180876001600160a01b03166001600160a01b03168152602001866001600160a01b03166001600160a01b03168152602001856001600160a01b03166001600160a01b0316815260200184815260200183815260200180602001828103825283818151815260200191508051906020019080838360005b8381101561204657818101518382015260200161202e565b50505050905090810190601f1680156120735780820380516001836020036101000a031916815260200191505b5097505050505050505060405180910390f35b34801561209257600080fd5b506120b0600480360360208110156120a957600080fd5b50356145f5565b60405180886001600160a01b03166001600160a01b03168152602001806020018060200180602001878152602001806020018060200186810386528c818151815260200191508051906020019080838360005b8381101561211b578181015183820152602001612103565b50505050905090810190601f1680156121485780820380516001836020036101000a031916815260200191505b5086810385528b5181528b516020918201918d019080838360005b8381101561217b578181015183820152602001612163565b50505050905090810190601f1680156121a85780820380516001836020036101000a031916815260200191505b5086810384528a5181528a516020918201918c01908083836000831561109d578181015183820152602001611085565b3480156121e457600080fd5b506103ad600480360360408110156121fb57600080fd5b508035906020013560ff16614841565b34801561221757600080fd5b506103666004803603608081101561222e57600080fd5b6001600160a01b038235169190810190604081016020820135600160201b81111561225857600080fd5b82018360208201111561226a57600080fd5b803590602001918460018302840111600160201b8311171561228b57600080fd5b91908080601f0160208091040260200160405190810160405280939291908181526020018383808284376000920191909152509295949360208101935035915050600160201b8111156122dd57600080fd5b8201836020820111156122ef57600080fd5b803590602001918460018302840111600160201b8311171561231057600080fd5b91908080601f0160208091040260200160405190810160405280939291908181526020018383808284376000920191909152509295949360208101935035915050600160201b81111561236257600080fd5b82018360208201111561237457600080fd5b803590602001918460018302840111600160201b8311171561239557600080fd5b91908080601f0160208091040260200160405190810160405280939291908181526020018383808284376000920191909152509295506148fc945050505050565b6002546000906001600160a01b03163314156123f157600080fd5b6001600160a01b0383811660009081526020819052604090205416331461241757600080fd5b816040516020018082805190602001908083835b6020831061244a5780518252601f19909201916020918201910161242b565b6001836020036101000a03801982511681845116808217855250505050505090500191505060405160208183030381529060405280519060200120600080856001600160a01b03166001600160a01b03168152602001908152602001600020600201604051602001808280546001816001161561010002031660029004801561250a5780601f106124e857610100808354040283529182019161250a565b820191906000526020600020905b8154815290600101906020018083116124f6575b505091505060405160208183030381529060405280519060200120141561255c57506001600160a01b0382166000908152602081905260409020600501805460ff19166001179081905560ff16612560565b5060005b92915050565b6002546001600160a01b031633141561257e57600080fd5b6001600160a01b038181166000908152602081905260409020541633146125a457600080fd5b6001600160a01b03166000908152602081905260409020600501805460ff19169055565b3360009081526007602090815260409182902080548351818402810184019094528084526060939283018282801561261f57602002820191906000526020600020905b81548152602001906001019080831161260b575b505050505090505b90565b6002546000906001600160a01b0316331461264457600080fd5b506001600160a01b03908116600090815260016020526040902054163190565b6002546060906001600160a01b0316331461267e57600080fd5b6001600160a01b03821660009081526001602081815260409283902060030180548451600294821615610100026000190190911693909304601f810183900483028401830190945283835291929083018282801561271d5780601f106126f25761010080835404028352916020019161271d565b820191906000526020600020905b81548152906001019060200180831161270057829003601f168201915b50505050509050919050565b6000336001600160a01b031660068e6040518082805190602001908083835b602083106127675780518252601f199092019160209182019101612748565b51815160209384036101000a60001901801990921691161790529201948552506040519384900301909220546001600160a01b03169290921491508190506127b957506005546001600160a01b031633145b6127c257600080fd5b8e6004600088815260200190815260200160002060000190805190602001906127ec929190614ade565b508d600460008881526020019081526020016000206001019080519060200190612817929190614ade565b508c600460008881526020019081526020016000206002019080519060200190612842929190614ade565b506000868152600460208181526040909220600381018f90559081018d90556005810180546001600160a01b0319166001600160a01b038e161790558a51612892926006909201918c0190614ade565b5060008681526004602090815260409091206007810180546001600160a01b0319166001600160a01b038c161790556008810189905586516128dc92600a90920191880190614ade565b506000868152600460209081526040909120855161290292600b90920191870190614ade565b506000868152600460209081526040909120845161292892600990920191860190614ade565b5050600085815260046020908152604080832060130180546001600160a01b0319166001600160a01b039586161790559a909216815260078252988920805460018181018355918b52918a2090910185905560038054808301825599527fc2575a0e9e593c00f959f8c92f12db2869c3395a3b0502d05e2516446f71f85b9098019390935550949a9950505050505050505050565b60006509184e72a000858585856040516020018085805190602001908083835b602083106129fc5780518252601f1990920191602091820191016129dd565b51815160209384036101000a600019018019909216911617905287519190930192870191508083835b60208310612a445780518252601f199092019160209182019101612a25565b51815160209384036101000a600019018019909216911617905286519190930192860191508083835b60208310612a8c5780518252601f199092019160209182019101612a6d565b51815160209384036101000a6000190180199092169116179052920193845250604080518085038152938201905282519201919091209350849250612ad091505057fe5b0695945050505050565b6000818152600460205260409020600501546001600160a01b03163314612b0057600080fd5b6000908152600460205260409020601201805460ff60a01b1916600160a01b179055565b6000908152600460205260409020601201546001600160a01b031690565b60025460009060609081906001600160a01b0316331415612b6257600080fd5b6001600160a01b03848116600090815260208190526040902054163314612b8857600080fd5b6001600160a01b03841660009081526020818152604091829020600581015460048201805485516002610100600180851615919091026000190190931604601f810187900487028201870190975286815260ff909316959194930192849190830182828015612c385780601f10612c0d57610100808354040283529160200191612c38565b820191906000526020600020905b815481529060010190602001808311612c1b57829003601f168201915b5050845460408051602060026001851615610100026000190190941693909304601f810184900484028201840190925281815295975086945092508401905082828015612cc65780601f10612c9b57610100808354040283529160200191612cc6565b820191906000526020600020905b815481529060010190602001808311612ca957829003601f168201915b505050505090509250925092509193909250565b6002546000906001600160a01b0316331415612cf557600080fd5b6001600160a01b03838116600090815260208190526040902054163314612d1b57600080fd5b6001600160a01b0383166000908152602081815260409091208351612d4892600490920191850190614ade565b5060019392505050565b6002546000906001600160a01b03163314612d6c57600080fd5b816040516020018082805190602001908083835b60208310612d9f5780518252601f199092019160209182019101612d80565b6001836020036101000a0380198251168184511680821785525050505050509050019150506040516020818303038152906040528051906020012060016000856001600160a01b03166001600160a01b031681526020019081526020016000206002016040516020018082805460018160011615610100020316600290048015612e605780601f10612e3e576101008083540402835291820191612e60565b820191906000526020600020905b815481529060010190602001808311612e4c575b505091505060405160208183030381529060405280519060200120141561255c57506001600160a01b0382166000908152600160208190526040909120600401805460ff19169091179081905560ff16612560565b6002546000906001600160a01b0316331415612ed057600080fd5b6001600160a01b03828116600090815260208190526040902054163314612ef657600080fd5b506001600160a01b03908116600090815260208190526040902054163190565b6002546000906001600160a01b03163314612f3057600080fd5b6001600160a01b0384811660009081526001602052604090205416331415612f5757600080fd5b6001600160a01b038416600081815260016020818152604090922080546001600160a01b03191690931783558551612f959390910191860190614ade565b506001600160a01b03841660009081526001602090815260409091208351612fc592600290920191850190614ade565b505050506001600160a01b03166000908152600160208190526040909120600401805460ff1916905590565b6000818152600460209081526040808320601281015460088201548254845160026101006001808516159190910260001901909316819004601f810189900489028301890190975286825260609889988998919788978a978897929692870195870194600160a01b90920460ff16939092600a880192600b8901928991908301828280156130c05780601f10613095576101008083540402835291602001916130c0565b820191906000526020600020905b8154815290600101906020018083116130a357829003601f168201915b5050895460408051602060026001851615610100026000190190941693909304601f8101849004840282018401909252818152959c508b94509250840190508282801561314e5780601f106131235761010080835404028352916020019161314e565b820191906000526020600020905b81548152906001019060200180831161313157829003601f168201915b5050885460408051602060026001851615610100026000190190941693909304601f8101849004840282018401909252818152959b508a9450925084019050828280156131dc5780601f106131b1576101008083540402835291602001916131dc565b820191906000526020600020905b8154815290600101906020018083116131bf57829003601f168201915b5050855460408051602060026001851615610100026000190190941693909304601f8101849004840282018401909252818152959a508794509250840190508282801561326a5780601f1061323f5761010080835404028352916020019161326a565b820191906000526020600020905b81548152906001019060200180831161324d57829003601f168201915b5050845460408051602060026001851615610100026000190190941693909304601f8101849004840282018401909252818152959750869450925084019050828280156132f85780601f106132cd576101008083540402835291602001916132f8565b820191906000526020600020905b8154815290600101906020018083116132db57829003601f168201915b5050505050905096509650965096509650965096505b919395979092949650565b6002546060906001600160a01b031633141561333457600080fd5b6001600160a01b0382811660009081526020819052604090205416331461335a57600080fd5b6001600160a01b0382166000908152602081815260409182902060040180548351601f60026000196101006001861615020190931692909204918201849004840281018401909452808452909183018282801561271d5780601f106126f25761010080835404028352916020019161271d565b6000818152600460209081526040822089516133f192600c909201918b0190614ade565b506000828152600460209081526040909120885161341792600d909201918a0190614ade565b506000828152600460209081526040909120875161343d92600e90920191890190614ade565b506000828152600460209081526040909120865161346392600f90920191880190614ade565b506000828152600460209081526040909120855161348992601090920191870190614ade565b50600082815260046020908152604090912084516134af92601190920191860190614ade565b50600198975050505050505050565b6000818152600460205260408120601201546060919081908390600160a01b900460ff161561362e576000858152600460208181526040928390206003810154928101546002808301805487516001821615610100026000190190911692909204601f8101869004860283018601909752868252959193600b90930192909186918301828280156135905780601f1061356557610100808354040283529160200191613590565b820191906000526020600020905b81548152906001019060200180831161357357829003601f168201915b5050845460408051602060026001851615610100026000190190941693909304601f81018490048402820184019092528181529599508694509250840190508282801561361e5780601f106135f35761010080835404028352916020019161361e565b820191906000526020600020905b81548152906001019060200180831161360157829003601f168201915b5050505050905093509350935093505b9193509193565b60009081526004602052604090206008015490565b6002546001600160a01b0316331461366157600080fd5b6001600160a01b03166000908152600160205260409020600401805460ff19169055565b6002546000906001600160a01b0316331461369f57600080fd5b6001600160a01b03831660009081526001602090815260409091208351612d4892600390920191850190614ade565b600081815260046020526040902060120154600160a01b900460ff166136f357600080fd5b6000818152600460205260409020600801543331101561371257600080fd5b60008181526004602052604090206012018054336001600160a01b03199091161760ff60a01b1981168255600191907fffffffffffffffffffff0000ffffffffffffffffffffffffffffffffffffffff16600160a81b835b021790555050565b6003600082815260046020526040902060120154600160a81b900460ff16600381111561379b57fe5b146137a557600080fd5b6000818152600460205260409020600801543410156137c357600080fd5b34670de0b6b3a764000067de0b6b3a7640000082116137e65780820391506137f4565b506064346006020490819003905b6000838152600460205260408082206013015490516001600160a01b039091169183156108fc02918491818181858888f1935050505015801561383b573d6000803e3d6000fd5b506000838152600460205260408082206005015490516001600160a01b039091169184156108fc02918591818181858888f19350505050158015613883573d6000803e3d6000fd5b506000838152600460205260409020600501546138a9906001600160a01b031684614a05565b6000838152600460205260409020600581018054600790920180546001600160a01b0384166001600160a01b031991821617909155339216821790556138ee90614476565b600460008581526020019081526020016000206006019080519060200190613917929190614ade565b5050506000818152600460209081526040808320601201805475ffffffffffffffffffffffffffffffffffffffffffff19169055338352600782528220805460018101825590835291200155565b600081815260046020908152604091829020600c810180548451601f600260001961010060018616150201909316929092049182018590048502810185019095528085526060948594859485948594859485949293600d810193600e820193600f830193601084019360118101936006909101928991830182828015613a2c5780601f10613a0157610100808354040283529160200191613a2c565b820191906000526020600020905b815481529060010190602001808311613a0f57829003601f168201915b5050895460408051602060026001851615610100026000190190941693909304601f8101849004840282018401909252818152959c508b945092508401905082828015613aba5780601f10613a8f57610100808354040283529160200191613aba565b820191906000526020600020905b815481529060010190602001808311613a9d57829003601f168201915b5050885460408051602060026001851615610100026000190190941693909304601f8101849004840282018401909252818152959b508a945092508401905082828015613b485780601f10613b1d57610100808354040283529160200191613b48565b820191906000526020600020905b815481529060010190602001808311613b2b57829003601f168201915b5050875460408051602060026001851615610100026000190190941693909304601f8101849004840282018401909252818152959a5089945092508401905082828015613bd65780601f10613bab57610100808354040283529160200191613bd6565b820191906000526020600020905b815481529060010190602001808311613bb957829003601f168201915b5050865460408051602060026001851615610100026000190190941693909304601f810184900484028201840190925281815295995088945092508401905082828015613c645780601f10613c3957610100808354040283529160200191613c64565b820191906000526020600020905b815481529060010190602001808311613c4757829003601f168201915b5050855460408051602060026001851615610100026000190190941693909304601f81018490048402820184019092528181529598508794509250840190508282801561326a5780601f1061323f5761010080835404028352916020019161326a565b6000818152600460205260409020600501546001600160a01b03163314613ced57600080fd5b6000908152600460205260409020601201805475ffffffffffffffffffffffffffffffffffffffffffff19169055565b60038181548110613d2a57fe5b600091825260209091200154905081565b6000818152600460205260409020601201546001600160a01b03163314613d6157600080fd5b600081815260046020526040812060120180546001600160a01b03198116825575ff00ffffffffffffffffffffffffffffffffffffffff1916600160a81b8361376a565b60025460009060609081906001600160a01b03163314613dc457600080fd5b6001600160a01b03841660009081526001602081815260409283902060048101546003820180548651601f6002600019848a161561010002019093169290920491820186900486028101860190975280875260ff9092169590949290920192849190830182828015612c385780601f10612c0d57610100808354040283529160200191612c38565b6000908152600460208190526040909120600581015460088201546012830154600384015493909401546001600160a01b0392831695919460ff600160a01b820481169594821694600160a81b9092041692909190565b6000805b6001600160a01b038316600090815260076020526040902054811015613f0e576001600160a01b0383166000908152600760205260409020805485919083908110613eee57fe5b90600052602060002001541415613f06579050612560565b600101613ea7565b9392505050565b6005546001600160a01b03163314613f2c57600080fd5b816006826040518082805190602001908083835b60208310613f5f5780518252601f199092019160209182019101613f40565b51815160209384036101000a6000190180199092169116179052920194855250604051938490030190922080546001600160a01b0319166001600160a01b03949094169390931790925550505050565b6000818152600460205260408120601201546060919082908290819083908290600160a01b900460ff161561330e5760046000898152602001908152602001600020600001600460008a815260200190815260200160002060050160009054906101000a90046001600160a01b0316600460008b8152602001908152602001600020600101600460008c815260200190815260200160002060120160149054906101000a900460ff16600460008d815260200190815260200160002060080154600460008e8152602001908152602001600020600a018d868054600181600116156101000203166002900480601f01602080910402602001604051908101604052809291908181526020018280546001816001161561010002031660029004801561411b5780601f106140f05761010080835404028352916020019161411b565b820191906000526020600020905b8154815290600101906020018083116140fe57829003601f168201915b5050885460408051602060026001851615610100026000190190941693909304601f8101849004840282018401909252818152959c508a9450925084019050828280156141a95780601f1061417e576101008083540402835291602001916141a9565b820191906000526020600020905b81548152906001019060200180831161418c57829003601f168201915b5050855460408051602060026001851615610100026000190190941693909304601f8101849004840282018401909252818152959a50879450925084019050828280156142375780601f1061420c57610100808354040283529160200191614237565b820191906000526020600020905b81548152906001019060200180831161421a57829003601f168201915b50505050509150965096509650965096509650965061330e565b6060600380548060200260200160405190810160405280929190818152602001828054801561261f576020028201919060005260206000209081548152602001906001019080831161260b575050505050905090565b60005b60035481101561447157600060046000600384815481106142c757fe5b90600052602060002001548152602001908152602001600020600801541180156144025750826040516020018082805190602001908083835b6020831061431f5780518252601f199092019160209182019101614300565b6001836020036101000a03801982511681845116808217855250505050505090500191505060405160208183030381529060405280519060200120600460006003848154811061436b57fe5b9060005260206000200154815260200190815260200160002060090160405160200180828054600181600116156101000203166002900480156143e55780601f106143c35761010080835404028352918201916143e5565b820191906000526020600020905b8154815290600101906020018083116143d1575b505091505060405160208183030381529060405280519060200120145b156144695781600460006003848154811061441957fe5b906000526020600020015481526020019081526020016000206008015401600460006003848154811061444857fe5b90600052602060002001548152602001908152602001600020600801819055505b6001016142aa565b505050565b6060600080836001600160a01b03166001600160a01b031681526020019081526020016000206001018054600181600116156101000203166002900480601f01602080910402602001604051908101604052809291908181526020018280546001816001161561010002031660029004801561271d5780601f106126f25761010080835404028352916020019161271d565b6000818152600460208181526040808420601381015460058201546007830154600384015496840154600990940180548651601f6002600019600185161561010002019093169290920491820189900489028101890190975280875289988998899889986060986001600160a01b0390811698811697169593949093928391908301828280156145d95780601f106145ae576101008083540402835291602001916145d9565b820191906000526020600020905b8154815290600101906020018083116145bc57829003601f168201915b5050505050905095509550955095509550955091939550919395565b6000818152600460209081526040808320600581015460088201548254845160026101006001808516159190910260001901909316819004601f8101899004890283018901909752868252606097889788978b97899788976001600160a01b0390921696929591860194918601939092600a870192600b88019288918301828280156146c25780601f10614697576101008083540402835291602001916146c2565b820191906000526020600020905b8154815290600101906020018083116146a557829003601f168201915b5050885460408051602060026001851615610100026000190190941693909304601f8101849004840282018401909252818152959b508a9450925084019050828280156147505780601f1061472557610100808354040283529160200191614750565b820191906000526020600020905b81548152906001019060200180831161473357829003601f168201915b5050875460408051602060026001851615610100026000190190941693909304601f8101849004840282018401909252818152959a50899450925084019050828280156147de5780601f106147b3576101008083540402835291602001916147de565b820191906000526020600020905b8154815290600101906020018083116147c157829003601f168201915b5050855460408051602060026001851615610100026000190190941693909304601f81018490048402820184019092528181529599508794509250840190508282801561326a5780601f1061323f5761010080835404028352916020019161326a565b6000828152600460205260409020600501546001600160a01b0316331461486757600080fd5b600082815260046020526040902060120180548291907fffffffffffffffffffff00ffffffffffffffffffffffffffffffffffffffffff16600160a81b8360038111156148b057fe5b021790555060028160038111156148c357fe5b14156148f8576000828152600460205260409020601201805475ff00ffffffffffffffffffffffffffffffffffffffff191690555b5050565b6002546000906001600160a01b031633141561491757600080fd5b6001600160a01b038581166000908152602081905260409020541633141561493e57600080fd5b6001600160a01b03851660008181526020818152604090912080546001600160a01b0319169092178255855161497a9260010191870190614ade565b506001600160a01b03851660009081526020818152604090912084516149a892600290920191860190614ade565b506001600160a01b03851660009081526020818152604090912083516149d692600390920191850190614ade565b50506001600160a01b0384166000908152602081905260409020600501805460ff191690556001949350505050565b6000614a118284613ea3565b6001600160a01b03841660009081526007602052604090208054919250906000198101908110614a3d57fe5b60009182526020808320909101546001600160a01b038616835260079091526040909120805483908110614a6d57fe5b60009182526020808320909101929092556001600160a01b038516815260079091526040902080546000198101908110614aa357fe5b600091825260208083209091018290556001600160a01b03851682526007905260409020805490614ad8906000198301614b5c565b50505050565b828054600181600116156101000203166002900490600052602060002090601f016020900481019282601f10614b1f57805160ff1916838001178555614b4c565b82800160010185558215614b4c579182015b82811115614b4c578251825591602001919060010190614b31565b50614b58929150614b7c565b5090565b815481835581811115614471576000838152602090206144719181019083015b61262791905b80821115614b585760008155600101614b8256fea265627a7a72315820501353d4a29768b2b47ebb0a13424eede846530595fa7cf7ba827bb656d87af764736f6c63430005100032",
  "source": "pragma solidity >=0.4.0 <0.6.0;\n\nimport {Auth} from \"../contracts/Auth.sol\";\n\ncontract Land is Auth {\n    struct landDetails {\n        string state;\n        string district;\n        string villageTown;\n        uint256 khataNumber;\n        uint256 khatooniNumber;\n        address payable CurrentOwner;\n        string ownerName;\n        address previousOwner;\n        uint256 marketValue;\n        string landType;\n        string squareFoots;\n        string inches;\n        string lat;\n        string lng;\n        string north;\n        string south;\n        string east;\n        string west;\n        address payable requester;\n        bool isAvailable;\n        reqStatus requestStatus;\n        address payable createByGovt;\n        string orderEndTime;\n    }\n\n    uint256[] public propertiesIDs;\n\n    //request status\n    enum reqStatus {\n        Default,\n        pending,\n        reject,\n        approved\n    }\n\n    //profile of a client\n    struct profiles {\n        uint256[] assetList;\n    }\n\n    mapping(uint256 => landDetails) land;\n    address owner;\n    mapping(string => address) superAdmin;\n    mapping(address => profiles) profile;\n\n    //contract owner\n    constructor() public {\n        owner = msg.sender;\n    }\n\n    modifier onlyOwner() {\n        require(msg.sender == owner);\n        _;\n    }\n\n    //adding village admins\n    function addSuperAdmin(address _superAdmin, string memory _village)\n        public\n        onlyOwner\n    {\n        superAdmin[_village] = _superAdmin;\n    }\n\n    //Registration of land details.\n    function Registration(\n        string memory _state,\n        string memory _district,\n        string memory _villageTown,\n        uint256 _khataNumber,\n        uint256 _khatooniNumber,\n        address payable _OwnerAddress,\n        string memory _ownerName,\n        address _previousOwner,\n        uint256 _marketValue,\n        uint256 id,\n        string memory _squareFoots,\n        string memory _inches,\n        string memory _landType,\n        address payable _createByGovt\n    ) public returns (bool) {\n        require(superAdmin[_villageTown] == msg.sender || owner == msg.sender);\n        land[id].state = _state;\n        land[id].district = _district;\n        land[id].villageTown = _villageTown;\n        land[id].khataNumber = _khataNumber;\n        land[id].khatooniNumber = _khatooniNumber;\n        land[id].CurrentOwner = _OwnerAddress;\n        land[id].ownerName = _ownerName;\n        land[id].previousOwner = _previousOwner;\n        land[id].marketValue = _marketValue;\n        land[id].squareFoots = _squareFoots;\n        land[id].inches = _inches;\n        land[id].landType = _landType;\n        land[id].createByGovt = _createByGovt;\n        profile[_OwnerAddress].assetList.push(id);\n        propertiesIDs.push(id);\n        return true;\n    }\n\n    // Updating land details. Polyline\n    function registerLandPolyline(\n        string memory _lat,\n        string memory _lng,\n        string memory _north,\n        string memory _south,\n        string memory _east,\n        string memory _west,\n        uint256 id\n    ) public returns (bool) {\n        land[id].lat = _lat;\n        land[id].lng = _lng;\n        land[id].north = _north;\n        land[id].south = _south;\n        land[id].east = _east;\n        land[id].west = _west;\n        return true;\n    }\n\n    //to view details of land for the owner\n    function landInfoOwner(uint256 id)\n        public\n        view\n        returns (\n            string memory,\n            string memory,\n            string memory,\n            bool,\n            uint256,\n            string memory,\n            string memory\n        )\n    {\n        return (\n            land[id].state,\n            land[id].district,\n            land[id].villageTown,\n            land[id].isAvailable,\n            land[id].marketValue,\n            land[id].squareFoots,\n            land[id].inches\n        );\n    }\n\n    function remainingDetail(uint256 id)\n        public\n        view\n        returns (\n            address,\n            address,\n            address,\n            uint256,\n            uint256,\n            string memory\n        )\n    {\n        return (\n            land[id].createByGovt,\n            land[id].CurrentOwner,\n            land[id].previousOwner,\n            land[id].khataNumber,\n            land[id].khatooniNumber,\n            land[id].landType\n        );\n    }\n\n    function remainingMoreDetail(uint256 id)\n        public\n        view\n        returns (\n            string memory,\n            string memory,\n            string memory,\n            string memory,\n            string memory,\n            string memory,\n            string memory\n        )\n    {\n        return (\n            land[id].lat,\n            land[id].lng,\n            land[id].north,\n            land[id].south,\n            land[id].east,\n            land[id].west,\n            land[id].ownerName\n        );\n    }\n\n    function showAllLands(uint256 id)\n        public\n        view\n        returns (\n            address,\n            string memory,\n            string memory,\n            string memory,\n            uint256,\n            string memory,\n            string memory\n        )\n    {\n        return (\n            land[id].CurrentOwner,\n            land[id].state,\n            land[id].district,\n            land[id].villageTown,\n            land[id].marketValue,\n            land[id].squareFoots,\n            land[id].inches\n        );\n    }\n\n    //to view details of land for the buyer\n    function landInfoUser(uint256 id)\n        public\n        view\n        returns (\n            address,\n            uint256,\n            bool,\n            address,\n            reqStatus,\n            uint256,\n            uint256\n        )\n    {\n        return (\n            land[id].CurrentOwner,\n            land[id].marketValue,\n            land[id].isAvailable,\n            land[id].requester,\n            land[id].requestStatus,\n            land[id].khataNumber,\n            land[id].khatooniNumber\n        );\n    }\n\n    // to compute id for a land.\n    function computeId(\n        string memory _state,\n        string memory _district,\n        string memory _village,\n        uint256 _surveyNumber\n    ) public view returns (uint256) {\n        return\n            uint256(\n                keccak256(\n                    abi.encodePacked(_state, _district, _village, _surveyNumber)\n                )\n            ) % 10000000000000;\n    }\n\n    //push a request to the land owner\n    function requstToLandOwner(uint256 id) public {\n        require(land[id].isAvailable);\n        require(msg.sender.balance >= land[id].marketValue);\n        land[id].requester = msg.sender;\n        land[id].isAvailable = false;\n        land[id].requestStatus = reqStatus.pending; //changes the status to pending.\n    }\n\n    //will show assets of the function caller\n    function viewAssets() public view returns (uint256[] memory) {\n        return (profile[msg.sender].assetList);\n    }\n\n    //viewing request for the lands\n    function viewRequest(uint256 property) public view returns (address) {\n        return (land[property].requester);\n    }\n\n    //availing land for sale.\n    function markAvailable(uint256 property) public {\n        require(land[property].CurrentOwner == msg.sender);\n        land[property].isAvailable = true;\n    }\n\n    function unMarkLand(uint256 property) public {\n        require(land[property].CurrentOwner == msg.sender);\n        land[property].requester = address(0);  \n        land[property].requestStatus = reqStatus.Default;\n        land[property].isAvailable = false;\n    }\n\n    function showMarketValue(uint256 id) public view returns (uint256) {\n        return land[id].marketValue;\n    }\n\n    // change the market value after some years\n    function changeMarketValue(string memory _landType, uint256 _marketValue)\n        public\n    {\n        // update all land values\n        for (uint256 i = 0; i < propertiesIDs.length; i++) {\n            if (\n                land[propertiesIDs[i]].marketValue > 0 &&\n                keccak256(abi.encodePacked(land[propertiesIDs[i]].landType)) ==\n                keccak256(abi.encodePacked(_landType))\n            ) {\n                land[propertiesIDs[i]].marketValue =\n                    land[propertiesIDs[i]].marketValue +\n                    _marketValue;\n            }\n        }\n    }\n\n    // Get all the lands ids.\n    function getAllLands() public view returns (uint256[] memory) {\n        return (propertiesIDs);\n    }\n\n    // show marked Available\n    function viewMarkded(uint256 id)\n        public\n        view\n        returns (\n            string memory,\n            address,\n            string memory,\n            bool,\n            uint256,\n            string memory,\n            uint256\n        )\n    {\n        if (land[id].isAvailable) {\n            return (\n                land[id].state,\n                land[id].CurrentOwner,\n                land[id].district,\n                land[id].isAvailable,\n                land[id].marketValue,\n                land[id].squareFoots,\n                id\n            );\n        }\n    }\n\n    // show marked Available\n    function viewMarkdedRemainingData(uint256 id)\n        public\n        view\n        returns (\n            string memory,\n            uint256,\n            uint256,\n            string memory\n        )\n    {\n        if (land[id].isAvailable) {\n            return (\n                land[id].villageTown,\n                land[id].khataNumber,\n                land[id].khatooniNumber,\n                land[id].inches\n            );\n        }\n    }\n\n    //processing request for the land by accepting or rejecting\n    function processRequest(uint256 property, reqStatus status) public {\n        require(land[property].CurrentOwner == msg.sender);\n        land[property].requestStatus = status;\n        if (status == reqStatus.reject) {\n            land[property].requester = address(0);\n            land[property].requestStatus = reqStatus.Default;\n        }\n    }\n\n    //buying the approved property\n    function buyProperty(uint256 property) public payable {\n        require(land[property].requestStatus == reqStatus.approved);\n        require(msg.value >= land[property].marketValue);\n\n        uint256 totalValue = msg.value;\n        uint256 taxFee = 1000000000000000000;\n\n        if (msg.value <= 16000000000000000000) {\n            totalValue = totalValue - taxFee;\n        } else {\n            taxFee = (msg.value * 6) / uint256(100);\n            totalValue = totalValue - taxFee;\n        }\n\n        land[property].createByGovt.transfer(taxFee);\n        land[property].CurrentOwner.transfer(totalValue);\n\n        removeOwnership(land[property].CurrentOwner, property);\n        land[property].previousOwner = land[property].CurrentOwner;\n        land[property].CurrentOwner = msg.sender;\n        land[property].ownerName = getUserName(msg.sender);\n        land[property].isAvailable = false;\n        land[property].requester = address(0);\n        land[property].requestStatus = reqStatus.Default;\n        profile[msg.sender].assetList.push(property); //adds the property to the asset list of the new owner.\n    }\n\n    function refuseToBuy(uint256 property) public {\n        require(land[property].requester == msg.sender);\n        land[property].requester = address(0);  \n        land[property].requestStatus = reqStatus.Default;\n    }\n\n    //removing the ownership of seller for the land. and it is called by the buyProperty function\n    function removeOwnership(address previousOwner, uint256 id) private {\n        uint256 index = findId(id, previousOwner);\n        profile[previousOwner].assetList[index] = profile[previousOwner]\n            .assetList[profile[previousOwner].assetList.length - 1];\n        delete profile[previousOwner].assetList[\n            profile[previousOwner].assetList.length - 1\n        ];\n        profile[previousOwner].assetList.length--;\n    }\n\n    //for finding the index of a perticular id\n    function findId(uint256 id, address user) public view returns (uint256) {\n        uint256 i;\n        for (i = 0; i < profile[user].assetList.length; i++) {\n            if (profile[user].assetList[i] == id) return i;\n        }\n        return i;\n    }\n}\n",
  "sourcePath": "/home/zaryab/VSCodeProjects/land-records-blockchain/src/contracts/Land.sol",
  "compiler": {
    "name": "solc",
    "version": "0.5.16+commit.9c3226ce.Emscripten.clang"
  },
  "schemaVersion": "3.4.1",
  "updatedAt": "2021-09-19T09:19:48.630Z",
  "networkType": "ethereum",
  "devdoc": {
    "methods": {}
  },
  "userdoc": {
    "methods": {}
  }
}