{
  "contractName": "Land",
  "abi": [
    {
      "inputs": [],
      "payable": false,
      "stateMutability": "nonpayable",
      "type": "constructor"
    },
    {
      "constant": true,
      "inputs": [
        {
          "internalType": "uint256",
          "name": "",
          "type": "uint256"
        }
      ],
      "name": "propertiesIDs",
      "outputs": [
        {
          "internalType": "uint256",
          "name": "",
          "type": "uint256"
        }
      ],
      "payable": false,
      "stateMutability": "view",
      "type": "function"
    },
    {
      "constant": false,
      "inputs": [
        {
          "internalType": "address",
          "name": "_superAdmin",
          "type": "address"
        },
        {
          "internalType": "string",
          "name": "_village",
          "type": "string"
        }
      ],
      "name": "addSuperAdmin",
      "outputs": [],
      "payable": false,
      "stateMutability": "nonpayable",
      "type": "function"
    },
    {
      "constant": false,
      "inputs": [
        {
          "internalType": "string",
          "name": "_state",
          "type": "string"
        },
        {
          "internalType": "string",
          "name": "_district",
          "type": "string"
        },
        {
          "internalType": "string",
          "name": "_village",
          "type": "string"
        },
        {
          "internalType": "uint256",
          "name": "_surveyNumber",
          "type": "uint256"
        },
        {
          "internalType": "address payable",
          "name": "_OwnerAddress",
          "type": "address"
        },
        {
          "internalType": "uint256",
          "name": "_marketValue",
          "type": "uint256"
        },
        {
          "internalType": "uint256",
          "name": "id",
          "type": "uint256"
        },
        {
          "internalType": "string",
          "name": "_measurement",
          "type": "string"
        }
      ],
      "name": "Registration",
      "outputs": [
        {
          "internalType": "bool",
          "name": "",
          "type": "bool"
        }
      ],
      "payable": false,
      "stateMutability": "nonpayable",
      "type": "function"
    },
    {
      "constant": true,
      "inputs": [
        {
          "internalType": "uint256",
          "name": "id",
          "type": "uint256"
        }
      ],
      "name": "landInfoOwner",
      "outputs": [
        {
          "internalType": "string",
          "name": "",
          "type": "string"
        },
        {
          "internalType": "string",
          "name": "",
          "type": "string"
        },
        {
          "internalType": "string",
          "name": "",
          "type": "string"
        },
        {
          "internalType": "uint256",
          "name": "",
          "type": "uint256"
        },
        {
          "internalType": "bool",
          "name": "",
          "type": "bool"
        },
        {
          "internalType": "uint256",
          "name": "",
          "type": "uint256"
        },
        {
          "internalType": "string",
          "name": "",
          "type": "string"
        }
      ],
      "payable": false,
      "stateMutability": "view",
      "type": "function"
    },
    {
      "constant": true,
      "inputs": [
        {
          "internalType": "uint256",
          "name": "id",
          "type": "uint256"
        }
      ],
      "name": "landInfoUser",
      "outputs": [
        {
          "internalType": "address",
          "name": "",
          "type": "address"
        },
        {
          "internalType": "uint256",
          "name": "",
          "type": "uint256"
        },
        {
          "internalType": "bool",
          "name": "",
          "type": "bool"
        },
        {
          "internalType": "address",
          "name": "",
          "type": "address"
        },
        {
          "internalType": "enum Land.reqStatus",
          "name": "",
          "type": "uint8"
        }
      ],
      "payable": false,
      "stateMutability": "view",
      "type": "function"
    },
    {
      "constant": true,
      "inputs": [
        {
          "internalType": "string",
          "name": "_state",
          "type": "string"
        },
        {
          "internalType": "string",
          "name": "_district",
          "type": "string"
        },
        {
          "internalType": "string",
          "name": "_village",
          "type": "string"
        },
        {
          "internalType": "uint256",
          "name": "_surveyNumber",
          "type": "uint256"
        }
      ],
      "name": "computeId",
      "outputs": [
        {
          "internalType": "uint256",
          "name": "",
          "type": "uint256"
        }
      ],
      "payable": false,
      "stateMutability": "view",
      "type": "function"
    },
    {
      "constant": false,
      "inputs": [
        {
          "internalType": "uint256",
          "name": "id",
          "type": "uint256"
        }
      ],
      "name": "requstToLandOwner",
      "outputs": [],
      "payable": false,
      "stateMutability": "nonpayable",
      "type": "function"
    },
    {
      "constant": true,
      "inputs": [],
      "name": "viewAssets",
      "outputs": [
        {
          "internalType": "uint256[]",
          "name": "",
          "type": "uint256[]"
        }
      ],
      "payable": false,
      "stateMutability": "view",
      "type": "function"
    },
    {
      "constant": true,
      "inputs": [
        {
          "internalType": "uint256",
          "name": "property",
          "type": "uint256"
        }
      ],
      "name": "viewRequest",
      "outputs": [
        {
          "internalType": "address",
          "name": "",
          "type": "address"
        }
      ],
      "payable": false,
      "stateMutability": "view",
      "type": "function"
    },
    {
      "constant": false,
      "inputs": [
        {
          "internalType": "uint256",
          "name": "property",
          "type": "uint256"
        },
        {
          "internalType": "enum Land.reqStatus",
          "name": "status",
          "type": "uint8"
        }
      ],
      "name": "processRequest",
      "outputs": [],
      "payable": false,
      "stateMutability": "nonpayable",
      "type": "function"
    },
    {
      "constant": false,
      "inputs": [
        {
          "internalType": "uint256",
          "name": "property",
          "type": "uint256"
        }
      ],
      "name": "makeAvailable",
      "outputs": [],
      "payable": false,
      "stateMutability": "nonpayable",
      "type": "function"
    },
    {
      "constant": true,
      "inputs": [],
      "name": "getAllLands",
      "outputs": [
        {
          "internalType": "uint256[]",
          "name": "",
          "type": "uint256[]"
        }
      ],
      "payable": false,
      "stateMutability": "view",
      "type": "function"
    },
    {
      "constant": true,
      "inputs": [
        {
          "internalType": "uint256",
          "name": "id",
          "type": "uint256"
        }
      ],
      "name": "viewMarkded",
      "outputs": [
        {
          "internalType": "string",
          "name": "",
          "type": "string"
        },
        {
          "internalType": "address",
          "name": "",
          "type": "address"
        },
        {
          "internalType": "string",
          "name": "",
          "type": "string"
        },
        {
          "internalType": "bool",
          "name": "",
          "type": "bool"
        },
        {
          "internalType": "uint256",
          "name": "",
          "type": "uint256"
        },
        {
          "internalType": "string",
          "name": "",
          "type": "string"
        },
        {
          "internalType": "uint256",
          "name": "",
          "type": "uint256"
        }
      ],
      "payable": false,
      "stateMutability": "view",
      "type": "function"
    },
    {
      "constant": false,
      "inputs": [
        {
          "internalType": "uint256",
          "name": "property",
          "type": "uint256"
        }
      ],
      "name": "buyProperty",
      "outputs": [],
      "payable": true,
      "stateMutability": "payable",
      "type": "function"
    },
    {
      "constant": true,
      "inputs": [
        {
          "internalType": "uint256",
          "name": "id",
          "type": "uint256"
        },
        {
          "internalType": "address",
          "name": "user",
          "type": "address"
        }
      ],
      "name": "findId",
      "outputs": [
        {
          "internalType": "uint256",
          "name": "",
          "type": "uint256"
        }
      ],
      "payable": false,
      "stateMutability": "view",
      "type": "function"
    }
  ],
  "bytecode": "0x608060405234801561001057600080fd5b5033600260006101000a81548173ffffffffffffffffffffffffffffffffffffffff021916908373ffffffffffffffffffffffffffffffffffffffff1602179055506125c3806100616000396000f3fe6080604052600436106100e85760003560e01c806394e504d21161008a578063ad14224211610059578063ad14224214610bc1578063b7b6e54314610d99578063baa39e0514610e05578063fdb10f5014610e40576100e8565b806394e504d2146109465780639d01485f14610995578063a27664ee14610a6a578063ab05bae614610ad9576100e8565b806326e85250116100c657806326e852501461065157806355d61952146106cc5780636c5ed939146108dd5780636fa830a614610918576100e8565b80630d2d5dca146100ed5780631d50a6c41461015957806322eb18d91461036d575b600080fd5b3480156100f957600080fd5b50610102610e88565b6040518080602001828103825283818151815260200191508051906020019060200280838360005b8381101561014557808201518184015260208101905061012a565b505050509050019250505060405180910390f35b34801561016557600080fd5b506103576004803603608081101561017c57600080fd5b810190808035906020019064010000000081111561019957600080fd5b8201836020820111156101ab57600080fd5b803590602001918460018302840111640100000000831117156101cd57600080fd5b91908080601f016020809104026020016040519081016040528093929190818152602001838380828437600081840152601f19601f8201169050808301925050505050505091929192908035906020019064010000000081111561023057600080fd5b82018360208201111561024257600080fd5b8035906020019184600183028401116401000000008311171561026457600080fd5b91908080601f016020809104026020016040519081016040528093929190818152602001838380828437600081840152601f19601f820116905080830192505050505050509192919290803590602001906401000000008111156102c757600080fd5b8201836020820111156102d957600080fd5b803590602001918460018302840111640100000000831117156102fb57600080fd5b91908080601f016020809104026020016040519081016040528093929190818152602001838380828437600081840152601f19601f82011690508083019250505050505050919291929080359060200190929190505050610f20565b6040518082815260200191505060405180910390f35b34801561037957600080fd5b50610637600480360361010081101561039157600080fd5b81019080803590602001906401000000008111156103ae57600080fd5b8201836020820111156103c057600080fd5b803590602001918460018302840111640100000000831117156103e257600080fd5b91908080601f016020809104026020016040519081016040528093929190818152602001838380828437600081840152601f19601f8201169050808301925050505050505091929192908035906020019064010000000081111561044557600080fd5b82018360208201111561045757600080fd5b8035906020019184600183028401116401000000008311171561047957600080fd5b91908080601f016020809104026020016040519081016040528093929190818152602001838380828437600081840152601f19601f820116905080830192505050505050509192919290803590602001906401000000008111156104dc57600080fd5b8201836020820111156104ee57600080fd5b8035906020019184600183028401116401000000008311171561051057600080fd5b91908080601f016020809104026020016040519081016040528093929190818152602001838380828437600081840152601f19601f82011690508083019250505050505050919291929080359060200190929190803573ffffffffffffffffffffffffffffffffffffffff1690602001909291908035906020019092919080359060200190929190803590602001906401000000008111156105b157600080fd5b8201836020820111156105c357600080fd5b803590602001918460018302840111640100000000831117156105e557600080fd5b91908080601f016020809104026020016040519081016040528093929190818152602001838380828437600081840152601f19601f82011690508083019250505050505050919291929050505061105e565b604051808215151515815260200191505060405180910390f35b34801561065d57600080fd5b5061068a6004803603602081101561067457600080fd5b8101908080359060200190929190505050611358565b604051808273ffffffffffffffffffffffffffffffffffffffff1673ffffffffffffffffffffffffffffffffffffffff16815260200191505060405180910390f35b3480156106d857600080fd5b50610705600480360360208110156106ef57600080fd5b8101908080359060200190929190505050611398565b60405180806020018060200180602001888152602001871515151581526020018681526020018060200185810385528c818151815260200191508051906020019080838360005b8381101561076757808201518184015260208101905061074c565b50505050905090810190601f1680156107945780820380516001836020036101000a031916815260200191505b5085810384528b818151815260200191508051906020019080838360005b838110156107cd5780820151818401526020810190506107b2565b50505050905090810190601f1680156107fa5780820380516001836020036101000a031916815260200191505b5085810383528a818151815260200191508051906020019080838360005b83811015610833578082015181840152602081019050610818565b50505050905090810190601f1680156108605780820380516001836020036101000a031916815260200191505b50858103825286818151815260200191508051906020019080838360005b8381101561089957808201518184015260208101905061087e565b50505050905090810190601f1680156108c65780820380516001836020036101000a031916815260200191505b509b50505050505050505050505060405180910390f35b3480156108e957600080fd5b506109166004803603602081101561090057600080fd5b81019080803590602001909291905050506116d7565b005b6109446004803603602081101561092e57600080fd5b81019080803590602001909291905050506117c2565b005b34801561095257600080fd5b5061097f6004803603602081101561096957600080fd5b8101908080359060200190929190505050611aa0565b6040518082815260200191505060405180910390f35b3480156109a157600080fd5b506109ce600480360360208110156109b857600080fd5b8101908080359060200190929190505050611ac1565b604051808673ffffffffffffffffffffffffffffffffffffffff1673ffffffffffffffffffffffffffffffffffffffff168152602001858152602001841515151581526020018373ffffffffffffffffffffffffffffffffffffffff1673ffffffffffffffffffffffffffffffffffffffff168152602001826003811115610a5257fe5b60ff1681526020019550505050505060405180910390f35b348015610a7657600080fd5b50610ac360048036036040811015610a8d57600080fd5b8101908080359060200190929190803573ffffffffffffffffffffffffffffffffffffffff169060200190929190505050611bac565b6040518082815260200191505060405180910390f35b348015610ae557600080fd5b50610bbf60048036036040811015610afc57600080fd5b81019080803573ffffffffffffffffffffffffffffffffffffffff16906020019092919080359060200190640100000000811115610b3957600080fd5b820183602082011115610b4b57600080fd5b80359060200191846001830284011164010000000083111715610b6d57600080fd5b91908080601f016020809104026020016040519081016040528093929190818152602001838380828437600081840152601f19601f820116905080830192505050505050509192919290505050611c81565b005b348015610bcd57600080fd5b50610bfa60048036036020811015610be457600080fd5b8101908080359060200190929190505050611d87565b60405180806020018873ffffffffffffffffffffffffffffffffffffffff1673ffffffffffffffffffffffffffffffffffffffff16815260200180602001871515151581526020018681526020018060200185815260200184810384528b818151815260200191508051906020019080838360005b83811015610c8a578082015181840152602081019050610c6f565b50505050905090810190601f168015610cb75780820380516001836020036101000a031916815260200191505b50848103835289818151815260200191508051906020019080838360005b83811015610cf0578082015181840152602081019050610cd5565b50505050905090810190601f168015610d1d5780820380516001836020036101000a031916815260200191505b50848103825286818151815260200191508051906020019080838360005b83811015610d56578082015181840152602081019050610d3b565b50505050905090810190601f168015610d835780820380516001836020036101000a031916815260200191505b509a505050505050505050505060405180910390f35b348015610da557600080fd5b50610dae612068565b6040518080602001828103825283818151815260200191508051906020019060200280838360005b83811015610df1578082015181840152602081019050610dd6565b505050509050019250505060405180910390f35b348015610e1157600080fd5b50610e3e60048036036020811015610e2857600080fd5b81019080803590602001909291905050506120c0565b005b348015610e4c57600080fd5b50610e8660048036036040811015610e6357600080fd5b8101908080359060200190929190803560ff16906020019092919050505061215f565b005b6060600460003373ffffffffffffffffffffffffffffffffffffffff1673ffffffffffffffffffffffffffffffffffffffff168152602001908152602001600020600001805480602002602001604051908101604052809291908181526020018280548015610f1657602002820191906000526020600020905b815481526020019060010190808311610f02575b5050505050905090565b60006509184e72a000858585856040516020018085805190602001908083835b60208310610f635780518252602082019150602081019050602083039250610f40565b6001836020036101000a03801982511681845116808217855250505050505090500184805190602001908083835b60208310610fb45780518252602082019150602081019050602083039250610f91565b6001836020036101000a03801982511681845116808217855250505050505090500183805190602001908083835b602083106110055780518252602082019150602081019050602083039250610fe2565b6001836020036101000a0380198251168184511680821785525050505050509050018281526020019450505050506040516020818303038152906040528051906020012060001c8161105357fe5b069050949350505050565b60003373ffffffffffffffffffffffffffffffffffffffff166003886040518082805190602001908083835b602083106110ad578051825260208201915060208101905060208303925061108a565b6001836020036101000a038019825116818451168082178552505050505050905001915050908152602001604051809103902060009054906101000a900473ffffffffffffffffffffffffffffffffffffffff1673ffffffffffffffffffffffffffffffffffffffff16148061117057503373ffffffffffffffffffffffffffffffffffffffff16600260009054906101000a900473ffffffffffffffffffffffffffffffffffffffff1673ffffffffffffffffffffffffffffffffffffffff16145b61117957600080fd5b886001600085815260200190815260200160002060000190805190602001906111a39291906124bd565b50876001600085815260200190815260200160002060010190805190602001906111ce9291906124bd565b50866001600085815260200190815260200160002060020190805190602001906111f99291906124bd565b50856001600085815260200190815260200160002060030181905550846001600085815260200190815260200160002060040160006101000a81548173ffffffffffffffffffffffffffffffffffffffff021916908373ffffffffffffffffffffffffffffffffffffffff160217905550836001600085815260200190815260200160002060050181905550816001600085815260200190815260200160002060060190805190602001906112af9291906124bd565b50600460008673ffffffffffffffffffffffffffffffffffffffff1673ffffffffffffffffffffffffffffffffffffffff16815260200190815260200160002060000183908060018154018082558091505090600182039060005260206000200160009091929091909150555060008390806001815401808255809150509060018203906000526020600020016000909192909190915055506001905098975050505050505050565b60006001600083815260200190815260200160002060070160019054906101000a900473ffffffffffffffffffffffffffffffffffffffff169050919050565b60608060606000806000606060016000898152602001908152602001600020600001600160008a8152602001908152602001600020600101600160008b8152602001908152602001600020600201600160008c815260200190815260200160002060030154600160008d815260200190815260200160002060070160009054906101000a900460ff16600160008e815260200190815260200160002060050154600160008f8152602001908152602001600020600601868054600181600116156101000203166002900480601f0160208091040260200160405190810160405280929190818152602001828054600181600116156101000203166002900480156114e35780601f106114b8576101008083540402835291602001916114e3565b820191906000526020600020905b8154815290600101906020018083116114c657829003601f168201915b50505050509650858054600181600116156101000203166002900480601f01602080910402602001604051908101604052809291908181526020018280546001816001161561010002031660029004801561157f5780601f106115545761010080835404028352916020019161157f565b820191906000526020600020905b81548152906001019060200180831161156257829003601f168201915b50505050509550848054600181600116156101000203166002900480601f01602080910402602001604051908101604052809291908181526020018280546001816001161561010002031660029004801561161b5780601f106115f05761010080835404028352916020019161161b565b820191906000526020600020905b8154815290600101906020018083116115fe57829003601f168201915b50505050509450808054600181600116156101000203166002900480601f0160208091040260200160405190810160405280929190818152602001828054600181600116156101000203166002900480156116b75780601f1061168c576101008083540402835291602001916116b7565b820191906000526020600020905b81548152906001019060200180831161169a57829003601f168201915b505050505090509650965096509650965096509650919395979092949650565b6001600082815260200190815260200160002060070160009054906101000a900460ff1661170457600080fd5b336001600083815260200190815260200160002060070160016101000a81548173ffffffffffffffffffffffffffffffffffffffff021916908373ffffffffffffffffffffffffffffffffffffffff16021790555060006001600083815260200190815260200160002060070160006101000a81548160ff021916908315150217905550600180600083815260200190815260200160002060070160156101000a81548160ff021916908360038111156117ba57fe5b021790555050565b6003808111156117ce57fe5b6001600083815260200190815260200160002060070160159054906101000a900460ff1660038111156117fd57fe5b1461180757600080fd5b600a60016000838152602001908152602001600020600501548161182757fe5b0460016000838152602001908152602001600020600501540134101561184c57600080fd5b6001600082815260200190815260200160002060040160009054906101000a900473ffffffffffffffffffffffffffffffffffffffff1673ffffffffffffffffffffffffffffffffffffffff166108fc60016000848152602001908152602001600020600501549081150290604051600060405180830381858888f193505050501580156118de573d6000803e3d6000fd5b5061191f6001600083815260200190815260200160002060040160009054906101000a900473ffffffffffffffffffffffffffffffffffffffff16826122b6565b336001600083815260200190815260200160002060040160006101000a81548173ffffffffffffffffffffffffffffffffffffffff021916908373ffffffffffffffffffffffffffffffffffffffff16021790555060006001600083815260200190815260200160002060070160006101000a81548160ff02191690831515021790555060006001600083815260200190815260200160002060070160016101000a81548173ffffffffffffffffffffffffffffffffffffffff021916908373ffffffffffffffffffffffffffffffffffffffff16021790555060006001600083815260200190815260200160002060070160156101000a81548160ff02191690836003811115611a2c57fe5b0217905550600460003373ffffffffffffffffffffffffffffffffffffffff1673ffffffffffffffffffffffffffffffffffffffff16815260200190815260200160002060000181908060018154018082558091505090600182039060005260206000200160009091929091909150555050565b60008181548110611aad57fe5b906000526020600020016000915090505481565b60008060008060006001600087815260200190815260200160002060040160009054906101000a900473ffffffffffffffffffffffffffffffffffffffff1660016000888152602001908152602001600020600501546001600089815260200190815260200160002060070160009054906101000a900460ff16600160008a815260200190815260200160002060070160019054906101000a900473ffffffffffffffffffffffffffffffffffffffff16600160008b815260200190815260200160002060070160159054906101000a900460ff168494509450945094509450945091939590929450565b600080600090505b600460008473ffffffffffffffffffffffffffffffffffffffff1673ffffffffffffffffffffffffffffffffffffffff16815260200190815260200160002060000180549050811015611c765783600460008573ffffffffffffffffffffffffffffffffffffffff1673ffffffffffffffffffffffffffffffffffffffff1681526020019081526020016000206000018281548110611c4f57fe5b90600052602060002001541415611c695780915050611c7b565b8080600101915050611bb4565b809150505b92915050565b600260009054906101000a900473ffffffffffffffffffffffffffffffffffffffff1673ffffffffffffffffffffffffffffffffffffffff163373ffffffffffffffffffffffffffffffffffffffff1614611cdb57600080fd5b816003826040518082805190602001908083835b60208310611d125780518252602082019150602081019050602083039250611cef565b6001836020036101000a038019825116818451168082178552505050505050905001915050908152602001604051809103902060006101000a81548173ffffffffffffffffffffffffffffffffffffffff021916908373ffffffffffffffffffffffffffffffffffffffff1602179055505050565b606060006060600080606060006001600089815260200190815260200160002060070160009054906101000a900460ff161561205c5760016000898152602001908152602001600020600001600160008a815260200190815260200160002060040160009054906101000a900473ffffffffffffffffffffffffffffffffffffffff16600160008b8152602001908152602001600020600101600160008c815260200190815260200160002060070160009054906101000a900460ff16600160008d815260200190815260200160002060050154600160008e81526020019081526020016000206006018d868054600181600116156101000203166002900480601f016020809104026020016040519081016040528092919081815260200182805460018160011615610100020316600290048015611f075780601f10611edc57610100808354040283529160200191611f07565b820191906000526020600020905b815481529060010190602001808311611eea57829003601f168201915b50505050509650859550848054600181600116156101000203166002900480601f016020809104026020016040519081016040528092919081815260200182805460018160011615610100020316600290048015611fa65780601f10611f7b57610100808354040283529160200191611fa6565b820191906000526020600020905b815481529060010190602001808311611f8957829003601f168201915b50505050509450818054600181600116156101000203166002900480601f0160208091040260200160405190810160405280929190818152602001828054600181600116156101000203166002900480156120425780601f1061201757610100808354040283529160200191612042565b820191906000526020600020905b81548152906001019060200180831161202557829003601f168201915b50505050509150965096509650965096509650965061205d565b5b919395979092949650565b606060008054806020026020016040519081016040528092919081815260200182805480156120b657602002820191906000526020600020905b8154815260200190600101908083116120a2575b5050505050905090565b3373ffffffffffffffffffffffffffffffffffffffff166001600083815260200190815260200160002060040160009054906101000a900473ffffffffffffffffffffffffffffffffffffffff1673ffffffffffffffffffffffffffffffffffffffff161461212e57600080fd5b600180600083815260200190815260200160002060070160006101000a81548160ff02191690831515021790555050565b3373ffffffffffffffffffffffffffffffffffffffff166001600084815260200190815260200160002060040160009054906101000a900473ffffffffffffffffffffffffffffffffffffffff1673ffffffffffffffffffffffffffffffffffffffff16146121cd57600080fd5b806001600084815260200190815260200160002060070160156101000a81548160ff021916908360038111156121ff57fe5b02179055506002600381111561221157fe5b81600381111561221d57fe5b14156122b25760006001600084815260200190815260200160002060070160016101000a81548173ffffffffffffffffffffffffffffffffffffffff021916908373ffffffffffffffffffffffffffffffffffffffff16021790555060006001600084815260200190815260200160002060070160156101000a81548160ff021916908360038111156122ac57fe5b02179055505b5050565b60006122c28284611bac565b9050600460008473ffffffffffffffffffffffffffffffffffffffff1673ffffffffffffffffffffffffffffffffffffffff1681526020019081526020016000206000016001600460008673ffffffffffffffffffffffffffffffffffffffff1673ffffffffffffffffffffffffffffffffffffffff16815260200190815260200160002060000180549050038154811061235957fe5b9060005260206000200154600460008573ffffffffffffffffffffffffffffffffffffffff1673ffffffffffffffffffffffffffffffffffffffff16815260200190815260200160002060000182815481106123b157fe5b9060005260206000200181905550600460008473ffffffffffffffffffffffffffffffffffffffff1673ffffffffffffffffffffffffffffffffffffffff1681526020019081526020016000206000016001600460008673ffffffffffffffffffffffffffffffffffffffff1673ffffffffffffffffffffffffffffffffffffffff16815260200190815260200160002060000180549050038154811061245457fe5b9060005260206000200160009055600460008473ffffffffffffffffffffffffffffffffffffffff1673ffffffffffffffffffffffffffffffffffffffff1681526020019081526020016000206000018054809190600190036124b7919061253d565b50505050565b828054600181600116156101000203166002900490600052602060002090601f016020900481019282601f106124fe57805160ff191683800117855561252c565b8280016001018555821561252c579182015b8281111561252b578251825591602001919060010190612510565b5b5090506125399190612569565b5090565b815481835581811115612564578183600052602060002091820191016125639190612569565b5b505050565b61258b91905b8082111561258757600081600090555060010161256f565b5090565b9056fea265627a7a72315820fcc813d12391baa53059d46892453eb2350a766a2833a891ddce84689d0331eb64736f6c63430005100032",
  "source": "pragma solidity >=0.4.0 <0.6.0;\r\n\r\n//Land Details\r\ncontract Land{\r\n\r\n    struct landDetails{\r\n        string state;\r\n        string district;\r\n        string village;\r\n        uint256 surveyNumber;\r\n        address payable CurrentOwner;\r\n        uint marketValue;\r\n        string measurement;\r\n        bool isAvailable;\r\n        address requester;\r\n        reqStatus requestStatus;\r\n\r\n    }\r\n    \r\n    uint[] public propertiesIDs;\r\n\r\n    //request status\r\n    enum reqStatus {Default,pending,reject,approved}\r\n\r\n\r\n\r\n    //profile of a client\r\n    struct profiles{\r\n        uint[] assetList;   \r\n        }\r\n\r\n \r\n    mapping(uint => landDetails) land;\r\n    address owner;\r\n    mapping(string => address) superAdmin;\r\n    mapping(address => profiles) profile;\r\n    \r\n    //contract owner\r\n    constructor() public{\r\n        owner = msg.sender;\r\n    }\r\n    modifier onlyOwner {\r\n        require(msg.sender == owner);\r\n        _;\r\n    }\r\n    \r\n    //adding village admins\r\n    function addSuperAdmin(address _superAdmin,string memory _village ) onlyOwner public {\r\n        superAdmin[_village]=_superAdmin;\r\n    }\r\n    //Registration of land details.\r\n    function Registration(string memory _state,string memory _district,\r\n        string memory _village,uint256 _surveyNumber,\r\n        address payable _OwnerAddress,uint _marketValue,uint id, string memory _measurement\r\n        ) public returns(bool) {\r\n        require(superAdmin[_village] == msg.sender || owner == msg.sender);\r\n        land[id].state = _state;\r\n        land[id].district = _district;\r\n        land[id].village = _village;\r\n        land[id].surveyNumber = _surveyNumber;\r\n        land[id].CurrentOwner = _OwnerAddress;\r\n        land[id].marketValue = _marketValue;\r\n        land[id].measurement = _measurement;\r\n        profile[_OwnerAddress].assetList.push(id);\r\n        propertiesIDs.push(id);\r\n        return true;\r\n    }\r\n    //to view details of land for the owner\r\n    function landInfoOwner(uint id) public view returns(string memory,string memory,string memory,uint256,bool,uint,string memory){\r\n        return(land[id].state,land[id].district,land[id].village,land[id].surveyNumber,land[id].isAvailable,land[id].marketValue,land[id].measurement);\r\n    }\r\n        //to view details of land for the buyer\r\n        function landInfoUser(uint id) public view returns(address,uint,bool,address,reqStatus){\r\n        return(land[id].CurrentOwner,land[id].marketValue,land[id].isAvailable,land[id].requester,land[id].requestStatus);\r\n    }\r\n\r\n    // to compute id for a land.\r\n    function computeId(string memory _state,string memory _district,string memory _village,uint _surveyNumber) public view returns(uint){\r\n        return uint(keccak256(abi.encodePacked(_state,_district,_village,_surveyNumber)))%10000000000000;\r\n    }\r\n\r\n    //push a request to the land owner\r\n    function requstToLandOwner(uint id) public {\r\n        require(land[id].isAvailable);\r\n        land[id].requester=msg.sender;\r\n        land[id].isAvailable=false;\r\n        land[id].requestStatus = reqStatus.pending; //changes the status to pending.\r\n    }\r\n    //will show assets of the function caller \r\n    function viewAssets()public view returns(uint[] memory){\r\n        return (profile[msg.sender].assetList);\r\n    }\r\n    //viewing request for the lands\r\n    function viewRequest(uint property)public view returns(address){\r\n        return(land[property].requester);\r\n    }\r\n    //processing request for the land by accepting or rejecting\r\n    function processRequest(uint property,reqStatus status)public {\r\n        require(land[property].CurrentOwner == msg.sender);\r\n        land[property].requestStatus=status;\r\n        if(status == reqStatus.reject){\r\n            land[property].requester = address(0);\r\n            land[property].requestStatus = reqStatus.Default;\r\n        }\r\n    }\r\n    //availing land for sale.\r\n    function makeAvailable(uint property)public{\r\n        require(land[property].CurrentOwner == msg.sender);\r\n        land[property].isAvailable=true;\r\n    }\r\n\r\n    \r\n    // Get all the lands ids.\r\n\t function getAllLands() view public returns (uint[] memory) {\r\n\t     return (propertiesIDs);\r\n\t }\r\n\t \r\n    \r\n    // show marked Available\r\n    function viewMarkded(uint id) public view returns(string memory, address ,string memory, bool, uint,string memory, uint){\r\n        if(land[id].isAvailable){\r\n            return(land[id].state,land[id].CurrentOwner,land[id].district,land[id].isAvailable,land[id].marketValue,land[id].measurement,id);\r\n        }\r\n    }\r\n    \r\n\r\n\r\n\r\n    //buying the approved property\r\n    function buyProperty(uint property)public payable{\r\n        require(land[property].requestStatus == reqStatus.approved);\r\n        require(msg.value >= (land[property].marketValue+((land[property].marketValue)/10)));\r\n        land[property].CurrentOwner.transfer(land[property].marketValue);\r\n        removeOwnership(land[property].CurrentOwner,property);\r\n        land[property].CurrentOwner=msg.sender;\r\n        land[property].isAvailable=false;\r\n        land[property].requester = address(0);\r\n        land[property].requestStatus = reqStatus.Default;\r\n        profile[msg.sender].assetList.push(property); //adds the property to the asset list of the new owner.\r\n        \r\n    }\r\n    //removing the ownership of seller for the land. and it is called by the buyProperty function\r\n    function removeOwnership(address previousOwner,uint id)private{\r\n        uint index = findId(id,previousOwner);\r\n        profile[previousOwner].assetList[index]=profile[previousOwner].assetList[profile[previousOwner].assetList.length-1];\r\n        delete profile[previousOwner].assetList[profile[previousOwner].assetList.length-1];\r\n        profile[previousOwner].assetList.length--;\r\n    }\r\n    //for finding the index of a perticular id\r\n    function findId(uint id,address user)public view returns(uint){\r\n        uint i;\r\n        for(i=0;i<profile[user].assetList.length;i++){\r\n            if(profile[user].assetList[i] == id)\r\n                return i;\r\n        }\r\n        return i;\r\n    }\r\n}",
  "sourcePath": "D:/Blockchain/Template/landrecord/land-records-blockchain/contracts/Land.sol",
  "compiler": {
    "name": "solc",
    "version": "0.5.16+commit.9c3226ce.Emscripten.clang"
  },
  "schemaVersion": "3.4.1",
  "updatedAt": "2021-07-08T11:06:57.080Z",
  "networkType": "ethereum",
  "devdoc": {
    "methods": {}
  },
  "userdoc": {
    "methods": {}
  }
}