{
  "contractName": "Land",
  "abi": [
    {
      "inputs": [],
      "payable": false,
      "stateMutability": "nonpayable",
      "type": "constructor"
    },
    {
      "constant": false,
      "inputs": [
        {
          "internalType": "address",
          "name": "_address",
          "type": "address"
        }
      ],
      "name": "checkIsAdminLogged",
      "outputs": [
        {
          "internalType": "bool",
          "name": "",
          "type": "bool"
        },
        {
          "internalType": "string",
          "name": "",
          "type": "string"
        },
        {
          "internalType": "string",
          "name": "",
          "type": "string"
        }
      ],
      "payable": false,
      "stateMutability": "nonpayable",
      "type": "function"
    },
    {
      "constant": false,
      "inputs": [
        {
          "internalType": "address",
          "name": "_address",
          "type": "address"
        }
      ],
      "name": "checkIsUserLogged",
      "outputs": [
        {
          "internalType": "bool",
          "name": "",
          "type": "bool"
        },
        {
          "internalType": "string",
          "name": "",
          "type": "string"
        },
        {
          "internalType": "string",
          "name": "",
          "type": "string"
        }
      ],
      "payable": false,
      "stateMutability": "nonpayable",
      "type": "function"
    },
    {
      "constant": false,
      "inputs": [
        {
          "internalType": "address",
          "name": "_address",
          "type": "address"
        }
      ],
      "name": "getAdminBalance",
      "outputs": [
        {
          "internalType": "uint256",
          "name": "",
          "type": "uint256"
        }
      ],
      "payable": false,
      "stateMutability": "nonpayable",
      "type": "function"
    },
    {
      "constant": false,
      "inputs": [
        {
          "internalType": "address",
          "name": "_address",
          "type": "address"
        }
      ],
      "name": "getAdminIpfsImageHash",
      "outputs": [
        {
          "internalType": "string",
          "name": "",
          "type": "string"
        }
      ],
      "payable": false,
      "stateMutability": "nonpayable",
      "type": "function"
    },
    {
      "constant": false,
      "inputs": [
        {
          "internalType": "address",
          "name": "_address",
          "type": "address"
        }
      ],
      "name": "getUserBalance",
      "outputs": [
        {
          "internalType": "uint256",
          "name": "",
          "type": "uint256"
        }
      ],
      "payable": false,
      "stateMutability": "nonpayable",
      "type": "function"
    },
    {
      "constant": false,
      "inputs": [
        {
          "internalType": "address",
          "name": "_address",
          "type": "address"
        }
      ],
      "name": "getUserIpfsImageHash",
      "outputs": [
        {
          "internalType": "string",
          "name": "",
          "type": "string"
        }
      ],
      "payable": false,
      "stateMutability": "nonpayable",
      "type": "function"
    },
    {
      "constant": false,
      "inputs": [
        {
          "internalType": "address",
          "name": "_address",
          "type": "address"
        }
      ],
      "name": "getUserName",
      "outputs": [
        {
          "internalType": "string",
          "name": "",
          "type": "string"
        }
      ],
      "payable": false,
      "stateMutability": "nonpayable",
      "type": "function"
    },
    {
      "constant": false,
      "inputs": [
        {
          "internalType": "address",
          "name": "_address",
          "type": "address"
        },
        {
          "internalType": "string",
          "name": "_password",
          "type": "string"
        }
      ],
      "name": "loginAdmin",
      "outputs": [
        {
          "internalType": "bool",
          "name": "",
          "type": "bool"
        }
      ],
      "payable": false,
      "stateMutability": "nonpayable",
      "type": "function"
    },
    {
      "constant": false,
      "inputs": [
        {
          "internalType": "address",
          "name": "_address",
          "type": "address"
        },
        {
          "internalType": "string",
          "name": "_password",
          "type": "string"
        }
      ],
      "name": "loginUser",
      "outputs": [
        {
          "internalType": "bool",
          "name": "",
          "type": "bool"
        }
      ],
      "payable": false,
      "stateMutability": "nonpayable",
      "type": "function"
    },
    {
      "constant": false,
      "inputs": [
        {
          "internalType": "address",
          "name": "_address",
          "type": "address"
        }
      ],
      "name": "logoutAdmin",
      "outputs": [],
      "payable": false,
      "stateMutability": "nonpayable",
      "type": "function"
    },
    {
      "constant": false,
      "inputs": [
        {
          "internalType": "address",
          "name": "_address",
          "type": "address"
        }
      ],
      "name": "logoutUser",
      "outputs": [],
      "payable": false,
      "stateMutability": "nonpayable",
      "type": "function"
    },
    {
      "constant": true,
      "inputs": [
        {
          "internalType": "uint256",
          "name": "",
          "type": "uint256"
        }
      ],
      "name": "propertiesIDs",
      "outputs": [
        {
          "internalType": "uint256",
          "name": "",
          "type": "uint256"
        }
      ],
      "payable": false,
      "stateMutability": "view",
      "type": "function"
    },
    {
      "constant": false,
      "inputs": [
        {
          "internalType": "address",
          "name": "_address",
          "type": "address"
        },
        {
          "internalType": "string",
          "name": "_name",
          "type": "string"
        },
        {
          "internalType": "string",
          "name": "_password",
          "type": "string"
        }
      ],
      "name": "registerAdmin",
      "outputs": [
        {
          "internalType": "bool",
          "name": "",
          "type": "bool"
        }
      ],
      "payable": false,
      "stateMutability": "nonpayable",
      "type": "function"
    },
    {
      "constant": false,
      "inputs": [
        {
          "internalType": "address",
          "name": "_address",
          "type": "address"
        },
        {
          "internalType": "string",
          "name": "_name",
          "type": "string"
        },
        {
          "internalType": "string",
          "name": "_password",
          "type": "string"
        },
        {
          "internalType": "string",
          "name": "_cnic",
          "type": "string"
        }
      ],
      "name": "registerUser",
      "outputs": [
        {
          "internalType": "bool",
          "name": "",
          "type": "bool"
        }
      ],
      "payable": false,
      "stateMutability": "nonpayable",
      "type": "function"
    },
    {
      "constant": false,
      "inputs": [
        {
          "internalType": "address",
          "name": "_address",
          "type": "address"
        },
        {
          "internalType": "string",
          "name": "_ipfsImageHash",
          "type": "string"
        }
      ],
      "name": "setAdminIpfsImageHash",
      "outputs": [
        {
          "internalType": "bool",
          "name": "",
          "type": "bool"
        }
      ],
      "payable": false,
      "stateMutability": "nonpayable",
      "type": "function"
    },
    {
      "constant": false,
      "inputs": [
        {
          "internalType": "address",
          "name": "_address",
          "type": "address"
        },
        {
          "internalType": "string",
          "name": "_ipfsImageHash",
          "type": "string"
        }
      ],
      "name": "setUserIpfsImageHash",
      "outputs": [
        {
          "internalType": "bool",
          "name": "",
          "type": "bool"
        }
      ],
      "payable": false,
      "stateMutability": "nonpayable",
      "type": "function"
    },
    {
      "constant": false,
      "inputs": [
        {
          "internalType": "address",
          "name": "_superAdmin",
          "type": "address"
        },
        {
          "internalType": "string",
          "name": "_village",
          "type": "string"
        }
      ],
      "name": "addSuperAdmin",
      "outputs": [],
      "payable": false,
      "stateMutability": "nonpayable",
      "type": "function"
    },
    {
      "constant": false,
      "inputs": [
        {
          "internalType": "string",
          "name": "_state",
          "type": "string"
        },
        {
          "internalType": "string",
          "name": "_district",
          "type": "string"
        },
        {
          "internalType": "string",
          "name": "_villageTown",
          "type": "string"
        },
        {
          "internalType": "uint256",
          "name": "_khataNumber",
          "type": "uint256"
        },
        {
          "internalType": "uint256",
          "name": "_khatooniNumber",
          "type": "uint256"
        },
        {
          "internalType": "address payable",
          "name": "_OwnerAddress",
          "type": "address"
        },
        {
          "internalType": "string",
          "name": "_ownerName",
          "type": "string"
        },
        {
          "internalType": "address",
          "name": "_previousOwner",
          "type": "address"
        },
        {
          "internalType": "uint256",
          "name": "_marketValue",
          "type": "uint256"
        },
        {
          "internalType": "uint256",
          "name": "id",
          "type": "uint256"
        },
        {
          "internalType": "string",
          "name": "_squareFoots",
          "type": "string"
        },
        {
          "internalType": "string",
          "name": "_inches",
          "type": "string"
        },
        {
          "internalType": "string",
          "name": "_landType",
          "type": "string"
        },
        {
          "internalType": "address",
          "name": "_createByGovt",
          "type": "address"
        }
      ],
      "name": "Registration",
      "outputs": [
        {
          "internalType": "bool",
          "name": "",
          "type": "bool"
        }
      ],
      "payable": false,
      "stateMutability": "nonpayable",
      "type": "function"
    },
    {
      "constant": false,
      "inputs": [
        {
          "internalType": "string",
          "name": "_lat",
          "type": "string"
        },
        {
          "internalType": "string",
          "name": "_lng",
          "type": "string"
        },
        {
          "internalType": "string",
          "name": "_north",
          "type": "string"
        },
        {
          "internalType": "string",
          "name": "_south",
          "type": "string"
        },
        {
          "internalType": "string",
          "name": "_east",
          "type": "string"
        },
        {
          "internalType": "string",
          "name": "_west",
          "type": "string"
        },
        {
          "internalType": "uint256",
          "name": "id",
          "type": "uint256"
        }
      ],
      "name": "registerLandPolyline",
      "outputs": [
        {
          "internalType": "bool",
          "name": "",
          "type": "bool"
        }
      ],
      "payable": false,
      "stateMutability": "nonpayable",
      "type": "function"
    },
    {
      "constant": true,
      "inputs": [
        {
          "internalType": "uint256",
          "name": "id",
          "type": "uint256"
        }
      ],
      "name": "landInfoOwner",
      "outputs": [
        {
          "internalType": "string",
          "name": "",
          "type": "string"
        },
        {
          "internalType": "string",
          "name": "",
          "type": "string"
        },
        {
          "internalType": "string",
          "name": "",
          "type": "string"
        },
        {
          "internalType": "bool",
          "name": "",
          "type": "bool"
        },
        {
          "internalType": "uint256",
          "name": "",
          "type": "uint256"
        },
        {
          "internalType": "string",
          "name": "",
          "type": "string"
        },
        {
          "internalType": "string",
          "name": "",
          "type": "string"
        }
      ],
      "payable": false,
      "stateMutability": "view",
      "type": "function"
    },
    {
      "constant": true,
      "inputs": [
        {
          "internalType": "uint256",
          "name": "id",
          "type": "uint256"
        }
      ],
      "name": "remainingDetail",
      "outputs": [
        {
          "internalType": "address",
          "name": "",
          "type": "address"
        },
        {
          "internalType": "address",
          "name": "",
          "type": "address"
        },
        {
          "internalType": "address",
          "name": "",
          "type": "address"
        },
        {
          "internalType": "uint256",
          "name": "",
          "type": "uint256"
        },
        {
          "internalType": "uint256",
          "name": "",
          "type": "uint256"
        },
        {
          "internalType": "string",
          "name": "",
          "type": "string"
        }
      ],
      "payable": false,
      "stateMutability": "view",
      "type": "function"
    },
    {
      "constant": true,
      "inputs": [
        {
          "internalType": "uint256",
          "name": "id",
          "type": "uint256"
        }
      ],
      "name": "remainingMoreDetail",
      "outputs": [
        {
          "internalType": "string",
          "name": "",
          "type": "string"
        },
        {
          "internalType": "string",
          "name": "",
          "type": "string"
        },
        {
          "internalType": "string",
          "name": "",
          "type": "string"
        },
        {
          "internalType": "string",
          "name": "",
          "type": "string"
        },
        {
          "internalType": "string",
          "name": "",
          "type": "string"
        },
        {
          "internalType": "string",
          "name": "",
          "type": "string"
        },
        {
          "internalType": "string",
          "name": "",
          "type": "string"
        }
      ],
      "payable": false,
      "stateMutability": "view",
      "type": "function"
    },
    {
      "constant": true,
      "inputs": [
        {
          "internalType": "uint256",
          "name": "id",
          "type": "uint256"
        }
      ],
      "name": "showAllLands",
      "outputs": [
        {
          "internalType": "address",
          "name": "",
          "type": "address"
        },
        {
          "internalType": "string",
          "name": "",
          "type": "string"
        },
        {
          "internalType": "string",
          "name": "",
          "type": "string"
        },
        {
          "internalType": "string",
          "name": "",
          "type": "string"
        },
        {
          "internalType": "uint256",
          "name": "",
          "type": "uint256"
        },
        {
          "internalType": "string",
          "name": "",
          "type": "string"
        },
        {
          "internalType": "string",
          "name": "",
          "type": "string"
        }
      ],
      "payable": false,
      "stateMutability": "view",
      "type": "function"
    },
    {
      "constant": true,
      "inputs": [
        {
          "internalType": "uint256",
          "name": "id",
          "type": "uint256"
        }
      ],
      "name": "landInfoUser",
      "outputs": [
        {
          "internalType": "address",
          "name": "",
          "type": "address"
        },
        {
          "internalType": "uint256",
          "name": "",
          "type": "uint256"
        },
        {
          "internalType": "bool",
          "name": "",
          "type": "bool"
        },
        {
          "internalType": "address",
          "name": "",
          "type": "address"
        },
        {
          "internalType": "enum Land.reqStatus",
          "name": "",
          "type": "uint8"
        },
        {
          "internalType": "uint256",
          "name": "",
          "type": "uint256"
        },
        {
          "internalType": "uint256",
          "name": "",
          "type": "uint256"
        }
      ],
      "payable": false,
      "stateMutability": "view",
      "type": "function"
    },
    {
      "constant": true,
      "inputs": [
        {
          "internalType": "string",
          "name": "_state",
          "type": "string"
        },
        {
          "internalType": "string",
          "name": "_district",
          "type": "string"
        },
        {
          "internalType": "string",
          "name": "_village",
          "type": "string"
        },
        {
          "internalType": "uint256",
          "name": "_surveyNumber",
          "type": "uint256"
        }
      ],
      "name": "computeId",
      "outputs": [
        {
          "internalType": "uint256",
          "name": "",
          "type": "uint256"
        }
      ],
      "payable": false,
      "stateMutability": "view",
      "type": "function"
    },
    {
      "constant": false,
      "inputs": [
        {
          "internalType": "uint256",
          "name": "id",
          "type": "uint256"
        }
      ],
      "name": "requstToLandOwner",
      "outputs": [],
      "payable": false,
      "stateMutability": "nonpayable",
      "type": "function"
    },
    {
      "constant": true,
      "inputs": [],
      "name": "viewAssets",
      "outputs": [
        {
          "internalType": "uint256[]",
          "name": "",
          "type": "uint256[]"
        }
      ],
      "payable": false,
      "stateMutability": "view",
      "type": "function"
    },
    {
      "constant": true,
      "inputs": [
        {
          "internalType": "uint256",
          "name": "property",
          "type": "uint256"
        }
      ],
      "name": "viewRequest",
      "outputs": [
        {
          "internalType": "address",
          "name": "",
          "type": "address"
        }
      ],
      "payable": false,
      "stateMutability": "view",
      "type": "function"
    },
    {
      "constant": false,
      "inputs": [
        {
          "internalType": "uint256",
          "name": "property",
          "type": "uint256"
        }
      ],
      "name": "markAvailable",
      "outputs": [],
      "payable": false,
      "stateMutability": "nonpayable",
      "type": "function"
    },
    {
      "constant": false,
      "inputs": [
        {
          "internalType": "uint256",
          "name": "property",
          "type": "uint256"
        }
      ],
      "name": "unMarkLand",
      "outputs": [],
      "payable": false,
      "stateMutability": "nonpayable",
      "type": "function"
    },
    {
      "constant": true,
      "inputs": [
        {
          "internalType": "uint256",
          "name": "id",
          "type": "uint256"
        }
      ],
      "name": "showMarketValue",
      "outputs": [
        {
          "internalType": "uint256",
          "name": "",
          "type": "uint256"
        }
      ],
      "payable": false,
      "stateMutability": "view",
      "type": "function"
    },
    {
      "constant": false,
      "inputs": [
        {
          "internalType": "uint256",
          "name": "property",
          "type": "uint256"
        },
        {
          "internalType": "uint256",
          "name": "_marketValue",
          "type": "uint256"
        }
      ],
      "name": "changeMarketValue",
      "outputs": [],
      "payable": false,
      "stateMutability": "nonpayable",
      "type": "function"
    },
    {
      "constant": true,
      "inputs": [],
      "name": "getAllLands",
      "outputs": [
        {
          "internalType": "uint256[]",
          "name": "",
          "type": "uint256[]"
        }
      ],
      "payable": false,
      "stateMutability": "view",
      "type": "function"
    },
    {
      "constant": true,
      "inputs": [
        {
          "internalType": "uint256",
          "name": "id",
          "type": "uint256"
        }
      ],
      "name": "viewMarkded",
      "outputs": [
        {
          "internalType": "string",
          "name": "",
          "type": "string"
        },
        {
          "internalType": "address",
          "name": "",
          "type": "address"
        },
        {
          "internalType": "string",
          "name": "",
          "type": "string"
        },
        {
          "internalType": "bool",
          "name": "",
          "type": "bool"
        },
        {
          "internalType": "uint256",
          "name": "",
          "type": "uint256"
        },
        {
          "internalType": "string",
          "name": "",
          "type": "string"
        },
        {
          "internalType": "uint256",
          "name": "",
          "type": "uint256"
        }
      ],
      "payable": false,
      "stateMutability": "view",
      "type": "function"
    },
    {
      "constant": true,
      "inputs": [
        {
          "internalType": "uint256",
          "name": "id",
          "type": "uint256"
        }
      ],
      "name": "viewMarkdedRemainingData",
      "outputs": [
        {
          "internalType": "string",
          "name": "",
          "type": "string"
        },
        {
          "internalType": "uint256",
          "name": "",
          "type": "uint256"
        },
        {
          "internalType": "uint256",
          "name": "",
          "type": "uint256"
        },
        {
          "internalType": "string",
          "name": "",
          "type": "string"
        }
      ],
      "payable": false,
      "stateMutability": "view",
      "type": "function"
    },
    {
      "constant": false,
      "inputs": [
        {
          "internalType": "uint256",
          "name": "property",
          "type": "uint256"
        },
        {
          "internalType": "enum Land.reqStatus",
          "name": "status",
          "type": "uint8"
        }
      ],
      "name": "processRequest",
      "outputs": [],
      "payable": false,
      "stateMutability": "nonpayable",
      "type": "function"
    },
    {
      "constant": false,
      "inputs": [
        {
          "internalType": "uint256",
          "name": "property",
          "type": "uint256"
        }
      ],
      "name": "buyProperty",
      "outputs": [],
      "payable": true,
      "stateMutability": "payable",
      "type": "function"
    },
    {
      "constant": true,
      "inputs": [
        {
          "internalType": "uint256",
          "name": "id",
          "type": "uint256"
        },
        {
          "internalType": "address",
          "name": "user",
          "type": "address"
        }
      ],
      "name": "findId",
      "outputs": [
        {
          "internalType": "uint256",
          "name": "",
          "type": "uint256"
        }
      ],
      "payable": false,
      "stateMutability": "view",
      "type": "function"
    }
  ],
  "bytecode": "0x608060405234801561001057600080fd5b5060028054336001600160a01b03199182168117909255600580549091169091179055614855806100426000396000f3fe6080604052600436106102855760003560e01c806361735a49116101535780639d01485f116100cb578063d84f55ee1161007f578063deec6b4e11610064578063deec6b4e14611fbe578063fdb10f5014612110578063fe69c2961461214357610285565b8063d84f55ee14611e90578063ddc40e7e14611ec357610285565b8063ab05bae6116100b0578063ab05bae614611c1a578063ad14224214611cdb578063b7b6e54314611e7b57610285565b80639d01485f14611b41578063a27664ee14611be157610285565b80636fa830a61161012257806385be96e11161010757806385be96e114611aba57806394e504d214611ae457806398711c1714611b0e57610285565b80636fa830a6146117945780637ec0bd18146117b157610285565b806361735a491461164c578063645cf80f1461167657806367a53654146116a95780636c5ed9391461176a57610285565b806326e85250116102015780634ad407a3116101b5578063589cdaa41161019a578063589cdaa4146111b7578063599bf236146111ea5780635c3aad081461153657610285565b80634ad407a314610e2557806355d6195214610f6b57610285565b80632d9b3bf5116101e65780632d9b3bf514610c70578063434917af14610d315780634773489214610df257610285565b806326e8525014610b0e578063297f7b3914610b5457610285565b8063128c9f01116102585780631c1b3e171161023d5780631c1b3e17146105165780631d50a6c4146109275780632416faf114610ae457610285565b8063128c9f011461042957806316caeb771461046e57610285565b806303bdb46b1461028a57806304ef280c1461035f57806309df5060146103915780630d2d5dca146103c4575b600080fd5b34801561029657600080fd5b5061034b600480360360408110156102ad57600080fd5b6001600160a01b038235169190810190604081016020820135600160201b8111156102d757600080fd5b8201836020820111156102e957600080fd5b803590602001918460018302840111600160201b8311171561030a57600080fd5b91908080601f01602080910402602001604051908101604052809392919081815260200183838082843760009201919091525092955061230e945050505050565b604080519115158252519081900360200190f35b34801561036b57600080fd5b5061038f6004803603604081101561038257600080fd5b508035906020013561249e565b005b34801561039d57600080fd5b5061038f600480360360208110156103b457600080fd5b50356001600160a01b03166124c5565b3480156103d057600080fd5b506103d9612527565b60408051602080825283518183015283519192839290830191858101910280838360005b838110156104155781810151838201526020016103fd565b505050509050019250505060405180910390f35b34801561043557600080fd5b5061045c6004803603602081101561044c57600080fd5b50356001600160a01b0316612589565b60408051918252519081900360200190f35b34801561047a57600080fd5b506104a16004803603602081101561049157600080fd5b50356001600160a01b03166125c3565b6040805160208082528351818301528351919283929083019185019080838360005b838110156104db5781810151838201526020016104c3565b50505050905090810190601f1680156105085780820380516001836020036101000a031916815260200191505b509250505060405180910390f35b34801561052257600080fd5b5061034b60048036036101c081101561053a57600080fd5b810190602081018135600160201b81111561055457600080fd5b82018360208201111561056657600080fd5b803590602001918460018302840111600160201b8311171561058757600080fd5b91908080601f0160208091040260200160405190810160405280939291908181526020018383808284376000920191909152509295949360208101935035915050600160201b8111156105d957600080fd5b8201836020820111156105eb57600080fd5b803590602001918460018302840111600160201b8311171561060c57600080fd5b91908080601f0160208091040260200160405190810160405280939291908181526020018383808284376000920191909152509295949360208101935035915050600160201b81111561065e57600080fd5b82018360208201111561067057600080fd5b803590602001918460018302840111600160201b8311171561069157600080fd5b91908080601f01602080910402602001604051908101604052809392919081815260200183838082843760009201919091525092958435956020860135956001600160a01b0360408201351695509193509150608081019060600135600160201b8111156106fe57600080fd5b82018360208201111561071057600080fd5b803590602001918460018302840111600160201b8311171561073157600080fd5b91908080601f01602080910402602001604051908101604052809392919081815260200183838082843760009201919091525092956001600160a01b0385351695602086013595604081013595509193509150608081019060600135600160201b81111561079e57600080fd5b8201836020820111156107b057600080fd5b803590602001918460018302840111600160201b831117156107d157600080fd5b91908080601f0160208091040260200160405190810160405280939291908181526020018383808284376000920191909152509295949360208101935035915050600160201b81111561082357600080fd5b82018360208201111561083557600080fd5b803590602001918460018302840111600160201b8311171561085657600080fd5b91908080601f0160208091040260200160405190810160405280939291908181526020018383808284376000920191909152509295949360208101935035915050600160201b8111156108a857600080fd5b8201836020820111156108ba57600080fd5b803590602001918460018302840111600160201b831117156108db57600080fd5b91908080601f016020809104026020016040519081016040528093929190818152602001838380828437600092019190915250929550505090356001600160a01b031691506126889050565b34801561093357600080fd5b5061045c6004803603608081101561094a57600080fd5b810190602081018135600160201b81111561096457600080fd5b82018360208201111561097657600080fd5b803590602001918460018302840111600160201b8311171561099757600080fd5b91908080601f0160208091040260200160405190810160405280939291908181526020018383808284376000920191909152509295949360208101935035915050600160201b8111156109e957600080fd5b8201836020820111156109fb57600080fd5b803590602001918460018302840111600160201b83111715610a1c57600080fd5b91908080601f0160208091040260200160405190810160405280939291908181526020018383808284376000920191909152509295949360208101935035915050600160201b811115610a6e57600080fd5b820183602082011115610a8057600080fd5b803590602001918460018302840111600160201b83111715610aa157600080fd5b91908080601f016020809104026020016040519081016040528093929190818152602001838380828437600092019190915250929550509135925061291c915050565b348015610af057600080fd5b5061038f60048036036020811015610b0757600080fd5b5035612a39565b348015610b1a57600080fd5b50610b3860048036036020811015610b3157600080fd5b5035612a83565b604080516001600160a01b039092168252519081900360200190f35b348015610b6057600080fd5b50610b8760048036036020811015610b7757600080fd5b50356001600160a01b0316612aa1565b60405180841515151581526020018060200180602001838103835285818151815260200191508051906020019080838360005b83811015610bd2578181015183820152602001610bba565b50505050905090810190601f168015610bff5780820380516001836020036101000a031916815260200191505b50838103825284518152845160209182019186019080838360005b83811015610c32578181015183820152602001610c1a565b50505050905090810190601f168015610c5f5780820380516001836020036101000a031916815260200191505b509550505050505060405180910390f35b348015610c7c57600080fd5b5061034b60048036036040811015610c9357600080fd5b6001600160a01b038235169190810190604081016020820135600160201b811115610cbd57600080fd5b820183602082011115610ccf57600080fd5b803590602001918460018302840111600160201b83111715610cf057600080fd5b91908080601f016020809104026020016040519081016040528093929190818152602001838380828437600092019190915250929550612c39945050505050565b348015610d3d57600080fd5b5061034b60048036036040811015610d5457600080fd5b6001600160a01b038235169190810190604081016020820135600160201b811115610d7e57600080fd5b820183602082011115610d9057600080fd5b803590602001918460018302840111600160201b83111715610db157600080fd5b91908080601f016020809104026020016040519081016040528093929190818152602001838380828437600092019190915250929550612cb1945050505050565b348015610dfe57600080fd5b5061045c60048036036020811015610e1557600080fd5b50356001600160a01b0316612e14565b348015610e3157600080fd5b5061034b60048036036060811015610e4857600080fd5b6001600160a01b038235169190810190604081016020820135600160201b811115610e7257600080fd5b820183602082011115610e8457600080fd5b803590602001918460018302840111600160201b83111715610ea557600080fd5b91908080601f0160208091040260200160405190810160405280939291908181526020018383808284376000920191909152509295949360208101935035915050600160201b811115610ef757600080fd5b820183602082011115610f0957600080fd5b803590602001918460018302840111600160201b83111715610f2a57600080fd5b91908080601f016020809104026020016040519081016040528093929190818152602001838380828437600092019190915250929550612e75945050505050565b348015610f7757600080fd5b50610f9560048036036020811015610f8e57600080fd5b5035612f50565b6040518080602001806020018060200188151515158152602001878152602001806020018060200186810386528d818151815260200191508051906020019080838360005b83811015610ff2578181015183820152602001610fda565b50505050905090810190601f16801561101f5780820380516001836020036101000a031916815260200191505b5086810385528c5181528c516020918201918e019080838360005b8381101561105257818101518382015260200161103a565b50505050905090810190601f16801561107f5780820380516001836020036101000a031916815260200191505b5086810384528b5181528b516020918201918d019080838360005b838110156110b257818101518382015260200161109a565b50505050905090810190601f1680156110df5780820380516001836020036101000a031916815260200191505b5086810383528851815288516020918201918a019080838360005b838110156111125781810151838201526020016110fa565b50505050905090810190601f16801561113f5780820380516001836020036101000a031916815260200191505b50868103825287518152875160209182019189019080838360005b8381101561117257818101518382015260200161115a565b50505050905090810190601f16801561119f5780820380516001836020036101000a031916815260200191505b509c5050505050505050505050505060405180910390f35b3480156111c357600080fd5b506104a1600480360360208110156111da57600080fd5b50356001600160a01b0316613278565b3480156111f657600080fd5b5061034b600480360360e081101561120d57600080fd5b810190602081018135600160201b81111561122757600080fd5b82018360208201111561123957600080fd5b803590602001918460018302840111600160201b8311171561125a57600080fd5b91908080601f0160208091040260200160405190810160405280939291908181526020018383808284376000920191909152509295949360208101935035915050600160201b8111156112ac57600080fd5b8201836020820111156112be57600080fd5b803590602001918460018302840111600160201b831117156112df57600080fd5b91908080601f0160208091040260200160405190810160405280939291908181526020018383808284376000920191909152509295949360208101935035915050600160201b81111561133157600080fd5b82018360208201111561134357600080fd5b803590602001918460018302840111600160201b8311171561136457600080fd5b91908080601f0160208091040260200160405190810160405280939291908181526020018383808284376000920191909152509295949360208101935035915050600160201b8111156113b657600080fd5b8201836020820111156113c857600080fd5b803590602001918460018302840111600160201b831117156113e957600080fd5b91908080601f0160208091040260200160405190810160405280939291908181526020018383808284376000920191909152509295949360208101935035915050600160201b81111561143b57600080fd5b82018360208201111561144d57600080fd5b803590602001918460018302840111600160201b8311171561146e57600080fd5b91908080601f0160208091040260200160405190810160405280939291908181526020018383808284376000920191909152509295949360208101935035915050600160201b8111156114c057600080fd5b8201836020820111156114d257600080fd5b803590602001918460018302840111600160201b831117156114f357600080fd5b91908080601f016020809104026020016040519081016040528093929190818152602001838380828437600092019190915250929550509135925061332c915050565b34801561154257600080fd5b506115606004803603602081101561155957600080fd5b503561341d565b604051808060200185815260200184815260200180602001838103835287818151815260200191508051906020019080838360005b838110156115ad578181015183820152602001611595565b50505050905090810190601f1680156115da5780820380516001836020036101000a031916815260200191505b50838103825284518152845160209182019186019080838360005b8381101561160d5781810151838201526020016115f5565b50505050905090810190601f16801561163a5780820380516001836020036101000a031916815260200191505b50965050505050505060405180910390f35b34801561165857600080fd5b5061045c6004803603602081101561166f57600080fd5b5035613594565b34801561168257600080fd5b5061038f6004803603602081101561169957600080fd5b50356001600160a01b03166135a9565b3480156116b557600080fd5b5061034b600480360360408110156116cc57600080fd5b6001600160a01b038235169190810190604081016020820135600160201b8111156116f657600080fd5b82018360208201111561170857600080fd5b803590602001918460018302840111600160201b8311171561172957600080fd5b91908080601f0160208091040260200160405190810160405280939291908181526020018383808284376000920191909152509295506135e4945050505050565b34801561177657600080fd5b5061038f6004803603602081101561178d57600080fd5b503561362d565b61038f600480360360208110156117aa57600080fd5b50356136be565b3480156117bd57600080fd5b506117db600480360360208110156117d457600080fd5b5035613828565b604051808060200180602001806020018060200180602001806020018060200188810388528f818151815260200191508051906020019080838360005b83811015611830578181015183820152602001611818565b50505050905090810190601f16801561185d5780820380516001836020036101000a031916815260200191505b5088810387528e818151815260200191508051906020019080838360005b8381101561189357818101518382015260200161187b565b50505050905090810190601f1680156118c05780820380516001836020036101000a031916815260200191505b5088810386528d5181528d516020918201918f019080838360005b838110156118f35781810151838201526020016118db565b50505050905090810190601f1680156119205780820380516001836020036101000a031916815260200191505b5088810385528c5181528c516020918201918e019080838360005b8381101561195357818101518382015260200161193b565b50505050905090810190601f1680156119805780820380516001836020036101000a031916815260200191505b5088810384528b5181528b516020918201918d019080838360005b838110156119b357818101518382015260200161199b565b50505050905090810190601f1680156119e05780820380516001836020036101000a031916815260200191505b5088810383528a5181528a516020918201918c019080838360005b83811015611a135781810151838201526020016119fb565b50505050905090810190601f168015611a405780820380516001836020036101000a031916815260200191505b5088810382528951815289516020918201918b019080838360005b83811015611a73578181015183820152602001611a5b565b50505050905090810190601f168015611aa05780820380516001836020036101000a031916815260200191505b509e50505050505050505050505050505060405180910390f35b348015611ac657600080fd5b5061038f60048036036020811015611add57600080fd5b5035613b8a565b348015611af057600080fd5b5061045c60048036036020811015611b0757600080fd5b5035613bce565b348015611b1a57600080fd5b50610b8760048036036020811015611b3157600080fd5b50356001600160a01b0316613bec565b348015611b4d57600080fd5b50611b6b60048036036020811015611b6457600080fd5b5035613c93565b60405180886001600160a01b03166001600160a01b0316815260200187815260200186151515158152602001856001600160a01b03166001600160a01b03168152602001846003811115611bbb57fe5b60ff16815260200183815260200182815260200197505050505050505060405180910390f35b348015611bed57600080fd5b5061045c60048036036040811015611c0457600080fd5b50803590602001356001600160a01b0316613cea565b348015611c2657600080fd5b5061038f60048036036040811015611c3d57600080fd5b6001600160a01b038235169190810190604081016020820135600160201b811115611c6757600080fd5b820183602082011115611c7957600080fd5b803590602001918460018302840111600160201b83111715611c9a57600080fd5b91908080601f016020809104026020016040519081016040528093929190818152602001838380828437600092019190915250929550613d5c945050505050565b348015611ce757600080fd5b50611d0560048036036020811015611cfe57600080fd5b5035613df6565b6040518080602001886001600160a01b03166001600160a01b0316815260200180602001871515151581526020018681526020018060200185815260200184810384528b818151815260200191508051906020019080838360005b83811015611d78578181015183820152602001611d60565b50505050905090810190601f168015611da55780820380516001836020036101000a031916815260200191505b5084810383528951815289516020918201918b019080838360005b83811015611dd8578181015183820152602001611dc0565b50505050905090810190601f168015611e055780820380516001836020036101000a031916815260200191505b50848103825286518152865160209182019188019080838360005b83811015611e38578181015183820152602001611e20565b50505050905090810190601f168015611e655780820380516001836020036101000a031916815260200191505b509a505050505050505050505060405180910390f35b348015611e8757600080fd5b506103d9614098565b348015611e9c57600080fd5b506104a160048036036020811015611eb357600080fd5b50356001600160a01b03166140ee565b348015611ecf57600080fd5b50611eed60048036036020811015611ee657600080fd5b5035614180565b60405180876001600160a01b03166001600160a01b03168152602001866001600160a01b03166001600160a01b03168152602001856001600160a01b03166001600160a01b0316815260200184815260200183815260200180602001828103825283818151815260200191508051906020019080838360005b83811015611f7e578181015183820152602001611f66565b50505050905090810190601f168015611fab5780820380516001836020036101000a031916815260200191505b5097505050505050505060405180910390f35b348015611fca57600080fd5b50611fe860048036036020811015611fe157600080fd5b503561426d565b60405180886001600160a01b03166001600160a01b03168152602001806020018060200180602001878152602001806020018060200186810386528c818151815260200191508051906020019080838360005b8381101561205357818101518382015260200161203b565b50505050905090810190601f1680156120805780820380516001836020036101000a031916815260200191505b5086810385528b5181528b516020918201918d019080838360005b838110156120b357818101518382015260200161209b565b50505050905090810190601f1680156120e05780820380516001836020036101000a031916815260200191505b5086810384528a5181528a516020918201918c0190808383600083156110b257818101518382015260200161109a565b34801561211c57600080fd5b5061038f6004803603604081101561213357600080fd5b508035906020013560ff166144b9565b34801561214f57600080fd5b5061034b6004803603608081101561216657600080fd5b6001600160a01b038235169190810190604081016020820135600160201b81111561219057600080fd5b8201836020820111156121a257600080fd5b803590602001918460018302840111600160201b831117156121c357600080fd5b91908080601f0160208091040260200160405190810160405280939291908181526020018383808284376000920191909152509295949360208101935035915050600160201b81111561221557600080fd5b82018360208201111561222757600080fd5b803590602001918460018302840111600160201b8311171561224857600080fd5b91908080601f0160208091040260200160405190810160405280939291908181526020018383808284376000920191909152509295949360208101935035915050600160201b81111561229a57600080fd5b8201836020820111156122ac57600080fd5b803590602001918460018302840111600160201b831117156122cd57600080fd5b91908080601f01602080910402602001604051908101604052809392919081815260200183838082843760009201919091525092955061457d945050505050565b6002546000906001600160a01b031633141561232957600080fd5b6001600160a01b0383811660009081526020819052604090205416331461234f57600080fd5b816040516020018082805190602001908083835b602083106123825780518252601f199092019160209182019101612363565b6001836020036101000a03801982511681845116808217855250505050505090500191505060405160208183030381529060405280519060200120600080856001600160a01b03166001600160a01b0316815260200190815260200160002060020160405160200180828054600181600116156101000203166002900480156124425780601f10612420576101008083540402835291820191612442565b820191906000526020600020905b81548152906001019060200180831161242e575b505091505060405160208183030381529060405280519060200120141561249457506001600160a01b0382166000908152602081905260409020600501805460ff19166001179081905560ff16612498565b5060005b92915050565b60006124a983613594565b6000938452600460205260409093209190920160089091015550565b6002546001600160a01b03163314156124dd57600080fd5b6001600160a01b0381811660009081526020819052604090205416331461250357600080fd5b6001600160a01b03166000908152602081905260409020600501805460ff19169055565b3360009081526007602090815260409182902080548351818402810184019094528084526060939283018282801561257e57602002820191906000526020600020905b81548152602001906001019080831161256a575b505050505090505b90565b6002546000906001600160a01b031633146125a357600080fd5b506001600160a01b03908116600090815260016020526040902054163190565b6002546060906001600160a01b031633146125dd57600080fd5b6001600160a01b03821660009081526001602081815260409283902060030180548451600294821615610100026000190190911693909304601f810183900483028401830190945283835291929083018282801561267c5780601f106126515761010080835404028352916020019161267c565b820191906000526020600020905b81548152906001019060200180831161265f57829003601f168201915b50505050509050919050565b6000336001600160a01b031660068e6040518082805190602001908083835b602083106126c65780518252601f1990920191602091820191016126a7565b51815160209384036101000a60001901801990921691161790529201948552506040519384900301909220546001600160a01b031692909214915081905061271857506005546001600160a01b031633145b61272157600080fd5b8e60046000888152602001908152602001600020600001908051906020019061274b92919061475f565b508d60046000888152602001908152602001600020600101908051906020019061277692919061475f565b508c6004600088815260200190815260200160002060020190805190602001906127a192919061475f565b506000868152600460208181526040909220600381018f90559081018d90556005810180546001600160a01b0319166001600160a01b038e161790558a516127f1926006909201918c019061475f565b5060008681526004602090815260409091206007810180546001600160a01b0319166001600160a01b038c1617905560088101899055865161283b92600a9092019188019061475f565b506000868152600460209081526040909120855161286192600b9092019187019061475f565b50600086815260046020908152604090912084516128879260099092019186019061475f565b5050600085815260046020908152604080832060130180546001600160a01b0319166001600160a01b039586161790559a909216815260078252988920805460018181018355918b52918a2090910185905560038054808301825599527fc2575a0e9e593c00f959f8c92f12db2869c3395a3b0502d05e2516446f71f85b9098019390935550949a9950505050505050505050565b60006509184e72a000858585856040516020018085805190602001908083835b6020831061295b5780518252601f19909201916020918201910161293c565b51815160209384036101000a600019018019909216911617905287519190930192870191508083835b602083106129a35780518252601f199092019160209182019101612984565b51815160209384036101000a600019018019909216911617905286519190930192860191508083835b602083106129eb5780518252601f1990920191602091820191016129cc565b51815160209384036101000a6000190180199092169116179052920193845250604080518085038152938201905282519201919091209350849250612a2f91505057fe5b0695945050505050565b6000818152600460205260409020600501546001600160a01b03163314612a5f57600080fd5b6000908152600460205260409020601201805460ff60a01b1916600160a01b179055565b6000908152600460205260409020601201546001600160a01b031690565b60025460009060609081906001600160a01b0316331415612ac157600080fd5b6001600160a01b03848116600090815260208190526040902054163314612ae757600080fd5b6001600160a01b03841660009081526020818152604091829020600581015460048201805485516002610100600180851615919091026000190190931604601f810187900487028201870190975286815260ff909316959194930192849190830182828015612b975780601f10612b6c57610100808354040283529160200191612b97565b820191906000526020600020905b815481529060010190602001808311612b7a57829003601f168201915b5050845460408051602060026001851615610100026000190190941693909304601f810184900484028201840190925281815295975086945092508401905082828015612c255780601f10612bfa57610100808354040283529160200191612c25565b820191906000526020600020905b815481529060010190602001808311612c0857829003601f168201915b505050505090509250925092509193909250565b6002546000906001600160a01b0316331415612c5457600080fd5b6001600160a01b03838116600090815260208190526040902054163314612c7a57600080fd5b6001600160a01b0383166000908152602081815260409091208351612ca79260049092019185019061475f565b5060019392505050565b6002546000906001600160a01b03163314612ccb57600080fd5b816040516020018082805190602001908083835b60208310612cfe5780518252601f199092019160209182019101612cdf565b6001836020036101000a0380198251168184511680821785525050505050509050019150506040516020818303038152906040528051906020012060016000856001600160a01b03166001600160a01b031681526020019081526020016000206002016040516020018082805460018160011615610100020316600290048015612dbf5780601f10612d9d576101008083540402835291820191612dbf565b820191906000526020600020905b815481529060010190602001808311612dab575b505091505060405160208183030381529060405280519060200120141561249457506001600160a01b0382166000908152600160208190526040909120600401805460ff19169091179081905560ff16612498565b6002546000906001600160a01b0316331415612e2f57600080fd5b6001600160a01b03828116600090815260208190526040902054163314612e5557600080fd5b506001600160a01b03908116600090815260208190526040902054163190565b6002546000906001600160a01b03163314612e8f57600080fd5b6001600160a01b0384811660009081526001602052604090205416331415612eb657600080fd5b6001600160a01b038416600081815260016020818152604090922080546001600160a01b03191690931783558551612ef4939091019186019061475f565b506001600160a01b03841660009081526001602090815260409091208351612f249260029092019185019061475f565b505050506001600160a01b03166000908152600160208190526040909120600401805460ff1916905590565b6000818152600460209081526040808320601281015460088201548254845160026101006001808516159190910260001901909316819004601f810189900489028301890190975286825260609889988998919788978a978897929692870195870194600160a01b90920460ff16939092600a880192600b89019289919083018282801561301f5780601f10612ff45761010080835404028352916020019161301f565b820191906000526020600020905b81548152906001019060200180831161300257829003601f168201915b5050895460408051602060026001851615610100026000190190941693909304601f8101849004840282018401909252818152959c508b9450925084019050828280156130ad5780601f10613082576101008083540402835291602001916130ad565b820191906000526020600020905b81548152906001019060200180831161309057829003601f168201915b5050885460408051602060026001851615610100026000190190941693909304601f8101849004840282018401909252818152959b508a94509250840190508282801561313b5780601f106131105761010080835404028352916020019161313b565b820191906000526020600020905b81548152906001019060200180831161311e57829003601f168201915b5050855460408051602060026001851615610100026000190190941693909304601f8101849004840282018401909252818152959a50879450925084019050828280156131c95780601f1061319e576101008083540402835291602001916131c9565b820191906000526020600020905b8154815290600101906020018083116131ac57829003601f168201915b5050845460408051602060026001851615610100026000190190941693909304601f8101849004840282018401909252818152959750869450925084019050828280156132575780601f1061322c57610100808354040283529160200191613257565b820191906000526020600020905b81548152906001019060200180831161323a57829003601f168201915b5050505050905096509650965096509650965096505b919395979092949650565b6002546060906001600160a01b031633141561329357600080fd5b6001600160a01b038281166000908152602081905260409020541633146132b957600080fd5b6001600160a01b0382166000908152602081815260409182902060040180548351601f60026000196101006001861615020190931692909204918201849004840281018401909452808452909183018282801561267c5780601f106126515761010080835404028352916020019161267c565b60008181526004602090815260408220895161335092600c909201918b019061475f565b506000828152600460209081526040909120885161337692600d909201918a019061475f565b506000828152600460209081526040909120875161339c92600e9092019189019061475f565b50600082815260046020908152604090912086516133c292600f9092019188019061475f565b50600082815260046020908152604090912085516133e89260109092019187019061475f565b506000828152600460209081526040909120845161340e9260119092019186019061475f565b50600198975050505050505050565b6000818152600460205260408120601201546060919081908390600160a01b900460ff161561358d576000858152600460208181526040928390206003810154928101546002808301805487516001821615610100026000190190911692909204601f8101869004860283018601909752868252959193600b90930192909186918301828280156134ef5780601f106134c4576101008083540402835291602001916134ef565b820191906000526020600020905b8154815290600101906020018083116134d257829003601f168201915b5050845460408051602060026001851615610100026000190190941693909304601f81018490048402820184019092528181529599508694509250840190508282801561357d5780601f106135525761010080835404028352916020019161357d565b820191906000526020600020905b81548152906001019060200180831161356057829003601f168201915b5050505050905093509350935093505b9193509193565b60009081526004602052604090206008015490565b6002546001600160a01b031633146135c057600080fd5b6001600160a01b03166000908152600160205260409020600401805460ff19169055565b6002546000906001600160a01b031633146135fe57600080fd5b6001600160a01b03831660009081526001602090815260409091208351612ca79260039092019185019061475f565b600081815260046020526040902060120154600160a01b900460ff1661365257600080fd5b6000818152600460205260409020600801543331101561367157600080fd5b60009081526004602052604090206012018054336001600160a01b0319909116177fffffffffffffffffffff0000ffffffffffffffffffffffffffffffffffffffff16600160a81b179055565b6003600082815260046020526040902060120154600160a81b900460ff1660038111156136e757fe5b146136f157600080fd5b60008181526004602052604090206008015434101561370f57600080fd5b6000818152600460205260408082206005015490516001600160a01b03909116913480156108fc02929091818181858888f19350505050158015613757573d6000803e3d6000fd5b5060008181526004602052604090206005015461377d906001600160a01b031682614686565b600081815260046020526040902060050180546001600160a01b031916339081179091556137aa906140ee565b6004600083815260200190815260200160002060060190805190602001906137d392919061475f565b50600081815260046020908152604080832060120180547fffffffffffffffffffff00000000000000000000000000000000000000000000169055338352600782528220805460018101825590835291200155565b600081815260046020908152604091829020600c810180548451601f600260001961010060018616150201909316929092049182018590048502810185019095528085526060948594859485948594859485949293600d810193600e820193600f8301936010840193601181019360069091019289918301828280156138ef5780601f106138c4576101008083540402835291602001916138ef565b820191906000526020600020905b8154815290600101906020018083116138d257829003601f168201915b5050895460408051602060026001851615610100026000190190941693909304601f8101849004840282018401909252818152959c508b94509250840190508282801561397d5780601f106139525761010080835404028352916020019161397d565b820191906000526020600020905b81548152906001019060200180831161396057829003601f168201915b5050885460408051602060026001851615610100026000190190941693909304601f8101849004840282018401909252818152959b508a945092508401905082828015613a0b5780601f106139e057610100808354040283529160200191613a0b565b820191906000526020600020905b8154815290600101906020018083116139ee57829003601f168201915b5050875460408051602060026001851615610100026000190190941693909304601f8101849004840282018401909252818152959a5089945092508401905082828015613a995780601f10613a6e57610100808354040283529160200191613a99565b820191906000526020600020905b815481529060010190602001808311613a7c57829003601f168201915b5050865460408051602060026001851615610100026000190190941693909304601f810184900484028201840190925281815295995088945092508401905082828015613b275780601f10613afc57610100808354040283529160200191613b27565b820191906000526020600020905b815481529060010190602001808311613b0a57829003601f168201915b5050855460408051602060026001851615610100026000190190941693909304601f8101849004840282018401909252818152959850879450925084019050828280156131c95780601f1061319e576101008083540402835291602001916131c9565b6000818152600460205260409020600501546001600160a01b03163314613bb057600080fd5b6000908152600460205260409020601201805460ff60a01b19169055565b60038181548110613bdb57fe5b600091825260209091200154905081565b60025460009060609081906001600160a01b03163314613c0b57600080fd5b6001600160a01b03841660009081526001602081815260409283902060048101546003820180548651601f6002600019848a161561010002019093169290920491820186900486028101860190975280875260ff9092169590949290920192849190830182828015612b975780601f10612b6c57610100808354040283529160200191612b97565b6000908152600460208190526040909120600581015460088201546012830154600384015493909401546001600160a01b0392831695919460ff600160a01b820481169594821694600160a81b9092041692909190565b6000805b6001600160a01b038316600090815260076020526040902054811015613d55576001600160a01b0383166000908152600760205260409020805485919083908110613d3557fe5b90600052602060002001541415613d4d579050612498565b600101613cee565b9392505050565b6005546001600160a01b03163314613d7357600080fd5b816006826040518082805190602001908083835b60208310613da65780518252601f199092019160209182019101613d87565b51815160209384036101000a6000190180199092169116179052920194855250604051938490030190922080546001600160a01b0319166001600160a01b03949094169390931790925550505050565b6000818152600460205260408120601201546060919082908290819083908290600160a01b900460ff161561326d5760046000898152602001908152602001600020600001600460008a815260200190815260200160002060050160009054906101000a90046001600160a01b0316600460008b8152602001908152602001600020600101600460008c815260200190815260200160002060120160149054906101000a900460ff16600460008d815260200190815260200160002060080154600460008e8152602001908152602001600020600a018d868054600181600116156101000203166002900480601f016020809104026020016040519081016040528092919081815260200182805460018160011615610100020316600290048015613f625780601f10613f3757610100808354040283529160200191613f62565b820191906000526020600020905b815481529060010190602001808311613f4557829003601f168201915b5050885460408051602060026001851615610100026000190190941693909304601f8101849004840282018401909252818152959c508a945092508401905082828015613ff05780601f10613fc557610100808354040283529160200191613ff0565b820191906000526020600020905b815481529060010190602001808311613fd357829003601f168201915b5050855460408051602060026001851615610100026000190190941693909304601f8101849004840282018401909252818152959a508794509250840190508282801561407e5780601f106140535761010080835404028352916020019161407e565b820191906000526020600020905b81548152906001019060200180831161406157829003601f168201915b50505050509150965096509650965096509650965061326d565b6060600380548060200260200160405190810160405280929190818152602001828054801561257e576020028201919060005260206000209081548152602001906001019080831161256a575050505050905090565b6060600080836001600160a01b03166001600160a01b031681526020019081526020016000206001018054600181600116156101000203166002900480601f01602080910402602001604051908101604052809291908181526020018280546001816001161561010002031660029004801561267c5780601f106126515761010080835404028352916020019161267c565b6000818152600460208181526040808420601381015460058201546007830154600384015496840154600990940180548651601f6002600019600185161561010002019093169290920491820189900489028101890190975280875289988998899889986060986001600160a01b0390811698811697169593949093928391908301828280156142515780601f1061422657610100808354040283529160200191614251565b820191906000526020600020905b81548152906001019060200180831161423457829003601f168201915b5050505050905095509550955095509550955091939550919395565b6000818152600460209081526040808320600581015460088201548254845160026101006001808516159190910260001901909316819004601f8101899004890283018901909752868252606097889788978b97899788976001600160a01b0390921696929591860194918601939092600a870192600b880192889183018282801561433a5780601f1061430f5761010080835404028352916020019161433a565b820191906000526020600020905b81548152906001019060200180831161431d57829003601f168201915b5050885460408051602060026001851615610100026000190190941693909304601f8101849004840282018401909252818152959b508a9450925084019050828280156143c85780601f1061439d576101008083540402835291602001916143c8565b820191906000526020600020905b8154815290600101906020018083116143ab57829003601f168201915b5050875460408051602060026001851615610100026000190190941693909304601f8101849004840282018401909252818152959a50899450925084019050828280156144565780601f1061442b57610100808354040283529160200191614456565b820191906000526020600020905b81548152906001019060200180831161443957829003601f168201915b5050855460408051602060026001851615610100026000190190941693909304601f8101849004840282018401909252818152959950879450925084019050828280156131c95780601f1061319e576101008083540402835291602001916131c9565b6000828152600460205260409020600501546001600160a01b031633146144df57600080fd5b600082815260046020526040902060120180548291907fffffffffffffffffffff00ffffffffffffffffffffffffffffffffffffffffff16600160a81b83600381111561452857fe5b0217905550600281600381111561453b57fe5b141561457957600082815260046020526040902060120180547fffffffffffffffffffff00ff00000000000000000000000000000000000000001690555b5050565b6002546000906001600160a01b031633141561459857600080fd5b6001600160a01b03858116600090815260208190526040902054163314156145bf57600080fd5b6001600160a01b03851660008181526020818152604090912080546001600160a01b031916909217825585516145fb926001019187019061475f565b506001600160a01b03851660009081526020818152604090912084516146299260029092019186019061475f565b506001600160a01b03851660009081526020818152604090912083516146579260039092019185019061475f565b50506001600160a01b0384166000908152602081905260409020600501805460ff191690556001949350505050565b60006146928284613cea565b6001600160a01b038416600090815260076020526040902080549192509060001981019081106146be57fe5b60009182526020808320909101546001600160a01b0386168352600790915260409091208054839081106146ee57fe5b60009182526020808320909101929092556001600160a01b03851681526007909152604090208054600019810190811061472457fe5b600091825260208083209091018290556001600160a01b038516825260079052604090208054906147599060001983016147dd565b50505050565b828054600181600116156101000203166002900490600052602060002090601f016020900481019282601f106147a057805160ff19168380011785556147cd565b828001600101855582156147cd579182015b828111156147cd5782518255916020019190600101906147b2565b506147d9929150614806565b5090565b81548183558181111561480157600083815260209020614801918101908301614806565b505050565b61258691905b808211156147d9576000815560010161480c56fea265627a7a723158209f7d902b04d712e8919a0353fd093375405413da6d376ca5572466a2a7d8494c64736f6c63430005100032",
  "source": "pragma solidity >=0.4.0 <0.6.0;\n\nimport {Auth} from \"../contracts/Auth.sol\";\n\ncontract Land is Auth {\n    struct landDetails {\n        string state;\n        string district;\n        string villageTown;\n        uint256 khataNumber;\n        uint256 khatooniNumber;\n        address payable CurrentOwner;\n        string ownerName;\n        address previousOwner;\n        uint256 marketValue;\n        string landType;\n        string squareFoots;\n        string inches;\n        string lat;\n        string lng;\n        string north;\n        string south;\n        string east;\n        string west;\n        address payable requester;\n        bool isAvailable;\n        reqStatus requestStatus;\n        address createByGovt;\n        string orderEndTime;\n    }\n\n    uint256[] public propertiesIDs;\n\n    //request status\n    enum reqStatus {\n        Default,\n        pending,\n        reject,\n        approved\n    }\n\n    //profile of a client\n    struct profiles {\n        uint256[] assetList;\n    }\n\n    mapping(uint256 => landDetails) land;\n    address owner;\n    mapping(string => address) superAdmin;\n    mapping(address => profiles) profile;\n\n    //contract owner\n    constructor() public {\n        owner = msg.sender;\n    }\n\n    modifier onlyOwner() {\n        require(msg.sender == owner);\n        _;\n    }\n\n    //adding village admins\n    function addSuperAdmin(address _superAdmin, string memory _village)\n        public\n        onlyOwner\n    {\n        superAdmin[_village] = _superAdmin;\n    }\n\n    //Registration of land details.\n    function Registration(\n        string memory _state,\n        string memory _district,\n        string memory _villageTown,\n        uint256 _khataNumber,\n        uint256 _khatooniNumber,\n        address payable _OwnerAddress,\n        string memory _ownerName,\n        address _previousOwner,\n        uint256 _marketValue,\n        uint256 id,\n        string memory _squareFoots,\n        string memory _inches,\n        string memory _landType,\n        address _createByGovt\n    ) public returns (bool) {\n        require(superAdmin[_villageTown] == msg.sender || owner == msg.sender);\n        land[id].state = _state;\n        land[id].district = _district;\n        land[id].villageTown = _villageTown;\n        land[id].khataNumber = _khataNumber;\n        land[id].khatooniNumber = _khatooniNumber;\n        land[id].CurrentOwner = _OwnerAddress;\n        land[id].ownerName = _ownerName;\n        land[id].previousOwner = _previousOwner;\n        land[id].marketValue = _marketValue;\n        land[id].squareFoots = _squareFoots;\n        land[id].inches = _inches;\n        land[id].landType = _landType;\n        land[id].createByGovt = _createByGovt;\n        profile[_OwnerAddress].assetList.push(id);\n        propertiesIDs.push(id);\n        return true;\n    }\n\n    // Updating land details. Polyline\n    function registerLandPolyline(\n        string memory _lat,\n        string memory _lng,\n        string memory _north,\n        string memory _south,\n        string memory _east,\n        string memory _west,\n        uint256 id\n    ) public returns (bool) {\n        land[id].lat = _lat;\n        land[id].lng = _lng;\n        land[id].north = _north;\n        land[id].south = _south;\n        land[id].east = _east;\n        land[id].west = _west;\n        return true;\n    }\n\n    //to view details of land for the owner\n    function landInfoOwner(uint256 id)\n        public\n        view\n        returns (\n            string memory,\n            string memory,\n            string memory,\n            bool,\n            uint256,\n            string memory,\n            string memory\n        )\n    {\n        return (\n            land[id].state,\n            land[id].district,\n            land[id].villageTown,\n            land[id].isAvailable,\n            land[id].marketValue,\n            land[id].squareFoots,\n            land[id].inches\n        );\n    }\n\n    function remainingDetail(uint256 id)\n        public\n        view\n        returns (\n            address,\n            address,\n            address,\n            uint256,\n            uint256,\n            string memory\n        )\n    {\n        return (\n            land[id].createByGovt,\n            land[id].CurrentOwner,\n            land[id].previousOwner,\n            land[id].khataNumber,\n            land[id].khatooniNumber,\n            land[id].landType\n        );\n    }\n\n    function remainingMoreDetail(uint256 id)\n        public\n        view\n        returns (\n            string memory,\n            string memory,\n            string memory,\n            string memory,\n            string memory,\n            string memory,\n            string memory\n        )\n    {\n        return (\n            land[id].lat,\n            land[id].lng,\n            land[id].north,\n            land[id].south,\n            land[id].east,\n            land[id].west,\n            land[id].ownerName\n        );\n    }\n\n    function showAllLands(uint256 id)\n        public\n        view\n        returns (\n            address,\n            string memory,\n            string memory,\n            string memory,\n            uint256,\n            string memory,\n            string memory\n        )\n    {\n        return (\n            land[id].CurrentOwner,\n            land[id].state,\n            land[id].district,\n            land[id].villageTown,\n            land[id].marketValue,\n            land[id].squareFoots,\n            land[id].inches\n        );\n    }\n\n    //to view details of land for the buyer\n    function landInfoUser(uint256 id)\n        public\n        view\n        returns (\n            address,\n            uint256,\n            bool,\n            address,\n            reqStatus,\n            uint256,\n            uint256\n        )\n    {\n        return (\n            land[id].CurrentOwner,\n            land[id].marketValue,\n            land[id].isAvailable,\n            land[id].requester,\n            land[id].requestStatus,\n            land[id].khataNumber,\n            land[id].khatooniNumber\n        );\n    }\n\n    // to compute id for a land.\n    function computeId(\n        string memory _state,\n        string memory _district,\n        string memory _village,\n        uint256 _surveyNumber\n    ) public view returns (uint256) {\n        return\n            uint256(\n                keccak256(\n                    abi.encodePacked(_state, _district, _village, _surveyNumber)\n                )\n            ) % 10000000000000;\n    }\n\n    //push a request to the land owner\n    function requstToLandOwner(uint256 id) public {\n        require(land[id].isAvailable);\n        require(msg.sender.balance >= land[id].marketValue);\n        land[id].requester = msg.sender;\n        land[id].isAvailable = false;\n        land[id].requestStatus = reqStatus.pending; //changes the status to pending.\n    }\n\n    //will show assets of the function caller\n    function viewAssets() public view returns (uint256[] memory) {\n        return (profile[msg.sender].assetList);\n    }\n\n    //viewing request for the lands\n    function viewRequest(uint256 property) public view returns (address) {\n        return (land[property].requester);\n    }\n\n    //availing land for sale.\n    function markAvailable(uint256 property) public {\n        require(land[property].CurrentOwner == msg.sender);\n        land[property].isAvailable = true;\n    }\n\n    function unMarkLand(uint256 property) public {\n        require(land[property].CurrentOwner == msg.sender);\n        land[property].isAvailable = false;\n    }\n\n    function showMarketValue(uint256 id) public view returns (uint256) {\n        return land[id].marketValue;\n    }\n\n    // change the market value after some years\n    function changeMarketValue(uint256 property, uint256 _marketValue) public {\n        uint256 marketValueGet = showMarketValue(property);\n        land[property].marketValue = marketValueGet + _marketValue;\n    }\n\n    // Get all the lands ids.\n    function getAllLands() public view returns (uint256[] memory) {\n        return (propertiesIDs);\n    }\n\n    // show marked Available\n    function viewMarkded(uint256 id)\n        public\n        view\n        returns (\n            string memory,\n            address,\n            string memory,\n            bool,\n            uint256,\n            string memory,\n            uint256\n        )\n    {\n        if (land[id].isAvailable) {\n            return (\n                land[id].state,\n                land[id].CurrentOwner,\n                land[id].district,\n                land[id].isAvailable,\n                land[id].marketValue,\n                land[id].squareFoots,\n                id\n            );\n        }\n    }\n\n    // show marked Available\n    function viewMarkdedRemainingData(uint256 id)\n        public\n        view\n        returns (\n            string memory,\n            uint256,\n            uint256,\n            string memory\n        )\n    {\n        if (land[id].isAvailable) {\n            return (\n                land[id].villageTown,\n                land[id].khataNumber,\n                land[id].khatooniNumber,\n                land[id].inches\n            );\n        }\n    }\n\n    //processing request for the land by accepting or rejecting\n    function processRequest(uint256 property, reqStatus status) public {\n        require(land[property].CurrentOwner == msg.sender);\n        land[property].requestStatus = status;\n        if (status == reqStatus.reject) {\n            land[property].requester = address(0);\n            land[property].requestStatus = reqStatus.Default;\n        }\n    }\n\n    //buying the approved property\n    function buyProperty(uint256 property) public payable {\n        require(land[property].requestStatus == reqStatus.approved);\n        require(msg.value >= land[property].marketValue);\n        land[property].CurrentOwner.transfer(msg.value);\n        removeOwnership(land[property].CurrentOwner, property);\n        land[property].CurrentOwner = msg.sender;\n        land[property].ownerName = getUserName(msg.sender);\n        land[property].isAvailable = false;\n        land[property].requester = address(0);\n        land[property].requestStatus = reqStatus.Default;\n        profile[msg.sender].assetList.push(property); //adds the property to the asset list of the new owner.\n    }\n\n    //removing the ownership of seller for the land. and it is called by the buyProperty function\n    function removeOwnership(address previousOwner, uint256 id) private {\n        uint256 index = findId(id, previousOwner);\n        profile[previousOwner].assetList[index] = profile[previousOwner]\n            .assetList[profile[previousOwner].assetList.length - 1];\n        delete profile[previousOwner].assetList[\n            profile[previousOwner].assetList.length - 1\n        ];\n        profile[previousOwner].assetList.length--;\n    }\n\n    //for finding the index of a perticular id\n    function findId(uint256 id, address user) public view returns (uint256) {\n        uint256 i;\n        for (i = 0; i < profile[user].assetList.length; i++) {\n            if (profile[user].assetList[i] == id) return i;\n        }\n        return i;\n    }\n}\n",
  "sourcePath": "/home/zaryab/VSCodeProjects/land-records-blockchain/src/contracts/Land.sol",
  "compiler": {
    "name": "solc",
    "version": "0.5.16+commit.9c3226ce.Emscripten.clang"
  },
  "schemaVersion": "3.4.1",
  "updatedAt": "2021-09-12T16:44:26.290Z",
  "networkType": "ethereum",
  "devdoc": {
    "methods": {}
  },
  "userdoc": {
    "methods": {}
  }
}