{
  "contractName": "Auth",
  "abi": [
    {
      "inputs": [],
      "payable": false,
      "stateMutability": "nonpayable",
      "type": "constructor"
    },
    {
      "constant": false,
      "inputs": [
        {
          "internalType": "address",
          "name": "_address",
          "type": "address"
        },
        {
          "internalType": "string",
          "name": "_name",
          "type": "string"
        },
        {
          "internalType": "string",
          "name": "_password",
          "type": "string"
        },
        {
          "internalType": "string",
          "name": "_cnic",
          "type": "string"
        },
        {
          "internalType": "string",
          "name": "_ipfsImageHash",
          "type": "string"
        }
      ],
      "name": "registerUser",
      "outputs": [
        {
          "internalType": "bool",
          "name": "",
          "type": "bool"
        }
      ],
      "payable": false,
      "stateMutability": "nonpayable",
      "type": "function"
    },
    {
      "constant": false,
      "inputs": [
        {
          "internalType": "address",
          "name": "_address",
          "type": "address"
        },
        {
          "internalType": "string",
          "name": "_password",
          "type": "string"
        }
      ],
      "name": "loginUser",
      "outputs": [
        {
          "internalType": "bool",
          "name": "",
          "type": "bool"
        }
      ],
      "payable": false,
      "stateMutability": "nonpayable",
      "type": "function"
    },
    {
      "constant": true,
      "inputs": [
        {
          "internalType": "address",
          "name": "_address",
          "type": "address"
        }
      ],
      "name": "checkIsUserLogged",
      "outputs": [
        {
          "internalType": "bool",
          "name": "",
          "type": "bool"
        },
        {
          "internalType": "string",
          "name": "",
          "type": "string"
        }
      ],
      "payable": false,
      "stateMutability": "view",
      "type": "function"
    },
    {
      "constant": false,
      "inputs": [
        {
          "internalType": "address",
          "name": "_address",
          "type": "address"
        }
      ],
      "name": "logoutUser",
      "outputs": [],
      "payable": false,
      "stateMutability": "nonpayable",
      "type": "function"
    },
    {
      "constant": true,
      "inputs": [
        {
          "internalType": "address",
          "name": "_address",
          "type": "address"
        }
      ],
      "name": "getUserBalance",
      "outputs": [
        {
          "internalType": "uint256",
          "name": "",
          "type": "uint256"
        }
      ],
      "payable": false,
      "stateMutability": "view",
      "type": "function"
    },
    {
      "constant": false,
      "inputs": [
        {
          "internalType": "address",
          "name": "_address",
          "type": "address"
        },
        {
          "internalType": "string",
          "name": "_name",
          "type": "string"
        },
        {
          "internalType": "string",
          "name": "_password",
          "type": "string"
        },
        {
          "internalType": "string",
          "name": "_ipfsImageHash",
          "type": "string"
        }
      ],
      "name": "registerAdmin",
      "outputs": [
        {
          "internalType": "bool",
          "name": "",
          "type": "bool"
        }
      ],
      "payable": false,
      "stateMutability": "nonpayable",
      "type": "function"
    },
    {
      "constant": false,
      "inputs": [
        {
          "internalType": "address",
          "name": "_address",
          "type": "address"
        },
        {
          "internalType": "string",
          "name": "_password",
          "type": "string"
        }
      ],
      "name": "loginAdmin",
      "outputs": [
        {
          "internalType": "bool",
          "name": "",
          "type": "bool"
        }
      ],
      "payable": false,
      "stateMutability": "nonpayable",
      "type": "function"
    },
    {
      "constant": true,
      "inputs": [
        {
          "internalType": "address",
          "name": "_address",
          "type": "address"
        }
      ],
      "name": "checkIsAdminLogged",
      "outputs": [
        {
          "internalType": "bool",
          "name": "",
          "type": "bool"
        },
        {
          "internalType": "string",
          "name": "",
          "type": "string"
        }
      ],
      "payable": false,
      "stateMutability": "view",
      "type": "function"
    },
    {
      "constant": false,
      "inputs": [
        {
          "internalType": "address",
          "name": "_address",
          "type": "address"
        }
      ],
      "name": "logoutAdmin",
      "outputs": [],
      "payable": false,
      "stateMutability": "nonpayable",
      "type": "function"
    },
    {
      "constant": true,
      "inputs": [
        {
          "internalType": "address",
          "name": "_address",
          "type": "address"
        }
      ],
      "name": "getAdminBalance",
      "outputs": [
        {
          "internalType": "uint256",
          "name": "",
          "type": "uint256"
        }
      ],
      "payable": false,
      "stateMutability": "view",
      "type": "function"
    }
  ],
  "bytecode": "0x608060405234801561001057600080fd5b50735b38da6a701c568545dcfcb03fcb875f56beddc4600260006101000a81548173ffffffffffffffffffffffffffffffffffffffff021916908373ffffffffffffffffffffffffffffffffffffffff160217905550611932806100756000396000f3fe608060405234801561001057600080fd5b506004361061009e5760003560e01c8063477348921161006657806347734892146103ed578063645cf80f1461044557806398711c1714610489578063999eab2b146105515780639f60fabc146108095761009e565b806303bdb46b146100a357806309df506014610196578063128c9f01146101da578063297f7b3914610232578063434917af146102fa575b600080fd5b61017c600480360360408110156100b957600080fd5b81019080803573ffffffffffffffffffffffffffffffffffffffff169060200190929190803590602001906401000000008111156100f657600080fd5b82018360208201111561010857600080fd5b8035906020019184600183028401116401000000008311171561012a57600080fd5b91908080601f016020809104026020016040519081016040528093929190818152602001838380828437600081840152601f19601f820116905080830192505050505050509192919290505050610a2a565b604051808215151515815260200191505060405180910390f35b6101d8600480360360208110156101ac57600080fd5b81019080803573ffffffffffffffffffffffffffffffffffffffff169060200190929190505050610c19565b005b61021c600480360360208110156101f057600080fd5b81019080803573ffffffffffffffffffffffffffffffffffffffff169060200190929190505050610c76565b6040518082815260200191505060405180910390f35b6102746004803603602081101561024857600080fd5b81019080803573ffffffffffffffffffffffffffffffffffffffff169060200190929190505050610cf9565b604051808315151515815260200180602001828103825283818151815260200191508051906020019080838360005b838110156102be5780820151818401526020810190506102a3565b50505050905090810190601f1680156102eb5780820380516001836020036101000a031916815260200191505b50935050505060405180910390f35b6103d36004803603604081101561031057600080fd5b81019080803573ffffffffffffffffffffffffffffffffffffffff1690602001909291908035906020019064010000000081111561034d57600080fd5b82018360208201111561035f57600080fd5b8035906020019184600183028401116401000000008311171561038157600080fd5b91908080601f016020809104026020016040519081016040528093929190818152602001838380828437600081840152601f19601f820116905080830192505050505050509192919290505050610e32565b604051808215151515815260200191505060405180910390f35b61042f6004803603602081101561040357600080fd5b81019080803573ffffffffffffffffffffffffffffffffffffffff169060200190929190505050611023565b6040518082815260200191505060405180910390f35b6104876004803603602081101561045b57600080fd5b81019080803573ffffffffffffffffffffffffffffffffffffffff1690602001909291905050506110a5565b005b6104cb6004803603602081101561049f57600080fd5b81019080803573ffffffffffffffffffffffffffffffffffffffff169060200190929190505050611103565b604051808315151515815260200180602001828103825283818151815260200191508051906020019080838360005b838110156105155780820151818401526020810190506104fa565b50505050905090810190601f1680156105425780820380516001836020036101000a031916815260200191505b50935050505060405180910390f35b6107ef600480360360a081101561056757600080fd5b81019080803573ffffffffffffffffffffffffffffffffffffffff169060200190929190803590602001906401000000008111156105a457600080fd5b8201836020820111156105b657600080fd5b803590602001918460018302840111640100000000831117156105d857600080fd5b91908080601f016020809104026020016040519081016040528093929190818152602001838380828437600081840152601f19601f8201169050808301925050505050505091929192908035906020019064010000000081111561063b57600080fd5b82018360208201111561064d57600080fd5b8035906020019184600183028401116401000000008311171561066f57600080fd5b91908080601f016020809104026020016040519081016040528093929190818152602001838380828437600081840152601f19601f820116905080830192505050505050509192919290803590602001906401000000008111156106d257600080fd5b8201836020820111156106e457600080fd5b8035906020019184600183028401116401000000008311171561070657600080fd5b91908080601f016020809104026020016040519081016040528093929190818152602001838380828437600081840152601f19601f8201169050808301925050505050505091929192908035906020019064010000000081111561076957600080fd5b82018360208201111561077b57600080fd5b8035906020019184600183028401116401000000008311171561079d57600080fd5b91908080601f016020809104026020016040519081016040528093929190818152602001838380828437600081840152601f19601f82011690508083019250505050505050919291929050505061123e565b604051808215151515815260200191505060405180910390f35b610a106004803603608081101561081f57600080fd5b81019080803573ffffffffffffffffffffffffffffffffffffffff1690602001909291908035906020019064010000000081111561085c57600080fd5b82018360208201111561086e57600080fd5b8035906020019184600183028401116401000000008311171561089057600080fd5b91908080601f016020809104026020016040519081016040528093929190818152602001838380828437600081840152601f19601f820116905080830192505050505050509192919290803590602001906401000000008111156108f357600080fd5b82018360208201111561090557600080fd5b8035906020019184600183028401116401000000008311171561092757600080fd5b91908080601f016020809104026020016040519081016040528093929190818152602001838380828437600081840152601f19601f8201169050808301925050505050505091929192908035906020019064010000000081111561098a57600080fd5b82018360208201111561099c57600080fd5b803590602001918460018302840111640100000000831117156109be57600080fd5b91908080601f016020809104026020016040519081016040528093929190818152602001838380828437600081840152601f19601f820116905080830192505050505050509192919290505050611574565b604051808215151515815260200191505060405180910390f35b6000816040516020018082805190602001908083835b60208310610a635780518252602082019150602081019050602083039250610a40565b6001836020036101000a038019825116818451168082178552505050505050905001915050604051602081830303815290604052805190602001206000808573ffffffffffffffffffffffffffffffffffffffff1673ffffffffffffffffffffffffffffffffffffffff1681526020019081526020016000206002016040516020018082805460018160011615610100020316600290048015610b3d5780601f10610b1b576101008083540402835291820191610b3d565b820191906000526020600020905b815481529060010190602001808311610b29575b5050915050604051602081830303815290604052805190602001201415610c0e5760016000808573ffffffffffffffffffffffffffffffffffffffff1673ffffffffffffffffffffffffffffffffffffffff16815260200190815260200160002060050160006101000a81548160ff0219169083151502179055506000808473ffffffffffffffffffffffffffffffffffffffff1673ffffffffffffffffffffffffffffffffffffffff16815260200190815260200160002060050160009054906101000a900460ff169050610c13565b600090505b92915050565b60008060008373ffffffffffffffffffffffffffffffffffffffff1673ffffffffffffffffffffffffffffffffffffffff16815260200190815260200160002060050160006101000a81548160ff02191690831515021790555050565b6000600160008373ffffffffffffffffffffffffffffffffffffffff1673ffffffffffffffffffffffffffffffffffffffff16815260200190815260200160002060000160009054906101000a900473ffffffffffffffffffffffffffffffffffffffff1673ffffffffffffffffffffffffffffffffffffffff16319050919050565b600060606000808473ffffffffffffffffffffffffffffffffffffffff1673ffffffffffffffffffffffffffffffffffffffff16815260200190815260200160002060050160009054906101000a900460ff166000808573ffffffffffffffffffffffffffffffffffffffff1673ffffffffffffffffffffffffffffffffffffffff168152602001908152602001600020600401808054600181600116156101000203166002900480601f016020809104026020016040519081016040528092919081815260200182805460018160011615610100020316600290048015610e225780601f10610df757610100808354040283529160200191610e22565b820191906000526020600020905b815481529060010190602001808311610e0557829003601f168201915b5050505050905091509150915091565b6000816040516020018082805190602001908083835b60208310610e6b5780518252602082019150602081019050602083039250610e48565b6001836020036101000a03801982511681845116808217855250505050505090500191505060405160208183030381529060405280519060200120600160008573ffffffffffffffffffffffffffffffffffffffff1673ffffffffffffffffffffffffffffffffffffffff1681526020019081526020016000206002016040516020018082805460018160011615610100020316600290048015610f465780601f10610f24576101008083540402835291820191610f46565b820191906000526020600020905b815481529060010190602001808311610f32575b50509150506040516020818303038152906040528051906020012014156110185760018060008573ffffffffffffffffffffffffffffffffffffffff1673ffffffffffffffffffffffffffffffffffffffff16815260200190815260200160002060040160006101000a81548160ff021916908315150217905550600160008473ffffffffffffffffffffffffffffffffffffffff1673ffffffffffffffffffffffffffffffffffffffff16815260200190815260200160002060040160009054906101000a900460ff16905061101d565b600090505b92915050565b60008060008373ffffffffffffffffffffffffffffffffffffffff1673ffffffffffffffffffffffffffffffffffffffff16815260200190815260200160002060000160009054906101000a900473ffffffffffffffffffffffffffffffffffffffff1673ffffffffffffffffffffffffffffffffffffffff16319050919050565b6000600160008373ffffffffffffffffffffffffffffffffffffffff1673ffffffffffffffffffffffffffffffffffffffff16815260200190815260200160002060040160006101000a81548160ff02191690831515021790555050565b60006060600160008473ffffffffffffffffffffffffffffffffffffffff1673ffffffffffffffffffffffffffffffffffffffff16815260200190815260200160002060040160009054906101000a900460ff16600160008573ffffffffffffffffffffffffffffffffffffffff1673ffffffffffffffffffffffffffffffffffffffff168152602001908152602001600020600301808054600181600116156101000203166002900480601f01602080910402602001604051908101604052809291908181526020018280546001816001161561010002031660029004801561122e5780601f106112035761010080835404028352916020019161122e565b820191906000526020600020905b81548152906001019060200180831161121157829003601f168201915b5050505050905091509150915091565b6000600260009054906101000a900473ffffffffffffffffffffffffffffffffffffffff1673ffffffffffffffffffffffffffffffffffffffff163373ffffffffffffffffffffffffffffffffffffffff16141561129b57600080fd5b3373ffffffffffffffffffffffffffffffffffffffff166000808873ffffffffffffffffffffffffffffffffffffffff1673ffffffffffffffffffffffffffffffffffffffff16815260200190815260200160002060000160009054906101000a900473ffffffffffffffffffffffffffffffffffffffff1673ffffffffffffffffffffffffffffffffffffffff16141561133557600080fd5b856000808873ffffffffffffffffffffffffffffffffffffffff1673ffffffffffffffffffffffffffffffffffffffff16815260200190815260200160002060000160006101000a81548173ffffffffffffffffffffffffffffffffffffffff021916908373ffffffffffffffffffffffffffffffffffffffff160217905550846000808873ffffffffffffffffffffffffffffffffffffffff1673ffffffffffffffffffffffffffffffffffffffff168152602001908152602001600020600101908051906020019061140a929190611858565b50836000808873ffffffffffffffffffffffffffffffffffffffff1673ffffffffffffffffffffffffffffffffffffffff1681526020019081526020016000206002019080519060200190611460929190611858565b50826000808873ffffffffffffffffffffffffffffffffffffffff1673ffffffffffffffffffffffffffffffffffffffff16815260200190815260200160002060030190805190602001906114b6929190611858565b50816000808873ffffffffffffffffffffffffffffffffffffffff1673ffffffffffffffffffffffffffffffffffffffff168152602001908152602001600020600401908051906020019061150c929190611858565b5060008060008873ffffffffffffffffffffffffffffffffffffffff1673ffffffffffffffffffffffffffffffffffffffff16815260200190815260200160002060050160006101000a81548160ff0219169083151502179055506001905095945050505050565b6000600260009054906101000a900473ffffffffffffffffffffffffffffffffffffffff1673ffffffffffffffffffffffffffffffffffffffff163373ffffffffffffffffffffffffffffffffffffffff16146115d057600080fd5b3373ffffffffffffffffffffffffffffffffffffffff16600160008773ffffffffffffffffffffffffffffffffffffffff1673ffffffffffffffffffffffffffffffffffffffff16815260200190815260200160002060000160009054906101000a900473ffffffffffffffffffffffffffffffffffffffff1673ffffffffffffffffffffffffffffffffffffffff16141561166b57600080fd5b84600160008773ffffffffffffffffffffffffffffffffffffffff1673ffffffffffffffffffffffffffffffffffffffff16815260200190815260200160002060000160006101000a81548173ffffffffffffffffffffffffffffffffffffffff021916908373ffffffffffffffffffffffffffffffffffffffff16021790555083600160008773ffffffffffffffffffffffffffffffffffffffff1673ffffffffffffffffffffffffffffffffffffffff1681526020019081526020016000206001019080519060200190611742929190611858565b5082600160008773ffffffffffffffffffffffffffffffffffffffff1673ffffffffffffffffffffffffffffffffffffffff1681526020019081526020016000206002019080519060200190611799929190611858565b5081600160008773ffffffffffffffffffffffffffffffffffffffff1673ffffffffffffffffffffffffffffffffffffffff16815260200190815260200160002060030190805190602001906117f0929190611858565b506000600160008773ffffffffffffffffffffffffffffffffffffffff1673ffffffffffffffffffffffffffffffffffffffff16815260200190815260200160002060040160006101000a81548160ff02191690831515021790555060019050949350505050565b828054600181600116156101000203166002900490600052602060002090601f016020900481019282601f1061189957805160ff19168380011785556118c7565b828001600101855582156118c7579182015b828111156118c65782518255916020019190600101906118ab565b5b5090506118d491906118d8565b5090565b6118fa91905b808211156118f65760008160009055506001016118de565b5090565b9056fea265627a7a72315820a3f425fa2eef9f3f85b52ed0f60a0ec5aaa9eb919c9d1e3c71d88e78a8a12f8f64736f6c63430005100032",
  "source": "pragma solidity >=0.4.0 <0.6.0;\n\ncontract Auth {\n    struct UserDetail {\n        address addr;\n        string name;\n        string password;\n        string CNIC;\n        string ipfsImageHash;\n        bool isUserLoggedIn;\n    }\n\n    mapping(address => UserDetail) user;\n\n    // user registration function\n    function registerUser(\n        address _address,\n        string memory _name,\n        string memory _password,\n        string memory _cnic,\n        string memory _ipfsImageHash\n    ) public notAdmin returns (bool) {\n        require(user[_address].addr != msg.sender);\n        user[_address].addr = _address;\n        user[_address].name = _name;\n        user[_address].password = _password;\n        user[_address].CNIC = _cnic;\n        user[_address].ipfsImageHash = _ipfsImageHash;\n        user[_address].isUserLoggedIn = false;\n        return true;\n    }\n\n    // user login function\n    function loginUser(address _address, string memory _password)\n        public\n        returns (bool)\n    {\n        if (\n            keccak256(abi.encodePacked(user[_address].password)) ==\n            keccak256(abi.encodePacked(_password))\n        ) {\n            user[_address].isUserLoggedIn = true;\n            return user[_address].isUserLoggedIn;\n        } else {\n            return false;\n        }\n    }\n\n    // check the user logged In or not\n    function checkIsUserLogged(address _address)\n        public\n        view\n        returns (bool, string memory)\n    {\n        return (user[_address].isUserLoggedIn, user[_address].ipfsImageHash);\n    }\n\n    // logout the user\n    function logoutUser(address _address) public {\n        user[_address].isUserLoggedIn = false;\n    }\n\n    function getUserBalance(address _address) public view returns (uint256) {\n        return (user[_address].addr.balance);\n    }\n\n    struct AdminDetail {\n        address adminAddress;\n        string name;\n        string password;\n        string ipfsImageHash;\n        bool isAdminLoggedIn;\n    }\n    mapping(address => AdminDetail) admin;\n    // admin registration function\n\n    address adminAddress;\n\n    constructor() public {\n        adminAddress = 0x5B38Da6a701c568545dCfcB03FcB875f56beddC4;\n    }\n\n    modifier onlyAdmin() {\n        require(msg.sender == adminAddress);\n        _;\n    }\n\n    modifier notAdmin() {\n        require(msg.sender != adminAddress);\n        _;\n    }\n\n    function registerAdmin(\n        address _address,\n        string memory _name,\n        string memory _password,\n        string memory _ipfsImageHash\n    ) public onlyAdmin returns (bool) {\n        require(admin[_address].adminAddress != msg.sender);\n        admin[_address].adminAddress = _address;\n        admin[_address].name = _name;\n        admin[_address].password = _password;\n        admin[_address].ipfsImageHash = _ipfsImageHash;\n        admin[_address].isAdminLoggedIn = false;\n        return true;\n    }\n\n    // admin login function\n    function loginAdmin(address _address, string memory _password)\n        public\n        returns (bool)\n    {\n        if (\n            keccak256(abi.encodePacked(admin[_address].password)) ==\n            keccak256(abi.encodePacked(_password))\n        ) {\n            admin[_address].isAdminLoggedIn = true;\n            return admin[_address].isAdminLoggedIn;\n        } else {\n            return false;\n        }\n    }\n\n    // check the admin logged In or not\n    function checkIsAdminLogged(address _address)\n        public\n        view\n        returns (bool, string memory)\n    {\n        return (admin[_address].isAdminLoggedIn, admin[_address].ipfsImageHash);\n    }\n\n    // logout the admin\n    function logoutAdmin(address _address) public {\n        admin[_address].isAdminLoggedIn = false;\n    }\n\n    function getAdminBalance(address _address) public view returns (uint256) {\n        return (admin[_address].adminAddress.balance);\n    }\n}\n",
  "sourcePath": "/home/zaryab/VSCodeProjects/land-records-blockchain/contracts/Auth.sol",
  "compiler": {
    "name": "solc",
    "version": "0.5.16+commit.9c3226ce.Emscripten.clang"
  },
  "schemaVersion": "3.4.1",
  "updatedAt": "2021-08-25T13:43:33.476Z",
  "devdoc": {
    "methods": {}
  },
  "userdoc": {
    "methods": {}
  }
}