{
  "contractName": "Land",
  "abi": [
    {
      "constant": true,
      "inputs": [
        {
          "internalType": "uint256",
          "name": "",
          "type": "uint256"
        }
      ],
      "name": "properties",
      "outputs": [
        {
          "internalType": "uint256",
          "name": "landID",
          "type": "uint256"
        },
        {
          "internalType": "uint256",
          "name": "value",
          "type": "uint256"
        },
        {
          "internalType": "address",
          "name": "currOwner",
          "type": "address"
        },
        {
          "internalType": "string",
          "name": "city",
          "type": "string"
        },
        {
          "internalType": "string",
          "name": "measurement",
          "type": "string"
        },
        {
          "internalType": "string",
          "name": "status",
          "type": "string"
        }
      ],
      "payable": false,
      "stateMutability": "view",
      "type": "function"
    },
    {
      "constant": true,
      "inputs": [
        {
          "internalType": "uint256",
          "name": "",
          "type": "uint256"
        }
      ],
      "name": "propertiesAddress",
      "outputs": [
        {
          "internalType": "address",
          "name": "",
          "type": "address"
        }
      ],
      "payable": false,
      "stateMutability": "view",
      "type": "function"
    },
    {
      "constant": true,
      "inputs": [
        {
          "internalType": "uint256",
          "name": "",
          "type": "uint256"
        }
      ],
      "name": "propertiesCity",
      "outputs": [
        {
          "internalType": "string",
          "name": "",
          "type": "string"
        }
      ],
      "payable": false,
      "stateMutability": "view",
      "type": "function"
    },
    {
      "constant": true,
      "inputs": [
        {
          "internalType": "uint256",
          "name": "",
          "type": "uint256"
        }
      ],
      "name": "propertiesIDs",
      "outputs": [
        {
          "internalType": "uint256",
          "name": "",
          "type": "uint256"
        }
      ],
      "payable": false,
      "stateMutability": "view",
      "type": "function"
    },
    {
      "constant": true,
      "inputs": [
        {
          "internalType": "uint256",
          "name": "",
          "type": "uint256"
        }
      ],
      "name": "propertiesMeasurement",
      "outputs": [
        {
          "internalType": "string",
          "name": "",
          "type": "string"
        }
      ],
      "payable": false,
      "stateMutability": "view",
      "type": "function"
    },
    {
      "constant": true,
      "inputs": [
        {
          "internalType": "uint256",
          "name": "",
          "type": "uint256"
        }
      ],
      "name": "propertiesStatus",
      "outputs": [
        {
          "internalType": "string",
          "name": "",
          "type": "string"
        }
      ],
      "payable": false,
      "stateMutability": "view",
      "type": "function"
    },
    {
      "constant": true,
      "inputs": [
        {
          "internalType": "uint256",
          "name": "",
          "type": "uint256"
        }
      ],
      "name": "propertiesValues",
      "outputs": [
        {
          "internalType": "uint256",
          "name": "",
          "type": "uint256"
        }
      ],
      "payable": false,
      "stateMutability": "view",
      "type": "function"
    },
    {
      "constant": false,
      "inputs": [
        {
          "internalType": "uint256",
          "name": "_propId",
          "type": "uint256"
        },
        {
          "internalType": "uint256",
          "name": "_value",
          "type": "uint256"
        },
        {
          "internalType": "address",
          "name": "_owner",
          "type": "address"
        },
        {
          "internalType": "string",
          "name": "_city",
          "type": "string"
        },
        {
          "internalType": "string",
          "name": "_measurement",
          "type": "string"
        }
      ],
      "name": "createProperty",
      "outputs": [
        {
          "internalType": "bool",
          "name": "",
          "type": "bool"
        }
      ],
      "payable": false,
      "stateMutability": "nonpayable",
      "type": "function"
    },
    {
      "constant": true,
      "inputs": [
        {
          "internalType": "uint256",
          "name": "_propId",
          "type": "uint256"
        }
      ],
      "name": "getPropertyDetails",
      "outputs": [
        {
          "internalType": "uint256",
          "name": "",
          "type": "uint256"
        },
        {
          "internalType": "uint256",
          "name": "",
          "type": "uint256"
        },
        {
          "internalType": "address",
          "name": "",
          "type": "address"
        }
      ],
      "payable": false,
      "stateMutability": "view",
      "type": "function"
    },
    {
      "constant": true,
      "inputs": [],
      "name": "getAllDetails",
      "outputs": [
        {
          "internalType": "uint256[]",
          "name": "",
          "type": "uint256[]"
        },
        {
          "internalType": "uint256[]",
          "name": "",
          "type": "uint256[]"
        },
        {
          "internalType": "address[]",
          "name": "",
          "type": "address[]"
        },
        {
          "internalType": "string[]",
          "name": "",
          "type": "string[]"
        },
        {
          "internalType": "string[]",
          "name": "",
          "type": "string[]"
        },
        {
          "internalType": "string[]",
          "name": "",
          "type": "string[]"
        }
      ],
      "payable": false,
      "stateMutability": "view",
      "type": "function"
    }
  ],
  "bytecode": "0x608060405234801561001057600080fd5b50611743806100206000396000f3fe608060405234801561001057600080fd5b506004361061009e5760003560e01c8063a83e382c11610066578063a83e382c14610195578063a854158f146101c5578063ccc5d7d4146101f5578063d272187a14610218578063f7b10808146102485761009e565b8063126dbe43146100a35780631aa068e0146100d557806394e504d214610105578063a4ad449d14610135578063a4c4596a14610165575b600080fd5b6100bd60048036036100b89190810190611059565b61027d565b6040516100cc93929190611459565b60405180910390f35b6100ef60048036036100ea9190810190611059565b6102f1565b6040516100fc919061141c565b60405180910390f35b61011f600480360361011a9190810190611059565b6103aa565b60405161012c919061143e565b60405180910390f35b61014f600480360361014a9190810190611082565b6103cb565b60405161015c9190611401565b60405180910390f35b61017f600480360361017a9190810190611059565b6106c5565b60405161018c919061143e565b60405180910390f35b6101af60048036036101aa9190810190611059565b6106e6565b6040516101bc919061141c565b60405180910390f35b6101df60048036036101da9190810190611059565b61079f565b6040516101ec919061135b565b60405180910390f35b6101fd6107db565b60405161020f96959493929190611376565b60405180910390f35b610232600480360361022d9190810190611059565b610bd9565b60405161023f919061141c565b60405180910390f35b610262600480360361025d9190810190611059565b610c92565b60405161027496959493929190611490565b60405180910390f35b6000806000806000858152602001908152602001600020600001546000808681526020019081526020016000206001015460008087815260200190815260200160002060020160009054906101000a900473ffffffffffffffffffffffffffffffffffffffff169250925092509193909250565b600581815481106102fe57fe5b906000526020600020016000915090508054600181600116156101000203166002900480601f0160208091040260200160405190810160405280929190818152602001828054600181600116156101000203166002900480156103a25780601f10610377576101008083540402835291602001916103a2565b820191906000526020600020905b81548152906001019060200180831161038557829003601f168201915b505050505081565b600181815481106103b757fe5b906000526020600020016000915090505481565b60006040518060c001604052808781526020018681526020018573ffffffffffffffffffffffffffffffffffffffff1681526020018481526020018381526020016040518060400160405280601681526020017f4e6f742d417661696c61626c652d466f722d53616c6500000000000000000000815250815250600080888152602001908152602001600020600082015181600001556020820151816001015560408201518160020160006101000a81548173ffffffffffffffffffffffffffffffffffffffff021916908373ffffffffffffffffffffffffffffffffffffffff16021790555060608201518160030190805190602001906104ce929190610eb6565b5060808201518160040190805190602001906104eb929190610eb6565b5060a0820151816005019080519060200190610508929190610eb6565b509050506001869080600181540180825580915050906001820390600052602060002001600090919290919091505550600285908060018154018082558091505090600182039060005260206000200160009091929091909150555060038490806001815401808255809150509060018203906000526020600020016000909192909190916101000a81548173ffffffffffffffffffffffffffffffffffffffff021916908373ffffffffffffffffffffffffffffffffffffffff160217905550506004839080600181540180825580915050906001820390600052602060002001600090919290919091509080519060200190610607929190610f36565b50506005829080600181540180825580915050906001820390600052602060002001600090919290919091509080519060200190610646929190610f36565b505060068060018154018082558091505090600182039060005260206000200160006040518060400160405280601681526020017f4e6f742d417661696c61626c652d466f722d53616c6500000000000000000000815250909190915090805190602001906106b6929190610f36565b50506001905095945050505050565b600281815481106106d257fe5b906000526020600020016000915090505481565b600481815481106106f357fe5b906000526020600020016000915090508054600181600116156101000203166002900480601f0160208091040260200160405190810160405280929190818152602001828054600181600116156101000203166002900480156107975780601f1061076c57610100808354040283529160200191610797565b820191906000526020600020905b81548152906001019060200180831161077a57829003601f168201915b505050505081565b600381815481106107ac57fe5b906000526020600020016000915054906101000a900473ffffffffffffffffffffffffffffffffffffffff1681565b6060806060806060806001600260036004600560068580548060200260200160405190810160405280929190818152602001828054801561083b57602002820191906000526020600020905b815481526020019060010190808311610827575b505050505095508480548060200260200160405190810160405280929190818152602001828054801561088d57602002820191906000526020600020905b815481526020019060010190808311610879575b505050505094508380548060200260200160405190810160405280929190818152602001828054801561091557602002820191906000526020600020905b8160009054906101000a900473ffffffffffffffffffffffffffffffffffffffff1673ffffffffffffffffffffffffffffffffffffffff16815260200190600101908083116108cb575b5050505050935082805480602002602001604051908101604052809291908181526020016000905b828210156109f9578382906000526020600020018054600181600116156101000203166002900480601f0160208091040260200160405190810160405280929190818152602001828054600181600116156101000203166002900480156109e55780601f106109ba576101008083540402835291602001916109e5565b820191906000526020600020905b8154815290600101906020018083116109c857829003601f168201915b50505050508152602001906001019061093d565b50505050925081805480602002602001604051908101604052809291908181526020016000905b82821015610adc578382906000526020600020018054600181600116156101000203166002900480601f016020809104026020016040519081016040528092919081815260200182805460018160011615610100020316600290048015610ac85780601f10610a9d57610100808354040283529160200191610ac8565b820191906000526020600020905b815481529060010190602001808311610aab57829003601f168201915b505050505081526020019060010190610a20565b50505050915080805480602002602001604051908101604052809291908181526020016000905b82821015610bbf578382906000526020600020018054600181600116156101000203166002900480601f016020809104026020016040519081016040528092919081815260200182805460018160011615610100020316600290048015610bab5780601f10610b8057610100808354040283529160200191610bab565b820191906000526020600020905b815481529060010190602001808311610b8e57829003601f168201915b505050505081526020019060010190610b03565b505050509050955095509550955095509550909192939495565b60068181548110610be657fe5b906000526020600020016000915090508054600181600116156101000203166002900480601f016020809104026020016040519081016040528092919081815260200182805460018160011615610100020316600290048015610c8a5780601f10610c5f57610100808354040283529160200191610c8a565b820191906000526020600020905b815481529060010190602001808311610c6d57829003601f168201915b505050505081565b60006020528060005260406000206000915090508060000154908060010154908060020160009054906101000a900473ffffffffffffffffffffffffffffffffffffffff1690806003018054600181600116156101000203166002900480601f016020809104026020016040519081016040528092919081815260200182805460018160011615610100020316600290048015610d705780601f10610d4557610100808354040283529160200191610d70565b820191906000526020600020905b815481529060010190602001808311610d5357829003601f168201915b505050505090806004018054600181600116156101000203166002900480601f016020809104026020016040519081016040528092919081815260200182805460018160011615610100020316600290048015610e0e5780601f10610de357610100808354040283529160200191610e0e565b820191906000526020600020905b815481529060010190602001808311610df157829003601f168201915b505050505090806005018054600181600116156101000203166002900480601f016020809104026020016040519081016040528092919081815260200182805460018160011615610100020316600290048015610eac5780601f10610e8157610100808354040283529160200191610eac565b820191906000526020600020905b815481529060010190602001808311610e8f57829003601f168201915b5050505050905086565b828054600181600116156101000203166002900490600052602060002090601f016020900481019282601f10610ef757805160ff1916838001178555610f25565b82800160010185558215610f25579182015b82811115610f24578251825591602001919060010190610f09565b5b509050610f329190610fb6565b5090565b828054600181600116156101000203166002900490600052602060002090601f016020900481019282601f10610f7757805160ff1916838001178555610fa5565b82800160010185558215610fa5579182015b82811115610fa4578251825591602001919060010190610f89565b5b509050610fb29190610fb6565b5090565b610fd891905b80821115610fd4576000816000905550600101610fbc565b5090565b90565b600081359050610fea816116d2565b92915050565b600082601f83011261100157600080fd5b813561101461100f82611533565b611506565b9150808252602083016020830185838301111561103057600080fd5b61103b83828461167f565b50505092915050565b600081359050611053816116e9565b92915050565b60006020828403121561106b57600080fd5b600061107984828501611044565b91505092915050565b600080600080600060a0868803121561109a57600080fd5b60006110a888828901611044565b95505060206110b988828901611044565b94505060406110ca88828901610fdb565b935050606086013567ffffffffffffffff8111156110e757600080fd5b6110f388828901610ff0565b925050608086013567ffffffffffffffff81111561111057600080fd5b61111c88828901610ff0565b9150509295509295909350565b6000611135838361116d565b60208301905092915050565b600061114d83836112cb565b905092915050565b6000611161838361133d565b60208301905092915050565b61117681611637565b82525050565b61118581611637565b82525050565b60006111968261158f565b6111a081856115e2565b93506111ab8361155f565b8060005b838110156111dc5781516111c38882611129565b97506111ce836115bb565b9250506001810190506111af565b5085935050505092915050565b60006111f48261159a565b6111fe81856115f3565b9350836020820285016112108561156f565b8060005b8581101561124c578484038952815161122d8582611141565b9450611238836115c8565b925060208a01995050600181019050611214565b50829750879550505050505092915050565b6000611269826115a5565b6112738185611604565b935061127e8361157f565b8060005b838110156112af5781516112968882611155565b97506112a1836115d5565b925050600181019050611282565b5085935050505092915050565b6112c581611649565b82525050565b60006112d6826115b0565b6112e08185611615565b93506112f081856020860161168e565b6112f9816116c1565b840191505092915050565b600061130f826115b0565b6113198185611626565b935061132981856020860161168e565b611332816116c1565b840191505092915050565b61134681611675565b82525050565b61135581611675565b82525050565b6000602082019050611370600083018461117c565b92915050565b600060c0820190508181036000830152611390818961125e565b905081810360208301526113a4818861125e565b905081810360408301526113b8818761118b565b905081810360608301526113cc81866111e9565b905081810360808301526113e081856111e9565b905081810360a08301526113f481846111e9565b9050979650505050505050565b600060208201905061141660008301846112bc565b92915050565b600060208201905081810360008301526114368184611304565b905092915050565b6000602082019050611453600083018461134c565b92915050565b600060608201905061146e600083018661134c565b61147b602083018561134c565b611488604083018461117c565b949350505050565b600060c0820190506114a5600083018961134c565b6114b2602083018861134c565b6114bf604083018761117c565b81810360608301526114d18186611304565b905081810360808301526114e58185611304565b905081810360a08301526114f98184611304565b9050979650505050505050565b6000604051905081810181811067ffffffffffffffff8211171561152957600080fd5b8060405250919050565b600067ffffffffffffffff82111561154a57600080fd5b601f19601f8301169050602081019050919050565b6000819050602082019050919050565b6000819050602082019050919050565b6000819050602082019050919050565b600081519050919050565b600081519050919050565b600081519050919050565b600081519050919050565b6000602082019050919050565b6000602082019050919050565b6000602082019050919050565b600082825260208201905092915050565b600082825260208201905092915050565b600082825260208201905092915050565b600082825260208201905092915050565b600082825260208201905092915050565b600061164282611655565b9050919050565b60008115159050919050565b600073ffffffffffffffffffffffffffffffffffffffff82169050919050565b6000819050919050565b82818337600083830152505050565b60005b838110156116ac578082015181840152602081019050611691565b838111156116bb576000848401525b50505050565b6000601f19601f8301169050919050565b6116db81611637565b81146116e657600080fd5b50565b6116f281611675565b81146116fd57600080fd5b5056fea365627a7a723158203ccfd30f05702e0beca03511a70620ebd7f1c081b34ece7682cc91f185151eb66c6578706572696d656e74616cf564736f6c63430005100040",
  "source": "pragma experimental ABIEncoderV2;\r\npragma solidity >=0.4.22 <0.9.0;\r\n\r\ncontract Land {    \r\n\r\n\tstruct PropertyDetail {\r\n\t    uint landID;\r\n\t\tuint value;\r\n\t\taddress currOwner;\r\n\t\tstring city;\r\n\t\tstring measurement;\r\n\t\tstring status;\r\n\t}\r\n\t\r\n    mapping(uint => PropertyDetail) public properties;\r\n    uint[] public propertiesIDs;\r\n    uint[] public propertiesValues;\r\n    address[] public propertiesAddress;\r\n    string[] public propertiesCity;\r\n    string[] public propertiesMeasurement;\r\n    string[] public propertiesStatus;\r\n    \r\n\t// Create Property\r\n    function createProperty(uint _propId, uint _value, address _owner, string memory _city, string memory _measurement) public returns (bool)  {\r\n\t\tproperties[_propId] = PropertyDetail(_propId, _value, _owner, _city, _measurement,\"Not-Available-For-Sale\");\r\n\t\tpropertiesIDs.push(_propId);\r\n\t\tpropertiesValues.push(_value);\r\n\t\tpropertiesAddress.push(_owner);\r\n\t\tpropertiesCity.push(_city);\r\n\t\tpropertiesMeasurement.push(_measurement);\r\n\t\tpropertiesStatus.push(\"Not-Available-For-Sale\");\r\n\t\treturn true;\r\n\t}\r\n\t\r\n\t// Get the property details.\r\n\t function getPropertyDetails(uint _propId) view public returns (uint, uint, address)  {\r\n\t\treturn (properties[_propId].landID, properties[_propId].value, properties[_propId].currOwner);\r\n\t}\r\n\t\r\n    // Get the property details.\r\n\t function getAllDetails() view public returns (uint[] memory, uint[] memory, address[] memory, string[] memory, string[] memory, string[] memory)  {\r\n\t\treturn (propertiesIDs, propertiesValues, propertiesAddress, propertiesCity, propertiesMeasurement,propertiesStatus);\r\n\t}\r\n\r\n}",
  "sourcePath": "D:/Blockchain/Template/landrecord/land-records-blockchain/contracts/Land.sol",
  "compiler": {
    "name": "solc",
    "version": "0.5.16+commit.9c3226ce.Emscripten.clang"
  },
  "schemaVersion": "3.4.1",
  "updatedAt": "2021-07-01T12:44:59.388Z",
  "networkType": "ethereum",
  "devdoc": {
    "methods": {}
  },
  "userdoc": {
    "methods": {}
  }
}