{
  "contractName": "Land",
  "abi": [
    {
      "inputs": [],
      "payable": false,
      "stateMutability": "nonpayable",
      "type": "constructor"
    },
    {
      "constant": true,
      "inputs": [
        {
          "internalType": "uint256",
          "name": "",
          "type": "uint256"
        }
      ],
      "name": "propertiesIDs",
      "outputs": [
        {
          "internalType": "uint256",
          "name": "",
          "type": "uint256"
        }
      ],
      "payable": false,
      "stateMutability": "view",
      "type": "function"
    },
    {
      "constant": false,
      "inputs": [
        {
          "internalType": "address",
          "name": "_superAdmin",
          "type": "address"
        },
        {
          "internalType": "string",
          "name": "_village",
          "type": "string"
        }
      ],
      "name": "addSuperAdmin",
      "outputs": [],
      "payable": false,
      "stateMutability": "nonpayable",
      "type": "function"
    },
    {
      "constant": false,
      "inputs": [
        {
          "internalType": "string",
          "name": "_state",
          "type": "string"
        },
        {
          "internalType": "string",
          "name": "_district",
          "type": "string"
        },
        {
          "internalType": "string",
          "name": "_village",
          "type": "string"
        },
        {
          "internalType": "uint256",
          "name": "_surveyNumber",
          "type": "uint256"
        },
        {
          "internalType": "address payable",
          "name": "_OwnerAddress",
          "type": "address"
        },
        {
          "internalType": "uint256",
          "name": "_marketValue",
          "type": "uint256"
        },
        {
          "internalType": "uint256",
          "name": "id",
          "type": "uint256"
        },
        {
          "internalType": "string",
          "name": "_measurement",
          "type": "string"
        },
        {
          "internalType": "string",
          "name": "_ipfsHash",
          "type": "string"
        },
        {
          "internalType": "string",
          "name": "_landType",
          "type": "string"
        }
      ],
      "name": "Registration",
      "outputs": [
        {
          "internalType": "bool",
          "name": "",
          "type": "bool"
        }
      ],
      "payable": false,
      "stateMutability": "nonpayable",
      "type": "function"
    },
    {
      "constant": true,
      "inputs": [
        {
          "internalType": "uint256",
          "name": "id",
          "type": "uint256"
        }
      ],
      "name": "landInfoOwner",
      "outputs": [
        {
          "internalType": "string",
          "name": "",
          "type": "string"
        },
        {
          "internalType": "string",
          "name": "",
          "type": "string"
        },
        {
          "internalType": "string",
          "name": "",
          "type": "string"
        },
        {
          "internalType": "uint256",
          "name": "",
          "type": "uint256"
        },
        {
          "internalType": "bool",
          "name": "",
          "type": "bool"
        },
        {
          "internalType": "uint256",
          "name": "",
          "type": "uint256"
        },
        {
          "internalType": "string",
          "name": "",
          "type": "string"
        }
      ],
      "payable": false,
      "stateMutability": "view",
      "type": "function"
    },
    {
      "constant": true,
      "inputs": [
        {
          "internalType": "uint256",
          "name": "id",
          "type": "uint256"
        }
      ],
      "name": "remainingDetail",
      "outputs": [
        {
          "internalType": "string",
          "name": "",
          "type": "string"
        }
      ],
      "payable": false,
      "stateMutability": "view",
      "type": "function"
    },
    {
      "constant": true,
      "inputs": [
        {
          "internalType": "uint256",
          "name": "id",
          "type": "uint256"
        }
      ],
      "name": "showAllLands",
      "outputs": [
        {
          "internalType": "address",
          "name": "",
          "type": "address"
        },
        {
          "internalType": "string",
          "name": "",
          "type": "string"
        },
        {
          "internalType": "string",
          "name": "",
          "type": "string"
        },
        {
          "internalType": "string",
          "name": "",
          "type": "string"
        },
        {
          "internalType": "uint256",
          "name": "",
          "type": "uint256"
        },
        {
          "internalType": "uint256",
          "name": "",
          "type": "uint256"
        },
        {
          "internalType": "string",
          "name": "",
          "type": "string"
        }
      ],
      "payable": false,
      "stateMutability": "view",
      "type": "function"
    },
    {
      "constant": true,
      "inputs": [
        {
          "internalType": "uint256",
          "name": "id",
          "type": "uint256"
        }
      ],
      "name": "showAllLandsRemainig",
      "outputs": [
        {
          "internalType": "uint256",
          "name": "",
          "type": "uint256"
        }
      ],
      "payable": false,
      "stateMutability": "view",
      "type": "function"
    },
    {
      "constant": true,
      "inputs": [
        {
          "internalType": "uint256",
          "name": "id",
          "type": "uint256"
        }
      ],
      "name": "landInfoUser",
      "outputs": [
        {
          "internalType": "address",
          "name": "",
          "type": "address"
        },
        {
          "internalType": "uint256",
          "name": "",
          "type": "uint256"
        },
        {
          "internalType": "bool",
          "name": "",
          "type": "bool"
        },
        {
          "internalType": "address",
          "name": "",
          "type": "address"
        },
        {
          "internalType": "enum Land.reqStatus",
          "name": "",
          "type": "uint8"
        }
      ],
      "payable": false,
      "stateMutability": "view",
      "type": "function"
    },
    {
      "constant": true,
      "inputs": [
        {
          "internalType": "string",
          "name": "_state",
          "type": "string"
        },
        {
          "internalType": "string",
          "name": "_district",
          "type": "string"
        },
        {
          "internalType": "string",
          "name": "_village",
          "type": "string"
        },
        {
          "internalType": "uint256",
          "name": "_surveyNumber",
          "type": "uint256"
        }
      ],
      "name": "computeId",
      "outputs": [
        {
          "internalType": "uint256",
          "name": "",
          "type": "uint256"
        }
      ],
      "payable": false,
      "stateMutability": "view",
      "type": "function"
    },
    {
      "constant": false,
      "inputs": [
        {
          "internalType": "uint256",
          "name": "id",
          "type": "uint256"
        }
      ],
      "name": "requstToLandOwner",
      "outputs": [],
      "payable": false,
      "stateMutability": "nonpayable",
      "type": "function"
    },
    {
      "constant": true,
      "inputs": [],
      "name": "viewAssets",
      "outputs": [
        {
          "internalType": "uint256[]",
          "name": "",
          "type": "uint256[]"
        }
      ],
      "payable": false,
      "stateMutability": "view",
      "type": "function"
    },
    {
      "constant": true,
      "inputs": [
        {
          "internalType": "uint256",
          "name": "property",
          "type": "uint256"
        }
      ],
      "name": "viewRequest",
      "outputs": [
        {
          "internalType": "address",
          "name": "",
          "type": "address"
        }
      ],
      "payable": false,
      "stateMutability": "view",
      "type": "function"
    },
    {
      "constant": false,
      "inputs": [
        {
          "internalType": "uint256",
          "name": "property",
          "type": "uint256"
        },
        {
          "internalType": "enum Land.reqStatus",
          "name": "status",
          "type": "uint8"
        }
      ],
      "name": "processRequest",
      "outputs": [],
      "payable": false,
      "stateMutability": "nonpayable",
      "type": "function"
    },
    {
      "constant": false,
      "inputs": [
        {
          "internalType": "uint256",
          "name": "property",
          "type": "uint256"
        }
      ],
      "name": "makeAvailable",
      "outputs": [],
      "payable": false,
      "stateMutability": "nonpayable",
      "type": "function"
    },
    {
      "constant": true,
      "inputs": [
        {
          "internalType": "uint256",
          "name": "id",
          "type": "uint256"
        }
      ],
      "name": "showMarketValue",
      "outputs": [
        {
          "internalType": "uint256",
          "name": "",
          "type": "uint256"
        }
      ],
      "payable": false,
      "stateMutability": "view",
      "type": "function"
    },
    {
      "constant": false,
      "inputs": [
        {
          "internalType": "uint256",
          "name": "property",
          "type": "uint256"
        },
        {
          "internalType": "uint256",
          "name": "_marketValue",
          "type": "uint256"
        }
      ],
      "name": "changeMarketValue",
      "outputs": [],
      "payable": false,
      "stateMutability": "nonpayable",
      "type": "function"
    },
    {
      "constant": true,
      "inputs": [],
      "name": "getAllLands",
      "outputs": [
        {
          "internalType": "uint256[]",
          "name": "",
          "type": "uint256[]"
        }
      ],
      "payable": false,
      "stateMutability": "view",
      "type": "function"
    },
    {
      "constant": true,
      "inputs": [
        {
          "internalType": "uint256",
          "name": "id",
          "type": "uint256"
        }
      ],
      "name": "viewMarkded",
      "outputs": [
        {
          "internalType": "string",
          "name": "",
          "type": "string"
        },
        {
          "internalType": "address",
          "name": "",
          "type": "address"
        },
        {
          "internalType": "string",
          "name": "",
          "type": "string"
        },
        {
          "internalType": "bool",
          "name": "",
          "type": "bool"
        },
        {
          "internalType": "uint256",
          "name": "",
          "type": "uint256"
        },
        {
          "internalType": "string",
          "name": "",
          "type": "string"
        },
        {
          "internalType": "uint256",
          "name": "",
          "type": "uint256"
        }
      ],
      "payable": false,
      "stateMutability": "view",
      "type": "function"
    },
    {
      "constant": true,
      "inputs": [
        {
          "internalType": "uint256",
          "name": "id",
          "type": "uint256"
        }
      ],
      "name": "viewMarkdedRemainingData",
      "outputs": [
        {
          "internalType": "string",
          "name": "",
          "type": "string"
        },
        {
          "internalType": "uint256",
          "name": "",
          "type": "uint256"
        }
      ],
      "payable": false,
      "stateMutability": "view",
      "type": "function"
    },
    {
      "constant": false,
      "inputs": [
        {
          "internalType": "uint256",
          "name": "property",
          "type": "uint256"
        }
      ],
      "name": "buyProperty",
      "outputs": [],
      "payable": true,
      "stateMutability": "payable",
      "type": "function"
    },
    {
      "constant": true,
      "inputs": [
        {
          "internalType": "uint256",
          "name": "id",
          "type": "uint256"
        },
        {
          "internalType": "address",
          "name": "user",
          "type": "address"
        }
      ],
      "name": "findId",
      "outputs": [
        {
          "internalType": "uint256",
          "name": "",
          "type": "uint256"
        }
      ],
      "payable": false,
      "stateMutability": "view",
      "type": "function"
    }
  ],
  "bytecode": "0x608060405234801561001057600080fd5b5033600260006101000a81548173ffffffffffffffffffffffffffffffffffffffff021916908373ffffffffffffffffffffffffffffffffffffffff160217905550613181806100616000396000f3fe60806040526004361061012a5760003560e01c806394e504d2116100ab578063b7b6e5431161006f578063b7b6e54314611058578063baa39e05146110c4578063c04e37f5146110ff578063ddc40e7e1461114e578063deec6b4e14611202578063fdb10f501461143b5761012a565b806394e504d214610c055780639d01485f14610c54578063a27664ee14610d29578063ab05bae614610d98578063ad14224214610e805761012a565b806355d61952116100f257806355d61952146108815780635c3aad0814610a9257806361735a4914610b4d5780636c5ed93914610b9c5780636fa830a614610bd75761012a565b806304ef280c1461012f5780630d2d5dca146101745780631d50a6c4146101e057806326e85250146103f45780634235c68b1461046f575b600080fd5b34801561013b57600080fd5b506101726004803603604081101561015257600080fd5b810190808035906020019092919080359060200190929190505050611483565b005b34801561018057600080fd5b506101896114b2565b6040518080602001828103825283818151815260200191508051906020019060200280838360005b838110156101cc5780820151818401526020810190506101b1565b505050509050019250505060405180910390f35b3480156101ec57600080fd5b506103de6004803603608081101561020357600080fd5b810190808035906020019064010000000081111561022057600080fd5b82018360208201111561023257600080fd5b8035906020019184600183028401116401000000008311171561025457600080fd5b91908080601f016020809104026020016040519081016040528093929190818152602001838380828437600081840152601f19601f820116905080830192505050505050509192919290803590602001906401000000008111156102b757600080fd5b8201836020820111156102c957600080fd5b803590602001918460018302840111640100000000831117156102eb57600080fd5b91908080601f016020809104026020016040519081016040528093929190818152602001838380828437600081840152601f19601f8201169050808301925050505050505091929192908035906020019064010000000081111561034e57600080fd5b82018360208201111561036057600080fd5b8035906020019184600183028401116401000000008311171561038257600080fd5b91908080601f016020809104026020016040519081016040528093929190818152602001838380828437600081840152601f19601f8201169050808301925050505050505091929192908035906020019092919050505061154a565b6040518082815260200191505060405180910390f35b34801561040057600080fd5b5061042d6004803603602081101561041757600080fd5b8101908080359060200190929190505050611688565b604051808273ffffffffffffffffffffffffffffffffffffffff1673ffffffffffffffffffffffffffffffffffffffff16815260200191505060405180910390f35b34801561047b57600080fd5b50610867600480360361014081101561049357600080fd5b81019080803590602001906401000000008111156104b057600080fd5b8201836020820111156104c257600080fd5b803590602001918460018302840111640100000000831117156104e457600080fd5b91908080601f016020809104026020016040519081016040528093929190818152602001838380828437600081840152601f19601f8201169050808301925050505050505091929192908035906020019064010000000081111561054757600080fd5b82018360208201111561055957600080fd5b8035906020019184600183028401116401000000008311171561057b57600080fd5b91908080601f016020809104026020016040519081016040528093929190818152602001838380828437600081840152601f19601f820116905080830192505050505050509192919290803590602001906401000000008111156105de57600080fd5b8201836020820111156105f057600080fd5b8035906020019184600183028401116401000000008311171561061257600080fd5b91908080601f016020809104026020016040519081016040528093929190818152602001838380828437600081840152601f19601f82011690508083019250505050505050919291929080359060200190929190803573ffffffffffffffffffffffffffffffffffffffff1690602001909291908035906020019092919080359060200190929190803590602001906401000000008111156106b357600080fd5b8201836020820111156106c557600080fd5b803590602001918460018302840111640100000000831117156106e757600080fd5b91908080601f016020809104026020016040519081016040528093929190818152602001838380828437600081840152601f19601f8201169050808301925050505050505091929192908035906020019064010000000081111561074a57600080fd5b82018360208201111561075c57600080fd5b8035906020019184600183028401116401000000008311171561077e57600080fd5b91908080601f016020809104026020016040519081016040528093929190818152602001838380828437600081840152601f19601f820116905080830192505050505050509192919290803590602001906401000000008111156107e157600080fd5b8201836020820111156107f357600080fd5b8035906020019184600183028401116401000000008311171561081557600080fd5b91908080601f016020809104026020016040519081016040528093929190818152602001838380828437600081840152601f19601f8201169050808301925050505050505091929192905050506116c8565b604051808215151515815260200191505060405180910390f35b34801561088d57600080fd5b506108ba600480360360208110156108a457600080fd5b8101908080359060200190929190505050611a1a565b60405180806020018060200180602001888152602001871515151581526020018681526020018060200185810385528c818151815260200191508051906020019080838360005b8381101561091c578082015181840152602081019050610901565b50505050905090810190601f1680156109495780820380516001836020036101000a031916815260200191505b5085810384528b818151815260200191508051906020019080838360005b83811015610982578082015181840152602081019050610967565b50505050905090810190601f1680156109af5780820380516001836020036101000a031916815260200191505b5085810383528a818151815260200191508051906020019080838360005b838110156109e85780820151818401526020810190506109cd565b50505050905090810190601f168015610a155780820380516001836020036101000a031916815260200191505b50858103825286818151815260200191508051906020019080838360005b83811015610a4e578082015181840152602081019050610a33565b50505050905090810190601f168015610a7b5780820380516001836020036101000a031916815260200191505b509b50505050505050505050505060405180910390f35b348015610a9e57600080fd5b50610acb60048036036020811015610ab557600080fd5b8101908080359060200190929190505050611d59565b6040518080602001838152602001828103825284818151815260200191508051906020019080838360005b83811015610b11578082015181840152602081019050610af6565b50505050905090810190601f168015610b3e5780820380516001836020036101000a031916815260200191505b50935050505060405180910390f35b348015610b5957600080fd5b50610b8660048036036020811015610b7057600080fd5b8101908080359060200190929190505050611e5e565b6040518082815260200191505060405180910390f35b348015610ba857600080fd5b50610bd560048036036020811015610bbf57600080fd5b8101908080359060200190929190505050611e7e565b005b610c0360048036036020811015610bed57600080fd5b8101908080359060200190929190505050611f69565b005b348015610c1157600080fd5b50610c3e60048036036020811015610c2857600080fd5b8101908080359060200190929190505050612247565b6040518082815260200191505060405180910390f35b348015610c6057600080fd5b50610c8d60048036036020811015610c7757600080fd5b8101908080359060200190929190505050612268565b604051808673ffffffffffffffffffffffffffffffffffffffff1673ffffffffffffffffffffffffffffffffffffffff168152602001858152602001841515151581526020018373ffffffffffffffffffffffffffffffffffffffff1673ffffffffffffffffffffffffffffffffffffffff168152602001826003811115610d1157fe5b60ff1681526020019550505050505060405180910390f35b348015610d3557600080fd5b50610d8260048036036040811015610d4c57600080fd5b8101908080359060200190929190803573ffffffffffffffffffffffffffffffffffffffff169060200190929190505050612353565b6040518082815260200191505060405180910390f35b348015610da457600080fd5b50610e7e60048036036040811015610dbb57600080fd5b81019080803573ffffffffffffffffffffffffffffffffffffffff16906020019092919080359060200190640100000000811115610df857600080fd5b820183602082011115610e0a57600080fd5b80359060200191846001830284011164010000000083111715610e2c57600080fd5b91908080601f016020809104026020016040519081016040528093929190818152602001838380828437600081840152601f19601f820116905080830192505050505050509192919290505050612428565b005b348015610e8c57600080fd5b50610eb960048036036020811015610ea357600080fd5b810190808035906020019092919050505061252e565b60405180806020018873ffffffffffffffffffffffffffffffffffffffff1673ffffffffffffffffffffffffffffffffffffffff16815260200180602001871515151581526020018681526020018060200185815260200184810384528b818151815260200191508051906020019080838360005b83811015610f49578082015181840152602081019050610f2e565b50505050905090810190601f168015610f765780820380516001836020036101000a031916815260200191505b50848103835289818151815260200191508051906020019080838360005b83811015610faf578082015181840152602081019050610f94565b50505050905090810190601f168015610fdc5780820380516001836020036101000a031916815260200191505b50848103825286818151815260200191508051906020019080838360005b83811015611015578082015181840152602081019050610ffa565b50505050905090810190601f1680156110425780820380516001836020036101000a031916815260200191505b509a505050505050505050505060405180910390f35b34801561106457600080fd5b5061106d61280f565b6040518080602001828103825283818151815260200191508051906020019060200280838360005b838110156110b0578082015181840152602081019050611095565b505050509050019250505060405180910390f35b3480156110d057600080fd5b506110fd600480360360208110156110e757600080fd5b8101908080359060200190929190505050612867565b005b34801561110b57600080fd5b506111386004803603602081101561112257600080fd5b8101908080359060200190929190505050612906565b6040518082815260200191505060405180910390f35b34801561115a57600080fd5b506111876004803603602081101561117157600080fd5b8101908080359060200190929190505050612910565b6040518080602001828103825283818151815260200191508051906020019080838360005b838110156111c75780820151818401526020810190506111ac565b50505050905090810190601f1680156111f45780820380516001836020036101000a031916815260200191505b509250505060405180910390f35b34801561120e57600080fd5b5061123b6004803603602081101561122557600080fd5b81019080803590602001909291905050506129c8565b604051808873ffffffffffffffffffffffffffffffffffffffff1673ffffffffffffffffffffffffffffffffffffffff1681526020018060200180602001806020018781526020018681526020018060200185810385528b818151815260200191508051906020019080838360005b838110156112c55780820151818401526020810190506112aa565b50505050905090810190601f1680156112f25780820380516001836020036101000a031916815260200191505b5085810384528a818151815260200191508051906020019080838360005b8381101561132b578082015181840152602081019050611310565b50505050905090810190601f1680156113585780820380516001836020036101000a031916815260200191505b50858103835289818151815260200191508051906020019080838360005b83811015611391578082015181840152602081019050611376565b50505050905090810190601f1680156113be5780820380516001836020036101000a031916815260200191505b50858103825286818151815260200191508051906020019080838360005b838110156113f75780820151818401526020810190506113dc565b50505050905090810190601f1680156114245780820380516001836020036101000a031916815260200191505b509b50505050505050505050505060405180910390f35b34801561144757600080fd5b506114816004803603604081101561145e57600080fd5b8101908080359060200190929190803560ff169060200190929190505050612d1d565b005b600061148e83611e5e565b90508181016001600085815260200190815260200160002060050181905550505050565b6060600460003373ffffffffffffffffffffffffffffffffffffffff1673ffffffffffffffffffffffffffffffffffffffff16815260200190815260200160002060000180548060200260200160405190810160405280929190818152602001828054801561154057602002820191906000526020600020905b81548152602001906001019080831161152c575b5050505050905090565b60006509184e72a000858585856040516020018085805190602001908083835b6020831061158d578051825260208201915060208101905060208303925061156a565b6001836020036101000a03801982511681845116808217855250505050505090500184805190602001908083835b602083106115de57805182526020820191506020810190506020830392506115bb565b6001836020036101000a03801982511681845116808217855250505050505090500183805190602001908083835b6020831061162f578051825260208201915060208101905060208303925061160c565b6001836020036101000a0380198251168184511680821785525050505050509050018281526020019450505050506040516020818303038152906040528051906020012060001c8161167d57fe5b069050949350505050565b60006001600083815260200190815260200160002060090160019054906101000a900473ffffffffffffffffffffffffffffffffffffffff169050919050565b60003373ffffffffffffffffffffffffffffffffffffffff1660038a6040518082805190602001908083835b6020831061171757805182526020820191506020810190506020830392506116f4565b6001836020036101000a038019825116818451168082178552505050505050905001915050908152602001604051809103902060009054906101000a900473ffffffffffffffffffffffffffffffffffffffff1673ffffffffffffffffffffffffffffffffffffffff1614806117da57503373ffffffffffffffffffffffffffffffffffffffff16600260009054906101000a900473ffffffffffffffffffffffffffffffffffffffff1673ffffffffffffffffffffffffffffffffffffffff16145b6117e357600080fd5b8a60016000878152602001908152602001600020600001908051906020019061180d92919061307b565b508960016000878152602001908152602001600020600101908051906020019061183892919061307b565b508860016000878152602001908152602001600020600201908051906020019061186392919061307b565b50876001600087815260200190815260200160002060030181905550866001600087815260200190815260200160002060040160006101000a81548173ffffffffffffffffffffffffffffffffffffffff021916908373ffffffffffffffffffffffffffffffffffffffff1602179055508560016000878152602001908152602001600020600501819055508360016000878152602001908152602001600020600601908051906020019061191992919061307b565b508160016000878152602001908152602001600020600801908051906020019061194492919061307b565b508260016000878152602001908152602001600020600701908051906020019061196f92919061307b565b50600460008873ffffffffffffffffffffffffffffffffffffffff1673ffffffffffffffffffffffffffffffffffffffff1681526020019081526020016000206000018590806001815401808255809150509060018203906000526020600020016000909192909190915055506000859080600181540180825580915050906001820390600052602060002001600090919290919091505550600190509a9950505050505050505050565b60608060606000806000606060016000898152602001908152602001600020600001600160008a8152602001908152602001600020600101600160008b8152602001908152602001600020600201600160008c815260200190815260200160002060030154600160008d815260200190815260200160002060090160009054906101000a900460ff16600160008e815260200190815260200160002060050154600160008f8152602001908152602001600020600601868054600181600116156101000203166002900480601f016020809104026020016040519081016040528092919081815260200182805460018160011615610100020316600290048015611b655780601f10611b3a57610100808354040283529160200191611b65565b820191906000526020600020905b815481529060010190602001808311611b4857829003601f168201915b50505050509650858054600181600116156101000203166002900480601f016020809104026020016040519081016040528092919081815260200182805460018160011615610100020316600290048015611c015780601f10611bd657610100808354040283529160200191611c01565b820191906000526020600020905b815481529060010190602001808311611be457829003601f168201915b50505050509550848054600181600116156101000203166002900480601f016020809104026020016040519081016040528092919081815260200182805460018160011615610100020316600290048015611c9d5780601f10611c7257610100808354040283529160200191611c9d565b820191906000526020600020905b815481529060010190602001808311611c8057829003601f168201915b50505050509450808054600181600116156101000203166002900480601f016020809104026020016040519081016040528092919081815260200182805460018160011615610100020316600290048015611d395780601f10611d0e57610100808354040283529160200191611d39565b820191906000526020600020905b815481529060010190602001808311611d1c57829003601f168201915b505050505090509650965096509650965096509650919395979092949650565b606060006001600084815260200190815260200160002060090160009054906101000a900460ff1615611e5857600160008481526020019081526020016000206002016001600085815260200190815260200160002060030154818054600181600116156101000203166002900480601f016020809104026020016040519081016040528092919081815260200182805460018160011615610100020316600290048015611e485780601f10611e1d57610100808354040283529160200191611e48565b820191906000526020600020905b815481529060010190602001808311611e2b57829003601f168201915b5050505050915091509150611e59565b5b915091565b600060016000838152602001908152602001600020600501549050919050565b6001600082815260200190815260200160002060090160009054906101000a900460ff16611eab57600080fd5b336001600083815260200190815260200160002060090160016101000a81548173ffffffffffffffffffffffffffffffffffffffff021916908373ffffffffffffffffffffffffffffffffffffffff16021790555060006001600083815260200190815260200160002060090160006101000a81548160ff021916908315150217905550600180600083815260200190815260200160002060090160156101000a81548160ff02191690836003811115611f6157fe5b021790555050565b600380811115611f7557fe5b6001600083815260200190815260200160002060090160159054906101000a900460ff166003811115611fa457fe5b14611fae57600080fd5b600a600160008381526020019081526020016000206005015481611fce57fe5b04600160008381526020019081526020016000206005015401341015611ff357600080fd5b6001600082815260200190815260200160002060040160009054906101000a900473ffffffffffffffffffffffffffffffffffffffff1673ffffffffffffffffffffffffffffffffffffffff166108fc60016000848152602001908152602001600020600501549081150290604051600060405180830381858888f19350505050158015612085573d6000803e3d6000fd5b506120c66001600083815260200190815260200160002060040160009054906101000a900473ffffffffffffffffffffffffffffffffffffffff1682612e74565b336001600083815260200190815260200160002060040160006101000a81548173ffffffffffffffffffffffffffffffffffffffff021916908373ffffffffffffffffffffffffffffffffffffffff16021790555060006001600083815260200190815260200160002060090160006101000a81548160ff02191690831515021790555060006001600083815260200190815260200160002060090160016101000a81548173ffffffffffffffffffffffffffffffffffffffff021916908373ffffffffffffffffffffffffffffffffffffffff16021790555060006001600083815260200190815260200160002060090160156101000a81548160ff021916908360038111156121d357fe5b0217905550600460003373ffffffffffffffffffffffffffffffffffffffff1673ffffffffffffffffffffffffffffffffffffffff16815260200190815260200160002060000181908060018154018082558091505090600182039060005260206000200160009091929091909150555050565b6000818154811061225457fe5b906000526020600020016000915090505481565b60008060008060006001600087815260200190815260200160002060040160009054906101000a900473ffffffffffffffffffffffffffffffffffffffff1660016000888152602001908152602001600020600501546001600089815260200190815260200160002060090160009054906101000a900460ff16600160008a815260200190815260200160002060090160019054906101000a900473ffffffffffffffffffffffffffffffffffffffff16600160008b815260200190815260200160002060090160159054906101000a900460ff168494509450945094509450945091939590929450565b600080600090505b600460008473ffffffffffffffffffffffffffffffffffffffff1673ffffffffffffffffffffffffffffffffffffffff1681526020019081526020016000206000018054905081101561241d5783600460008573ffffffffffffffffffffffffffffffffffffffff1673ffffffffffffffffffffffffffffffffffffffff16815260200190815260200160002060000182815481106123f657fe5b906000526020600020015414156124105780915050612422565b808060010191505061235b565b809150505b92915050565b600260009054906101000a900473ffffffffffffffffffffffffffffffffffffffff1673ffffffffffffffffffffffffffffffffffffffff163373ffffffffffffffffffffffffffffffffffffffff161461248257600080fd5b816003826040518082805190602001908083835b602083106124b95780518252602082019150602081019050602083039250612496565b6001836020036101000a038019825116818451168082178552505050505050905001915050908152602001604051809103902060006101000a81548173ffffffffffffffffffffffffffffffffffffffff021916908373ffffffffffffffffffffffffffffffffffffffff1602179055505050565b606060006060600080606060006001600089815260200190815260200160002060090160009054906101000a900460ff16156128035760016000898152602001908152602001600020600001600160008a815260200190815260200160002060040160009054906101000a900473ffffffffffffffffffffffffffffffffffffffff16600160008b8152602001908152602001600020600101600160008c815260200190815260200160002060090160009054906101000a900460ff16600160008d815260200190815260200160002060050154600160008e81526020019081526020016000206006018d868054600181600116156101000203166002900480601f0160208091040260200160405190810160405280929190818152602001828054600181600116156101000203166002900480156126ae5780601f10612683576101008083540402835291602001916126ae565b820191906000526020600020905b81548152906001019060200180831161269157829003601f168201915b50505050509650859550848054600181600116156101000203166002900480601f01602080910402602001604051908101604052809291908181526020018280546001816001161561010002031660029004801561274d5780601f106127225761010080835404028352916020019161274d565b820191906000526020600020905b81548152906001019060200180831161273057829003601f168201915b50505050509450818054600181600116156101000203166002900480601f0160208091040260200160405190810160405280929190818152602001828054600181600116156101000203166002900480156127e95780601f106127be576101008083540402835291602001916127e9565b820191906000526020600020905b8154815290600101906020018083116127cc57829003601f168201915b505050505091509650965096509650965096509650612804565b5b919395979092949650565b6060600080548060200260200160405190810160405280929190818152602001828054801561285d57602002820191906000526020600020905b815481526020019060010190808311612849575b5050505050905090565b3373ffffffffffffffffffffffffffffffffffffffff166001600083815260200190815260200160002060040160009054906101000a900473ffffffffffffffffffffffffffffffffffffffff1673ffffffffffffffffffffffffffffffffffffffff16146128d557600080fd5b600180600083815260200190815260200160002060090160006101000a81548160ff02191690831515021790555050565b6000819050919050565b6060600160008381526020019081526020016000206007018054600181600116156101000203166002900480601f0160208091040260200160405190810160405280929190818152602001828054600181600116156101000203166002900480156129bc5780601f10612991576101008083540402835291602001916129bc565b820191906000526020600020905b81548152906001019060200180831161299f57829003601f168201915b50505050509050919050565b6000606080606060008060606001600089815260200190815260200160002060040160009054906101000a900473ffffffffffffffffffffffffffffffffffffffff16600160008a8152602001908152602001600020600001600160008b8152602001908152602001600020600101600160008c8152602001908152602001600020600201600160008d815260200190815260200160002060030154600160008e815260200190815260200160002060050154600160008f8152602001908152602001600020600601869650858054600181600116156101000203166002900480601f016020809104026020016040519081016040528092919081815260200182805460018160011615610100020316600290048015612b295780601f10612afe57610100808354040283529160200191612b29565b820191906000526020600020905b815481529060010190602001808311612b0c57829003601f168201915b50505050509550848054600181600116156101000203166002900480601f016020809104026020016040519081016040528092919081815260200182805460018160011615610100020316600290048015612bc55780601f10612b9a57610100808354040283529160200191612bc5565b820191906000526020600020905b815481529060010190602001808311612ba857829003601f168201915b50505050509450838054600181600116156101000203166002900480601f016020809104026020016040519081016040528092919081815260200182805460018160011615610100020316600290048015612c615780601f10612c3657610100808354040283529160200191612c61565b820191906000526020600020905b815481529060010190602001808311612c4457829003601f168201915b50505050509350808054600181600116156101000203166002900480601f016020809104026020016040519081016040528092919081815260200182805460018160011615610100020316600290048015612cfd5780601f10612cd257610100808354040283529160200191612cfd565b820191906000526020600020905b815481529060010190602001808311612ce057829003601f168201915b505050505090509650965096509650965096509650919395979092949650565b3373ffffffffffffffffffffffffffffffffffffffff166001600084815260200190815260200160002060040160009054906101000a900473ffffffffffffffffffffffffffffffffffffffff1673ffffffffffffffffffffffffffffffffffffffff1614612d8b57600080fd5b806001600084815260200190815260200160002060090160156101000a81548160ff02191690836003811115612dbd57fe5b021790555060026003811115612dcf57fe5b816003811115612ddb57fe5b1415612e705760006001600084815260200190815260200160002060090160016101000a81548173ffffffffffffffffffffffffffffffffffffffff021916908373ffffffffffffffffffffffffffffffffffffffff16021790555060006001600084815260200190815260200160002060090160156101000a81548160ff02191690836003811115612e6a57fe5b02179055505b5050565b6000612e808284612353565b9050600460008473ffffffffffffffffffffffffffffffffffffffff1673ffffffffffffffffffffffffffffffffffffffff1681526020019081526020016000206000016001600460008673ffffffffffffffffffffffffffffffffffffffff1673ffffffffffffffffffffffffffffffffffffffff168152602001908152602001600020600001805490500381548110612f1757fe5b9060005260206000200154600460008573ffffffffffffffffffffffffffffffffffffffff1673ffffffffffffffffffffffffffffffffffffffff1681526020019081526020016000206000018281548110612f6f57fe5b9060005260206000200181905550600460008473ffffffffffffffffffffffffffffffffffffffff1673ffffffffffffffffffffffffffffffffffffffff1681526020019081526020016000206000016001600460008673ffffffffffffffffffffffffffffffffffffffff1673ffffffffffffffffffffffffffffffffffffffff16815260200190815260200160002060000180549050038154811061301257fe5b9060005260206000200160009055600460008473ffffffffffffffffffffffffffffffffffffffff1673ffffffffffffffffffffffffffffffffffffffff16815260200190815260200160002060000180548091906001900361307591906130fb565b50505050565b828054600181600116156101000203166002900490600052602060002090601f016020900481019282601f106130bc57805160ff19168380011785556130ea565b828001600101855582156130ea579182015b828111156130e95782518255916020019190600101906130ce565b5b5090506130f79190613127565b5090565b815481835581811115613122578183600052602060002091820191016131219190613127565b5b505050565b61314991905b8082111561314557600081600090555060010161312d565b5090565b9056fea265627a7a723158203de44b6ebff741dcc440a03b2ff68a73f7e1042d76ad495a7175c1fe0c9c432f64736f6c63430005100032",
  "source": "pragma solidity >=0.4.0 <0.6.0;\n\n//Land Details\ncontract Land{\n\n    struct landDetails{\n        string state;\n        string district;\n        string village;\n        uint256 surveyNumber;\n        address payable CurrentOwner;\n        uint marketValue;\n        string measurement;\n        string ipfsHash;\n        string landType;\n        bool isAvailable;\n        address requester;\n        reqStatus requestStatus;\n\n    }\n    \n    uint[] public propertiesIDs;\n\n    //request status\n    enum reqStatus {Default,pending,reject,approved}\n\n\n\n    //profile of a client\n    struct profiles{\n        uint[] assetList;   \n        }\n\n \n    mapping(uint => landDetails) land;\n    address owner;\n    mapping(string => address) superAdmin;\n    mapping(address => profiles) profile;\n    \n    //contract owner\n    constructor() public{\n        owner = msg.sender;\n    }\n    modifier onlyOwner {\n        require(msg.sender == owner);\n        _;\n    }\n    \n    //adding village admins\n    function addSuperAdmin(address _superAdmin,string memory _village ) onlyOwner public {\n        superAdmin[_village]=_superAdmin;\n    }\n    //Registration of land details.\n    function Registration(string memory _state,string memory _district,\n        string memory _village,uint256 _surveyNumber,\n        address payable _OwnerAddress,uint _marketValue,uint id, string memory _measurement , string memory _ipfsHash , string memory _landType\n        ) public returns(bool) {\n        require(superAdmin[_village] == msg.sender || owner == msg.sender);\n        land[id].state = _state;\n        land[id].district = _district;\n        land[id].village = _village;\n        land[id].surveyNumber = _surveyNumber;\n        land[id].CurrentOwner = _OwnerAddress;\n        land[id].marketValue = _marketValue;\n        land[id].measurement = _measurement;\n        land[id].landType = _landType;\n        land[id].ipfsHash = _ipfsHash;\n        profile[_OwnerAddress].assetList.push(id);\n        propertiesIDs.push(id);\n        return true;\n    }\n    //to view details of land for the owner\n    function landInfoOwner(uint id) public view returns(string memory,string memory,string memory,uint256,bool,uint,string memory){\n        return(land[id].state,land[id].district,land[id].village,land[id].surveyNumber,land[id].isAvailable,land[id].marketValue,land[id].measurement);\n    }\n\n    function remainingDetail(uint id) public view returns(string memory){\n        return land[id].ipfsHash;\n    }\n\n    function showAllLands(uint id) public view returns(address,string memory,string memory,string memory,uint256,uint,string memory){\n        return(land[id].CurrentOwner,land[id].state,land[id].district,land[id].village,land[id].surveyNumber,land[id].marketValue,land[id].measurement);\n    }\n\n     function showAllLandsRemainig(uint id) public view returns(uint){\n        return(id);\n    }\n\n        //to view details of land for the buyer\n        function landInfoUser(uint id) public view returns(address,uint,bool,address,reqStatus){\n        return(land[id].CurrentOwner,land[id].marketValue,land[id].isAvailable,land[id].requester,land[id].requestStatus);\n    }\n\n    // to compute id for a land.\n    function computeId(string memory _state,string memory _district,string memory _village,uint _surveyNumber) public view returns(uint){\n        return uint(keccak256(abi.encodePacked(_state,_district,_village,_surveyNumber)))%10000000000000;\n    }\n\n    //push a request to the land owner\n    function requstToLandOwner(uint id) public {\n        require(land[id].isAvailable);\n        land[id].requester=msg.sender;\n        land[id].isAvailable=false;\n        land[id].requestStatus = reqStatus.pending; //changes the status to pending.\n    }\n    //will show assets of the function caller \n    function viewAssets()public view returns(uint[] memory){\n        return (profile[msg.sender].assetList);\n    }\n    //viewing request for the lands\n    function viewRequest(uint property)public view returns(address){\n        return(land[property].requester);\n    }\n    //processing request for the land by accepting or rejecting\n    function processRequest(uint property,reqStatus status)public {\n        require(land[property].CurrentOwner == msg.sender);\n        land[property].requestStatus=status;\n        if(status == reqStatus.reject){\n            land[property].requester = address(0);\n            land[property].requestStatus = reqStatus.Default;\n        }\n    }\n    //availing land for sale.\n    function makeAvailable(uint property)public{\n        require(land[property].CurrentOwner == msg.sender);\n        land[property].isAvailable=true;\n    }\n\n    function showMarketValue(uint id) public view returns(uint256){\n        return land[id].marketValue;\n    }\n\n    // change the market value after some years\n     function changeMarketValue(uint property, uint _marketValue)public{\n        uint256 marketValueGet = showMarketValue(property);    \n        land[property].marketValue=marketValueGet + _marketValue;  \n    }\n\n    \n    // Get all the lands ids.\n\t function getAllLands() view public returns (uint[] memory) {\n\t     return (propertiesIDs);\n\t }\n\t \n    \n    // show marked Available\n    function viewMarkded(uint id) public view returns(string memory, address ,string memory, bool, uint,string memory, uint){\n        if(land[id].isAvailable){\n            return(land[id].state,land[id].CurrentOwner,land[id].district,land[id].isAvailable,land[id].marketValue,land[id].measurement,id);\n        }\n    }\n\n     // show marked Available\n    function viewMarkdedRemainingData(uint id) public view returns(string memory, uint256){\n        if(land[id].isAvailable){\n            return(land[id].village,land[id].surveyNumber);\n        }\n    }\n    \n\n\n\n    //buying the approved property\n    function buyProperty(uint property)public payable{\n        require(land[property].requestStatus == reqStatus.approved);\n        require(msg.value >= (land[property].marketValue+((land[property].marketValue)/10)));\n        land[property].CurrentOwner.transfer(land[property].marketValue);\n        removeOwnership(land[property].CurrentOwner,property);\n        land[property].CurrentOwner=msg.sender;\n        land[property].isAvailable=false;\n        land[property].requester = address(0);\n        land[property].requestStatus = reqStatus.Default;\n        profile[msg.sender].assetList.push(property); //adds the property to the asset list of the new owner.\n        \n    }\n    //removing the ownership of seller for the land. and it is called by the buyProperty function\n    function removeOwnership(address previousOwner,uint id)private{\n        uint index = findId(id,previousOwner);\n        profile[previousOwner].assetList[index]=profile[previousOwner].assetList[profile[previousOwner].assetList.length-1];\n        delete profile[previousOwner].assetList[profile[previousOwner].assetList.length-1];\n        profile[previousOwner].assetList.length--;\n    }\n    //for finding the index of a perticular id\n    function findId(uint id,address user)public view returns(uint){\n        uint i;\n        for(i=0;i<profile[user].assetList.length;i++){\n            if(profile[user].assetList[i] == id)\n                return i;\n        }\n        return i;\n    }\n}",
  "sourcePath": "/home/zaryab/VSCodeProjects/land-records-blockchain/contracts/Land.sol",
  "compiler": {
    "name": "solc",
    "version": "0.5.16+commit.9c3226ce.Emscripten.clang"
  },
  "schemaVersion": "3.4.1",
  "updatedAt": "2021-08-05T08:31:30.982Z",
  "devdoc": {
    "methods": {}
  },
  "userdoc": {
    "methods": {}
  }
}