{
  "contractName": "Land",
  "abi": [
    {
      "inputs": [],
      "payable": false,
      "stateMutability": "nonpayable",
      "type": "constructor"
    },
    {
      "constant": true,
      "inputs": [
        {
          "internalType": "uint256",
          "name": "",
          "type": "uint256"
        }
      ],
      "name": "propertiesIDs",
      "outputs": [
        {
          "internalType": "uint256",
          "name": "",
          "type": "uint256"
        }
      ],
      "payable": false,
      "stateMutability": "view",
      "type": "function"
    },
    {
      "constant": false,
      "inputs": [
        {
          "internalType": "address",
          "name": "_superAdmin",
          "type": "address"
        },
        {
          "internalType": "string",
          "name": "_village",
          "type": "string"
        }
      ],
      "name": "addSuperAdmin",
      "outputs": [],
      "payable": false,
      "stateMutability": "nonpayable",
      "type": "function"
    },
    {
      "constant": false,
      "inputs": [
        {
          "internalType": "string",
          "name": "_state",
          "type": "string"
        },
        {
          "internalType": "string",
          "name": "_district",
          "type": "string"
        },
        {
          "internalType": "string",
          "name": "_village",
          "type": "string"
        },
        {
          "internalType": "uint256",
          "name": "_surveyNumber",
          "type": "uint256"
        },
        {
          "internalType": "address payable",
          "name": "_OwnerAddress",
          "type": "address"
        },
        {
          "internalType": "uint256",
          "name": "_marketValue",
          "type": "uint256"
        },
        {
          "internalType": "uint256",
          "name": "id",
          "type": "uint256"
        },
        {
          "internalType": "string",
          "name": "_measurement",
          "type": "string"
        },
        {
          "internalType": "string",
          "name": "_ipfsHash",
          "type": "string"
        }
      ],
      "name": "Registration",
      "outputs": [
        {
          "internalType": "bool",
          "name": "",
          "type": "bool"
        }
      ],
      "payable": false,
      "stateMutability": "nonpayable",
      "type": "function"
    },
    {
      "constant": true,
      "inputs": [
        {
          "internalType": "uint256",
          "name": "id",
          "type": "uint256"
        }
      ],
      "name": "landInfoOwner",
      "outputs": [
        {
          "internalType": "string",
          "name": "",
          "type": "string"
        },
        {
          "internalType": "string",
          "name": "",
          "type": "string"
        },
        {
          "internalType": "string",
          "name": "",
          "type": "string"
        },
        {
          "internalType": "uint256",
          "name": "",
          "type": "uint256"
        },
        {
          "internalType": "bool",
          "name": "",
          "type": "bool"
        },
        {
          "internalType": "uint256",
          "name": "",
          "type": "uint256"
        },
        {
          "internalType": "string",
          "name": "",
          "type": "string"
        }
      ],
      "payable": false,
      "stateMutability": "view",
      "type": "function"
    },
    {
      "constant": true,
      "inputs": [
        {
          "internalType": "uint256",
          "name": "id",
          "type": "uint256"
        }
      ],
      "name": "remainingDetail",
      "outputs": [
        {
          "internalType": "string",
          "name": "",
          "type": "string"
        }
      ],
      "payable": false,
      "stateMutability": "view",
      "type": "function"
    },
    {
      "constant": true,
      "inputs": [
        {
          "internalType": "uint256",
          "name": "id",
          "type": "uint256"
        }
      ],
      "name": "showAllLands",
      "outputs": [
        {
          "internalType": "address",
          "name": "",
          "type": "address"
        },
        {
          "internalType": "string",
          "name": "",
          "type": "string"
        },
        {
          "internalType": "string",
          "name": "",
          "type": "string"
        },
        {
          "internalType": "string",
          "name": "",
          "type": "string"
        },
        {
          "internalType": "uint256",
          "name": "",
          "type": "uint256"
        },
        {
          "internalType": "uint256",
          "name": "",
          "type": "uint256"
        },
        {
          "internalType": "string",
          "name": "",
          "type": "string"
        }
      ],
      "payable": false,
      "stateMutability": "view",
      "type": "function"
    },
    {
      "constant": true,
      "inputs": [
        {
          "internalType": "uint256",
          "name": "id",
          "type": "uint256"
        }
      ],
      "name": "showAllLandsRemainig",
      "outputs": [
        {
          "internalType": "uint256",
          "name": "",
          "type": "uint256"
        }
      ],
      "payable": false,
      "stateMutability": "view",
      "type": "function"
    },
    {
      "constant": true,
      "inputs": [
        {
          "internalType": "uint256",
          "name": "id",
          "type": "uint256"
        }
      ],
      "name": "landInfoUser",
      "outputs": [
        {
          "internalType": "address",
          "name": "",
          "type": "address"
        },
        {
          "internalType": "uint256",
          "name": "",
          "type": "uint256"
        },
        {
          "internalType": "bool",
          "name": "",
          "type": "bool"
        },
        {
          "internalType": "address",
          "name": "",
          "type": "address"
        },
        {
          "internalType": "enum Land.reqStatus",
          "name": "",
          "type": "uint8"
        }
      ],
      "payable": false,
      "stateMutability": "view",
      "type": "function"
    },
    {
      "constant": true,
      "inputs": [
        {
          "internalType": "string",
          "name": "_state",
          "type": "string"
        },
        {
          "internalType": "string",
          "name": "_district",
          "type": "string"
        },
        {
          "internalType": "string",
          "name": "_village",
          "type": "string"
        },
        {
          "internalType": "uint256",
          "name": "_surveyNumber",
          "type": "uint256"
        }
      ],
      "name": "computeId",
      "outputs": [
        {
          "internalType": "uint256",
          "name": "",
          "type": "uint256"
        }
      ],
      "payable": false,
      "stateMutability": "view",
      "type": "function"
    },
    {
      "constant": false,
      "inputs": [
        {
          "internalType": "uint256",
          "name": "id",
          "type": "uint256"
        }
      ],
      "name": "requstToLandOwner",
      "outputs": [],
      "payable": false,
      "stateMutability": "nonpayable",
      "type": "function"
    },
    {
      "constant": true,
      "inputs": [],
      "name": "viewAssets",
      "outputs": [
        {
          "internalType": "uint256[]",
          "name": "",
          "type": "uint256[]"
        }
      ],
      "payable": false,
      "stateMutability": "view",
      "type": "function"
    },
    {
      "constant": true,
      "inputs": [
        {
          "internalType": "uint256",
          "name": "property",
          "type": "uint256"
        }
      ],
      "name": "viewRequest",
      "outputs": [
        {
          "internalType": "address",
          "name": "",
          "type": "address"
        }
      ],
      "payable": false,
      "stateMutability": "view",
      "type": "function"
    },
    {
      "constant": false,
      "inputs": [
        {
          "internalType": "uint256",
          "name": "property",
          "type": "uint256"
        },
        {
          "internalType": "enum Land.reqStatus",
          "name": "status",
          "type": "uint8"
        }
      ],
      "name": "processRequest",
      "outputs": [],
      "payable": false,
      "stateMutability": "nonpayable",
      "type": "function"
    },
    {
      "constant": false,
      "inputs": [
        {
          "internalType": "uint256",
          "name": "property",
          "type": "uint256"
        }
      ],
      "name": "makeAvailable",
      "outputs": [],
      "payable": false,
      "stateMutability": "nonpayable",
      "type": "function"
    },
    {
      "constant": true,
      "inputs": [
        {
          "internalType": "uint256",
          "name": "id",
          "type": "uint256"
        }
      ],
      "name": "showMarketValue",
      "outputs": [
        {
          "internalType": "uint256",
          "name": "",
          "type": "uint256"
        }
      ],
      "payable": false,
      "stateMutability": "view",
      "type": "function"
    },
    {
      "constant": false,
      "inputs": [
        {
          "internalType": "uint256",
          "name": "property",
          "type": "uint256"
        },
        {
          "internalType": "uint256",
          "name": "_marketValue",
          "type": "uint256"
        }
      ],
      "name": "changeMarketValue",
      "outputs": [],
      "payable": false,
      "stateMutability": "nonpayable",
      "type": "function"
    },
    {
      "constant": true,
      "inputs": [],
      "name": "getAllLands",
      "outputs": [
        {
          "internalType": "uint256[]",
          "name": "",
          "type": "uint256[]"
        }
      ],
      "payable": false,
      "stateMutability": "view",
      "type": "function"
    },
    {
      "constant": true,
      "inputs": [
        {
          "internalType": "uint256",
          "name": "id",
          "type": "uint256"
        }
      ],
      "name": "viewMarkded",
      "outputs": [
        {
          "internalType": "string",
          "name": "",
          "type": "string"
        },
        {
          "internalType": "address",
          "name": "",
          "type": "address"
        },
        {
          "internalType": "string",
          "name": "",
          "type": "string"
        },
        {
          "internalType": "bool",
          "name": "",
          "type": "bool"
        },
        {
          "internalType": "uint256",
          "name": "",
          "type": "uint256"
        },
        {
          "internalType": "string",
          "name": "",
          "type": "string"
        },
        {
          "internalType": "uint256",
          "name": "",
          "type": "uint256"
        }
      ],
      "payable": false,
      "stateMutability": "view",
      "type": "function"
    },
    {
      "constant": true,
      "inputs": [
        {
          "internalType": "uint256",
          "name": "id",
          "type": "uint256"
        }
      ],
      "name": "viewMarkdedRemainingData",
      "outputs": [
        {
          "internalType": "string",
          "name": "",
          "type": "string"
        },
        {
          "internalType": "uint256",
          "name": "",
          "type": "uint256"
        }
      ],
      "payable": false,
      "stateMutability": "view",
      "type": "function"
    },
    {
      "constant": false,
      "inputs": [
        {
          "internalType": "uint256",
          "name": "property",
          "type": "uint256"
        }
      ],
      "name": "buyProperty",
      "outputs": [],
      "payable": true,
      "stateMutability": "payable",
      "type": "function"
    },
    {
      "constant": true,
      "inputs": [
        {
          "internalType": "uint256",
          "name": "id",
          "type": "uint256"
        },
        {
          "internalType": "address",
          "name": "user",
          "type": "address"
        }
      ],
      "name": "findId",
      "outputs": [
        {
          "internalType": "uint256",
          "name": "",
          "type": "uint256"
        }
      ],
      "payable": false,
      "stateMutability": "view",
      "type": "function"
    }
  ],
  "bytecode": "0x608060405234801561001057600080fd5b5033600260006101000a81548173ffffffffffffffffffffffffffffffffffffffff021916908373ffffffffffffffffffffffffffffffffffffffff1602179055506130be806100616000396000f3fe60806040526004361061012a5760003560e01c80639d01485f116100ab578063b7b6e5431161006f578063b7b6e54314610fc1578063baa39e051461102d578063c04e37f514611068578063ddc40e7e146110b7578063deec6b4e1461116b578063fdb10f50146113a45761012a565b80639d01485f14610842578063a27664ee14610917578063a86f74a014610986578063ab05bae614610d01578063ad14224214610de95761012a565b80635c3aad08116100f25780635c3aad081461068057806361735a491461073b5780636c5ed9391461078a5780636fa830a6146107c557806394e504d2146107f35761012a565b806304ef280c1461012f5780630d2d5dca146101745780631d50a6c4146101e057806326e85250146103f457806355d619521461046f575b600080fd5b34801561013b57600080fd5b506101726004803603604081101561015257600080fd5b8101908080359060200190929190803590602001909291905050506113ec565b005b34801561018057600080fd5b5061018961141b565b6040518080602001828103825283818151815260200191508051906020019060200280838360005b838110156101cc5780820151818401526020810190506101b1565b505050509050019250505060405180910390f35b3480156101ec57600080fd5b506103de6004803603608081101561020357600080fd5b810190808035906020019064010000000081111561022057600080fd5b82018360208201111561023257600080fd5b8035906020019184600183028401116401000000008311171561025457600080fd5b91908080601f016020809104026020016040519081016040528093929190818152602001838380828437600081840152601f19601f820116905080830192505050505050509192919290803590602001906401000000008111156102b757600080fd5b8201836020820111156102c957600080fd5b803590602001918460018302840111640100000000831117156102eb57600080fd5b91908080601f016020809104026020016040519081016040528093929190818152602001838380828437600081840152601f19601f8201169050808301925050505050505091929192908035906020019064010000000081111561034e57600080fd5b82018360208201111561036057600080fd5b8035906020019184600183028401116401000000008311171561038257600080fd5b91908080601f016020809104026020016040519081016040528093929190818152602001838380828437600081840152601f19601f820116905080830192505050505050509192919290803590602001909291905050506114b3565b6040518082815260200191505060405180910390f35b34801561040057600080fd5b5061042d6004803603602081101561041757600080fd5b81019080803590602001909291905050506115f1565b604051808273ffffffffffffffffffffffffffffffffffffffff1673ffffffffffffffffffffffffffffffffffffffff16815260200191505060405180910390f35b34801561047b57600080fd5b506104a86004803603602081101561049257600080fd5b8101908080359060200190929190505050611631565b60405180806020018060200180602001888152602001871515151581526020018681526020018060200185810385528c818151815260200191508051906020019080838360005b8381101561050a5780820151818401526020810190506104ef565b50505050905090810190601f1680156105375780820380516001836020036101000a031916815260200191505b5085810384528b818151815260200191508051906020019080838360005b83811015610570578082015181840152602081019050610555565b50505050905090810190601f16801561059d5780820380516001836020036101000a031916815260200191505b5085810383528a818151815260200191508051906020019080838360005b838110156105d65780820151818401526020810190506105bb565b50505050905090810190601f1680156106035780820380516001836020036101000a031916815260200191505b50858103825286818151815260200191508051906020019080838360005b8381101561063c578082015181840152602081019050610621565b50505050905090810190601f1680156106695780820380516001836020036101000a031916815260200191505b509b50505050505050505050505060405180910390f35b34801561068c57600080fd5b506106b9600480360360208110156106a357600080fd5b8101908080359060200190929190505050611970565b6040518080602001838152602001828103825284818151815260200191508051906020019080838360005b838110156106ff5780820151818401526020810190506106e4565b50505050905090810190601f16801561072c5780820380516001836020036101000a031916815260200191505b50935050505060405180910390f35b34801561074757600080fd5b506107746004803603602081101561075e57600080fd5b8101908080359060200190929190505050611a75565b6040518082815260200191505060405180910390f35b34801561079657600080fd5b506107c3600480360360208110156107ad57600080fd5b8101908080359060200190929190505050611a95565b005b6107f1600480360360208110156107db57600080fd5b8101908080359060200190929190505050611b80565b005b3480156107ff57600080fd5b5061082c6004803603602081101561081657600080fd5b8101908080359060200190929190505050611e5e565b6040518082815260200191505060405180910390f35b34801561084e57600080fd5b5061087b6004803603602081101561086557600080fd5b8101908080359060200190929190505050611e7f565b604051808673ffffffffffffffffffffffffffffffffffffffff1673ffffffffffffffffffffffffffffffffffffffff168152602001858152602001841515151581526020018373ffffffffffffffffffffffffffffffffffffffff1673ffffffffffffffffffffffffffffffffffffffff1681526020018260038111156108ff57fe5b60ff1681526020019550505050505060405180910390f35b34801561092357600080fd5b506109706004803603604081101561093a57600080fd5b8101908080359060200190929190803573ffffffffffffffffffffffffffffffffffffffff169060200190929190505050611f6a565b6040518082815260200191505060405180910390f35b34801561099257600080fd5b50610ce760048036036101208110156109aa57600080fd5b81019080803590602001906401000000008111156109c757600080fd5b8201836020820111156109d957600080fd5b803590602001918460018302840111640100000000831117156109fb57600080fd5b91908080601f016020809104026020016040519081016040528093929190818152602001838380828437600081840152601f19601f82011690508083019250505050505050919291929080359060200190640100000000811115610a5e57600080fd5b820183602082011115610a7057600080fd5b80359060200191846001830284011164010000000083111715610a9257600080fd5b91908080601f016020809104026020016040519081016040528093929190818152602001838380828437600081840152601f19601f82011690508083019250505050505050919291929080359060200190640100000000811115610af557600080fd5b820183602082011115610b0757600080fd5b80359060200191846001830284011164010000000083111715610b2957600080fd5b91908080601f016020809104026020016040519081016040528093929190818152602001838380828437600081840152601f19601f82011690508083019250505050505050919291929080359060200190929190803573ffffffffffffffffffffffffffffffffffffffff169060200190929190803590602001909291908035906020019092919080359060200190640100000000811115610bca57600080fd5b820183602082011115610bdc57600080fd5b80359060200191846001830284011164010000000083111715610bfe57600080fd5b91908080601f016020809104026020016040519081016040528093929190818152602001838380828437600081840152601f19601f82011690508083019250505050505050919291929080359060200190640100000000811115610c6157600080fd5b820183602082011115610c7357600080fd5b80359060200191846001830284011164010000000083111715610c9557600080fd5b91908080601f016020809104026020016040519081016040528093929190818152602001838380828437600081840152601f19601f82011690508083019250505050505050919291929050505061203f565b604051808215151515815260200191505060405180910390f35b348015610d0d57600080fd5b50610de760048036036040811015610d2457600080fd5b81019080803573ffffffffffffffffffffffffffffffffffffffff16906020019092919080359060200190640100000000811115610d6157600080fd5b820183602082011115610d7357600080fd5b80359060200191846001830284011164010000000083111715610d9557600080fd5b91908080601f016020809104026020016040519081016040528093929190818152602001838380828437600081840152601f19601f820116905080830192505050505050509192919290505050612365565b005b348015610df557600080fd5b50610e2260048036036020811015610e0c57600080fd5b810190808035906020019092919050505061246b565b60405180806020018873ffffffffffffffffffffffffffffffffffffffff1673ffffffffffffffffffffffffffffffffffffffff16815260200180602001871515151581526020018681526020018060200185815260200184810384528b818151815260200191508051906020019080838360005b83811015610eb2578082015181840152602081019050610e97565b50505050905090810190601f168015610edf5780820380516001836020036101000a031916815260200191505b50848103835289818151815260200191508051906020019080838360005b83811015610f18578082015181840152602081019050610efd565b50505050905090810190601f168015610f455780820380516001836020036101000a031916815260200191505b50848103825286818151815260200191508051906020019080838360005b83811015610f7e578082015181840152602081019050610f63565b50505050905090810190601f168015610fab5780820380516001836020036101000a031916815260200191505b509a505050505050505050505060405180910390f35b348015610fcd57600080fd5b50610fd661274c565b6040518080602001828103825283818151815260200191508051906020019060200280838360005b83811015611019578082015181840152602081019050610ffe565b505050509050019250505060405180910390f35b34801561103957600080fd5b506110666004803603602081101561105057600080fd5b81019080803590602001909291905050506127a4565b005b34801561107457600080fd5b506110a16004803603602081101561108b57600080fd5b8101908080359060200190929190505050612843565b6040518082815260200191505060405180910390f35b3480156110c357600080fd5b506110f0600480360360208110156110da57600080fd5b810190808035906020019092919050505061284d565b6040518080602001828103825283818151815260200191508051906020019080838360005b83811015611130578082015181840152602081019050611115565b50505050905090810190601f16801561115d5780820380516001836020036101000a031916815260200191505b509250505060405180910390f35b34801561117757600080fd5b506111a46004803603602081101561118e57600080fd5b8101908080359060200190929190505050612905565b604051808873ffffffffffffffffffffffffffffffffffffffff1673ffffffffffffffffffffffffffffffffffffffff1681526020018060200180602001806020018781526020018681526020018060200185810385528b818151815260200191508051906020019080838360005b8381101561122e578082015181840152602081019050611213565b50505050905090810190601f16801561125b5780820380516001836020036101000a031916815260200191505b5085810384528a818151815260200191508051906020019080838360005b83811015611294578082015181840152602081019050611279565b50505050905090810190601f1680156112c15780820380516001836020036101000a031916815260200191505b50858103835289818151815260200191508051906020019080838360005b838110156112fa5780820151818401526020810190506112df565b50505050905090810190601f1680156113275780820380516001836020036101000a031916815260200191505b50858103825286818151815260200191508051906020019080838360005b83811015611360578082015181840152602081019050611345565b50505050905090810190601f16801561138d5780820380516001836020036101000a031916815260200191505b509b50505050505050505050505060405180910390f35b3480156113b057600080fd5b506113ea600480360360408110156113c757600080fd5b8101908080359060200190929190803560ff169060200190929190505050612c5a565b005b60006113f783611a75565b90508181016001600085815260200190815260200160002060050181905550505050565b6060600460003373ffffffffffffffffffffffffffffffffffffffff1673ffffffffffffffffffffffffffffffffffffffff1681526020019081526020016000206000018054806020026020016040519081016040528092919081815260200182805480156114a957602002820191906000526020600020905b815481526020019060010190808311611495575b5050505050905090565b60006509184e72a000858585856040516020018085805190602001908083835b602083106114f657805182526020820191506020810190506020830392506114d3565b6001836020036101000a03801982511681845116808217855250505050505090500184805190602001908083835b602083106115475780518252602082019150602081019050602083039250611524565b6001836020036101000a03801982511681845116808217855250505050505090500183805190602001908083835b602083106115985780518252602082019150602081019050602083039250611575565b6001836020036101000a0380198251168184511680821785525050505050509050018281526020019450505050506040516020818303038152906040528051906020012060001c816115e657fe5b069050949350505050565b60006001600083815260200190815260200160002060080160019054906101000a900473ffffffffffffffffffffffffffffffffffffffff169050919050565b60608060606000806000606060016000898152602001908152602001600020600001600160008a8152602001908152602001600020600101600160008b8152602001908152602001600020600201600160008c815260200190815260200160002060030154600160008d815260200190815260200160002060080160009054906101000a900460ff16600160008e815260200190815260200160002060050154600160008f8152602001908152602001600020600601868054600181600116156101000203166002900480601f01602080910402602001604051908101604052809291908181526020018280546001816001161561010002031660029004801561177c5780601f106117515761010080835404028352916020019161177c565b820191906000526020600020905b81548152906001019060200180831161175f57829003601f168201915b50505050509650858054600181600116156101000203166002900480601f0160208091040260200160405190810160405280929190818152602001828054600181600116156101000203166002900480156118185780601f106117ed57610100808354040283529160200191611818565b820191906000526020600020905b8154815290600101906020018083116117fb57829003601f168201915b50505050509550848054600181600116156101000203166002900480601f0160208091040260200160405190810160405280929190818152602001828054600181600116156101000203166002900480156118b45780601f10611889576101008083540402835291602001916118b4565b820191906000526020600020905b81548152906001019060200180831161189757829003601f168201915b50505050509450808054600181600116156101000203166002900480601f0160208091040260200160405190810160405280929190818152602001828054600181600116156101000203166002900480156119505780601f1061192557610100808354040283529160200191611950565b820191906000526020600020905b81548152906001019060200180831161193357829003601f168201915b505050505090509650965096509650965096509650919395979092949650565b606060006001600084815260200190815260200160002060080160009054906101000a900460ff1615611a6f57600160008481526020019081526020016000206002016001600085815260200190815260200160002060030154818054600181600116156101000203166002900480601f016020809104026020016040519081016040528092919081815260200182805460018160011615610100020316600290048015611a5f5780601f10611a3457610100808354040283529160200191611a5f565b820191906000526020600020905b815481529060010190602001808311611a4257829003601f168201915b5050505050915091509150611a70565b5b915091565b600060016000838152602001908152602001600020600501549050919050565b6001600082815260200190815260200160002060080160009054906101000a900460ff16611ac257600080fd5b336001600083815260200190815260200160002060080160016101000a81548173ffffffffffffffffffffffffffffffffffffffff021916908373ffffffffffffffffffffffffffffffffffffffff16021790555060006001600083815260200190815260200160002060080160006101000a81548160ff021916908315150217905550600180600083815260200190815260200160002060080160156101000a81548160ff02191690836003811115611b7857fe5b021790555050565b600380811115611b8c57fe5b6001600083815260200190815260200160002060080160159054906101000a900460ff166003811115611bbb57fe5b14611bc557600080fd5b600a600160008381526020019081526020016000206005015481611be557fe5b04600160008381526020019081526020016000206005015401341015611c0a57600080fd5b6001600082815260200190815260200160002060040160009054906101000a900473ffffffffffffffffffffffffffffffffffffffff1673ffffffffffffffffffffffffffffffffffffffff166108fc60016000848152602001908152602001600020600501549081150290604051600060405180830381858888f19350505050158015611c9c573d6000803e3d6000fd5b50611cdd6001600083815260200190815260200160002060040160009054906101000a900473ffffffffffffffffffffffffffffffffffffffff1682612db1565b336001600083815260200190815260200160002060040160006101000a81548173ffffffffffffffffffffffffffffffffffffffff021916908373ffffffffffffffffffffffffffffffffffffffff16021790555060006001600083815260200190815260200160002060080160006101000a81548160ff02191690831515021790555060006001600083815260200190815260200160002060080160016101000a81548173ffffffffffffffffffffffffffffffffffffffff021916908373ffffffffffffffffffffffffffffffffffffffff16021790555060006001600083815260200190815260200160002060080160156101000a81548160ff02191690836003811115611dea57fe5b0217905550600460003373ffffffffffffffffffffffffffffffffffffffff1673ffffffffffffffffffffffffffffffffffffffff16815260200190815260200160002060000181908060018154018082558091505090600182039060005260206000200160009091929091909150555050565b60008181548110611e6b57fe5b906000526020600020016000915090505481565b60008060008060006001600087815260200190815260200160002060040160009054906101000a900473ffffffffffffffffffffffffffffffffffffffff1660016000888152602001908152602001600020600501546001600089815260200190815260200160002060080160009054906101000a900460ff16600160008a815260200190815260200160002060080160019054906101000a900473ffffffffffffffffffffffffffffffffffffffff16600160008b815260200190815260200160002060080160159054906101000a900460ff168494509450945094509450945091939590929450565b600080600090505b600460008473ffffffffffffffffffffffffffffffffffffffff1673ffffffffffffffffffffffffffffffffffffffff168152602001908152602001600020600001805490508110156120345783600460008573ffffffffffffffffffffffffffffffffffffffff1673ffffffffffffffffffffffffffffffffffffffff168152602001908152602001600020600001828154811061200d57fe5b906000526020600020015414156120275780915050612039565b8080600101915050611f72565b809150505b92915050565b60003373ffffffffffffffffffffffffffffffffffffffff166003896040518082805190602001908083835b6020831061208e578051825260208201915060208101905060208303925061206b565b6001836020036101000a038019825116818451168082178552505050505050905001915050908152602001604051809103902060009054906101000a900473ffffffffffffffffffffffffffffffffffffffff1673ffffffffffffffffffffffffffffffffffffffff16148061215157503373ffffffffffffffffffffffffffffffffffffffff16600260009054906101000a900473ffffffffffffffffffffffffffffffffffffffff1673ffffffffffffffffffffffffffffffffffffffff16145b61215a57600080fd5b89600160008681526020019081526020016000206000019080519060200190612184929190612fb8565b50886001600086815260200190815260200160002060010190805190602001906121af929190612fb8565b50876001600086815260200190815260200160002060020190805190602001906121da929190612fb8565b50866001600086815260200190815260200160002060030181905550856001600086815260200190815260200160002060040160006101000a81548173ffffffffffffffffffffffffffffffffffffffff021916908373ffffffffffffffffffffffffffffffffffffffff16021790555084600160008681526020019081526020016000206005018190555082600160008681526020019081526020016000206006019080519060200190612290929190612fb8565b50816001600086815260200190815260200160002060070190805190602001906122bb929190612fb8565b50600460008773ffffffffffffffffffffffffffffffffffffffff1673ffffffffffffffffffffffffffffffffffffffff1681526020019081526020016000206000018490806001815401808255809150509060018203906000526020600020016000909192909190915055506000849080600181540180825580915050906001820390600052602060002001600090919290919091505550600190509998505050505050505050565b600260009054906101000a900473ffffffffffffffffffffffffffffffffffffffff1673ffffffffffffffffffffffffffffffffffffffff163373ffffffffffffffffffffffffffffffffffffffff16146123bf57600080fd5b816003826040518082805190602001908083835b602083106123f657805182526020820191506020810190506020830392506123d3565b6001836020036101000a038019825116818451168082178552505050505050905001915050908152602001604051809103902060006101000a81548173ffffffffffffffffffffffffffffffffffffffff021916908373ffffffffffffffffffffffffffffffffffffffff1602179055505050565b606060006060600080606060006001600089815260200190815260200160002060080160009054906101000a900460ff16156127405760016000898152602001908152602001600020600001600160008a815260200190815260200160002060040160009054906101000a900473ffffffffffffffffffffffffffffffffffffffff16600160008b8152602001908152602001600020600101600160008c815260200190815260200160002060080160009054906101000a900460ff16600160008d815260200190815260200160002060050154600160008e81526020019081526020016000206006018d868054600181600116156101000203166002900480601f0160208091040260200160405190810160405280929190818152602001828054600181600116156101000203166002900480156125eb5780601f106125c0576101008083540402835291602001916125eb565b820191906000526020600020905b8154815290600101906020018083116125ce57829003601f168201915b50505050509650859550848054600181600116156101000203166002900480601f01602080910402602001604051908101604052809291908181526020018280546001816001161561010002031660029004801561268a5780601f1061265f5761010080835404028352916020019161268a565b820191906000526020600020905b81548152906001019060200180831161266d57829003601f168201915b50505050509450818054600181600116156101000203166002900480601f0160208091040260200160405190810160405280929190818152602001828054600181600116156101000203166002900480156127265780601f106126fb57610100808354040283529160200191612726565b820191906000526020600020905b81548152906001019060200180831161270957829003601f168201915b505050505091509650965096509650965096509650612741565b5b919395979092949650565b6060600080548060200260200160405190810160405280929190818152602001828054801561279a57602002820191906000526020600020905b815481526020019060010190808311612786575b5050505050905090565b3373ffffffffffffffffffffffffffffffffffffffff166001600083815260200190815260200160002060040160009054906101000a900473ffffffffffffffffffffffffffffffffffffffff1673ffffffffffffffffffffffffffffffffffffffff161461281257600080fd5b600180600083815260200190815260200160002060080160006101000a81548160ff02191690831515021790555050565b6000819050919050565b6060600160008381526020019081526020016000206007018054600181600116156101000203166002900480601f0160208091040260200160405190810160405280929190818152602001828054600181600116156101000203166002900480156128f95780601f106128ce576101008083540402835291602001916128f9565b820191906000526020600020905b8154815290600101906020018083116128dc57829003601f168201915b50505050509050919050565b6000606080606060008060606001600089815260200190815260200160002060040160009054906101000a900473ffffffffffffffffffffffffffffffffffffffff16600160008a8152602001908152602001600020600001600160008b8152602001908152602001600020600101600160008c8152602001908152602001600020600201600160008d815260200190815260200160002060030154600160008e815260200190815260200160002060050154600160008f8152602001908152602001600020600601869650858054600181600116156101000203166002900480601f016020809104026020016040519081016040528092919081815260200182805460018160011615610100020316600290048015612a665780601f10612a3b57610100808354040283529160200191612a66565b820191906000526020600020905b815481529060010190602001808311612a4957829003601f168201915b50505050509550848054600181600116156101000203166002900480601f016020809104026020016040519081016040528092919081815260200182805460018160011615610100020316600290048015612b025780601f10612ad757610100808354040283529160200191612b02565b820191906000526020600020905b815481529060010190602001808311612ae557829003601f168201915b50505050509450838054600181600116156101000203166002900480601f016020809104026020016040519081016040528092919081815260200182805460018160011615610100020316600290048015612b9e5780601f10612b7357610100808354040283529160200191612b9e565b820191906000526020600020905b815481529060010190602001808311612b8157829003601f168201915b50505050509350808054600181600116156101000203166002900480601f016020809104026020016040519081016040528092919081815260200182805460018160011615610100020316600290048015612c3a5780601f10612c0f57610100808354040283529160200191612c3a565b820191906000526020600020905b815481529060010190602001808311612c1d57829003601f168201915b505050505090509650965096509650965096509650919395979092949650565b3373ffffffffffffffffffffffffffffffffffffffff166001600084815260200190815260200160002060040160009054906101000a900473ffffffffffffffffffffffffffffffffffffffff1673ffffffffffffffffffffffffffffffffffffffff1614612cc857600080fd5b806001600084815260200190815260200160002060080160156101000a81548160ff02191690836003811115612cfa57fe5b021790555060026003811115612d0c57fe5b816003811115612d1857fe5b1415612dad5760006001600084815260200190815260200160002060080160016101000a81548173ffffffffffffffffffffffffffffffffffffffff021916908373ffffffffffffffffffffffffffffffffffffffff16021790555060006001600084815260200190815260200160002060080160156101000a81548160ff02191690836003811115612da757fe5b02179055505b5050565b6000612dbd8284611f6a565b9050600460008473ffffffffffffffffffffffffffffffffffffffff1673ffffffffffffffffffffffffffffffffffffffff1681526020019081526020016000206000016001600460008673ffffffffffffffffffffffffffffffffffffffff1673ffffffffffffffffffffffffffffffffffffffff168152602001908152602001600020600001805490500381548110612e5457fe5b9060005260206000200154600460008573ffffffffffffffffffffffffffffffffffffffff1673ffffffffffffffffffffffffffffffffffffffff1681526020019081526020016000206000018281548110612eac57fe5b9060005260206000200181905550600460008473ffffffffffffffffffffffffffffffffffffffff1673ffffffffffffffffffffffffffffffffffffffff1681526020019081526020016000206000016001600460008673ffffffffffffffffffffffffffffffffffffffff1673ffffffffffffffffffffffffffffffffffffffff168152602001908152602001600020600001805490500381548110612f4f57fe5b9060005260206000200160009055600460008473ffffffffffffffffffffffffffffffffffffffff1673ffffffffffffffffffffffffffffffffffffffff168152602001908152602001600020600001805480919060019003612fb29190613038565b50505050565b828054600181600116156101000203166002900490600052602060002090601f016020900481019282601f10612ff957805160ff1916838001178555613027565b82800160010185558215613027579182015b8281111561302657825182559160200191906001019061300b565b5b5090506130349190613064565b5090565b81548183558181111561305f5781836000526020600020918201910161305e9190613064565b5b505050565b61308691905b8082111561308257600081600090555060010161306a565b5090565b9056fea265627a7a723158200af8eb4edc635f654a1e58717336c59c0bafba780a0641af6ae7ba178e55b76264736f6c63430005100032",
  "source": "pragma solidity >=0.4.0 <0.6.0;\n\n//Land Details\ncontract Land{\n\n    struct landDetails{\n        string state;\n        string district;\n        string village;\n        uint256 surveyNumber;\n        address payable CurrentOwner;\n        uint marketValue;\n        string measurement;\n        string ipfsHash;\n        bool isAvailable;\n        address requester;\n        reqStatus requestStatus;\n\n    }\n    \n    uint[] public propertiesIDs;\n\n    //request status\n    enum reqStatus {Default,pending,reject,approved}\n\n\n\n    //profile of a client\n    struct profiles{\n        uint[] assetList;   \n        }\n\n \n    mapping(uint => landDetails) land;\n    address owner;\n    mapping(string => address) superAdmin;\n    mapping(address => profiles) profile;\n    \n    //contract owner\n    constructor() public{\n        owner = msg.sender;\n    }\n    modifier onlyOwner {\n        require(msg.sender == owner);\n        _;\n    }\n    \n    //adding village admins\n    function addSuperAdmin(address _superAdmin,string memory _village ) onlyOwner public {\n        superAdmin[_village]=_superAdmin;\n    }\n    //Registration of land details.\n    function Registration(string memory _state,string memory _district,\n        string memory _village,uint256 _surveyNumber,\n        address payable _OwnerAddress,uint _marketValue,uint id, string memory _measurement , string memory _ipfsHash\n        ) public returns(bool) {\n        require(superAdmin[_village] == msg.sender || owner == msg.sender);\n        land[id].state = _state;\n        land[id].district = _district;\n        land[id].village = _village;\n        land[id].surveyNumber = _surveyNumber;\n        land[id].CurrentOwner = _OwnerAddress;\n        land[id].marketValue = _marketValue;\n        land[id].measurement = _measurement;\n        land[id].ipfsHash = _ipfsHash;\n        profile[_OwnerAddress].assetList.push(id);\n        propertiesIDs.push(id);\n        return true;\n    }\n    //to view details of land for the owner\n    function landInfoOwner(uint id) public view returns(string memory,string memory,string memory,uint256,bool,uint,string memory){\n        return(land[id].state,land[id].district,land[id].village,land[id].surveyNumber,land[id].isAvailable,land[id].marketValue,land[id].measurement);\n    }\n\n    function remainingDetail(uint id) public view returns(string memory){\n        return land[id].ipfsHash;\n    }\n\n    function showAllLands(uint id) public view returns(address,string memory,string memory,string memory,uint256,uint,string memory){\n        return(land[id].CurrentOwner,land[id].state,land[id].district,land[id].village,land[id].surveyNumber,land[id].marketValue,land[id].measurement);\n    }\n\n     function showAllLandsRemainig(uint id) public view returns(uint){\n        return(id);\n    }\n\n        //to view details of land for the buyer\n        function landInfoUser(uint id) public view returns(address,uint,bool,address,reqStatus){\n        return(land[id].CurrentOwner,land[id].marketValue,land[id].isAvailable,land[id].requester,land[id].requestStatus);\n    }\n\n    // to compute id for a land.\n    function computeId(string memory _state,string memory _district,string memory _village,uint _surveyNumber) public view returns(uint){\n        return uint(keccak256(abi.encodePacked(_state,_district,_village,_surveyNumber)))%10000000000000;\n    }\n\n    //push a request to the land owner\n    function requstToLandOwner(uint id) public {\n        require(land[id].isAvailable);\n        land[id].requester=msg.sender;\n        land[id].isAvailable=false;\n        land[id].requestStatus = reqStatus.pending; //changes the status to pending.\n    }\n    //will show assets of the function caller \n    function viewAssets()public view returns(uint[] memory){\n        return (profile[msg.sender].assetList);\n    }\n    //viewing request for the lands\n    function viewRequest(uint property)public view returns(address){\n        return(land[property].requester);\n    }\n    //processing request for the land by accepting or rejecting\n    function processRequest(uint property,reqStatus status)public {\n        require(land[property].CurrentOwner == msg.sender);\n        land[property].requestStatus=status;\n        if(status == reqStatus.reject){\n            land[property].requester = address(0);\n            land[property].requestStatus = reqStatus.Default;\n        }\n    }\n    //availing land for sale.\n    function makeAvailable(uint property)public{\n        require(land[property].CurrentOwner == msg.sender);\n        land[property].isAvailable=true;\n    }\n\n    function showMarketValue(uint id) public view returns(uint256){\n        return land[id].marketValue;\n    }\n\n    // change the market value after some years\n     function changeMarketValue(uint property, uint _marketValue)public{\n        uint256 marketValueGet = showMarketValue(property);    \n        land[property].marketValue=marketValueGet + _marketValue;  \n    }\n\n    \n    // Get all the lands ids.\n\t function getAllLands() view public returns (uint[] memory) {\n\t     return (propertiesIDs);\n\t }\n\t \n    \n    // show marked Available\n    function viewMarkded(uint id) public view returns(string memory, address ,string memory, bool, uint,string memory, uint){\n        if(land[id].isAvailable){\n            return(land[id].state,land[id].CurrentOwner,land[id].district,land[id].isAvailable,land[id].marketValue,land[id].measurement,id);\n        }\n    }\n\n     // show marked Available\n    function viewMarkdedRemainingData(uint id) public view returns(string memory, uint256){\n        if(land[id].isAvailable){\n            return(land[id].village,land[id].surveyNumber);\n        }\n    }\n    \n\n\n\n    //buying the approved property\n    function buyProperty(uint property)public payable{\n        require(land[property].requestStatus == reqStatus.approved);\n        require(msg.value >= (land[property].marketValue+((land[property].marketValue)/10)));\n        land[property].CurrentOwner.transfer(land[property].marketValue);\n        removeOwnership(land[property].CurrentOwner,property);\n        land[property].CurrentOwner=msg.sender;\n        land[property].isAvailable=false;\n        land[property].requester = address(0);\n        land[property].requestStatus = reqStatus.Default;\n        profile[msg.sender].assetList.push(property); //adds the property to the asset list of the new owner.\n        \n    }\n    //removing the ownership of seller for the land. and it is called by the buyProperty function\n    function removeOwnership(address previousOwner,uint id)private{\n        uint index = findId(id,previousOwner);\n        profile[previousOwner].assetList[index]=profile[previousOwner].assetList[profile[previousOwner].assetList.length-1];\n        delete profile[previousOwner].assetList[profile[previousOwner].assetList.length-1];\n        profile[previousOwner].assetList.length--;\n    }\n    //for finding the index of a perticular id\n    function findId(uint id,address user)public view returns(uint){\n        uint i;\n        for(i=0;i<profile[user].assetList.length;i++){\n            if(profile[user].assetList[i] == id)\n                return i;\n        }\n        return i;\n    }\n}",
  "sourcePath": "/home/zaryab/VSCodeProjects/land-records-blockchain/contracts/Land.sol",
  "compiler": {
    "name": "solc",
    "version": "0.5.16+commit.9c3226ce.Emscripten.clang"
  },
  "schemaVersion": "3.4.1",
  "updatedAt": "2021-08-03T15:00:40.340Z",
  "devdoc": {
    "methods": {}
  },
  "userdoc": {
    "methods": {}
  }
}