{
  "contractName": "Land",
  "abi": [
    {
      "constant": true,
      "inputs": [
        {
          "internalType": "uint256",
          "name": "",
          "type": "uint256"
        }
      ],
      "name": "properties",
      "outputs": [
        {
          "internalType": "uint256",
          "name": "value",
          "type": "uint256"
        },
        {
          "internalType": "address",
          "name": "currOwner",
          "type": "address"
        }
      ],
      "payable": false,
      "stateMutability": "view",
      "type": "function"
    },
    {
      "constant": true,
      "inputs": [
        {
          "internalType": "uint256",
          "name": "",
          "type": "uint256"
        }
      ],
      "name": "propertiesAddress",
      "outputs": [
        {
          "internalType": "address",
          "name": "",
          "type": "address"
        }
      ],
      "payable": false,
      "stateMutability": "view",
      "type": "function"
    },
    {
      "constant": true,
      "inputs": [
        {
          "internalType": "uint256",
          "name": "",
          "type": "uint256"
        }
      ],
      "name": "propertiesValues",
      "outputs": [
        {
          "internalType": "uint256",
          "name": "",
          "type": "uint256"
        }
      ],
      "payable": false,
      "stateMutability": "view",
      "type": "function"
    },
    {
      "constant": false,
      "inputs": [
        {
          "internalType": "uint256",
          "name": "_propId",
          "type": "uint256"
        },
        {
          "internalType": "uint256",
          "name": "_value",
          "type": "uint256"
        },
        {
          "internalType": "address",
          "name": "_owner",
          "type": "address"
        }
      ],
      "name": "createProperty",
      "outputs": [
        {
          "internalType": "bool",
          "name": "",
          "type": "bool"
        }
      ],
      "payable": false,
      "stateMutability": "nonpayable",
      "type": "function"
    },
    {
      "constant": true,
      "inputs": [
        {
          "internalType": "uint256",
          "name": "_propId",
          "type": "uint256"
        }
      ],
      "name": "getPropertyDetails",
      "outputs": [
        {
          "internalType": "uint256",
          "name": "",
          "type": "uint256"
        },
        {
          "internalType": "address",
          "name": "",
          "type": "address"
        }
      ],
      "payable": false,
      "stateMutability": "view",
      "type": "function"
    },
    {
      "constant": true,
      "inputs": [],
      "name": "getAllDetails",
      "outputs": [
        {
          "internalType": "uint256[]",
          "name": "",
          "type": "uint256[]"
        },
        {
          "internalType": "address[]",
          "name": "",
          "type": "address[]"
        }
      ],
      "payable": false,
      "stateMutability": "view",
      "type": "function"
    }
  ],
  "bytecode": "0x608060405234801561001057600080fd5b5061065f806100206000396000f3fe608060405234801561001057600080fd5b50600436106100625760003560e01c8063126dbe43146100675780639448f03d146100dc578063a4c4596a1461014c578063a854158f1461018e578063ccc5d7d4146101fc578063f7b10808146102a3575b600080fd5b6100936004803603602081101561007d57600080fd5b8101908080359060200190929190505050610318565b604051808381526020018273ffffffffffffffffffffffffffffffffffffffff1673ffffffffffffffffffffffffffffffffffffffff1681526020019250505060405180910390f35b610132600480360360608110156100f257600080fd5b810190808035906020019092919080359060200190929190803573ffffffffffffffffffffffffffffffffffffffff169060200190929190505050610370565b604051808215151515815260200191505060405180910390f35b6101786004803603602081101561016257600080fd5b81019080803590602001909291905050506104a0565b6040518082815260200191505060405180910390f35b6101ba600480360360208110156101a457600080fd5b81019080803590602001909291905050506104c1565b604051808273ffffffffffffffffffffffffffffffffffffffff1673ffffffffffffffffffffffffffffffffffffffff16815260200191505060405180910390f35b6102046104fd565b604051808060200180602001838103835285818151815260200191508051906020019060200280838360005b8381101561024b578082015181840152602081019050610230565b50505050905001838103825284818151815260200191508051906020019060200280838360005b8381101561028d578082015181840152602081019050610272565b5050505090500194505050505060405180910390f35b6102cf600480360360208110156102b957600080fd5b81019080803590602001909291905050506105e6565b604051808381526020018273ffffffffffffffffffffffffffffffffffffffff1673ffffffffffffffffffffffffffffffffffffffff1681526020019250505060405180910390f35b6000806000808481526020019081526020016000206000015460008085815260200190815260200160002060010160009054906101000a900473ffffffffffffffffffffffffffffffffffffffff1691509150915091565b600060405180604001604052808481526020018373ffffffffffffffffffffffffffffffffffffffff168152506000808681526020019081526020016000206000820151816000015560208201518160010160006101000a81548173ffffffffffffffffffffffffffffffffffffffff021916908373ffffffffffffffffffffffffffffffffffffffff160217905550905050600183908060018154018082558091505090600182039060005260206000200160009091929091909150555060028290806001815401808255809150509060018203906000526020600020016000909192909190916101000a81548173ffffffffffffffffffffffffffffffffffffffff021916908373ffffffffffffffffffffffffffffffffffffffff16021790555050600190509392505050565b600181815481106104ad57fe5b906000526020600020016000915090505481565b600281815481106104ce57fe5b906000526020600020016000915054906101000a900473ffffffffffffffffffffffffffffffffffffffff1681565b606080600160028180548060200260200160405190810160405280929190818152602001828054801561054f57602002820191906000526020600020905b81548152602001906001019080831161053b575b50505050509150808054806020026020016040519081016040528092919081815260200182805480156105d757602002820191906000526020600020905b8160009054906101000a900473ffffffffffffffffffffffffffffffffffffffff1673ffffffffffffffffffffffffffffffffffffffff168152602001906001019080831161058d575b50505050509050915091509091565b60006020528060005260406000206000915090508060000154908060010160009054906101000a900473ffffffffffffffffffffffffffffffffffffffff1690508256fea265627a7a723158208e68a39d13e8984391aed4a95d62fbede561de3e647fc9d0e3e02faa7609771a64736f6c63430005100032",
  "source": "pragma solidity >=0.4.22 <0.9.0;\r\n\r\ncontract Land {\r\n    struct PropertyDetail {\r\n        uint256 value;\r\n        address currOwner;\r\n    }\r\n\r\n    mapping(uint256 => PropertyDetail) public properties;\r\n    uint256[] public propertiesValues;\r\n    address[] public propertiesAddress;\r\n\r\n    // Create Property\r\n    function createProperty(\r\n        uint256 _propId,\r\n        uint256 _value,\r\n        address _owner\r\n    ) public returns (bool) {\r\n        properties[_propId] = PropertyDetail(_value, _owner);\r\n        propertiesValues.push(_value);\r\n        propertiesAddress.push(_owner);\r\n        return true;\r\n    }\r\n\r\n    // Get the property details.\r\n    function getPropertyDetails(uint256 _propId)\r\n        public\r\n        view\r\n        returns (uint256, address)\r\n    {\r\n        return (properties[_propId].value, properties[_propId].currOwner);\r\n    }\r\n\r\n    // Get the property details.\r\n    function getAllDetails()\r\n        public\r\n        view\r\n        returns (uint256[] memory, address[] memory)\r\n    {\r\n        return (propertiesValues, propertiesAddress);\r\n    }\r\n}\r\n",
  "sourcePath": "D:/Blockchain/Template/landrecord/land-records-blockchain/contracts/Land.sol",
  "compiler": {
    "name": "solc",
    "version": "0.5.16+commit.9c3226ce.Emscripten.clang"
  },
  "schemaVersion": "3.4.1",
  "updatedAt": "2021-06-27T07:02:47.988Z",
  "networkType": "ethereum",
  "devdoc": {
    "methods": {}
  },
  "userdoc": {
    "methods": {}
  }
}