{
  "contractName": "Land",
  "abi": [
    {
      "inputs": [],
      "payable": false,
      "stateMutability": "nonpayable",
      "type": "constructor"
    },
    {
      "constant": true,
      "inputs": [
        {
          "internalType": "uint256",
          "name": "",
          "type": "uint256"
        }
      ],
      "name": "propertiesIDs",
      "outputs": [
        {
          "internalType": "uint256",
          "name": "",
          "type": "uint256"
        }
      ],
      "payable": false,
      "stateMutability": "view",
      "type": "function"
    },
    {
      "constant": false,
      "inputs": [
        {
          "internalType": "address",
          "name": "_superAdmin",
          "type": "address"
        },
        {
          "internalType": "string",
          "name": "_village",
          "type": "string"
        }
      ],
      "name": "addSuperAdmin",
      "outputs": [],
      "payable": false,
      "stateMutability": "nonpayable",
      "type": "function"
    },
    {
      "constant": false,
      "inputs": [
        {
          "internalType": "string",
          "name": "_state",
          "type": "string"
        },
        {
          "internalType": "string",
          "name": "_district",
          "type": "string"
        },
        {
          "internalType": "string",
          "name": "_villageTown",
          "type": "string"
        },
        {
          "internalType": "uint256",
          "name": "_khataNumber",
          "type": "uint256"
        },
        {
          "internalType": "uint256",
          "name": "_khatooniNumber",
          "type": "uint256"
        },
        {
          "internalType": "address payable",
          "name": "_OwnerAddress",
          "type": "address"
        },
        {
          "internalType": "string",
          "name": "_ownerName",
          "type": "string"
        },
        {
          "internalType": "address",
          "name": "_previousOwner",
          "type": "address"
        },
        {
          "internalType": "uint256",
          "name": "_marketValue",
          "type": "uint256"
        },
        {
          "internalType": "uint256",
          "name": "id",
          "type": "uint256"
        },
        {
          "internalType": "string",
          "name": "_squareFoots",
          "type": "string"
        },
        {
          "internalType": "string",
          "name": "_inches",
          "type": "string"
        },
        {
          "internalType": "string",
          "name": "_ipfsHash",
          "type": "string"
        },
        {
          "internalType": "string",
          "name": "_landType",
          "type": "string"
        },
        {
          "internalType": "address",
          "name": "_createByGovt",
          "type": "address"
        }
      ],
      "name": "Registration",
      "outputs": [
        {
          "internalType": "bool",
          "name": "",
          "type": "bool"
        }
      ],
      "payable": false,
      "stateMutability": "nonpayable",
      "type": "function"
    },
    {
      "constant": false,
      "inputs": [
        {
          "internalType": "string",
          "name": "_lat",
          "type": "string"
        },
        {
          "internalType": "string",
          "name": "_lng",
          "type": "string"
        },
        {
          "internalType": "string",
          "name": "_north",
          "type": "string"
        },
        {
          "internalType": "string",
          "name": "_south",
          "type": "string"
        },
        {
          "internalType": "string",
          "name": "_east",
          "type": "string"
        },
        {
          "internalType": "string",
          "name": "_west",
          "type": "string"
        },
        {
          "internalType": "uint256",
          "name": "id",
          "type": "uint256"
        }
      ],
      "name": "registerLandPolyline",
      "outputs": [
        {
          "internalType": "bool",
          "name": "",
          "type": "bool"
        }
      ],
      "payable": false,
      "stateMutability": "nonpayable",
      "type": "function"
    },
    {
      "constant": true,
      "inputs": [
        {
          "internalType": "uint256",
          "name": "id",
          "type": "uint256"
        }
      ],
      "name": "landInfoOwner",
      "outputs": [
        {
          "internalType": "string",
          "name": "",
          "type": "string"
        },
        {
          "internalType": "string",
          "name": "",
          "type": "string"
        },
        {
          "internalType": "string",
          "name": "",
          "type": "string"
        },
        {
          "internalType": "bool",
          "name": "",
          "type": "bool"
        },
        {
          "internalType": "uint256",
          "name": "",
          "type": "uint256"
        },
        {
          "internalType": "string",
          "name": "",
          "type": "string"
        },
        {
          "internalType": "string",
          "name": "",
          "type": "string"
        }
      ],
      "payable": false,
      "stateMutability": "view",
      "type": "function"
    },
    {
      "constant": true,
      "inputs": [
        {
          "internalType": "uint256",
          "name": "id",
          "type": "uint256"
        }
      ],
      "name": "remainingDetail",
      "outputs": [
        {
          "internalType": "string",
          "name": "",
          "type": "string"
        },
        {
          "internalType": "string",
          "name": "",
          "type": "string"
        },
        {
          "internalType": "string",
          "name": "",
          "type": "string"
        },
        {
          "internalType": "string",
          "name": "",
          "type": "string"
        },
        {
          "internalType": "string",
          "name": "",
          "type": "string"
        },
        {
          "internalType": "string",
          "name": "",
          "type": "string"
        },
        {
          "internalType": "string",
          "name": "",
          "type": "string"
        }
      ],
      "payable": false,
      "stateMutability": "view",
      "type": "function"
    },
    {
      "constant": true,
      "inputs": [
        {
          "internalType": "uint256",
          "name": "id",
          "type": "uint256"
        }
      ],
      "name": "showAllLands",
      "outputs": [
        {
          "internalType": "address",
          "name": "",
          "type": "address"
        },
        {
          "internalType": "string",
          "name": "",
          "type": "string"
        },
        {
          "internalType": "string",
          "name": "",
          "type": "string"
        },
        {
          "internalType": "string",
          "name": "",
          "type": "string"
        },
        {
          "internalType": "uint256",
          "name": "",
          "type": "uint256"
        },
        {
          "internalType": "string",
          "name": "",
          "type": "string"
        }
      ],
      "payable": false,
      "stateMutability": "view",
      "type": "function"
    },
    {
      "constant": true,
      "inputs": [
        {
          "internalType": "uint256",
          "name": "id",
          "type": "uint256"
        }
      ],
      "name": "landInfoUser",
      "outputs": [
        {
          "internalType": "address",
          "name": "",
          "type": "address"
        },
        {
          "internalType": "uint256",
          "name": "",
          "type": "uint256"
        },
        {
          "internalType": "bool",
          "name": "",
          "type": "bool"
        },
        {
          "internalType": "address",
          "name": "",
          "type": "address"
        },
        {
          "internalType": "enum Land.reqStatus",
          "name": "",
          "type": "uint8"
        }
      ],
      "payable": false,
      "stateMutability": "view",
      "type": "function"
    },
    {
      "constant": true,
      "inputs": [
        {
          "internalType": "string",
          "name": "_state",
          "type": "string"
        },
        {
          "internalType": "string",
          "name": "_district",
          "type": "string"
        },
        {
          "internalType": "string",
          "name": "_village",
          "type": "string"
        },
        {
          "internalType": "uint256",
          "name": "_surveyNumber",
          "type": "uint256"
        }
      ],
      "name": "computeId",
      "outputs": [
        {
          "internalType": "uint256",
          "name": "",
          "type": "uint256"
        }
      ],
      "payable": false,
      "stateMutability": "view",
      "type": "function"
    },
    {
      "constant": false,
      "inputs": [
        {
          "internalType": "uint256",
          "name": "id",
          "type": "uint256"
        }
      ],
      "name": "requstToLandOwner",
      "outputs": [],
      "payable": false,
      "stateMutability": "nonpayable",
      "type": "function"
    },
    {
      "constant": true,
      "inputs": [],
      "name": "viewAssets",
      "outputs": [
        {
          "internalType": "uint256[]",
          "name": "",
          "type": "uint256[]"
        }
      ],
      "payable": false,
      "stateMutability": "view",
      "type": "function"
    },
    {
      "constant": true,
      "inputs": [
        {
          "internalType": "uint256",
          "name": "property",
          "type": "uint256"
        }
      ],
      "name": "viewRequest",
      "outputs": [
        {
          "internalType": "address",
          "name": "",
          "type": "address"
        }
      ],
      "payable": false,
      "stateMutability": "view",
      "type": "function"
    },
    {
      "constant": false,
      "inputs": [
        {
          "internalType": "uint256",
          "name": "property",
          "type": "uint256"
        }
      ],
      "name": "makeAvailable",
      "outputs": [],
      "payable": false,
      "stateMutability": "nonpayable",
      "type": "function"
    },
    {
      "constant": true,
      "inputs": [
        {
          "internalType": "uint256",
          "name": "id",
          "type": "uint256"
        }
      ],
      "name": "showMarketValue",
      "outputs": [
        {
          "internalType": "uint256",
          "name": "",
          "type": "uint256"
        }
      ],
      "payable": false,
      "stateMutability": "view",
      "type": "function"
    },
    {
      "constant": false,
      "inputs": [
        {
          "internalType": "uint256",
          "name": "property",
          "type": "uint256"
        },
        {
          "internalType": "uint256",
          "name": "_marketValue",
          "type": "uint256"
        }
      ],
      "name": "changeMarketValue",
      "outputs": [],
      "payable": false,
      "stateMutability": "nonpayable",
      "type": "function"
    },
    {
      "constant": true,
      "inputs": [],
      "name": "getAllLands",
      "outputs": [
        {
          "internalType": "uint256[]",
          "name": "",
          "type": "uint256[]"
        }
      ],
      "payable": false,
      "stateMutability": "view",
      "type": "function"
    },
    {
      "constant": true,
      "inputs": [
        {
          "internalType": "uint256",
          "name": "id",
          "type": "uint256"
        }
      ],
      "name": "viewMarkded",
      "outputs": [
        {
          "internalType": "string",
          "name": "",
          "type": "string"
        },
        {
          "internalType": "address",
          "name": "",
          "type": "address"
        },
        {
          "internalType": "string",
          "name": "",
          "type": "string"
        },
        {
          "internalType": "bool",
          "name": "",
          "type": "bool"
        },
        {
          "internalType": "uint256",
          "name": "",
          "type": "uint256"
        },
        {
          "internalType": "string",
          "name": "",
          "type": "string"
        },
        {
          "internalType": "uint256",
          "name": "",
          "type": "uint256"
        }
      ],
      "payable": false,
      "stateMutability": "view",
      "type": "function"
    },
    {
      "constant": true,
      "inputs": [
        {
          "internalType": "uint256",
          "name": "id",
          "type": "uint256"
        }
      ],
      "name": "viewMarkdedRemainingData",
      "outputs": [
        {
          "internalType": "string",
          "name": "",
          "type": "string"
        },
        {
          "internalType": "uint256",
          "name": "",
          "type": "uint256"
        }
      ],
      "payable": false,
      "stateMutability": "view",
      "type": "function"
    },
    {
      "constant": false,
      "inputs": [
        {
          "internalType": "uint256",
          "name": "property",
          "type": "uint256"
        },
        {
          "internalType": "enum Land.reqStatus",
          "name": "status",
          "type": "uint8"
        }
      ],
      "name": "processRequest",
      "outputs": [],
      "payable": false,
      "stateMutability": "nonpayable",
      "type": "function"
    },
    {
      "constant": false,
      "inputs": [
        {
          "internalType": "uint256",
          "name": "property",
          "type": "uint256"
        }
      ],
      "name": "buyProperty",
      "outputs": [],
      "payable": true,
      "stateMutability": "payable",
      "type": "function"
    },
    {
      "constant": true,
      "inputs": [
        {
          "internalType": "uint256",
          "name": "id",
          "type": "uint256"
        },
        {
          "internalType": "address",
          "name": "user",
          "type": "address"
        }
      ],
      "name": "findId",
      "outputs": [
        {
          "internalType": "uint256",
          "name": "",
          "type": "uint256"
        }
      ],
      "payable": false,
      "stateMutability": "view",
      "type": "function"
    }
  ],
  "bytecode": "0x608060405234801561001057600080fd5b5033600260006101000a81548173ffffffffffffffffffffffffffffffffffffffff021916908373ffffffffffffffffffffffffffffffffffffffff160217905550614026806100616000396000f3fe60806040526004361061012a5760003560e01c806394e504d2116100ab578063b7b6e5431161006f578063b7b6e54314611088578063baa39e05146110f4578063ddc40e7e1461112f578063deec6b4e1461146b578063fb8d69ba1461169d578063fdb10f5014611c275761012a565b806394e504d214610c355780639d01485f14610c84578063a27664ee14610d59578063ab05bae614610dc8578063ad14224214610eb05761012a565b8063599bf236116100f2578063599bf236146106e55780635c3aad0814610ac257806361735a4914610b7d5780636c5ed93914610bcc5780636fa830a614610c075761012a565b806304ef280c1461012f5780630d2d5dca146101745780631d50a6c4146101e057806326e85250146103f457806355d619521461046f575b600080fd5b34801561013b57600080fd5b506101726004803603604081101561015257600080fd5b810190808035906020019092919080359060200190929190505050611c6f565b005b34801561018057600080fd5b50610189611c9e565b6040518080602001828103825283818151815260200191508051906020019060200280838360005b838110156101cc5780820151818401526020810190506101b1565b505050509050019250505060405180910390f35b3480156101ec57600080fd5b506103de6004803603608081101561020357600080fd5b810190808035906020019064010000000081111561022057600080fd5b82018360208201111561023257600080fd5b8035906020019184600183028401116401000000008311171561025457600080fd5b91908080601f016020809104026020016040519081016040528093929190818152602001838380828437600081840152601f19601f820116905080830192505050505050509192919290803590602001906401000000008111156102b757600080fd5b8201836020820111156102c957600080fd5b803590602001918460018302840111640100000000831117156102eb57600080fd5b91908080601f016020809104026020016040519081016040528093929190818152602001838380828437600081840152601f19601f8201169050808301925050505050505091929192908035906020019064010000000081111561034e57600080fd5b82018360208201111561036057600080fd5b8035906020019184600183028401116401000000008311171561038257600080fd5b91908080601f016020809104026020016040519081016040528093929190818152602001838380828437600081840152601f19601f82011690508083019250505050505050919291929080359060200190929190505050611d36565b6040518082815260200191505060405180910390f35b34801561040057600080fd5b5061042d6004803603602081101561041757600080fd5b8101908080359060200190929190505050611e74565b604051808273ffffffffffffffffffffffffffffffffffffffff1673ffffffffffffffffffffffffffffffffffffffff16815260200191505060405180910390f35b34801561047b57600080fd5b506104a86004803603602081101561049257600080fd5b8101908080359060200190929190505050611eb4565b6040518080602001806020018060200188151515158152602001878152602001806020018060200186810386528d818151815260200191508051906020019080838360005b838110156105085780820151818401526020810190506104ed565b50505050905090810190601f1680156105355780820380516001836020036101000a031916815260200191505b5086810385528c818151815260200191508051906020019080838360005b8381101561056e578082015181840152602081019050610553565b50505050905090810190601f16801561059b5780820380516001836020036101000a031916815260200191505b5086810384528b818151815260200191508051906020019080838360005b838110156105d45780820151818401526020810190506105b9565b50505050905090810190601f1680156106015780820380516001836020036101000a031916815260200191505b50868103835288818151815260200191508051906020019080838360005b8381101561063a57808201518184015260208101905061061f565b50505050905090810190601f1680156106675780820380516001836020036101000a031916815260200191505b50868103825287818151815260200191508051906020019080838360005b838110156106a0578082015181840152602081019050610685565b50505050905090810190601f1680156106cd5780820380516001836020036101000a031916815260200191505b509c5050505050505050505050505060405180910390f35b3480156106f157600080fd5b50610aa8600480360360e081101561070857600080fd5b810190808035906020019064010000000081111561072557600080fd5b82018360208201111561073757600080fd5b8035906020019184600183028401116401000000008311171561075957600080fd5b91908080601f016020809104026020016040519081016040528093929190818152602001838380828437600081840152601f19601f820116905080830192505050505050509192919290803590602001906401000000008111156107bc57600080fd5b8201836020820111156107ce57600080fd5b803590602001918460018302840111640100000000831117156107f057600080fd5b91908080601f016020809104026020016040519081016040528093929190818152602001838380828437600081840152601f19601f8201169050808301925050505050505091929192908035906020019064010000000081111561085357600080fd5b82018360208201111561086557600080fd5b8035906020019184600183028401116401000000008311171561088757600080fd5b91908080601f016020809104026020016040519081016040528093929190818152602001838380828437600081840152601f19601f820116905080830192505050505050509192919290803590602001906401000000008111156108ea57600080fd5b8201836020820111156108fc57600080fd5b8035906020019184600183028401116401000000008311171561091e57600080fd5b91908080601f016020809104026020016040519081016040528093929190818152602001838380828437600081840152601f19601f8201169050808301925050505050505091929192908035906020019064010000000081111561098157600080fd5b82018360208201111561099357600080fd5b803590602001918460018302840111640100000000831117156109b557600080fd5b91908080601f016020809104026020016040519081016040528093929190818152602001838380828437600081840152601f19601f82011690508083019250505050505050919291929080359060200190640100000000811115610a1857600080fd5b820183602082011115610a2a57600080fd5b80359060200191846001830284011164010000000083111715610a4c57600080fd5b91908080601f016020809104026020016040519081016040528093929190818152602001838380828437600081840152601f19601f8201169050808301925050505050505091929192908035906020019092919050505061228d565b604051808215151515815260200191505060405180910390f35b348015610ace57600080fd5b50610afb60048036036020811015610ae557600080fd5b81019080803590602001909291905050506123a0565b6040518080602001838152602001828103825284818151815260200191508051906020019080838360005b83811015610b41578082015181840152602081019050610b26565b50505050905090810190601f168015610b6e5780820380516001836020036101000a031916815260200191505b50935050505060405180910390f35b348015610b8957600080fd5b50610bb660048036036020811015610ba057600080fd5b81019080803590602001909291905050506124a5565b6040518082815260200191505060405180910390f35b348015610bd857600080fd5b50610c0560048036036020811015610bef57600080fd5b81019080803590602001909291905050506124c5565b005b610c3360048036036020811015610c1d57600080fd5b81019080803590602001909291905050506125b0565b005b348015610c4157600080fd5b50610c6e60048036036020811015610c5857600080fd5b8101908080359060200190929190505050612856565b6040518082815260200191505060405180910390f35b348015610c9057600080fd5b50610cbd60048036036020811015610ca757600080fd5b8101908080359060200190929190505050612877565b604051808673ffffffffffffffffffffffffffffffffffffffff1673ffffffffffffffffffffffffffffffffffffffff168152602001858152602001841515151581526020018373ffffffffffffffffffffffffffffffffffffffff1673ffffffffffffffffffffffffffffffffffffffff168152602001826003811115610d4157fe5b60ff1681526020019550505050505060405180910390f35b348015610d6557600080fd5b50610db260048036036040811015610d7c57600080fd5b8101908080359060200190929190803573ffffffffffffffffffffffffffffffffffffffff169060200190929190505050612962565b6040518082815260200191505060405180910390f35b348015610dd457600080fd5b50610eae60048036036040811015610deb57600080fd5b81019080803573ffffffffffffffffffffffffffffffffffffffff16906020019092919080359060200190640100000000811115610e2857600080fd5b820183602082011115610e3a57600080fd5b80359060200191846001830284011164010000000083111715610e5c57600080fd5b91908080601f016020809104026020016040519081016040528093929190818152602001838380828437600081840152601f19601f820116905080830192505050505050509192919290505050612a37565b005b348015610ebc57600080fd5b50610ee960048036036020811015610ed357600080fd5b8101908080359060200190929190505050612b3d565b60405180806020018873ffffffffffffffffffffffffffffffffffffffff1673ffffffffffffffffffffffffffffffffffffffff16815260200180602001871515151581526020018681526020018060200185815260200184810384528b818151815260200191508051906020019080838360005b83811015610f79578082015181840152602081019050610f5e565b50505050905090810190601f168015610fa65780820380516001836020036101000a031916815260200191505b50848103835289818151815260200191508051906020019080838360005b83811015610fdf578082015181840152602081019050610fc4565b50505050905090810190601f16801561100c5780820380516001836020036101000a031916815260200191505b50848103825286818151815260200191508051906020019080838360005b8381101561104557808201518184015260208101905061102a565b50505050905090810190601f1680156110725780820380516001836020036101000a031916815260200191505b509a505050505050505050505060405180910390f35b34801561109457600080fd5b5061109d612e1e565b6040518080602001828103825283818151815260200191508051906020019060200280838360005b838110156110e05780820151818401526020810190506110c5565b505050509050019250505060405180910390f35b34801561110057600080fd5b5061112d6004803603602081101561111757600080fd5b8101908080359060200190929190505050612e76565b005b34801561113b57600080fd5b506111686004803603602081101561115257600080fd5b8101908080359060200190929190505050612f15565b604051808060200180602001806020018060200180602001806020018060200188810388528f818151815260200191508051906020019080838360005b838110156111c05780820151818401526020810190506111a5565b50505050905090810190601f1680156111ed5780820380516001836020036101000a031916815260200191505b5088810387528e818151815260200191508051906020019080838360005b8381101561122657808201518184015260208101905061120b565b50505050905090810190601f1680156112535780820380516001836020036101000a031916815260200191505b5088810386528d818151815260200191508051906020019080838360005b8381101561128c578082015181840152602081019050611271565b50505050905090810190601f1680156112b95780820380516001836020036101000a031916815260200191505b5088810385528c818151815260200191508051906020019080838360005b838110156112f25780820151818401526020810190506112d7565b50505050905090810190601f16801561131f5780820380516001836020036101000a031916815260200191505b5088810384528b818151815260200191508051906020019080838360005b8381101561135857808201518184015260208101905061133d565b50505050905090810190601f1680156113855780820380516001836020036101000a031916815260200191505b5088810383528a818151815260200191508051906020019080838360005b838110156113be5780820151818401526020810190506113a3565b50505050905090810190601f1680156113eb5780820380516001836020036101000a031916815260200191505b50888103825289818151815260200191508051906020019080838360005b83811015611424578082015181840152602081019050611409565b50505050905090810190601f1680156114515780820380516001836020036101000a031916815260200191505b509e50505050505050505050505050505060405180910390f35b34801561147757600080fd5b506114a46004803603602081101561148e57600080fd5b8101908080359060200190929190505050613417565b604051808773ffffffffffffffffffffffffffffffffffffffff1673ffffffffffffffffffffffffffffffffffffffff1681526020018060200180602001806020018681526020018060200185810385528a818151815260200191508051906020019080838360005b8381101561152857808201518184015260208101905061150d565b50505050905090810190601f1680156115555780820380516001836020036101000a031916815260200191505b50858103845289818151815260200191508051906020019080838360005b8381101561158e578082015181840152602081019050611573565b50505050905090810190601f1680156115bb5780820380516001836020036101000a031916815260200191505b50858103835288818151815260200191508051906020019080838360005b838110156115f45780820151818401526020810190506115d9565b50505050905090810190601f1680156116215780820380516001836020036101000a031916815260200191505b50858103825286818151815260200191508051906020019080838360005b8381101561165a57808201518184015260208101905061163f565b50505050905090810190601f1680156116875780820380516001836020036101000a031916815260200191505b509a505050505050505050505060405180910390f35b3480156116a957600080fd5b50611c0d60048036036101e08110156116c157600080fd5b81019080803590602001906401000000008111156116de57600080fd5b8201836020820111156116f057600080fd5b8035906020019184600183028401116401000000008311171561171257600080fd5b91908080601f016020809104026020016040519081016040528093929190818152602001838380828437600081840152601f19601f8201169050808301925050505050505091929192908035906020019064010000000081111561177557600080fd5b82018360208201111561178757600080fd5b803590602001918460018302840111640100000000831117156117a957600080fd5b91908080601f016020809104026020016040519081016040528093929190818152602001838380828437600081840152601f19601f8201169050808301925050505050505091929192908035906020019064010000000081111561180c57600080fd5b82018360208201111561181e57600080fd5b8035906020019184600183028401116401000000008311171561184057600080fd5b91908080601f016020809104026020016040519081016040528093929190818152602001838380828437600081840152601f19601f8201169050808301925050505050505091929192908035906020019092919080359060200190929190803573ffffffffffffffffffffffffffffffffffffffff169060200190929190803590602001906401000000008111156118d757600080fd5b8201836020820111156118e957600080fd5b8035906020019184600183028401116401000000008311171561190b57600080fd5b91908080601f016020809104026020016040519081016040528093929190818152602001838380828437600081840152601f19601f820116905080830192505050505050509192919290803573ffffffffffffffffffffffffffffffffffffffff1690602001909291908035906020019092919080359060200190929190803590602001906401000000008111156119a257600080fd5b8201836020820111156119b457600080fd5b803590602001918460018302840111640100000000831117156119d657600080fd5b91908080601f016020809104026020016040519081016040528093929190818152602001838380828437600081840152601f19601f82011690508083019250505050505050919291929080359060200190640100000000811115611a3957600080fd5b820183602082011115611a4b57600080fd5b80359060200191846001830284011164010000000083111715611a6d57600080fd5b91908080601f016020809104026020016040519081016040528093929190818152602001838380828437600081840152601f19601f82011690508083019250505050505050919291929080359060200190640100000000811115611ad057600080fd5b820183602082011115611ae257600080fd5b80359060200191846001830284011164010000000083111715611b0457600080fd5b91908080601f016020809104026020016040519081016040528093929190818152602001838380828437600081840152601f19601f82011690508083019250505050505050919291929080359060200190640100000000811115611b6757600080fd5b820183602082011115611b7957600080fd5b80359060200191846001830284011164010000000083111715611b9b57600080fd5b91908080601f016020809104026020016040519081016040528093929190818152602001838380828437600081840152601f19601f820116905080830192505050505050509192919290803573ffffffffffffffffffffffffffffffffffffffff169060200190929190505050613750565b604051808215151515815260200191505060405180910390f35b348015611c3357600080fd5b50611c6d60048036036040811015611c4a57600080fd5b8101908080359060200190929190803560ff169060200190929190505050613bc2565b005b6000611c7a836124a5565b90508181016001600085815260200190815260200160002060080181905550505050565b6060600460003373ffffffffffffffffffffffffffffffffffffffff1673ffffffffffffffffffffffffffffffffffffffff168152602001908152602001600020600001805480602002602001604051908101604052809291908181526020018280548015611d2c57602002820191906000526020600020905b815481526020019060010190808311611d18575b5050505050905090565b60006509184e72a000858585856040516020018085805190602001908083835b60208310611d795780518252602082019150602081019050602083039250611d56565b6001836020036101000a03801982511681845116808217855250505050505090500184805190602001908083835b60208310611dca5780518252602082019150602081019050602083039250611da7565b6001836020036101000a03801982511681845116808217855250505050505090500183805190602001908083835b60208310611e1b5780518252602082019150602081019050602083039250611df8565b6001836020036101000a0380198251168184511680821785525050505050509050018281526020019450505050506040516020818303038152906040528051906020012060001c81611e6957fe5b069050949350505050565b60006001600083815260200190815260200160002060130160009054906101000a900473ffffffffffffffffffffffffffffffffffffffff169050919050565b606080606060008060608060016000898152602001908152602001600020600001600160008a8152602001908152602001600020600101600160008b8152602001908152602001600020600201600160008c815260200190815260200160002060130160149054906101000a900460ff16600160008d815260200190815260200160002060080154600160008e8152602001908152602001600020600b01600160008f8152602001908152602001600020600c01868054600181600116156101000203166002900480601f016020809104026020016040519081016040528092919081815260200182805460018160011615610100020316600290048015611ffd5780601f10611fd257610100808354040283529160200191611ffd565b820191906000526020600020905b815481529060010190602001808311611fe057829003601f168201915b50505050509650858054600181600116156101000203166002900480601f0160208091040260200160405190810160405280929190818152602001828054600181600116156101000203166002900480156120995780601f1061206e57610100808354040283529160200191612099565b820191906000526020600020905b81548152906001019060200180831161207c57829003601f168201915b50505050509550848054600181600116156101000203166002900480601f0160208091040260200160405190810160405280929190818152602001828054600181600116156101000203166002900480156121355780601f1061210a57610100808354040283529160200191612135565b820191906000526020600020905b81548152906001019060200180831161211857829003601f168201915b50505050509450818054600181600116156101000203166002900480601f0160208091040260200160405190810160405280929190818152602001828054600181600116156101000203166002900480156121d15780601f106121a6576101008083540402835291602001916121d1565b820191906000526020600020905b8154815290600101906020018083116121b457829003601f168201915b50505050509150808054600181600116156101000203166002900480601f01602080910402602001604051908101604052809291908181526020018280546001816001161561010002031660029004801561226d5780601f106122425761010080835404028352916020019161226d565b820191906000526020600020905b81548152906001019060200180831161225057829003601f168201915b505050505090509650965096509650965096509650919395979092949650565b60008760016000848152602001908152602001600020600d0190805190602001906122b9929190613f20565b508660016000848152602001908152602001600020600e0190805190602001906122e4929190613f20565b508560016000848152602001908152602001600020600f01908051906020019061230f929190613f20565b508460016000848152602001908152602001600020601001908051906020019061233a929190613f20565b5083600160008481526020019081526020016000206011019080519060200190612365929190613f20565b5082600160008481526020019081526020016000206012019080519060200190612390929190613f20565b5060019050979650505050505050565b606060006001600084815260200190815260200160002060130160149054906101000a900460ff161561249f57600160008481526020019081526020016000206002016001600085815260200190815260200160002060030154818054600181600116156101000203166002900480601f01602080910402602001604051908101604052809291908181526020018280546001816001161561010002031660029004801561248f5780601f106124645761010080835404028352916020019161248f565b820191906000526020600020905b81548152906001019060200180831161247257829003601f168201915b50505050509150915091506124a0565b5b915091565b600060016000838152602001908152602001600020600801549050919050565b6001600082815260200190815260200160002060130160149054906101000a900460ff166124f257600080fd5b336001600083815260200190815260200160002060130160006101000a81548173ffffffffffffffffffffffffffffffffffffffff021916908373ffffffffffffffffffffffffffffffffffffffff16021790555060006001600083815260200190815260200160002060130160146101000a81548160ff021916908315150217905550600180600083815260200190815260200160002060130160156101000a81548160ff021916908360038111156125a857fe5b021790555050565b6003808111156125bc57fe5b6001600083815260200190815260200160002060130160159054906101000a900460ff1660038111156125eb57fe5b146125f557600080fd5b600160008281526020019081526020016000206008015434101561261857600080fd5b6001600082815260200190815260200160002060050160009054906101000a900473ffffffffffffffffffffffffffffffffffffffff1673ffffffffffffffffffffffffffffffffffffffff166108fc349081150290604051600060405180830381858888f19350505050158015612694573d6000803e3d6000fd5b506126d56001600083815260200190815260200160002060050160009054906101000a900473ffffffffffffffffffffffffffffffffffffffff1682613d19565b336001600083815260200190815260200160002060050160006101000a81548173ffffffffffffffffffffffffffffffffffffffff021916908373ffffffffffffffffffffffffffffffffffffffff16021790555060006001600083815260200190815260200160002060130160146101000a81548160ff02191690831515021790555060006001600083815260200190815260200160002060130160006101000a81548173ffffffffffffffffffffffffffffffffffffffff021916908373ffffffffffffffffffffffffffffffffffffffff16021790555060006001600083815260200190815260200160002060130160156101000a81548160ff021916908360038111156127e257fe5b0217905550600460003373ffffffffffffffffffffffffffffffffffffffff1673ffffffffffffffffffffffffffffffffffffffff16815260200190815260200160002060000181908060018154018082558091505090600182039060005260206000200160009091929091909150555050565b6000818154811061286357fe5b906000526020600020016000915090505481565b60008060008060006001600087815260200190815260200160002060050160009054906101000a900473ffffffffffffffffffffffffffffffffffffffff1660016000888152602001908152602001600020600801546001600089815260200190815260200160002060130160149054906101000a900460ff16600160008a815260200190815260200160002060130160009054906101000a900473ffffffffffffffffffffffffffffffffffffffff16600160008b815260200190815260200160002060130160159054906101000a900460ff168494509450945094509450945091939590929450565b600080600090505b600460008473ffffffffffffffffffffffffffffffffffffffff1673ffffffffffffffffffffffffffffffffffffffff16815260200190815260200160002060000180549050811015612a2c5783600460008573ffffffffffffffffffffffffffffffffffffffff1673ffffffffffffffffffffffffffffffffffffffff1681526020019081526020016000206000018281548110612a0557fe5b90600052602060002001541415612a1f5780915050612a31565b808060010191505061296a565b809150505b92915050565b600260009054906101000a900473ffffffffffffffffffffffffffffffffffffffff1673ffffffffffffffffffffffffffffffffffffffff163373ffffffffffffffffffffffffffffffffffffffff1614612a9157600080fd5b816003826040518082805190602001908083835b60208310612ac85780518252602082019150602081019050602083039250612aa5565b6001836020036101000a038019825116818451168082178552505050505050905001915050908152602001604051809103902060006101000a81548173ffffffffffffffffffffffffffffffffffffffff021916908373ffffffffffffffffffffffffffffffffffffffff1602179055505050565b606060006060600080606060006001600089815260200190815260200160002060130160149054906101000a900460ff1615612e125760016000898152602001908152602001600020600001600160008a815260200190815260200160002060050160009054906101000a900473ffffffffffffffffffffffffffffffffffffffff16600160008b8152602001908152602001600020600101600160008c815260200190815260200160002060130160149054906101000a900460ff16600160008d815260200190815260200160002060080154600160008e8152602001908152602001600020600b018d868054600181600116156101000203166002900480601f016020809104026020016040519081016040528092919081815260200182805460018160011615610100020316600290048015612cbd5780601f10612c9257610100808354040283529160200191612cbd565b820191906000526020600020905b815481529060010190602001808311612ca057829003601f168201915b50505050509650859550848054600181600116156101000203166002900480601f016020809104026020016040519081016040528092919081815260200182805460018160011615610100020316600290048015612d5c5780601f10612d3157610100808354040283529160200191612d5c565b820191906000526020600020905b815481529060010190602001808311612d3f57829003601f168201915b50505050509450818054600181600116156101000203166002900480601f016020809104026020016040519081016040528092919081815260200182805460018160011615610100020316600290048015612df85780601f10612dcd57610100808354040283529160200191612df8565b820191906000526020600020905b815481529060010190602001808311612ddb57829003601f168201915b505050505091509650965096509650965096509650612e13565b5b919395979092949650565b60606000805480602002602001604051908101604052809291908181526020018280548015612e6c57602002820191906000526020600020905b815481526020019060010190808311612e58575b5050505050905090565b3373ffffffffffffffffffffffffffffffffffffffff166001600083815260200190815260200160002060050160009054906101000a900473ffffffffffffffffffffffffffffffffffffffff1673ffffffffffffffffffffffffffffffffffffffff1614612ee457600080fd5b600180600083815260200190815260200160002060130160146101000a81548160ff02191690831515021790555050565b606080606080606080606060016000898152602001908152602001600020600901600160008a8152602001908152602001600020600d01600160008b8152602001908152602001600020600e01600160008c8152602001908152602001600020600f01600160008d8152602001908152602001600020601001600160008e8152602001908152602001600020601101600160008f8152602001908152602001600020601201868054600181600116156101000203166002900480601f01602080910402602001604051908101604052809291908181526020018280546001816001161561010002031660029004801561304f5780601f106130245761010080835404028352916020019161304f565b820191906000526020600020905b81548152906001019060200180831161303257829003601f168201915b50505050509650858054600181600116156101000203166002900480601f0160208091040260200160405190810160405280929190818152602001828054600181600116156101000203166002900480156130eb5780601f106130c0576101008083540402835291602001916130eb565b820191906000526020600020905b8154815290600101906020018083116130ce57829003601f168201915b50505050509550848054600181600116156101000203166002900480601f0160208091040260200160405190810160405280929190818152602001828054600181600116156101000203166002900480156131875780601f1061315c57610100808354040283529160200191613187565b820191906000526020600020905b81548152906001019060200180831161316a57829003601f168201915b50505050509450838054600181600116156101000203166002900480601f0160208091040260200160405190810160405280929190818152602001828054600181600116156101000203166002900480156132235780601f106131f857610100808354040283529160200191613223565b820191906000526020600020905b81548152906001019060200180831161320657829003601f168201915b50505050509350828054600181600116156101000203166002900480601f0160208091040260200160405190810160405280929190818152602001828054600181600116156101000203166002900480156132bf5780601f10613294576101008083540402835291602001916132bf565b820191906000526020600020905b8154815290600101906020018083116132a257829003601f168201915b50505050509250818054600181600116156101000203166002900480601f01602080910402602001604051908101604052809291908181526020018280546001816001161561010002031660029004801561335b5780601f106133305761010080835404028352916020019161335b565b820191906000526020600020905b81548152906001019060200180831161333e57829003601f168201915b50505050509150808054600181600116156101000203166002900480601f0160208091040260200160405190810160405280929190818152602001828054600181600116156101000203166002900480156133f75780601f106133cc576101008083540402835291602001916133f7565b820191906000526020600020905b8154815290600101906020018083116133da57829003601f168201915b505050505090509650965096509650965096509650919395979092949650565b60006060806060600060606001600088815260200190815260200160002060050160009054906101000a900473ffffffffffffffffffffffffffffffffffffffff1660016000898152602001908152602001600020600001600160008a8152602001908152602001600020600101600160008b8152602001908152602001600020600201600160008c815260200190815260200160002060080154600160008d8152602001908152602001600020600b01859550848054600181600116156101000203166002900480601f0160208091040260200160405190810160405280929190818152602001828054600181600116156101000203166002900480156135605780601f1061353557610100808354040283529160200191613560565b820191906000526020600020905b81548152906001019060200180831161354357829003601f168201915b50505050509450838054600181600116156101000203166002900480601f0160208091040260200160405190810160405280929190818152602001828054600181600116156101000203166002900480156135fc5780601f106135d1576101008083540402835291602001916135fc565b820191906000526020600020905b8154815290600101906020018083116135df57829003601f168201915b50505050509350828054600181600116156101000203166002900480601f0160208091040260200160405190810160405280929190818152602001828054600181600116156101000203166002900480156136985780601f1061366d57610100808354040283529160200191613698565b820191906000526020600020905b81548152906001019060200180831161367b57829003601f168201915b50505050509250808054600181600116156101000203166002900480601f0160208091040260200160405190810160405280929190818152602001828054600181600116156101000203166002900480156137345780601f1061370957610100808354040283529160200191613734565b820191906000526020600020905b81548152906001019060200180831161371757829003601f168201915b5050505050905095509550955095509550955091939550919395565b60003373ffffffffffffffffffffffffffffffffffffffff1660038f6040518082805190602001908083835b6020831061379f578051825260208201915060208101905060208303925061377c565b6001836020036101000a038019825116818451168082178552505050505050905001915050908152602001604051809103902060009054906101000a900473ffffffffffffffffffffffffffffffffffffffff1673ffffffffffffffffffffffffffffffffffffffff16148061386257503373ffffffffffffffffffffffffffffffffffffffff16600260009054906101000a900473ffffffffffffffffffffffffffffffffffffffff1673ffffffffffffffffffffffffffffffffffffffff16145b61386b57600080fd5b8f600160008981526020019081526020016000206000019080519060200190613895929190613f20565b508e6001600089815260200190815260200160002060010190805190602001906138c0929190613f20565b508d6001600089815260200190815260200160002060020190805190602001906138eb929190613f20565b508c60016000898152602001908152602001600020600301819055508b60016000898152602001908152602001600020600401819055508a6001600089815260200190815260200160002060050160006101000a81548173ffffffffffffffffffffffffffffffffffffffff021916908373ffffffffffffffffffffffffffffffffffffffff160217905550896001600089815260200190815260200160002060060190805190602001906139a1929190613f20565b50886001600089815260200190815260200160002060070160006101000a81548173ffffffffffffffffffffffffffffffffffffffff021916908373ffffffffffffffffffffffffffffffffffffffff1602179055508760016000898152602001908152602001600020600801819055508560016000898152602001908152602001600020600b019080519060200190613a3c929190613f20565b508460016000898152602001908152602001600020600c019080519060200190613a67929190613f20565b5083600160008981526020019081526020016000206009019080519060200190613a92929190613f20565b508260016000898152602001908152602001600020600a019080519060200190613abd929190613f20565b50816001600089815260200190815260200160002060140160006101000a81548173ffffffffffffffffffffffffffffffffffffffff021916908373ffffffffffffffffffffffffffffffffffffffff160217905550600460008c73ffffffffffffffffffffffffffffffffffffffff1673ffffffffffffffffffffffffffffffffffffffff1681526020019081526020016000206000018790806001815401808255809150509060018203906000526020600020016000909192909190915055506000879080600181540180825580915050906001820390600052602060002001600090919290919091505550600190509f9e505050505050505050505050505050565b3373ffffffffffffffffffffffffffffffffffffffff166001600084815260200190815260200160002060050160009054906101000a900473ffffffffffffffffffffffffffffffffffffffff1673ffffffffffffffffffffffffffffffffffffffff1614613c3057600080fd5b806001600084815260200190815260200160002060130160156101000a81548160ff02191690836003811115613c6257fe5b021790555060026003811115613c7457fe5b816003811115613c8057fe5b1415613d155760006001600084815260200190815260200160002060130160006101000a81548173ffffffffffffffffffffffffffffffffffffffff021916908373ffffffffffffffffffffffffffffffffffffffff16021790555060006001600084815260200190815260200160002060130160156101000a81548160ff02191690836003811115613d0f57fe5b02179055505b5050565b6000613d258284612962565b9050600460008473ffffffffffffffffffffffffffffffffffffffff1673ffffffffffffffffffffffffffffffffffffffff1681526020019081526020016000206000016001600460008673ffffffffffffffffffffffffffffffffffffffff1673ffffffffffffffffffffffffffffffffffffffff168152602001908152602001600020600001805490500381548110613dbc57fe5b9060005260206000200154600460008573ffffffffffffffffffffffffffffffffffffffff1673ffffffffffffffffffffffffffffffffffffffff1681526020019081526020016000206000018281548110613e1457fe5b9060005260206000200181905550600460008473ffffffffffffffffffffffffffffffffffffffff1673ffffffffffffffffffffffffffffffffffffffff1681526020019081526020016000206000016001600460008673ffffffffffffffffffffffffffffffffffffffff1673ffffffffffffffffffffffffffffffffffffffff168152602001908152602001600020600001805490500381548110613eb757fe5b9060005260206000200160009055600460008473ffffffffffffffffffffffffffffffffffffffff1673ffffffffffffffffffffffffffffffffffffffff168152602001908152602001600020600001805480919060019003613f1a9190613fa0565b50505050565b828054600181600116156101000203166002900490600052602060002090601f016020900481019282601f10613f6157805160ff1916838001178555613f8f565b82800160010185558215613f8f579182015b82811115613f8e578251825591602001919060010190613f73565b5b509050613f9c9190613fcc565b5090565b815481835581811115613fc757818360005260206000209182019101613fc69190613fcc565b5b505050565b613fee91905b80821115613fea576000816000905550600101613fd2565b5090565b9056fea265627a7a72315820857a45973ede0adc0031c689a19b2a1af238693197bdc9c1e30134bba6e807f764736f6c63430005100032",
  "source": "pragma solidity >=0.4.0 <0.6.0;\n\n//Land Details\ncontract Land {\n    struct landDetails {\n        string state;\n        string district;\n        string villageTown;\n        uint256 khataNumber;\n        uint256 khatooniNumber;\n        address payable CurrentOwner;\n        string ownerName;\n        address previousOwner;\n        uint256 marketValue;\n        string ipfsHash;\n        string landType;\n        string squareFoots;\n        string inches;\n        string lat;\n        string lng;\n        string north;\n        string south;\n        string east;\n        string west;\n        address requester;\n        bool isAvailable;\n        reqStatus requestStatus;\n        address createByGovt;\n        string orderEndTime;\n    }\n\n    uint256[] public propertiesIDs;\n\n    //request status\n    enum reqStatus {\n        Default,\n        pending,\n        reject,\n        approved\n    }\n\n    //profile of a client\n    struct profiles {\n        uint256[] assetList;\n    }\n\n    mapping(uint256 => landDetails) land;\n    address owner;\n    mapping(string => address) superAdmin;\n    mapping(address => profiles) profile;\n\n    //contract owner\n    constructor() public {\n        owner = msg.sender;\n    }\n\n    modifier onlyOwner() {\n        require(msg.sender == owner);\n        _;\n    }\n\n    //adding village admins\n    function addSuperAdmin(address _superAdmin, string memory _village)\n        public\n        onlyOwner\n    {\n        superAdmin[_village] = _superAdmin;\n    }\n\n    //Registration of land details.\n    function Registration(\n        string memory _state,\n        string memory _district,\n        string memory _villageTown,\n        uint256 _khataNumber,\n        uint256 _khatooniNumber,\n        address payable _OwnerAddress,\n        string memory _ownerName,\n        address _previousOwner,\n        uint256 _marketValue,\n        uint256 id,\n        string memory _squareFoots,\n        string memory _inches,\n        string memory _ipfsHash,\n        string memory _landType,\n        address _createByGovt\n    ) public returns (bool) {\n        require(superAdmin[_villageTown] == msg.sender || owner == msg.sender);\n        land[id].state = _state;\n        land[id].district = _district;\n        land[id].villageTown = _villageTown;\n        land[id].khataNumber = _khataNumber;\n        land[id].khatooniNumber = _khatooniNumber;\n        land[id].CurrentOwner = _OwnerAddress;\n        land[id].ownerName = _ownerName;\n        land[id].previousOwner = _previousOwner;\n        land[id].marketValue = _marketValue;\n        land[id].squareFoots = _squareFoots;\n        land[id].inches = _inches;\n        land[id].ipfsHash = _ipfsHash;\n        land[id].landType = _landType;\n        land[id].createByGovt = _createByGovt;\n        profile[_OwnerAddress].assetList.push(id);\n        propertiesIDs.push(id);\n        return true;\n    }\n\n    // Updating land details. Polyline\n    function registerLandPolyline(\n        string memory _lat,\n        string memory _lng,\n        string memory _north,\n        string memory _south,\n        string memory _east,\n        string memory _west,\n        uint256 id\n    ) public returns (bool) {\n        land[id].lat = _lat;\n        land[id].lng = _lng;\n        land[id].north = _north;\n        land[id].south = _south;\n        land[id].east = _east;\n        land[id].west = _west;\n        return true;\n    }\n\n    //to view details of land for the owner\n    function landInfoOwner(uint256 id)\n        public\n        view\n        returns (\n            string memory,\n            string memory,\n            string memory,\n            bool,\n            uint256,\n            string memory,\n            string memory\n        )\n    {\n        return (\n            land[id].state,\n            land[id].district,\n            land[id].villageTown,\n            land[id].isAvailable,\n            land[id].marketValue,\n            land[id].squareFoots,\n            land[id].inches\n        );\n    }\n\n    function remainingDetail(uint256 id)\n        public\n        view\n        returns (\n            string memory,\n            string memory,\n            string memory,\n            string memory,\n            string memory,\n            string memory,\n            string memory\n        )\n    {\n        return (\n            land[id].ipfsHash,\n            land[id].lat,\n            land[id].lng,\n            land[id].north,\n            land[id].south,\n            land[id].east,\n            land[id].west\n        );\n    }\n\n    function showAllLands(uint256 id)\n        public\n        view\n        returns (\n            address,\n            string memory,\n            string memory,\n            string memory,\n            uint256,\n            string memory\n        )\n    {\n        return (\n            land[id].CurrentOwner,\n            land[id].state,\n            land[id].district,\n            land[id].villageTown,\n            land[id].marketValue,\n            land[id].squareFoots\n        );\n    }\n\n    //to view details of land for the buyer\n    function landInfoUser(uint256 id)\n        public\n        view\n        returns (\n            address,\n            uint256,\n            bool,\n            address,\n            reqStatus\n        )\n    {\n        return (\n            land[id].CurrentOwner,\n            land[id].marketValue,\n            land[id].isAvailable,\n            land[id].requester,\n            land[id].requestStatus\n        );\n    }\n\n    // to compute id for a land.\n    function computeId(\n        string memory _state,\n        string memory _district,\n        string memory _village,\n        uint256 _surveyNumber\n    ) public view returns (uint256) {\n        return\n            uint256(\n                keccak256(\n                    abi.encodePacked(_state, _district, _village, _surveyNumber)\n                )\n            ) % 10000000000000;\n    }\n\n    //push a request to the land owner\n    function requstToLandOwner(uint256 id) public {\n        require(land[id].isAvailable);\n        land[id].requester = msg.sender;\n        land[id].isAvailable = false;\n        land[id].requestStatus = reqStatus.pending; //changes the status to pending.\n    }\n\n    //will show assets of the function caller\n    function viewAssets() public view returns (uint256[] memory) {\n        return (profile[msg.sender].assetList);\n    }\n\n    //viewing request for the lands\n    function viewRequest(uint256 property) public view returns (address) {\n        return (land[property].requester);\n    }\n\n    //availing land for sale.\n    function makeAvailable(uint256 property) public {\n        require(land[property].CurrentOwner == msg.sender);\n        land[property].isAvailable = true;\n    }\n\n    function showMarketValue(uint256 id) public view returns (uint256) {\n        return land[id].marketValue;\n    }\n\n    // change the market value after some years\n    function changeMarketValue(uint256 property, uint256 _marketValue) public {\n        uint256 marketValueGet = showMarketValue(property);\n        land[property].marketValue = marketValueGet + _marketValue;\n    }\n\n    // Get all the lands ids.\n    function getAllLands() public view returns (uint256[] memory) {\n        return (propertiesIDs);\n    }\n\n    // show marked Available\n    function viewMarkded(uint256 id)\n        public\n        view\n        returns (\n            string memory,\n            address,\n            string memory,\n            bool,\n            uint256,\n            string memory,\n            uint256\n        )\n    {\n        if (land[id].isAvailable) {\n            return (\n                land[id].state,\n                land[id].CurrentOwner,\n                land[id].district,\n                land[id].isAvailable,\n                land[id].marketValue,\n                land[id].squareFoots,\n                id\n            );\n        }\n    }\n\n    // show marked Available\n    function viewMarkdedRemainingData(uint256 id)\n        public\n        view\n        returns (string memory, uint256)\n    {\n        if (land[id].isAvailable) {\n            return (land[id].villageTown, land[id].khataNumber);\n        }\n    }\n\n    //processing request for the land by accepting or rejecting\n    function processRequest(uint256 property, reqStatus status) public {\n        require(land[property].CurrentOwner == msg.sender);\n        land[property].requestStatus = status;\n        if (status == reqStatus.reject) {\n            land[property].requester = address(0);\n            land[property].requestStatus = reqStatus.Default;\n        }\n    }\n\n    //buying the approved property\n    function buyProperty(uint256 property) public payable {\n        require(land[property].requestStatus == reqStatus.approved);\n        require(msg.value >= land[property].marketValue);\n        land[property].CurrentOwner.transfer(msg.value);\n        removeOwnership(land[property].CurrentOwner, property);\n        land[property].CurrentOwner = msg.sender;\n        land[property].isAvailable = false;\n        land[property].requester = address(0);\n        land[property].requestStatus = reqStatus.Default;\n        profile[msg.sender].assetList.push(property); //adds the property to the asset list of the new owner.\n    }\n\n    //removing the ownership of seller for the land. and it is called by the buyProperty function\n    function removeOwnership(address previousOwner, uint256 id) private {\n        uint256 index = findId(id, previousOwner);\n        profile[previousOwner].assetList[index] = profile[previousOwner]\n            .assetList[profile[previousOwner].assetList.length - 1];\n        delete profile[previousOwner].assetList[\n            profile[previousOwner].assetList.length - 1\n        ];\n        profile[previousOwner].assetList.length--;\n    }\n\n    //for finding the index of a perticular id\n    function findId(uint256 id, address user) public view returns (uint256) {\n        uint256 i;\n        for (i = 0; i < profile[user].assetList.length; i++) {\n            if (profile[user].assetList[i] == id) return i;\n        }\n        return i;\n    }\n}\n",
  "sourcePath": "/home/zaryab/VSCodeProjects/land-records-blockchain/contracts/Land.sol",
  "compiler": {
    "name": "solc",
    "version": "0.5.16+commit.9c3226ce.Emscripten.clang"
  },
  "schemaVersion": "3.4.1",
  "updatedAt": "2021-08-29T06:25:09.499Z",
  "devdoc": {
    "methods": {}
  },
  "userdoc": {
    "methods": {}
  }
}