{
  "contractName": "Land",
  "abi": [
    {
      "inputs": [],
      "payable": false,
      "stateMutability": "nonpayable",
      "type": "constructor"
    },
    {
      "constant": true,
      "inputs": [
        {
          "internalType": "uint256",
          "name": "",
          "type": "uint256"
        }
      ],
      "name": "propertiesIDs",
      "outputs": [
        {
          "internalType": "uint256",
          "name": "",
          "type": "uint256"
        }
      ],
      "payable": false,
      "stateMutability": "view",
      "type": "function"
    },
    {
      "constant": false,
      "inputs": [
        {
          "internalType": "address",
          "name": "_superAdmin",
          "type": "address"
        },
        {
          "internalType": "string",
          "name": "_village",
          "type": "string"
        }
      ],
      "name": "addSuperAdmin",
      "outputs": [],
      "payable": false,
      "stateMutability": "nonpayable",
      "type": "function"
    },
    {
      "constant": false,
      "inputs": [
        {
          "internalType": "string",
          "name": "_state",
          "type": "string"
        },
        {
          "internalType": "string",
          "name": "_district",
          "type": "string"
        },
        {
          "internalType": "string",
          "name": "_villageTown",
          "type": "string"
        },
        {
          "internalType": "uint256",
          "name": "_khataNumber",
          "type": "uint256"
        },
        {
          "internalType": "uint256",
          "name": "_khatooniNumber",
          "type": "uint256"
        },
        {
          "internalType": "address payable",
          "name": "_OwnerAddress",
          "type": "address"
        },
        {
          "internalType": "string",
          "name": "_ownerName",
          "type": "string"
        },
        {
          "internalType": "address",
          "name": "_previousOwner",
          "type": "address"
        },
        {
          "internalType": "uint256",
          "name": "_marketValue",
          "type": "uint256"
        },
        {
          "internalType": "uint256",
          "name": "id",
          "type": "uint256"
        },
        {
          "internalType": "string",
          "name": "_squareFoots",
          "type": "string"
        },
        {
          "internalType": "string",
          "name": "_inches",
          "type": "string"
        },
        {
          "internalType": "string",
          "name": "_ipfsHash",
          "type": "string"
        },
        {
          "internalType": "string",
          "name": "_landType",
          "type": "string"
        },
        {
          "internalType": "address",
          "name": "_createByGovt",
          "type": "address"
        }
      ],
      "name": "Registration",
      "outputs": [
        {
          "internalType": "bool",
          "name": "",
          "type": "bool"
        }
      ],
      "payable": false,
      "stateMutability": "nonpayable",
      "type": "function"
    },
    {
      "constant": true,
      "inputs": [
        {
          "internalType": "uint256",
          "name": "id",
          "type": "uint256"
        }
      ],
      "name": "landInfoOwner",
      "outputs": [
        {
          "internalType": "string",
          "name": "",
          "type": "string"
        },
        {
          "internalType": "string",
          "name": "",
          "type": "string"
        },
        {
          "internalType": "string",
          "name": "",
          "type": "string"
        },
        {
          "internalType": "bool",
          "name": "",
          "type": "bool"
        },
        {
          "internalType": "uint256",
          "name": "",
          "type": "uint256"
        },
        {
          "internalType": "string",
          "name": "",
          "type": "string"
        },
        {
          "internalType": "string",
          "name": "",
          "type": "string"
        }
      ],
      "payable": false,
      "stateMutability": "view",
      "type": "function"
    },
    {
      "constant": true,
      "inputs": [
        {
          "internalType": "uint256",
          "name": "id",
          "type": "uint256"
        }
      ],
      "name": "remainingDetail",
      "outputs": [
        {
          "internalType": "string",
          "name": "",
          "type": "string"
        },
        {
          "internalType": "string",
          "name": "",
          "type": "string"
        },
        {
          "internalType": "string",
          "name": "",
          "type": "string"
        },
        {
          "internalType": "string",
          "name": "",
          "type": "string"
        },
        {
          "internalType": "string",
          "name": "",
          "type": "string"
        },
        {
          "internalType": "string",
          "name": "",
          "type": "string"
        },
        {
          "internalType": "string",
          "name": "",
          "type": "string"
        }
      ],
      "payable": false,
      "stateMutability": "view",
      "type": "function"
    },
    {
      "constant": true,
      "inputs": [
        {
          "internalType": "uint256",
          "name": "id",
          "type": "uint256"
        }
      ],
      "name": "showAllLands",
      "outputs": [
        {
          "internalType": "address",
          "name": "",
          "type": "address"
        },
        {
          "internalType": "string",
          "name": "",
          "type": "string"
        },
        {
          "internalType": "string",
          "name": "",
          "type": "string"
        },
        {
          "internalType": "string",
          "name": "",
          "type": "string"
        },
        {
          "internalType": "uint256",
          "name": "",
          "type": "uint256"
        },
        {
          "internalType": "string",
          "name": "",
          "type": "string"
        }
      ],
      "payable": false,
      "stateMutability": "view",
      "type": "function"
    },
    {
      "constant": true,
      "inputs": [
        {
          "internalType": "uint256",
          "name": "id",
          "type": "uint256"
        }
      ],
      "name": "landInfoUser",
      "outputs": [
        {
          "internalType": "address",
          "name": "",
          "type": "address"
        },
        {
          "internalType": "uint256",
          "name": "",
          "type": "uint256"
        },
        {
          "internalType": "bool",
          "name": "",
          "type": "bool"
        },
        {
          "internalType": "address",
          "name": "",
          "type": "address"
        },
        {
          "internalType": "enum Land.reqStatus",
          "name": "",
          "type": "uint8"
        }
      ],
      "payable": false,
      "stateMutability": "view",
      "type": "function"
    },
    {
      "constant": true,
      "inputs": [
        {
          "internalType": "string",
          "name": "_state",
          "type": "string"
        },
        {
          "internalType": "string",
          "name": "_district",
          "type": "string"
        },
        {
          "internalType": "string",
          "name": "_village",
          "type": "string"
        },
        {
          "internalType": "uint256",
          "name": "_surveyNumber",
          "type": "uint256"
        }
      ],
      "name": "computeId",
      "outputs": [
        {
          "internalType": "uint256",
          "name": "",
          "type": "uint256"
        }
      ],
      "payable": false,
      "stateMutability": "view",
      "type": "function"
    },
    {
      "constant": false,
      "inputs": [
        {
          "internalType": "uint256",
          "name": "id",
          "type": "uint256"
        }
      ],
      "name": "requstToLandOwner",
      "outputs": [],
      "payable": false,
      "stateMutability": "nonpayable",
      "type": "function"
    },
    {
      "constant": true,
      "inputs": [],
      "name": "viewAssets",
      "outputs": [
        {
          "internalType": "uint256[]",
          "name": "",
          "type": "uint256[]"
        }
      ],
      "payable": false,
      "stateMutability": "view",
      "type": "function"
    },
    {
      "constant": true,
      "inputs": [
        {
          "internalType": "uint256",
          "name": "property",
          "type": "uint256"
        }
      ],
      "name": "viewRequest",
      "outputs": [
        {
          "internalType": "address",
          "name": "",
          "type": "address"
        }
      ],
      "payable": false,
      "stateMutability": "view",
      "type": "function"
    },
    {
      "constant": false,
      "inputs": [
        {
          "internalType": "uint256",
          "name": "property",
          "type": "uint256"
        }
      ],
      "name": "makeAvailable",
      "outputs": [],
      "payable": false,
      "stateMutability": "nonpayable",
      "type": "function"
    },
    {
      "constant": true,
      "inputs": [
        {
          "internalType": "uint256",
          "name": "id",
          "type": "uint256"
        }
      ],
      "name": "showMarketValue",
      "outputs": [
        {
          "internalType": "uint256",
          "name": "",
          "type": "uint256"
        }
      ],
      "payable": false,
      "stateMutability": "view",
      "type": "function"
    },
    {
      "constant": false,
      "inputs": [
        {
          "internalType": "uint256",
          "name": "property",
          "type": "uint256"
        },
        {
          "internalType": "uint256",
          "name": "_marketValue",
          "type": "uint256"
        }
      ],
      "name": "changeMarketValue",
      "outputs": [],
      "payable": false,
      "stateMutability": "nonpayable",
      "type": "function"
    },
    {
      "constant": true,
      "inputs": [],
      "name": "getAllLands",
      "outputs": [
        {
          "internalType": "uint256[]",
          "name": "",
          "type": "uint256[]"
        }
      ],
      "payable": false,
      "stateMutability": "view",
      "type": "function"
    },
    {
      "constant": true,
      "inputs": [
        {
          "internalType": "uint256",
          "name": "id",
          "type": "uint256"
        }
      ],
      "name": "viewMarkded",
      "outputs": [
        {
          "internalType": "string",
          "name": "",
          "type": "string"
        },
        {
          "internalType": "address",
          "name": "",
          "type": "address"
        },
        {
          "internalType": "string",
          "name": "",
          "type": "string"
        },
        {
          "internalType": "bool",
          "name": "",
          "type": "bool"
        },
        {
          "internalType": "uint256",
          "name": "",
          "type": "uint256"
        },
        {
          "internalType": "string",
          "name": "",
          "type": "string"
        },
        {
          "internalType": "uint256",
          "name": "",
          "type": "uint256"
        }
      ],
      "payable": false,
      "stateMutability": "view",
      "type": "function"
    },
    {
      "constant": true,
      "inputs": [
        {
          "internalType": "uint256",
          "name": "id",
          "type": "uint256"
        }
      ],
      "name": "viewMarkdedRemainingData",
      "outputs": [
        {
          "internalType": "string",
          "name": "",
          "type": "string"
        },
        {
          "internalType": "uint256",
          "name": "",
          "type": "uint256"
        }
      ],
      "payable": false,
      "stateMutability": "view",
      "type": "function"
    },
    {
      "constant": false,
      "inputs": [
        {
          "internalType": "uint256",
          "name": "property",
          "type": "uint256"
        },
        {
          "internalType": "enum Land.reqStatus",
          "name": "status",
          "type": "uint8"
        }
      ],
      "name": "processRequest",
      "outputs": [],
      "payable": false,
      "stateMutability": "nonpayable",
      "type": "function"
    },
    {
      "constant": false,
      "inputs": [
        {
          "internalType": "uint256",
          "name": "property",
          "type": "uint256"
        }
      ],
      "name": "buyProperty",
      "outputs": [],
      "payable": true,
      "stateMutability": "payable",
      "type": "function"
    },
    {
      "constant": true,
      "inputs": [
        {
          "internalType": "uint256",
          "name": "id",
          "type": "uint256"
        },
        {
          "internalType": "address",
          "name": "user",
          "type": "address"
        }
      ],
      "name": "findId",
      "outputs": [
        {
          "internalType": "uint256",
          "name": "",
          "type": "uint256"
        }
      ],
      "payable": false,
      "stateMutability": "view",
      "type": "function"
    }
  ],
  "bytecode": "0x608060405234801561001057600080fd5b5033600260006101000a81548173ffffffffffffffffffffffffffffffffffffffff021916908373ffffffffffffffffffffffffffffffffffffffff160217905550613a12806100616000396000f3fe60806040526004361061011f5760003560e01c80639d01485f116100a0578063baa39e0511610064578063baa39e0514610d0c578063ddc40e7e14610d47578063deec6b4e14611083578063fb8d69ba146112b5578063fdb10f501461183f5761011f565b80639d01485f1461089c578063a27664ee14610971578063ab05bae6146109e0578063ad14224214610ac8578063b7b6e54314610ca05761011f565b80635c3aad08116100e75780635c3aad08146106da57806361735a49146107955780636c5ed939146107e45780636fa830a61461081f57806394e504d21461084d5761011f565b806304ef280c146101245780630d2d5dca146101695780631d50a6c4146101d557806326e85250146103e957806355d6195214610464575b600080fd5b34801561013057600080fd5b506101676004803603604081101561014757600080fd5b810190808035906020019092919080359060200190929190505050611887565b005b34801561017557600080fd5b5061017e6118b6565b6040518080602001828103825283818151815260200191508051906020019060200280838360005b838110156101c15780820151818401526020810190506101a6565b505050509050019250505060405180910390f35b3480156101e157600080fd5b506103d3600480360360808110156101f857600080fd5b810190808035906020019064010000000081111561021557600080fd5b82018360208201111561022757600080fd5b8035906020019184600183028401116401000000008311171561024957600080fd5b91908080601f016020809104026020016040519081016040528093929190818152602001838380828437600081840152601f19601f820116905080830192505050505050509192919290803590602001906401000000008111156102ac57600080fd5b8201836020820111156102be57600080fd5b803590602001918460018302840111640100000000831117156102e057600080fd5b91908080601f016020809104026020016040519081016040528093929190818152602001838380828437600081840152601f19601f8201169050808301925050505050505091929192908035906020019064010000000081111561034357600080fd5b82018360208201111561035557600080fd5b8035906020019184600183028401116401000000008311171561037757600080fd5b91908080601f016020809104026020016040519081016040528093929190818152602001838380828437600081840152601f19601f8201169050808301925050505050505091929192908035906020019092919050505061194e565b6040518082815260200191505060405180910390f35b3480156103f557600080fd5b506104226004803603602081101561040c57600080fd5b8101908080359060200190929190505050611a8c565b604051808273ffffffffffffffffffffffffffffffffffffffff1673ffffffffffffffffffffffffffffffffffffffff16815260200191505060405180910390f35b34801561047057600080fd5b5061049d6004803603602081101561048757600080fd5b8101908080359060200190929190505050611acc565b6040518080602001806020018060200188151515158152602001878152602001806020018060200186810386528d818151815260200191508051906020019080838360005b838110156104fd5780820151818401526020810190506104e2565b50505050905090810190601f16801561052a5780820380516001836020036101000a031916815260200191505b5086810385528c818151815260200191508051906020019080838360005b83811015610563578082015181840152602081019050610548565b50505050905090810190601f1680156105905780820380516001836020036101000a031916815260200191505b5086810384528b818151815260200191508051906020019080838360005b838110156105c95780820151818401526020810190506105ae565b50505050905090810190601f1680156105f65780820380516001836020036101000a031916815260200191505b50868103835288818151815260200191508051906020019080838360005b8381101561062f578082015181840152602081019050610614565b50505050905090810190601f16801561065c5780820380516001836020036101000a031916815260200191505b50868103825287818151815260200191508051906020019080838360005b8381101561069557808201518184015260208101905061067a565b50505050905090810190601f1680156106c25780820380516001836020036101000a031916815260200191505b509c5050505050505050505050505060405180910390f35b3480156106e657600080fd5b50610713600480360360208110156106fd57600080fd5b8101908080359060200190929190505050611ea5565b6040518080602001838152602001828103825284818151815260200191508051906020019080838360005b8381101561075957808201518184015260208101905061073e565b50505050905090810190601f1680156107865780820380516001836020036101000a031916815260200191505b50935050505060405180910390f35b3480156107a157600080fd5b506107ce600480360360208110156107b857600080fd5b8101908080359060200190929190505050611faa565b6040518082815260200191505060405180910390f35b3480156107f057600080fd5b5061081d6004803603602081101561080757600080fd5b8101908080359060200190929190505050611fca565b005b61084b6004803603602081101561083557600080fd5b81019080803590602001909291905050506120b5565b005b34801561085957600080fd5b506108866004803603602081101561087057600080fd5b810190808035906020019092919050505061235b565b6040518082815260200191505060405180910390f35b3480156108a857600080fd5b506108d5600480360360208110156108bf57600080fd5b810190808035906020019092919050505061237c565b604051808673ffffffffffffffffffffffffffffffffffffffff1673ffffffffffffffffffffffffffffffffffffffff168152602001858152602001841515151581526020018373ffffffffffffffffffffffffffffffffffffffff1673ffffffffffffffffffffffffffffffffffffffff16815260200182600381111561095957fe5b60ff1681526020019550505050505060405180910390f35b34801561097d57600080fd5b506109ca6004803603604081101561099457600080fd5b8101908080359060200190929190803573ffffffffffffffffffffffffffffffffffffffff169060200190929190505050612467565b6040518082815260200191505060405180910390f35b3480156109ec57600080fd5b50610ac660048036036040811015610a0357600080fd5b81019080803573ffffffffffffffffffffffffffffffffffffffff16906020019092919080359060200190640100000000811115610a4057600080fd5b820183602082011115610a5257600080fd5b80359060200191846001830284011164010000000083111715610a7457600080fd5b91908080601f016020809104026020016040519081016040528093929190818152602001838380828437600081840152601f19601f82011690508083019250505050505050919291929050505061253c565b005b348015610ad457600080fd5b50610b0160048036036020811015610aeb57600080fd5b8101908080359060200190929190505050612642565b60405180806020018873ffffffffffffffffffffffffffffffffffffffff1673ffffffffffffffffffffffffffffffffffffffff16815260200180602001871515151581526020018681526020018060200185815260200184810384528b818151815260200191508051906020019080838360005b83811015610b91578082015181840152602081019050610b76565b50505050905090810190601f168015610bbe5780820380516001836020036101000a031916815260200191505b50848103835289818151815260200191508051906020019080838360005b83811015610bf7578082015181840152602081019050610bdc565b50505050905090810190601f168015610c245780820380516001836020036101000a031916815260200191505b50848103825286818151815260200191508051906020019080838360005b83811015610c5d578082015181840152602081019050610c42565b50505050905090810190601f168015610c8a5780820380516001836020036101000a031916815260200191505b509a505050505050505050505060405180910390f35b348015610cac57600080fd5b50610cb5612923565b6040518080602001828103825283818151815260200191508051906020019060200280838360005b83811015610cf8578082015181840152602081019050610cdd565b505050509050019250505060405180910390f35b348015610d1857600080fd5b50610d4560048036036020811015610d2f57600080fd5b810190808035906020019092919050505061297b565b005b348015610d5357600080fd5b50610d8060048036036020811015610d6a57600080fd5b8101908080359060200190929190505050612a1a565b604051808060200180602001806020018060200180602001806020018060200188810388528f818151815260200191508051906020019080838360005b83811015610dd8578082015181840152602081019050610dbd565b50505050905090810190601f168015610e055780820380516001836020036101000a031916815260200191505b5088810387528e818151815260200191508051906020019080838360005b83811015610e3e578082015181840152602081019050610e23565b50505050905090810190601f168015610e6b5780820380516001836020036101000a031916815260200191505b5088810386528d818151815260200191508051906020019080838360005b83811015610ea4578082015181840152602081019050610e89565b50505050905090810190601f168015610ed15780820380516001836020036101000a031916815260200191505b5088810385528c818151815260200191508051906020019080838360005b83811015610f0a578082015181840152602081019050610eef565b50505050905090810190601f168015610f375780820380516001836020036101000a031916815260200191505b5088810384528b818151815260200191508051906020019080838360005b83811015610f70578082015181840152602081019050610f55565b50505050905090810190601f168015610f9d5780820380516001836020036101000a031916815260200191505b5088810383528a818151815260200191508051906020019080838360005b83811015610fd6578082015181840152602081019050610fbb565b50505050905090810190601f1680156110035780820380516001836020036101000a031916815260200191505b50888103825289818151815260200191508051906020019080838360005b8381101561103c578082015181840152602081019050611021565b50505050905090810190601f1680156110695780820380516001836020036101000a031916815260200191505b509e50505050505050505050505050505060405180910390f35b34801561108f57600080fd5b506110bc600480360360208110156110a657600080fd5b8101908080359060200190929190505050612f1c565b604051808773ffffffffffffffffffffffffffffffffffffffff1673ffffffffffffffffffffffffffffffffffffffff1681526020018060200180602001806020018681526020018060200185810385528a818151815260200191508051906020019080838360005b83811015611140578082015181840152602081019050611125565b50505050905090810190601f16801561116d5780820380516001836020036101000a031916815260200191505b50858103845289818151815260200191508051906020019080838360005b838110156111a657808201518184015260208101905061118b565b50505050905090810190601f1680156111d35780820380516001836020036101000a031916815260200191505b50858103835288818151815260200191508051906020019080838360005b8381101561120c5780820151818401526020810190506111f1565b50505050905090810190601f1680156112395780820380516001836020036101000a031916815260200191505b50858103825286818151815260200191508051906020019080838360005b83811015611272578082015181840152602081019050611257565b50505050905090810190601f16801561129f5780820380516001836020036101000a031916815260200191505b509a505050505050505050505060405180910390f35b3480156112c157600080fd5b5061182560048036036101e08110156112d957600080fd5b81019080803590602001906401000000008111156112f657600080fd5b82018360208201111561130857600080fd5b8035906020019184600183028401116401000000008311171561132a57600080fd5b91908080601f016020809104026020016040519081016040528093929190818152602001838380828437600081840152601f19601f8201169050808301925050505050505091929192908035906020019064010000000081111561138d57600080fd5b82018360208201111561139f57600080fd5b803590602001918460018302840111640100000000831117156113c157600080fd5b91908080601f016020809104026020016040519081016040528093929190818152602001838380828437600081840152601f19601f8201169050808301925050505050505091929192908035906020019064010000000081111561142457600080fd5b82018360208201111561143657600080fd5b8035906020019184600183028401116401000000008311171561145857600080fd5b91908080601f016020809104026020016040519081016040528093929190818152602001838380828437600081840152601f19601f8201169050808301925050505050505091929192908035906020019092919080359060200190929190803573ffffffffffffffffffffffffffffffffffffffff169060200190929190803590602001906401000000008111156114ef57600080fd5b82018360208201111561150157600080fd5b8035906020019184600183028401116401000000008311171561152357600080fd5b91908080601f016020809104026020016040519081016040528093929190818152602001838380828437600081840152601f19601f820116905080830192505050505050509192919290803573ffffffffffffffffffffffffffffffffffffffff1690602001909291908035906020019092919080359060200190929190803590602001906401000000008111156115ba57600080fd5b8201836020820111156115cc57600080fd5b803590602001918460018302840111640100000000831117156115ee57600080fd5b91908080601f016020809104026020016040519081016040528093929190818152602001838380828437600081840152601f19601f8201169050808301925050505050505091929192908035906020019064010000000081111561165157600080fd5b82018360208201111561166357600080fd5b8035906020019184600183028401116401000000008311171561168557600080fd5b91908080601f016020809104026020016040519081016040528093929190818152602001838380828437600081840152601f19601f820116905080830192505050505050509192919290803590602001906401000000008111156116e857600080fd5b8201836020820111156116fa57600080fd5b8035906020019184600183028401116401000000008311171561171c57600080fd5b91908080601f016020809104026020016040519081016040528093929190818152602001838380828437600081840152601f19601f8201169050808301925050505050505091929192908035906020019064010000000081111561177f57600080fd5b82018360208201111561179157600080fd5b803590602001918460018302840111640100000000831117156117b357600080fd5b91908080601f016020809104026020016040519081016040528093929190818152602001838380828437600081840152601f19601f820116905080830192505050505050509192919290803573ffffffffffffffffffffffffffffffffffffffff169060200190929190505050613255565b604051808215151515815260200191505060405180910390f35b34801561184b57600080fd5b506118856004803603604081101561186257600080fd5b8101908080359060200190929190803560ff1690602001909291905050506135ae565b005b600061189283611faa565b90508181016001600085815260200190815260200160002060080181905550505050565b6060600460003373ffffffffffffffffffffffffffffffffffffffff1673ffffffffffffffffffffffffffffffffffffffff16815260200190815260200160002060000180548060200260200160405190810160405280929190818152602001828054801561194457602002820191906000526020600020905b815481526020019060010190808311611930575b5050505050905090565b60006509184e72a000858585856040516020018085805190602001908083835b60208310611991578051825260208201915060208101905060208303925061196e565b6001836020036101000a03801982511681845116808217855250505050505090500184805190602001908083835b602083106119e257805182526020820191506020810190506020830392506119bf565b6001836020036101000a03801982511681845116808217855250505050505090500183805190602001908083835b60208310611a335780518252602082019150602081019050602083039250611a10565b6001836020036101000a0380198251168184511680821785525050505050509050018281526020019450505050506040516020818303038152906040528051906020012060001c81611a8157fe5b069050949350505050565b60006001600083815260200190815260200160002060130160009054906101000a900473ffffffffffffffffffffffffffffffffffffffff169050919050565b606080606060008060608060016000898152602001908152602001600020600001600160008a8152602001908152602001600020600101600160008b8152602001908152602001600020600201600160008c815260200190815260200160002060130160149054906101000a900460ff16600160008d815260200190815260200160002060080154600160008e8152602001908152602001600020600b01600160008f8152602001908152602001600020600c01868054600181600116156101000203166002900480601f016020809104026020016040519081016040528092919081815260200182805460018160011615610100020316600290048015611c155780601f10611bea57610100808354040283529160200191611c15565b820191906000526020600020905b815481529060010190602001808311611bf857829003601f168201915b50505050509650858054600181600116156101000203166002900480601f016020809104026020016040519081016040528092919081815260200182805460018160011615610100020316600290048015611cb15780601f10611c8657610100808354040283529160200191611cb1565b820191906000526020600020905b815481529060010190602001808311611c9457829003601f168201915b50505050509550848054600181600116156101000203166002900480601f016020809104026020016040519081016040528092919081815260200182805460018160011615610100020316600290048015611d4d5780601f10611d2257610100808354040283529160200191611d4d565b820191906000526020600020905b815481529060010190602001808311611d3057829003601f168201915b50505050509450818054600181600116156101000203166002900480601f016020809104026020016040519081016040528092919081815260200182805460018160011615610100020316600290048015611de95780601f10611dbe57610100808354040283529160200191611de9565b820191906000526020600020905b815481529060010190602001808311611dcc57829003601f168201915b50505050509150808054600181600116156101000203166002900480601f016020809104026020016040519081016040528092919081815260200182805460018160011615610100020316600290048015611e855780601f10611e5a57610100808354040283529160200191611e85565b820191906000526020600020905b815481529060010190602001808311611e6857829003601f168201915b505050505090509650965096509650965096509650919395979092949650565b606060006001600084815260200190815260200160002060130160149054906101000a900460ff1615611fa457600160008481526020019081526020016000206002016001600085815260200190815260200160002060030154818054600181600116156101000203166002900480601f016020809104026020016040519081016040528092919081815260200182805460018160011615610100020316600290048015611f945780601f10611f6957610100808354040283529160200191611f94565b820191906000526020600020905b815481529060010190602001808311611f7757829003601f168201915b5050505050915091509150611fa5565b5b915091565b600060016000838152602001908152602001600020600801549050919050565b6001600082815260200190815260200160002060130160149054906101000a900460ff16611ff757600080fd5b336001600083815260200190815260200160002060130160006101000a81548173ffffffffffffffffffffffffffffffffffffffff021916908373ffffffffffffffffffffffffffffffffffffffff16021790555060006001600083815260200190815260200160002060130160146101000a81548160ff021916908315150217905550600180600083815260200190815260200160002060130160156101000a81548160ff021916908360038111156120ad57fe5b021790555050565b6003808111156120c157fe5b6001600083815260200190815260200160002060130160159054906101000a900460ff1660038111156120f057fe5b146120fa57600080fd5b600160008281526020019081526020016000206008015434101561211d57600080fd5b6001600082815260200190815260200160002060050160009054906101000a900473ffffffffffffffffffffffffffffffffffffffff1673ffffffffffffffffffffffffffffffffffffffff166108fc349081150290604051600060405180830381858888f19350505050158015612199573d6000803e3d6000fd5b506121da6001600083815260200190815260200160002060050160009054906101000a900473ffffffffffffffffffffffffffffffffffffffff1682613705565b336001600083815260200190815260200160002060050160006101000a81548173ffffffffffffffffffffffffffffffffffffffff021916908373ffffffffffffffffffffffffffffffffffffffff16021790555060006001600083815260200190815260200160002060130160146101000a81548160ff02191690831515021790555060006001600083815260200190815260200160002060130160006101000a81548173ffffffffffffffffffffffffffffffffffffffff021916908373ffffffffffffffffffffffffffffffffffffffff16021790555060006001600083815260200190815260200160002060130160156101000a81548160ff021916908360038111156122e757fe5b0217905550600460003373ffffffffffffffffffffffffffffffffffffffff1673ffffffffffffffffffffffffffffffffffffffff16815260200190815260200160002060000181908060018154018082558091505090600182039060005260206000200160009091929091909150555050565b6000818154811061236857fe5b906000526020600020016000915090505481565b60008060008060006001600087815260200190815260200160002060050160009054906101000a900473ffffffffffffffffffffffffffffffffffffffff1660016000888152602001908152602001600020600801546001600089815260200190815260200160002060130160149054906101000a900460ff16600160008a815260200190815260200160002060130160009054906101000a900473ffffffffffffffffffffffffffffffffffffffff16600160008b815260200190815260200160002060130160159054906101000a900460ff168494509450945094509450945091939590929450565b600080600090505b600460008473ffffffffffffffffffffffffffffffffffffffff1673ffffffffffffffffffffffffffffffffffffffff168152602001908152602001600020600001805490508110156125315783600460008573ffffffffffffffffffffffffffffffffffffffff1673ffffffffffffffffffffffffffffffffffffffff168152602001908152602001600020600001828154811061250a57fe5b906000526020600020015414156125245780915050612536565b808060010191505061246f565b809150505b92915050565b600260009054906101000a900473ffffffffffffffffffffffffffffffffffffffff1673ffffffffffffffffffffffffffffffffffffffff163373ffffffffffffffffffffffffffffffffffffffff161461259657600080fd5b816003826040518082805190602001908083835b602083106125cd57805182526020820191506020810190506020830392506125aa565b6001836020036101000a038019825116818451168082178552505050505050905001915050908152602001604051809103902060006101000a81548173ffffffffffffffffffffffffffffffffffffffff021916908373ffffffffffffffffffffffffffffffffffffffff1602179055505050565b606060006060600080606060006001600089815260200190815260200160002060130160149054906101000a900460ff16156129175760016000898152602001908152602001600020600001600160008a815260200190815260200160002060050160009054906101000a900473ffffffffffffffffffffffffffffffffffffffff16600160008b8152602001908152602001600020600101600160008c815260200190815260200160002060130160149054906101000a900460ff16600160008d815260200190815260200160002060080154600160008e8152602001908152602001600020600b018d868054600181600116156101000203166002900480601f0160208091040260200160405190810160405280929190818152602001828054600181600116156101000203166002900480156127c25780601f10612797576101008083540402835291602001916127c2565b820191906000526020600020905b8154815290600101906020018083116127a557829003601f168201915b50505050509650859550848054600181600116156101000203166002900480601f0160208091040260200160405190810160405280929190818152602001828054600181600116156101000203166002900480156128615780601f1061283657610100808354040283529160200191612861565b820191906000526020600020905b81548152906001019060200180831161284457829003601f168201915b50505050509450818054600181600116156101000203166002900480601f0160208091040260200160405190810160405280929190818152602001828054600181600116156101000203166002900480156128fd5780601f106128d2576101008083540402835291602001916128fd565b820191906000526020600020905b8154815290600101906020018083116128e057829003601f168201915b505050505091509650965096509650965096509650612918565b5b919395979092949650565b6060600080548060200260200160405190810160405280929190818152602001828054801561297157602002820191906000526020600020905b81548152602001906001019080831161295d575b5050505050905090565b3373ffffffffffffffffffffffffffffffffffffffff166001600083815260200190815260200160002060050160009054906101000a900473ffffffffffffffffffffffffffffffffffffffff1673ffffffffffffffffffffffffffffffffffffffff16146129e957600080fd5b600180600083815260200190815260200160002060130160146101000a81548160ff02191690831515021790555050565b606080606080606080606060016000898152602001908152602001600020600901600160008a8152602001908152602001600020600d01600160008b8152602001908152602001600020600e01600160008c8152602001908152602001600020600f01600160008d8152602001908152602001600020601001600160008e8152602001908152602001600020601101600160008f8152602001908152602001600020601201868054600181600116156101000203166002900480601f016020809104026020016040519081016040528092919081815260200182805460018160011615610100020316600290048015612b545780601f10612b2957610100808354040283529160200191612b54565b820191906000526020600020905b815481529060010190602001808311612b3757829003601f168201915b50505050509650858054600181600116156101000203166002900480601f016020809104026020016040519081016040528092919081815260200182805460018160011615610100020316600290048015612bf05780601f10612bc557610100808354040283529160200191612bf0565b820191906000526020600020905b815481529060010190602001808311612bd357829003601f168201915b50505050509550848054600181600116156101000203166002900480601f016020809104026020016040519081016040528092919081815260200182805460018160011615610100020316600290048015612c8c5780601f10612c6157610100808354040283529160200191612c8c565b820191906000526020600020905b815481529060010190602001808311612c6f57829003601f168201915b50505050509450838054600181600116156101000203166002900480601f016020809104026020016040519081016040528092919081815260200182805460018160011615610100020316600290048015612d285780601f10612cfd57610100808354040283529160200191612d28565b820191906000526020600020905b815481529060010190602001808311612d0b57829003601f168201915b50505050509350828054600181600116156101000203166002900480601f016020809104026020016040519081016040528092919081815260200182805460018160011615610100020316600290048015612dc45780601f10612d9957610100808354040283529160200191612dc4565b820191906000526020600020905b815481529060010190602001808311612da757829003601f168201915b50505050509250818054600181600116156101000203166002900480601f016020809104026020016040519081016040528092919081815260200182805460018160011615610100020316600290048015612e605780601f10612e3557610100808354040283529160200191612e60565b820191906000526020600020905b815481529060010190602001808311612e4357829003601f168201915b50505050509150808054600181600116156101000203166002900480601f016020809104026020016040519081016040528092919081815260200182805460018160011615610100020316600290048015612efc5780601f10612ed157610100808354040283529160200191612efc565b820191906000526020600020905b815481529060010190602001808311612edf57829003601f168201915b505050505090509650965096509650965096509650919395979092949650565b60006060806060600060606001600088815260200190815260200160002060050160009054906101000a900473ffffffffffffffffffffffffffffffffffffffff1660016000898152602001908152602001600020600001600160008a8152602001908152602001600020600101600160008b8152602001908152602001600020600201600160008c815260200190815260200160002060080154600160008d8152602001908152602001600020600b01859550848054600181600116156101000203166002900480601f0160208091040260200160405190810160405280929190818152602001828054600181600116156101000203166002900480156130655780601f1061303a57610100808354040283529160200191613065565b820191906000526020600020905b81548152906001019060200180831161304857829003601f168201915b50505050509450838054600181600116156101000203166002900480601f0160208091040260200160405190810160405280929190818152602001828054600181600116156101000203166002900480156131015780601f106130d657610100808354040283529160200191613101565b820191906000526020600020905b8154815290600101906020018083116130e457829003601f168201915b50505050509350828054600181600116156101000203166002900480601f01602080910402602001604051908101604052809291908181526020018280546001816001161561010002031660029004801561319d5780601f106131725761010080835404028352916020019161319d565b820191906000526020600020905b81548152906001019060200180831161318057829003601f168201915b50505050509250808054600181600116156101000203166002900480601f0160208091040260200160405190810160405280929190818152602001828054600181600116156101000203166002900480156132395780601f1061320e57610100808354040283529160200191613239565b820191906000526020600020905b81548152906001019060200180831161321c57829003601f168201915b5050505050905095509550955095509550955091939550919395565b60008f60016000898152602001908152602001600020600001908051906020019061328192919061390c565b508e6001600089815260200190815260200160002060010190805190602001906132ac92919061390c565b508d6001600089815260200190815260200160002060020190805190602001906132d792919061390c565b508c60016000898152602001908152602001600020600301819055508b60016000898152602001908152602001600020600401819055508a6001600089815260200190815260200160002060050160006101000a81548173ffffffffffffffffffffffffffffffffffffffff021916908373ffffffffffffffffffffffffffffffffffffffff1602179055508960016000898152602001908152602001600020600601908051906020019061338d92919061390c565b50886001600089815260200190815260200160002060070160006101000a81548173ffffffffffffffffffffffffffffffffffffffff021916908373ffffffffffffffffffffffffffffffffffffffff1602179055508760016000898152602001908152602001600020600801819055508560016000898152602001908152602001600020600b01908051906020019061342892919061390c565b508460016000898152602001908152602001600020600c01908051906020019061345392919061390c565b508360016000898152602001908152602001600020600901908051906020019061347e92919061390c565b508260016000898152602001908152602001600020600a0190805190602001906134a992919061390c565b50816001600089815260200190815260200160002060140160006101000a81548173ffffffffffffffffffffffffffffffffffffffff021916908373ffffffffffffffffffffffffffffffffffffffff160217905550600460008c73ffffffffffffffffffffffffffffffffffffffff1673ffffffffffffffffffffffffffffffffffffffff1681526020019081526020016000206000018790806001815401808255809150509060018203906000526020600020016000909192909190915055506000879080600181540180825580915050906001820390600052602060002001600090919290919091505550600190509f9e505050505050505050505050505050565b3373ffffffffffffffffffffffffffffffffffffffff166001600084815260200190815260200160002060050160009054906101000a900473ffffffffffffffffffffffffffffffffffffffff1673ffffffffffffffffffffffffffffffffffffffff161461361c57600080fd5b806001600084815260200190815260200160002060130160156101000a81548160ff0219169083600381111561364e57fe5b02179055506002600381111561366057fe5b81600381111561366c57fe5b14156137015760006001600084815260200190815260200160002060130160006101000a81548173ffffffffffffffffffffffffffffffffffffffff021916908373ffffffffffffffffffffffffffffffffffffffff16021790555060006001600084815260200190815260200160002060130160156101000a81548160ff021916908360038111156136fb57fe5b02179055505b5050565b60006137118284612467565b9050600460008473ffffffffffffffffffffffffffffffffffffffff1673ffffffffffffffffffffffffffffffffffffffff1681526020019081526020016000206000016001600460008673ffffffffffffffffffffffffffffffffffffffff1673ffffffffffffffffffffffffffffffffffffffff1681526020019081526020016000206000018054905003815481106137a857fe5b9060005260206000200154600460008573ffffffffffffffffffffffffffffffffffffffff1673ffffffffffffffffffffffffffffffffffffffff168152602001908152602001600020600001828154811061380057fe5b9060005260206000200181905550600460008473ffffffffffffffffffffffffffffffffffffffff1673ffffffffffffffffffffffffffffffffffffffff1681526020019081526020016000206000016001600460008673ffffffffffffffffffffffffffffffffffffffff1673ffffffffffffffffffffffffffffffffffffffff1681526020019081526020016000206000018054905003815481106138a357fe5b9060005260206000200160009055600460008473ffffffffffffffffffffffffffffffffffffffff1673ffffffffffffffffffffffffffffffffffffffff168152602001908152602001600020600001805480919060019003613906919061398c565b50505050565b828054600181600116156101000203166002900490600052602060002090601f016020900481019282601f1061394d57805160ff191683800117855561397b565b8280016001018555821561397b579182015b8281111561397a57825182559160200191906001019061395f565b5b50905061398891906139b8565b5090565b8154818355818111156139b3578183600052602060002091820191016139b291906139b8565b5b505050565b6139da91905b808211156139d65760008160009055506001016139be565b5090565b9056fea265627a7a7231582088b63ed83f4ae4246ead81cec79ba08dc3f067138c1a1829c0d4f6e6ef9f69e264736f6c63430005100032",
  "source": "pragma solidity >=0.4.0 <0.6.0;\n\n//Land Details\ncontract Land {\n    struct landDetails {\n        string state;\n        string district;\n        string villageTown;\n        uint256 khataNumber;\n        uint256 khatooniNumber;\n        address payable CurrentOwner;\n        string ownerName;\n        address previousOwner;\n        uint256 marketValue;\n        string ipfsHash;\n        string landType;\n        string squareFoots;\n        string inches;\n        string lat;\n        string lng;\n        string north;\n        string south;\n        string east;\n        string west;\n        address requester;\n        bool isAvailable;\n        reqStatus requestStatus;\n        address createByGovt;\n        string orderEndTime;\n    } \n\n    uint256[] public propertiesIDs;\n\n    //request status\n    enum reqStatus {\n        Default,\n        pending,\n        reject,\n        approved\n    }\n\n    //profile of a client\n    struct profiles {\n        uint256[] assetList;\n    }\n\n    mapping(uint256 => landDetails) land;\n    address owner;\n    mapping(string => address) superAdmin;\n    mapping(address => profiles) profile;\n\n    //contract owner\n    constructor() public {\n        owner = msg.sender;\n    }\n\n    modifier onlyOwner() {\n        require(msg.sender == owner);\n        _;\n    }\n\n    //adding village admins\n    function addSuperAdmin(address _superAdmin, string memory _village)\n        public\n        onlyOwner\n    {\n        superAdmin[_village] = _superAdmin;\n    }\n\n    //Registration of land details.\n    function Registration(\n        string memory _state,\n        string memory _district,\n        string memory _villageTown,\n        uint256 _khataNumber,\n        uint256 _khatooniNumber,\n        address payable _OwnerAddress,\n        string memory _ownerName,\n        address _previousOwner,\n        uint256 _marketValue,\n        uint256 id,\n        string memory _squareFoots,\n        string memory _inches,\n        string memory _ipfsHash,\n        string memory _landType,\n        address _createByGovt\n    ) public returns (bool) {\n        // require(superAdmin[_villageTown] == msg.sender || owner == msg.sender);\n        land[id].state = _state;\n        land[id].district = _district;\n        land[id].villageTown = _villageTown;\n        land[id].khataNumber = _khataNumber;\n        land[id].khatooniNumber = _khatooniNumber;\n        land[id].CurrentOwner = _OwnerAddress;\n        land[id].ownerName = _ownerName;\n        land[id].previousOwner = _previousOwner;\n        land[id].marketValue = _marketValue;\n        land[id].squareFoots = _squareFoots;\n        land[id].inches = _inches;\n        land[id].ipfsHash = _ipfsHash;\n        land[id].landType = _landType;\n        land[id].createByGovt = _createByGovt;\n        profile[_OwnerAddress].assetList.push(id);\n        propertiesIDs.push(id);\n        return true;\n    }\n\n    //to view details of land for the owner\n    function landInfoOwner(uint256 id)\n        public\n        view\n        returns (\n            string memory,\n            string memory,\n            string memory,\n            bool,\n            uint256,\n            string memory,\n            string memory\n        )\n    {\n        return (\n            land[id].state,\n            land[id].district,\n            land[id].villageTown,\n            land[id].isAvailable,\n            land[id].marketValue,\n            land[id].squareFoots,\n            land[id].inches\n        );\n    }\n\n    function remainingDetail(uint256 id)\n        public\n        view\n        returns (\n            string memory,\n            string memory,\n            string memory,\n            string memory,\n            string memory,\n            string memory,\n            string memory\n        )\n    {\n        return (\n            land[id].ipfsHash, \n            land[id].lat,\n            land[id].lng,\n            land[id].north,\n            land[id].south,\n            land[id].east,\n            land[id].west\n            );\n    }\n\n    function showAllLands(uint256 id)\n        public\n        view\n        returns (\n            address,\n            string memory,\n            string memory,\n            string memory,\n            uint256,\n            string memory\n        )\n    {\n        return (\n            land[id].CurrentOwner,\n            land[id].state,\n            land[id].district,\n            land[id].villageTown,\n            land[id].marketValue,\n            land[id].squareFoots\n        );\n    }\n\n    //to view details of land for the buyer\n    function landInfoUser(uint256 id)\n        public\n        view\n        returns (\n            address,\n            uint256,\n            bool,\n            address,\n            reqStatus\n        )\n    {\n        return (\n            land[id].CurrentOwner,\n            land[id].marketValue,\n            land[id].isAvailable,\n            land[id].requester,\n            land[id].requestStatus\n        );\n    }\n\n    // to compute id for a land.\n    function computeId(\n        string memory _state,\n        string memory _district,\n        string memory _village,\n        uint256 _surveyNumber\n    ) public view returns (uint256) {\n        return\n            uint256(\n                keccak256(\n                    abi.encodePacked(_state, _district, _village, _surveyNumber)\n                )\n            ) % 10000000000000;\n    }\n\n    //push a request to the land owner\n    function requstToLandOwner(uint256 id) public {\n        require(land[id].isAvailable);\n        land[id].requester = msg.sender;\n        land[id].isAvailable = false;\n        land[id].requestStatus = reqStatus.pending; //changes the status to pending.\n    }\n\n    //will show assets of the function caller\n    function viewAssets() public view returns (uint256[] memory) {\n        return (profile[msg.sender].assetList);\n    }\n\n    //viewing request for the lands\n    function viewRequest(uint256 property) public view returns (address) {\n        return (land[property].requester);\n    }\n\n    //availing land for sale.\n    function makeAvailable(uint256 property) public {\n        require(land[property].CurrentOwner == msg.sender);\n        land[property].isAvailable = true;\n    }\n\n    function showMarketValue(uint256 id) public view returns (uint256) {\n        return land[id].marketValue;\n    }\n\n    // change the market value after some years\n    function changeMarketValue(uint256 property, uint256 _marketValue) public {\n        uint256 marketValueGet = showMarketValue(property);\n        land[property].marketValue = marketValueGet + _marketValue;\n    }\n\n    // Get all the lands ids.\n    function getAllLands() public view returns (uint256[] memory) {\n        return (propertiesIDs);\n    }\n\n    // show marked Available\n    function viewMarkded(uint256 id)\n        public\n        view\n        returns (\n            string memory,\n            address,\n            string memory,\n            bool,\n            uint256,\n            string memory,\n            uint256\n        )\n    {\n        if (land[id].isAvailable) {\n            return (\n                land[id].state,\n                land[id].CurrentOwner,\n                land[id].district,\n                land[id].isAvailable,\n                land[id].marketValue,\n                land[id].squareFoots,\n                id\n            );\n        }\n    }\n\n    // show marked Available\n    function viewMarkdedRemainingData(uint256 id)\n        public\n        view\n        returns (string memory, uint256)\n    {\n        if (land[id].isAvailable) {\n            return (land[id].villageTown, land[id].khataNumber);\n        }\n    }\n\n    //processing request for the land by accepting or rejecting\n    function processRequest(uint256 property, reqStatus status) public {\n        require(land[property].CurrentOwner == msg.sender);\n        land[property].requestStatus = status;\n        if (status == reqStatus.reject) {\n            land[property].requester = address(0);\n            land[property].requestStatus = reqStatus.Default;\n        }\n    }\n\n    //buying the approved property\n    function buyProperty(uint256 property) public payable {\n        require(land[property].requestStatus == reqStatus.approved);\n        require(msg.value >= land[property].marketValue);\n        land[property].CurrentOwner.transfer(msg.value);\n        removeOwnership(land[property].CurrentOwner, property);\n        land[property].CurrentOwner = msg.sender;\n        land[property].isAvailable = false;\n        land[property].requester = address(0);\n        land[property].requestStatus = reqStatus.Default;\n        profile[msg.sender].assetList.push(property); //adds the property to the asset list of the new owner.\n    }\n\n    //removing the ownership of seller for the land. and it is called by the buyProperty function\n    function removeOwnership(address previousOwner, uint256 id) private {\n        uint256 index = findId(id, previousOwner);\n        profile[previousOwner].assetList[index] = profile[previousOwner]\n            .assetList[profile[previousOwner].assetList.length - 1];\n        delete profile[previousOwner].assetList[\n            profile[previousOwner].assetList.length - 1\n        ];\n        profile[previousOwner].assetList.length--;\n    }\n\n    //for finding the index of a perticular id\n    function findId(uint256 id, address user) public view returns (uint256) {\n        uint256 i;\n        for (i = 0; i < profile[user].assetList.length; i++) {\n            if (profile[user].assetList[i] == id) return i;\n        }\n        return i;\n    }\n}\n",
  "sourcePath": "/home/zaryab/VSCodeProjects/land-records-blockchain/contracts/Land.sol",
  "compiler": {
    "name": "solc",
    "version": "0.5.16+commit.9c3226ce.Emscripten.clang"
  },
  "schemaVersion": "3.4.1",
  "updatedAt": "2021-08-25T13:35:47.073Z",
  "devdoc": {
    "methods": {}
  },
  "userdoc": {
    "methods": {}
  }
}